{
	"data": {
		"bytecode": {
			"linkReferences": {},
			"object": "6080604052348015600e575f5ffd5b506101d68061001c5f395ff3fe608060405234801561000f575f5ffd5b506004361061004a575f3560e01c80631bee2fc41461004e57806329dcb0cf1461006c57806368fbf3ce1461008a57806399707f9c146100a8575b5f5ffd5b6100566100b2565b60405161006391906100f6565b60405180910390f35b6100746100bc565b6040516100819190610127565b60405180910390f35b6100926100c1565b60405161009f9190610127565b60405180910390f35b6100b06100c8565b005b5f5f544211905090565b5f5481565b5f42905090565b6005426100d5919061016d565b5f81905550565b5f8115159050919050565b6100f0816100dc565b82525050565b5f6020820190506101095f8301846100e7565b92915050565b5f819050919050565b6101218161010f565b82525050565b5f60208201905061013a5f830184610118565b92915050565b7f4e487b71000000000000000000000000000000000000000000000000000000005f52601160045260245ffd5b5f6101778261010f565b91506101828361010f565b925082820190508082111561019a57610199610140565b5b9291505056fea264697066735822122073c73d4682780fb38ba072d39894799f365eeecd3d6c7f51ac99daac7a5f7bdc64736f6c634300081e0033",
			"opcodes": "PUSH1 0x80 PUSH1 0x40 MSTORE CALLVALUE DUP1 ISZERO PUSH1 0xE JUMPI PUSH0 PUSH0 REVERT JUMPDEST POP PUSH2 0x1D6 DUP1 PUSH2 0x1C PUSH0 CODECOPY PUSH0 RETURN INVALID PUSH1 0x80 PUSH1 0x40 MSTORE CALLVALUE DUP1 ISZERO PUSH2 0xF JUMPI PUSH0 PUSH0 REVERT JUMPDEST POP PUSH1 0x4 CALLDATASIZE LT PUSH2 0x4A JUMPI PUSH0 CALLDATALOAD PUSH1 0xE0 SHR DUP1 PUSH4 0x1BEE2FC4 EQ PUSH2 0x4E JUMPI DUP1 PUSH4 0x29DCB0CF EQ PUSH2 0x6C JUMPI DUP1 PUSH4 0x68FBF3CE EQ PUSH2 0x8A JUMPI DUP1 PUSH4 0x99707F9C EQ PUSH2 0xA8 JUMPI JUMPDEST PUSH0 PUSH0 REVERT JUMPDEST PUSH2 0x56 PUSH2 0xB2 JUMP JUMPDEST PUSH1 0x40 MLOAD PUSH2 0x63 SWAP2 SWAP1 PUSH2 0xF6 JUMP JUMPDEST PUSH1 0x40 MLOAD DUP1 SWAP2 SUB SWAP1 RETURN JUMPDEST PUSH2 0x74 PUSH2 0xBC JUMP JUMPDEST PUSH1 0x40 MLOAD PUSH2 0x81 SWAP2 SWAP1 PUSH2 0x127 JUMP JUMPDEST PUSH1 0x40 MLOAD DUP1 SWAP2 SUB SWAP1 RETURN JUMPDEST PUSH2 0x92 PUSH2 0xC1 JUMP JUMPDEST PUSH1 0x40 MLOAD PUSH2 0x9F SWAP2 SWAP1 PUSH2 0x127 JUMP JUMPDEST PUSH1 0x40 MLOAD DUP1 SWAP2 SUB SWAP1 RETURN JUMPDEST PUSH2 0xB0 PUSH2 0xC8 JUMP JUMPDEST STOP JUMPDEST PUSH0 PUSH0 SLOAD TIMESTAMP GT SWAP1 POP SWAP1 JUMP JUMPDEST PUSH0 SLOAD DUP2 JUMP JUMPDEST PUSH0 TIMESTAMP SWAP1 POP SWAP1 JUMP JUMPDEST PUSH1 0x5 TIMESTAMP PUSH2 0xD5 SWAP2 SWAP1 PUSH2 0x16D JUMP JUMPDEST PUSH0 DUP2 SWAP1 SSTORE POP JUMP JUMPDEST PUSH0 DUP2 ISZERO ISZERO SWAP1 POP SWAP2 SWAP1 POP JUMP JUMPDEST PUSH2 0xF0 DUP2 PUSH2 0xDC JUMP JUMPDEST DUP3 MSTORE POP POP JUMP JUMPDEST PUSH0 PUSH1 0x20 DUP3 ADD SWAP1 POP PUSH2 0x109 PUSH0 DUP4 ADD DUP5 PUSH2 0xE7 JUMP JUMPDEST SWAP3 SWAP2 POP POP JUMP JUMPDEST PUSH0 DUP2 SWAP1 POP SWAP2 SWAP1 POP JUMP JUMPDEST PUSH2 0x121 DUP2 PUSH2 0x10F JUMP JUMPDEST DUP3 MSTORE POP POP JUMP JUMPDEST PUSH0 PUSH1 0x20 DUP3 ADD SWAP1 POP PUSH2 0x13A PUSH0 DUP4 ADD DUP5 PUSH2 0x118 JUMP JUMPDEST SWAP3 SWAP2 POP POP JUMP JUMPDEST PUSH32 0x4E487B7100000000000000000000000000000000000000000000000000000000 PUSH0 MSTORE PUSH1 0x11 PUSH1 0x4 MSTORE PUSH1 0x24 PUSH0 REVERT JUMPDEST PUSH0 PUSH2 0x177 DUP3 PUSH2 0x10F JUMP JUMPDEST SWAP2 POP PUSH2 0x182 DUP4 PUSH2 0x10F JUMP JUMPDEST SWAP3 POP DUP3 DUP3 ADD SWAP1 POP DUP1 DUP3 GT ISZERO PUSH2 0x19A JUMPI PUSH2 0x199 PUSH2 0x140 JUMP JUMPDEST JUMPDEST SWAP3 SWAP2 POP POP JUMP INVALID LOG2 PUSH5 0x6970667358 0x22 SLT KECCAK256 PUSH20 0xC73D4682780FB38BA072D39894799F365EEECD3D PUSH13 0x7F51AC99DAAC7A5F7BDC64736F PUSH13 0x634300081E0033000000000000 "
		},
		"gasEstimates": {
			"creation": {
				"codeDepositCost": "94000",
				"executionCost": "139",
				"totalCost": "94139"
			},
			"external": {
				"deadline()": "2424",
				"deadline_check()": "2420",
				"get_time_stamp()": "353",
				"setDeadline()": "infinite"
			}
		},
		"methodIdentifiers": {
			"deadline()": "29dcb0cf",
			"deadline_check()": "1bee2fc4",
			"get_time_stamp()": "68fbf3ce",
			"setDeadline()": "99707f9c"
		}
	},
	"abi": [
		{
			"inputs": [],
			"name": "deadline",
			"outputs": [
				{
					"internalType": "uint256",
					"name": "",
					"type": "uint256"
				}
			],
			"stateMutability": "view",
			"type": "function"
		},
		{
			"inputs": [],
			"name": "deadline_check",
			"outputs": [
				{
					"internalType": "bool",
					"name": "",
					"type": "bool"
				}
			],
			"stateMutability": "view",
			"type": "function"
		},
		{
			"inputs": [],
			"name": "get_time_stamp",
			"outputs": [
				{
					"internalType": "uint256",
					"name": "",
					"type": "uint256"
				}
			],
			"stateMutability": "view",
			"type": "function"
		},
		{
			"inputs": [],
			"name": "setDeadline",
			"outputs": [],
			"stateMutability": "nonpayable",
			"type": "function"
		}
	]
}