{
	"supplychain.sol": {
		"SupplyChainTracker": {
			"abi": [
				{
					"anonymous": false,
					"inputs": [
						{
							"indexed": false,
							"internalType": "uint256",
							"name": "packageId",
							"type": "uint256"
						},
						{
							"indexed": false,
							"internalType": "string",
							"name": "reason",
							"type": "string"
						},
						{
							"indexed": false,
							"internalType": "uint256",
							"name": "timestamp",
							"type": "uint256"
						}
					],
					"name": "PackageCancelled",
					"type": "event"
				},
				{
					"anonymous": false,
					"inputs": [
						{
							"indexed": false,
							"internalType": "uint256",
							"name": "packageId",
							"type": "uint256"
						},
						{
							"indexed": false,
							"internalType": "address",
							"name": "from",
							"type": "address"
						},
						{
							"indexed": false,
							"internalType": "address",
							"name": "to",
							"type": "address"
						},
						{
							"indexed": false,
							"internalType": "uint256",
							"name": "timestamp",
							"type": "uint256"
						},
						{
							"indexed": false,
							"internalType": "enum SupplyChainTracker.Location",
							"name": "newLocation",
							"type": "uint8"
						},
						{
							"indexed": false,
							"internalType": "bool",
							"name": "onTime",
							"type": "bool"
						}
					],
					"name": "PackageTransferred",
					"type": "event"
				},
				{
					"inputs": [],
					"name": "buyer",
					"outputs": [
						{
							"internalType": "address",
							"name": "",
							"type": "address"
						}
					],
					"stateMutability": "view",
					"type": "function"
				},
				{
					"inputs": [
						{
							"internalType": "uint256",
							"name": "_id",
							"type": "uint256"
						}
					],
					"name": "cancelIfLate",
					"outputs": [],
					"stateMutability": "nonpayable",
					"type": "function"
				},
				{
					"inputs": [
						{
							"internalType": "uint256",
							"name": "_id",
							"type": "uint256"
						}
					],
					"name": "checkDeadline",
					"outputs": [
						{
							"internalType": "bool",
							"name": "",
							"type": "bool"
						}
					],
					"stateMutability": "view",
					"type": "function"
				},
				{
					"inputs": [
						{
							"internalType": "uint256",
							"name": "_id",
							"type": "uint256"
						},
						{
							"internalType": "string",
							"name": "_name",
							"type": "string"
						}
					],
					"name": "createPackage",
					"outputs": [],
					"stateMutability": "nonpayable",
					"type": "function"
				},
				{
					"inputs": [
						{
							"internalType": "uint256",
							"name": "_id",
							"type": "uint256"
						}
					],
					"name": "deliverToBuyer",
					"outputs": [],
					"stateMutability": "nonpayable",
					"type": "function"
				},
				{
					"inputs": [],
					"name": "deliveryBoy",
					"outputs": [
						{
							"internalType": "address",
							"name": "",
							"type": "address"
						}
					],
					"stateMutability": "view",
					"type": "function"
				},
				{
					"inputs": [
						{
							"internalType": "uint256",
							"name": "",
							"type": "uint256"
						},
						{
							"internalType": "uint256",
							"name": "",
							"type": "uint256"
						}
					],
					"name": "packageTransfers",
					"outputs": [
						{
							"internalType": "address",
							"name": "from",
							"type": "address"
						},
						{
							"internalType": "address",
							"name": "to",
							"type": "address"
						},
						{
							"internalType": "uint256",
							"name": "timestamp",
							"type": "uint256"
						}
					],
					"stateMutability": "view",
					"type": "function"
				},
				{
					"inputs": [
						{
							"internalType": "uint256",
							"name": "",
							"type": "uint256"
						}
					],
					"name": "packages",
					"outputs": [
						{
							"internalType": "uint256",
							"name": "id",
							"type": "uint256"
						},
						{
							"internalType": "string",
							"name": "name",
							"type": "string"
						},
						{
							"internalType": "address",
							"name": "currentHolder",
							"type": "address"
						},
						{
							"internalType": "enum SupplyChainTracker.Location",
							"name": "location",
							"type": "uint8"
						},
						{
							"internalType": "uint256",
							"name": "deadline",
							"type": "uint256"
						},
						{
							"internalType": "bool",
							"name": "isCancelled",
							"type": "bool"
						}
					],
					"stateMutability": "view",
					"type": "function"
				},
				{
					"inputs": [],
					"name": "registerAsSeller",
					"outputs": [],
					"stateMutability": "nonpayable",
					"type": "function"
				},
				{
					"inputs": [],
					"name": "seller",
					"outputs": [
						{
							"internalType": "address",
							"name": "",
							"type": "address"
						}
					],
					"stateMutability": "view",
					"type": "function"
				},
				{
					"inputs": [
						{
							"internalType": "uint256",
							"name": "_id",
							"type": "uint256"
						}
					],
					"name": "transferToDeliveryBoy",
					"outputs": [],
					"stateMutability": "nonpayable",
					"type": "function"
				},
				{
					"inputs": [
						{
							"internalType": "uint256",
							"name": "_id",
							"type": "uint256"
						}
					],
					"name": "transferToWarehouse",
					"outputs": [],
					"stateMutability": "nonpayable",
					"type": "function"
				},
				{
					"inputs": [
						{
							"internalType": "uint256",
							"name": "_id",
							"type": "uint256"
						}
					],
					"name": "viewCurrentStatus",
					"outputs": [
						{
							"internalType": "address",
							"name": "holder",
							"type": "address"
						},
						{
							"internalType": "enum SupplyChainTracker.Location",
							"name": "location",
							"type": "uint8"
						},
						{
							"internalType": "uint256",
							"name": "deadline",
							"type": "uint256"
						},
						{
							"internalType": "bool",
							"name": "onTime",
							"type": "bool"
						},
						{
							"internalType": "bool",
							"name": "cancelled",
							"type": "bool"
						}
					],
					"stateMutability": "view",
					"type": "function"
				},
				{
					"inputs": [
						{
							"internalType": "uint256",
							"name": "_id",
							"type": "uint256"
						}
					],
					"name": "viewTransactionHistory",
					"outputs": [
						{
							"components": [
								{
									"internalType": "address",
									"name": "from",
									"type": "address"
								},
								{
									"internalType": "address",
									"name": "to",
									"type": "address"
								},
								{
									"internalType": "uint256",
									"name": "timestamp",
									"type": "uint256"
								}
							],
							"internalType": "struct SupplyChainTracker.TransferRecord[]",
							"name": "",
							"type": "tuple[]"
						}
					],
					"stateMutability": "view",
					"type": "function"
				},
				{
					"inputs": [],
					"name": "warehouse",
					"outputs": [
						{
							"internalType": "address",
							"name": "",
							"type": "address"
						}
					],
					"stateMutability": "view",
					"type": "function"
				}
			],
			"devdoc": {
				"kind": "dev",
				"methods": {},
				"version": 1
			},
			"evm": {
				"assembly": "    /* \"supplychain.sol\":60:5659  contract SupplyChainTracker {... */\n  mstore(0x40, 0x80)\n    /* \"supplychain.sol\":147:157  msg.sender */\n  caller\n    /* \"supplychain.sol\":124:157  address public buyer = msg.sender */\n  0x00\n  exp(0x0100, 0x00)\n  dup2\n  sload\n  dup2\n  0xffffffffffffffffffffffffffffffffffffffff\n  mul\n  not\n  and\n  swap1\n  dup4\n  0xffffffffffffffffffffffffffffffffffffffff\n  and\n  mul\n  or\n  swap1\n  sstore\n  pop\n    /* \"supplychain.sol\":188:230  0x3333333333333333333333333333333333333333 */\n  0x3333333333333333333333333333333333333333\n    /* \"supplychain.sol\":164:230  address public seller = 0x3333333333333333333333333333333333333333 */\n  0x01\n  exp(0x0100, 0x00)\n  dup2\n  sload\n  dup2\n  0xffffffffffffffffffffffffffffffffffffffff\n  mul\n  not\n  and\n  swap1\n  dup4\n  0xffffffffffffffffffffffffffffffffffffffff\n  and\n  mul\n  or\n  swap1\n  sstore\n  pop\n    /* \"supplychain.sol\":264:306  0x1111111111111111111111111111111111111111 */\n  0x1111111111111111111111111111111111111111\n    /* \"supplychain.sol\":237:306  address public warehouse = 0x1111111111111111111111111111111111111111 */\n  0x02\n  exp(0x0100, 0x00)\n  dup2\n  sload\n  dup2\n  0xffffffffffffffffffffffffffffffffffffffff\n  mul\n  not\n  and\n  swap1\n  dup4\n  0xffffffffffffffffffffffffffffffffffffffff\n  and\n  mul\n  or\n  swap1\n  sstore\n  pop\n    /* \"supplychain.sol\":342:384  0x2222222222222222222222222222222222222222 */\n  0x2222222222222222222222222222222222222222\n    /* \"supplychain.sol\":313:384  address public deliveryBoy = 0x2222222222222222222222222222222222222222 */\n  0x03\n  exp(0x0100, 0x00)\n  dup2\n  sload\n  dup2\n  0xffffffffffffffffffffffffffffffffffffffff\n  mul\n  not\n  and\n  swap1\n  dup4\n  0xffffffffffffffffffffffffffffffffffffffff\n  and\n  mul\n  or\n  swap1\n  sstore\n  pop\n    /* \"supplychain.sol\":60:5659  contract SupplyChainTracker {... */\n  callvalue\n  dup1\n  iszero\n  tag_1\n  jumpi\n  revert(0x00, 0x00)\ntag_1:\n  pop\n  dataSize(sub_0)\n  dup1\n  dataOffset(sub_0)\n  0x00\n  codecopy\n  0x00\n  return\nstop\n\nsub_0: assembly {\n        /* \"supplychain.sol\":60:5659  contract SupplyChainTracker {... */\n      mstore(0x40, 0x80)\n      callvalue\n      dup1\n      iszero\n      tag_1\n      jumpi\n      revert(0x00, 0x00)\n    tag_1:\n      pop\n      jumpi(tag_2, lt(calldatasize, 0x04))\n      shr(0xe0, calldataload(0x00))\n      dup1\n      0x9b622769\n      gt\n      tag_18\n      jumpi\n      dup1\n      0xc495c8a8\n      gt\n      tag_19\n      jumpi\n      dup1\n      0xc495c8a8\n      eq\n      tag_14\n      jumpi\n      dup1\n      0xcd22243f\n      eq\n      tag_15\n      jumpi\n      dup1\n      0xea453684\n      eq\n      tag_16\n      jumpi\n      dup1\n      0xfcabba1e\n      eq\n      tag_17\n      jumpi\n      jump(tag_2)\n    tag_19:\n      dup1\n      0x9b622769\n      eq\n      tag_10\n      jumpi\n      dup1\n      0xa6990946\n      eq\n      tag_11\n      jumpi\n      dup1\n      0xbf5f3d4a\n      eq\n      tag_12\n      jumpi\n      dup1\n      0xc216212a\n      eq\n      tag_13\n      jumpi\n      jump(tag_2)\n    tag_18:\n      dup1\n      0x4d695f95\n      gt\n      tag_20\n      jumpi\n      dup1\n      0x4d695f95\n      eq\n      tag_6\n      jumpi\n      dup1\n      0x7150d8ae\n      eq\n      tag_7\n      jumpi\n      dup1\n      0x73cf03b6\n      eq\n      tag_8\n      jumpi\n      dup1\n      0x8bab233b\n      eq\n      tag_9\n      jumpi\n      jump(tag_2)\n    tag_20:\n      dup1\n      0x0479fec5\n      eq\n      tag_3\n      jumpi\n      dup1\n      0x08551a53\n      eq\n      tag_4\n      jumpi\n      dup1\n      0x128b8532\n      eq\n      tag_5\n      jumpi\n    tag_2:\n      revert(0x00, 0x00)\n        /* \"supplychain.sol\":985:1042  mapping(uint => TransferRecord[]) public packageTransfers */\n    tag_3:\n      tag_21\n      0x04\n      dup1\n      calldatasize\n      sub\n      dup2\n      add\n      swap1\n      tag_22\n      swap2\n      swap1\n      tag_23\n      jump\t// in\n    tag_22:\n      tag_24\n      jump\t// in\n    tag_21:\n      mload(0x40)\n      tag_25\n      swap4\n      swap3\n      swap2\n      swap1\n      tag_26\n      jump\t// in\n    tag_25:\n      mload(0x40)\n      dup1\n      swap2\n      sub\n      swap1\n      return\n        /* \"supplychain.sol\":164:230  address public seller = 0x3333333333333333333333333333333333333333 */\n    tag_4:\n      tag_27\n      tag_28\n      jump\t// in\n    tag_27:\n      mload(0x40)\n      tag_29\n      swap2\n      swap1\n      tag_30\n      jump\t// in\n    tag_29:\n      mload(0x40)\n      dup1\n      swap2\n      sub\n      swap1\n      return\n        /* \"supplychain.sol\":2081:2150  function registerAsSeller() public {... */\n    tag_5:\n      tag_31\n      tag_32\n      jump\t// in\n    tag_31:\n      stop\n        /* \"supplychain.sol\":3060:3423  function transferToDeliveryBoy(uint _id) public onlyWarehouse notCancelled(_id) {... */\n    tag_6:\n      tag_33\n      0x04\n      dup1\n      calldatasize\n      sub\n      dup2\n      add\n      swap1\n      tag_34\n      swap2\n      swap1\n      tag_35\n      jump\t// in\n    tag_34:\n      tag_36\n      jump\t// in\n    tag_33:\n      stop\n        /* \"supplychain.sol\":124:157  address public buyer = msg.sender */\n    tag_7:\n      tag_37\n      tag_38\n      jump\t// in\n    tag_37:\n      mload(0x40)\n      tag_39\n      swap2\n      swap1\n      tag_30\n      jump\t// in\n    tag_39:\n      mload(0x40)\n      dup1\n      swap2\n      sub\n      swap1\n      return\n        /* \"supplychain.sol\":2195:2632  function createPackage(uint _id, string memory _name) public onlySeller {... */\n    tag_8:\n      tag_40\n      0x04\n      dup1\n      calldatasize\n      sub\n      dup2\n      add\n      swap1\n      tag_41\n      swap2\n      swap1\n      tag_42\n      jump\t// in\n    tag_41:\n      tag_43\n      jump\t// in\n    tag_40:\n      stop\n        /* \"supplychain.sol\":5100:5521  function viewCurrentStatus(uint _id) public view returns (... */\n    tag_9:\n      tag_44\n      0x04\n      dup1\n      calldatasize\n      sub\n      dup2\n      add\n      swap1\n      tag_45\n      swap2\n      swap1\n      tag_35\n      jump\t// in\n    tag_45:\n      tag_46\n      jump\t// in\n    tag_44:\n      mload(0x40)\n      tag_47\n      swap6\n      swap5\n      swap4\n      swap3\n      swap2\n      swap1\n      tag_48\n      jump\t// in\n    tag_47:\n      mload(0x40)\n      dup1\n      swap2\n      sub\n      swap1\n      return\n        /* \"supplychain.sol\":237:306  address public warehouse = 0x1111111111111111111111111111111111111111 */\n    tag_10:\n      tag_49\n      tag_50\n      jump\t// in\n    tag_49:\n      mload(0x40)\n      tag_51\n      swap2\n      swap1\n      tag_30\n      jump\t// in\n    tag_51:\n      mload(0x40)\n      dup1\n      swap2\n      sub\n      swap1\n      return\n        /* \"supplychain.sol\":5529:5656  function checkDeadline(uint _id) public view returns (bool) {... */\n    tag_11:\n      tag_52\n      0x04\n      dup1\n      calldatasize\n      sub\n      dup2\n      add\n      swap1\n      tag_53\n      swap2\n      swap1\n      tag_35\n      jump\t// in\n    tag_53:\n      tag_54\n      jump\t// in\n    tag_52:\n      mload(0x40)\n      tag_55\n      swap2\n      swap1\n      tag_56\n      jump\t// in\n    tag_55:\n      mload(0x40)\n      dup1\n      swap2\n      sub\n      swap1\n      return\n        /* \"supplychain.sol\":4381:4899  function cancelIfLate(uint _id) public {... */\n    tag_12:\n      tag_57\n      0x04\n      dup1\n      calldatasize\n      sub\n      dup2\n      add\n      swap1\n      tag_58\n      swap2\n      swap1\n      tag_35\n      jump\t// in\n    tag_58:\n      tag_59\n      jump\t// in\n    tag_57:\n      stop\n        /* \"supplychain.sol\":938:978  mapping(uint => Package) public packages */\n    tag_13:\n      tag_60\n      0x04\n      dup1\n      calldatasize\n      sub\n      dup2\n      add\n      swap1\n      tag_61\n      swap2\n      swap1\n      tag_35\n      jump\t// in\n    tag_61:\n      tag_62\n      jump\t// in\n    tag_60:\n      mload(0x40)\n      tag_63\n      swap7\n      swap6\n      swap5\n      swap4\n      swap3\n      swap2\n      swap1\n      tag_64\n      jump\t// in\n    tag_63:\n      mload(0x40)\n      dup1\n      swap2\n      sub\n      swap1\n      return\n        /* \"supplychain.sol\":4907:5042  function viewTransactionHistory(uint _id) public view returns (TransferRecord[] memory) {... */\n    tag_14:\n      tag_65\n      0x04\n      dup1\n      calldatasize\n      sub\n      dup2\n      add\n      swap1\n      tag_66\n      swap2\n      swap1\n      tag_35\n      jump\t// in\n    tag_66:\n      tag_67\n      jump\t// in\n    tag_65:\n      mload(0x40)\n      tag_68\n      swap2\n      swap1\n      tag_69\n      jump\t// in\n    tag_68:\n      mload(0x40)\n      dup1\n      swap2\n      sub\n      swap1\n      return\n        /* \"supplychain.sol\":313:384  address public deliveryBoy = 0x2222222222222222222222222222222222222222 */\n    tag_15:\n      tag_70\n      tag_71\n      jump\t// in\n    tag_70:\n      mload(0x40)\n      tag_72\n      swap2\n      swap1\n      tag_30\n      jump\t// in\n    tag_72:\n      mload(0x40)\n      dup1\n      swap2\n      sub\n      swap1\n      return\n        /* \"supplychain.sol\":2706:3052  function transferToWarehouse(uint _id) public onlySeller notCancelled(_id) {... */\n    tag_16:\n      tag_73\n      0x04\n      dup1\n      calldatasize\n      sub\n      dup2\n      add\n      swap1\n      tag_74\n      swap2\n      swap1\n      tag_35\n      jump\t// in\n    tag_74:\n      tag_75\n      jump\t// in\n    tag_73:\n      stop\n        /* \"supplychain.sol\":3431:3786  function deliverToBuyer(uint _id) public onlyDeliveryBoy notCancelled(_id) {... */\n    tag_17:\n      tag_76\n      0x04\n      dup1\n      calldatasize\n      sub\n      dup2\n      add\n      swap1\n      tag_77\n      swap2\n      swap1\n      tag_35\n      jump\t// in\n    tag_77:\n      tag_78\n      jump\t// in\n    tag_76:\n      stop\n        /* \"supplychain.sol\":985:1042  mapping(uint => TransferRecord[]) public packageTransfers */\n    tag_24:\n      mstore(0x20, 0x05)\n      dup2\n      0x00\n      mstore\n      keccak256(0x00, 0x40)\n      dup2\n      dup2\n      sload\n      dup2\n      lt\n      tag_79\n      jumpi\n      0x00\n      dup1\n      revert\n    tag_79:\n      swap1\n      0x00\n      mstore\n      keccak256(0x00, 0x20)\n      swap1\n      0x03\n      mul\n      add\n      0x00\n      swap2\n      pop\n      swap2\n      pop\n      pop\n      dup1\n      0x00\n      add\n      0x00\n      swap1\n      sload\n      swap1\n      0x0100\n      exp\n      swap1\n      div\n      0xffffffffffffffffffffffffffffffffffffffff\n      and\n      swap1\n      dup1\n      0x01\n      add\n      0x00\n      swap1\n      sload\n      swap1\n      0x0100\n      exp\n      swap1\n      div\n      0xffffffffffffffffffffffffffffffffffffffff\n      and\n      swap1\n      dup1\n      0x02\n      add\n      sload\n      swap1\n      pop\n      dup4\n      jump\t// out\n        /* \"supplychain.sol\":164:230  address public seller = 0x3333333333333333333333333333333333333333 */\n    tag_28:\n      0x01\n      0x00\n      swap1\n      sload\n      swap1\n      0x0100\n      exp\n      swap1\n      div\n      0xffffffffffffffffffffffffffffffffffffffff\n      and\n      dup2\n      jump\t// out\n        /* \"supplychain.sol\":2081:2150  function registerAsSeller() public {... */\n    tag_32:\n        /* \"supplychain.sol\":2132:2142  msg.sender */\n      caller\n        /* \"supplychain.sol\":2123:2129  seller */\n      0x01\n      0x00\n        /* \"supplychain.sol\":2123:2142  seller = msg.sender */\n      0x0100\n      exp\n      dup2\n      sload\n      dup2\n      0xffffffffffffffffffffffffffffffffffffffff\n      mul\n      not\n      and\n      swap1\n      dup4\n      0xffffffffffffffffffffffffffffffffffffffff\n      and\n      mul\n      or\n      swap1\n      sstore\n      pop\n        /* \"supplychain.sol\":2081:2150  function registerAsSeller() public {... */\n      jump\t// out\n        /* \"supplychain.sol\":3060:3423  function transferToDeliveryBoy(uint _id) public onlyWarehouse notCancelled(_id) {... */\n    tag_36:\n        /* \"supplychain.sol\":1619:1628  warehouse */\n      0x02\n      0x00\n      swap1\n      sload\n      swap1\n      0x0100\n      exp\n      swap1\n      div\n      0xffffffffffffffffffffffffffffffffffffffff\n      and\n        /* \"supplychain.sol\":1605:1628  msg.sender == warehouse */\n      0xffffffffffffffffffffffffffffffffffffffff\n      and\n        /* \"supplychain.sol\":1605:1615  msg.sender */\n      caller\n        /* \"supplychain.sol\":1605:1628  msg.sender == warehouse */\n      0xffffffffffffffffffffffffffffffffffffffff\n      and\n      eq\n        /* \"supplychain.sol\":1597:1650  require(msg.sender == warehouse, \"Not the warehouse\") */\n      tag_83\n      jumpi\n      mload(0x40)\n      0x08c379a000000000000000000000000000000000000000000000000000000000\n      dup2\n      mstore\n      0x04\n      add\n      tag_84\n      swap1\n      tag_85\n      jump\t// in\n    tag_84:\n      mload(0x40)\n      dup1\n      swap2\n      sub\n      swap1\n      revert\n    tag_83:\n        /* \"supplychain.sol\":3135:3138  _id */\n      dup1\n        /* \"supplychain.sol\":1959:1967  packages */\n      0x04\n        /* \"supplychain.sol\":1959:1972  packages[_id] */\n      0x00\n        /* \"supplychain.sol\":1968:1971  _id */\n      dup3\n        /* \"supplychain.sol\":1959:1972  packages[_id] */\n      dup2\n      mstore\n      0x20\n      add\n      swap1\n      dup2\n      mstore\n      0x20\n      add\n      0x00\n      keccak256\n        /* \"supplychain.sol\":1959:1984  packages[_id].isCancelled */\n      0x04\n      add\n      0x00\n      swap1\n      sload\n      swap1\n      0x0100\n      exp\n      swap1\n      div\n      0xff\n      and\n        /* \"supplychain.sol\":1958:1984  !packages[_id].isCancelled */\n      iszero\n        /* \"supplychain.sol\":1950:2009  require(!packages[_id].isCancelled, \"Package is cancelled\") */\n      tag_87\n      jumpi\n      mload(0x40)\n      0x08c379a000000000000000000000000000000000000000000000000000000000\n      dup2\n      mstore\n      0x04\n      add\n      tag_88\n      swap1\n      tag_89\n      jump\t// in\n    tag_88:\n      mload(0x40)\n      dup1\n      swap2\n      sub\n      swap1\n      revert\n    tag_87:\n        /* \"supplychain.sol\":3151:3168  Package storage p */\n      0x00\n        /* \"supplychain.sol\":3171:3179  packages */\n      0x04\n        /* \"supplychain.sol\":3171:3184  packages[_id] */\n      0x00\n        /* \"supplychain.sol\":3180:3183  _id */\n      dup5\n        /* \"supplychain.sol\":3171:3184  packages[_id] */\n      dup2\n      mstore\n      0x20\n      add\n      swap1\n      dup2\n      mstore\n      0x20\n      add\n      0x00\n      keccak256\n        /* \"supplychain.sol\":3151:3184  Package storage p = packages[_id] */\n      swap1\n      pop\n        /* \"supplychain.sol\":3217:3237  Location.InWarehouse */\n      0x01\n        /* \"supplychain.sol\":3203:3237  p.location == Location.InWarehouse */\n      0x04\n      dup2\n      gt\n      iszero\n      tag_91\n      jumpi\n      tag_92\n      tag_93\n      jump\t// in\n    tag_92:\n    tag_91:\n        /* \"supplychain.sol\":3203:3204  p */\n      dup2\n        /* \"supplychain.sol\":3203:3213  p.location */\n      0x02\n      add\n      0x14\n      swap1\n      sload\n      swap1\n      0x0100\n      exp\n      swap1\n      div\n      0xff\n      and\n        /* \"supplychain.sol\":3203:3237  p.location == Location.InWarehouse */\n      0x04\n      dup2\n      gt\n      iszero\n      tag_94\n      jumpi\n      tag_95\n      tag_93\n      jump\t// in\n    tag_95:\n    tag_94:\n      eq\n        /* \"supplychain.sol\":3195:3266  require(p.location == Location.InWarehouse, \"Package not in warehouse\") */\n      tag_96\n      jumpi\n      mload(0x40)\n      0x08c379a000000000000000000000000000000000000000000000000000000000\n      dup2\n      mstore\n      0x04\n      add\n      tag_97\n      swap1\n      tag_98\n      jump\t// in\n    tag_97:\n      mload(0x40)\n      dup1\n      swap2\n      sub\n      swap1\n      revert\n    tag_96:\n        /* \"supplychain.sol\":3304:3305  p */\n      dup1\n        /* \"supplychain.sol\":3304:3314  p.deadline */\n      0x03\n      add\n      sload\n        /* \"supplychain.sol\":3285:3300  block.timestamp */\n      timestamp\n        /* \"supplychain.sol\":3285:3314  block.timestamp <= p.deadline */\n      gt\n      iszero\n        /* \"supplychain.sol\":3277:3351  require(block.timestamp <= p.deadline, \"Deadline passed. Auto-cancelled.\") */\n      tag_99\n      jumpi\n      mload(0x40)\n      0x08c379a000000000000000000000000000000000000000000000000000000000\n      dup2\n      mstore\n      0x04\n      add\n      tag_100\n      swap1\n      tag_101\n      jump\t// in\n    tag_100:\n      mload(0x40)\n      dup1\n      swap2\n      sub\n      swap1\n      revert\n    tag_99:\n        /* \"supplychain.sol\":3362:3415  _transfer(_id, deliveryBoy, Location.WithDeliveryBoy) */\n      tag_102\n        /* \"supplychain.sol\":3372:3375  _id */\n      dup4\n        /* \"supplychain.sol\":3377:3388  deliveryBoy */\n      0x03\n      0x00\n      swap1\n      sload\n      swap1\n      0x0100\n      exp\n      swap1\n      div\n      0xffffffffffffffffffffffffffffffffffffffff\n      and\n        /* \"supplychain.sol\":3390:3414  Location.WithDeliveryBoy */\n      0x02\n        /* \"supplychain.sol\":3362:3371  _transfer */\n      tag_103\n        /* \"supplychain.sol\":3362:3415  _transfer(_id, deliveryBoy, Location.WithDeliveryBoy) */\n      jump\t// in\n    tag_102:\n        /* \"supplychain.sol\":3140:3423  {... */\n      pop\n        /* \"supplychain.sol\":1661:1662  _ */\n      pop\n        /* \"supplychain.sol\":3060:3423  function transferToDeliveryBoy(uint _id) public onlyWarehouse notCancelled(_id) {... */\n      pop\n      jump\t// out\n        /* \"supplychain.sol\":124:157  address public buyer = msg.sender */\n    tag_38:\n      0x00\n      0x00\n      swap1\n      sload\n      swap1\n      0x0100\n      exp\n      swap1\n      div\n      0xffffffffffffffffffffffffffffffffffffffff\n      and\n      dup2\n      jump\t// out\n        /* \"supplychain.sol\":2195:2632  function createPackage(uint _id, string memory _name) public onlySeller {... */\n    tag_43:\n        /* \"supplychain.sol\":1508:1514  seller */\n      0x01\n      0x00\n      swap1\n      sload\n      swap1\n      0x0100\n      exp\n      swap1\n      div\n      0xffffffffffffffffffffffffffffffffffffffff\n      and\n        /* \"supplychain.sol\":1494:1514  msg.sender == seller */\n      0xffffffffffffffffffffffffffffffffffffffff\n      and\n        /* \"supplychain.sol\":1494:1504  msg.sender */\n      caller\n        /* \"supplychain.sol\":1494:1514  msg.sender == seller */\n      0xffffffffffffffffffffffffffffffffffffffff\n      and\n      eq\n        /* \"supplychain.sol\":1486:1533  require(msg.sender == seller, \"Not the seller\") */\n      tag_105\n      jumpi\n      mload(0x40)\n      0x08c379a000000000000000000000000000000000000000000000000000000000\n      dup2\n      mstore\n      0x04\n      add\n      tag_106\n      swap1\n      tag_107\n      jump\t// in\n    tag_106:\n      mload(0x40)\n      dup1\n      swap2\n      sub\n      swap1\n      revert\n    tag_105:\n        /* \"supplychain.sol\":2306:2307  0 */\n      0x00\n        /* \"supplychain.sol\":2286:2294  packages */\n      0x04\n        /* \"supplychain.sol\":2286:2299  packages[_id] */\n      0x00\n        /* \"supplychain.sol\":2295:2298  _id */\n      dup5\n        /* \"supplychain.sol\":2286:2299  packages[_id] */\n      dup2\n      mstore\n      0x20\n      add\n      swap1\n      dup2\n      mstore\n      0x20\n      add\n      0x00\n      keccak256\n        /* \"supplychain.sol\":2286:2302  packages[_id].id */\n      0x00\n      add\n      sload\n        /* \"supplychain.sol\":2286:2307  packages[_id].id == 0 */\n      eq\n        /* \"supplychain.sol\":2278:2335  require(packages[_id].id == 0, \"Package ID already used\") */\n      tag_109\n      jumpi\n      mload(0x40)\n      0x08c379a000000000000000000000000000000000000000000000000000000000\n      dup2\n      mstore\n      0x04\n      add\n      tag_110\n      swap1\n      tag_111\n      jump\t// in\n    tag_110:\n      mload(0x40)\n      dup1\n      swap2\n      sub\n      swap1\n      revert\n    tag_109:\n        /* \"supplychain.sol\":2346:2359  uint deadline */\n      0x00\n        /* \"supplychain.sol\":2380:2383  120 */\n      0x78\n        /* \"supplychain.sol\":2362:2377  block.timestamp */\n      timestamp\n        /* \"supplychain.sol\":2362:2383  block.timestamp + 120 */\n      tag_112\n      swap2\n      swap1\n      tag_113\n      jump\t// in\n    tag_112:\n        /* \"supplychain.sol\":2346:2383  uint deadline = block.timestamp + 120 */\n      swap1\n      pop\n        /* \"supplychain.sol\":2412:2624  Package({... */\n      mload(0x40)\n      dup1\n      0xc0\n      add\n      0x40\n      mstore\n      dup1\n        /* \"supplychain.sol\":2439:2442  _id */\n      dup5\n        /* \"supplychain.sol\":2412:2624  Package({... */\n      dup2\n      mstore\n      0x20\n      add\n        /* \"supplychain.sol\":2463:2468  _name */\n      dup4\n        /* \"supplychain.sol\":2412:2624  Package({... */\n      dup2\n      mstore\n      0x20\n      add\n        /* \"supplychain.sol\":2498:2504  seller */\n      0x01\n      0x00\n      swap1\n      sload\n      swap1\n      0x0100\n      exp\n      swap1\n      div\n      0xffffffffffffffffffffffffffffffffffffffff\n      and\n        /* \"supplychain.sol\":2412:2624  Package({... */\n      0xffffffffffffffffffffffffffffffffffffffff\n      and\n      dup2\n      mstore\n      0x20\n      add\n        /* \"supplychain.sol\":2529:2546  Location.AtSeller */\n      0x00\n        /* \"supplychain.sol\":2412:2624  Package({... */\n      0x04\n      dup2\n      gt\n      iszero\n      tag_114\n      jumpi\n      tag_115\n      tag_93\n      jump\t// in\n    tag_115:\n    tag_114:\n      dup2\n      mstore\n      0x20\n      add\n        /* \"supplychain.sol\":2571:2579  deadline */\n      dup3\n        /* \"supplychain.sol\":2412:2624  Package({... */\n      dup2\n      mstore\n      0x20\n      add\n        /* \"supplychain.sol\":2607:2612  false */\n      0x00\n        /* \"supplychain.sol\":2412:2624  Package({... */\n      iszero\n      iszero\n      dup2\n      mstore\n      pop\n        /* \"supplychain.sol\":2396:2404  packages */\n      0x04\n        /* \"supplychain.sol\":2396:2409  packages[_id] */\n      0x00\n        /* \"supplychain.sol\":2405:2408  _id */\n      dup6\n        /* \"supplychain.sol\":2396:2409  packages[_id] */\n      dup2\n      mstore\n      0x20\n      add\n      swap1\n      dup2\n      mstore\n      0x20\n      add\n      0x00\n      keccak256\n        /* \"supplychain.sol\":2396:2624  packages[_id] = Package({... */\n      0x00\n      dup3\n      add\n      mload\n      dup2\n      0x00\n      add\n      sstore\n      0x20\n      dup3\n      add\n      mload\n      dup2\n      0x01\n      add\n      swap1\n      dup2\n      tag_116\n      swap2\n      swap1\n      tag_117\n      jump\t// in\n    tag_116:\n      pop\n      0x40\n      dup3\n      add\n      mload\n      dup2\n      0x02\n      add\n      exp(0x0100, 0x00)\n      dup2\n      sload\n      dup2\n      0xffffffffffffffffffffffffffffffffffffffff\n      mul\n      not\n      and\n      swap1\n      dup4\n      0xffffffffffffffffffffffffffffffffffffffff\n      and\n      mul\n      or\n      swap1\n      sstore\n      pop\n      0x60\n      dup3\n      add\n      mload\n      dup2\n      0x02\n      add\n      exp(0x0100, 0x14)\n      dup2\n      sload\n      dup2\n      0xff\n      mul\n      not\n      and\n      swap1\n      dup4\n      0x04\n      dup2\n      gt\n      iszero\n      tag_118\n      jumpi\n      tag_119\n      tag_93\n      jump\t// in\n    tag_119:\n    tag_118:\n      mul\n      or\n      swap1\n      sstore\n      pop\n      0x80\n      dup3\n      add\n      mload\n      dup2\n      0x03\n      add\n      sstore\n      0xa0\n      dup3\n      add\n      mload\n      dup2\n      0x04\n      add\n      exp(0x0100, 0x00)\n      dup2\n      sload\n      dup2\n      0xff\n      mul\n      not\n      and\n      swap1\n      dup4\n      iszero\n      iszero\n      mul\n      or\n      swap1\n      sstore\n      pop\n      swap1\n      pop\n      pop\n        /* \"supplychain.sol\":2267:2632  {... */\n      pop\n        /* \"supplychain.sol\":2195:2632  function createPackage(uint _id, string memory _name) public onlySeller {... */\n      pop\n      pop\n      jump\t// out\n        /* \"supplychain.sol\":5100:5521  function viewCurrentStatus(uint _id) public view returns (... */\n    tag_46:\n        /* \"supplychain.sol\":5168:5182  address holder */\n      0x00\n        /* \"supplychain.sol\":5193:5210  Location location */\n      0x00\n        /* \"supplychain.sol\":5221:5234  uint deadline */\n      0x00\n        /* \"supplychain.sol\":5245:5256  bool onTime */\n      0x00\n        /* \"supplychain.sol\":5267:5281  bool cancelled */\n      0x00\n        /* \"supplychain.sol\":5300:5316  Package memory p */\n      0x00\n        /* \"supplychain.sol\":5319:5327  packages */\n      0x04\n        /* \"supplychain.sol\":5319:5332  packages[_id] */\n      0x00\n        /* \"supplychain.sol\":5328:5331  _id */\n      dup9\n        /* \"supplychain.sol\":5319:5332  packages[_id] */\n      dup2\n      mstore\n      0x20\n      add\n      swap1\n      dup2\n      mstore\n      0x20\n      add\n      0x00\n      keccak256\n        /* \"supplychain.sol\":5300:5332  Package memory p = packages[_id] */\n      mload(0x40)\n      dup1\n      0xc0\n      add\n      0x40\n      mstore\n      swap1\n      dup2\n      0x00\n      dup3\n      add\n      sload\n      dup2\n      mstore\n      0x20\n      add\n      0x01\n      dup3\n      add\n      dup1\n      sload\n      tag_121\n      swap1\n      tag_122\n      jump\t// in\n    tag_121:\n      dup1\n      0x1f\n      add\n      0x20\n      dup1\n      swap2\n      div\n      mul\n      0x20\n      add\n      mload(0x40)\n      swap1\n      dup2\n      add\n      0x40\n      mstore\n      dup1\n      swap3\n      swap2\n      swap1\n      dup2\n      dup2\n      mstore\n      0x20\n      add\n      dup3\n      dup1\n      sload\n      tag_123\n      swap1\n      tag_122\n      jump\t// in\n    tag_123:\n      dup1\n      iszero\n      tag_124\n      jumpi\n      dup1\n      0x1f\n      lt\n      tag_125\n      jumpi\n      0x0100\n      dup1\n      dup4\n      sload\n      div\n      mul\n      dup4\n      mstore\n      swap2\n      0x20\n      add\n      swap2\n      jump(tag_124)\n    tag_125:\n      dup3\n      add\n      swap2\n      swap1\n      0x00\n      mstore\n      keccak256(0x00, 0x20)\n      swap1\n    tag_126:\n      dup2\n      sload\n      dup2\n      mstore\n      swap1\n      0x01\n      add\n      swap1\n      0x20\n      add\n      dup1\n      dup4\n      gt\n      tag_126\n      jumpi\n      dup3\n      swap1\n      sub\n      0x1f\n      and\n      dup3\n      add\n      swap2\n    tag_124:\n      pop\n      pop\n      pop\n      pop\n      pop\n      dup2\n      mstore\n      0x20\n      add\n      0x02\n      dup3\n      add\n      0x00\n      swap1\n      sload\n      swap1\n      0x0100\n      exp\n      swap1\n      div\n      0xffffffffffffffffffffffffffffffffffffffff\n      and\n      0xffffffffffffffffffffffffffffffffffffffff\n      and\n      0xffffffffffffffffffffffffffffffffffffffff\n      and\n      dup2\n      mstore\n      0x20\n      add\n      0x02\n      dup3\n      add\n      0x14\n      swap1\n      sload\n      swap1\n      0x0100\n      exp\n      swap1\n      div\n      0xff\n      and\n      0x04\n      dup2\n      gt\n      iszero\n      tag_127\n      jumpi\n      tag_128\n      tag_93\n      jump\t// in\n    tag_128:\n    tag_127:\n      0x04\n      dup2\n      gt\n      iszero\n      tag_129\n      jumpi\n      tag_130\n      tag_93\n      jump\t// in\n    tag_130:\n    tag_129:\n      dup2\n      mstore\n      0x20\n      add\n      0x03\n      dup3\n      add\n      sload\n      dup2\n      mstore\n      0x20\n      add\n      0x04\n      dup3\n      add\n      0x00\n      swap1\n      sload\n      swap1\n      0x0100\n      exp\n      swap1\n      div\n      0xff\n      and\n      iszero\n      iszero\n      iszero\n      iszero\n      dup2\n      mstore\n      pop\n      pop\n      swap1\n      pop\n        /* \"supplychain.sol\":5365:5366  p */\n      dup1\n        /* \"supplychain.sol\":5365:5380  p.currentHolder */\n      0x40\n      add\n      mload\n        /* \"supplychain.sol\":5395:5396  p */\n      dup2\n        /* \"supplychain.sol\":5395:5405  p.location */\n      0x60\n      add\n      mload\n        /* \"supplychain.sol\":5420:5421  p */\n      dup3\n        /* \"supplychain.sol\":5420:5430  p.deadline */\n      0x80\n      add\n      mload\n        /* \"supplychain.sol\":5464:5465  p */\n      dup4\n        /* \"supplychain.sol\":5464:5474  p.deadline */\n      0x80\n      add\n      mload\n        /* \"supplychain.sol\":5445:5460  block.timestamp */\n      timestamp\n        /* \"supplychain.sol\":5445:5474  block.timestamp <= p.deadline */\n      gt\n      iszero\n        /* \"supplychain.sol\":5489:5490  p */\n      dup5\n        /* \"supplychain.sol\":5489:5502  p.isCancelled */\n      0xa0\n      add\n      mload\n        /* \"supplychain.sol\":5343:5513  return (... */\n      swap6\n      pop\n      swap6\n      pop\n      swap6\n      pop\n      swap6\n      pop\n      swap6\n      pop\n      pop\n        /* \"supplychain.sol\":5100:5521  function viewCurrentStatus(uint _id) public view returns (... */\n      swap2\n      swap4\n      swap6\n      swap1\n      swap3\n      swap5\n      pop\n      jump\t// out\n        /* \"supplychain.sol\":237:306  address public warehouse = 0x1111111111111111111111111111111111111111 */\n    tag_50:\n      0x02\n      0x00\n      swap1\n      sload\n      swap1\n      0x0100\n      exp\n      swap1\n      div\n      0xffffffffffffffffffffffffffffffffffffffff\n      and\n      dup2\n      jump\t// out\n        /* \"supplychain.sol\":5529:5656  function checkDeadline(uint _id) public view returns (bool) {... */\n    tag_54:\n        /* \"supplychain.sol\":5583:5587  bool */\n      0x00\n        /* \"supplychain.sol\":5626:5634  packages */\n      0x04\n        /* \"supplychain.sol\":5626:5639  packages[_id] */\n      0x00\n        /* \"supplychain.sol\":5635:5638  _id */\n      dup4\n        /* \"supplychain.sol\":5626:5639  packages[_id] */\n      dup2\n      mstore\n      0x20\n      add\n      swap1\n      dup2\n      mstore\n      0x20\n      add\n      0x00\n      keccak256\n        /* \"supplychain.sol\":5626:5648  packages[_id].deadline */\n      0x03\n      add\n      sload\n        /* \"supplychain.sol\":5607:5622  block.timestamp */\n      timestamp\n        /* \"supplychain.sol\":5607:5648  block.timestamp <= packages[_id].deadline */\n      gt\n      iszero\n        /* \"supplychain.sol\":5600:5648  return block.timestamp <= packages[_id].deadline */\n      swap1\n      pop\n        /* \"supplychain.sol\":5529:5656  function checkDeadline(uint _id) public view returns (bool) {... */\n      swap2\n      swap1\n      pop\n      jump\t// out\n        /* \"supplychain.sol\":4381:4899  function cancelIfLate(uint _id) public {... */\n    tag_59:\n        /* \"supplychain.sol\":4431:4448  Package storage p */\n      0x00\n        /* \"supplychain.sol\":4451:4459  packages */\n      0x04\n        /* \"supplychain.sol\":4451:4464  packages[_id] */\n      0x00\n        /* \"supplychain.sol\":4460:4463  _id */\n      dup4\n        /* \"supplychain.sol\":4451:4464  packages[_id] */\n      dup2\n      mstore\n      0x20\n      add\n      swap1\n      dup2\n      mstore\n      0x20\n      add\n      0x00\n      keccak256\n        /* \"supplychain.sol\":4431:4464  Package storage p = packages[_id] */\n      swap1\n      pop\n        /* \"supplychain.sol\":4484:4485  p */\n      dup1\n        /* \"supplychain.sol\":4484:4497  p.isCancelled */\n      0x04\n      add\n      0x00\n      swap1\n      sload\n      swap1\n      0x0100\n      exp\n      swap1\n      div\n      0xff\n      and\n        /* \"supplychain.sol\":4483:4497  !p.isCancelled */\n      iszero\n        /* \"supplychain.sol\":4475:4519  require(!p.isCancelled, \"Already cancelled\") */\n      tag_133\n      jumpi\n      mload(0x40)\n      0x08c379a000000000000000000000000000000000000000000000000000000000\n      dup2\n      mstore\n      0x04\n      add\n      tag_134\n      swap1\n      tag_135\n      jump\t// in\n    tag_134:\n      mload(0x40)\n      dup1\n      swap2\n      sub\n      swap1\n      revert\n    tag_133:\n        /* \"supplychain.sol\":4552:4570  Location.Delivered */\n      0x03\n        /* \"supplychain.sol\":4538:4570  p.location != Location.Delivered */\n      0x04\n      dup2\n      gt\n      iszero\n      tag_136\n      jumpi\n      tag_137\n      tag_93\n      jump\t// in\n    tag_137:\n    tag_136:\n        /* \"supplychain.sol\":4538:4539  p */\n      dup2\n        /* \"supplychain.sol\":4538:4548  p.location */\n      0x02\n      add\n      0x14\n      swap1\n      sload\n      swap1\n      0x0100\n      exp\n      swap1\n      div\n      0xff\n      and\n        /* \"supplychain.sol\":4538:4570  p.location != Location.Delivered */\n      0x04\n      dup2\n      gt\n      iszero\n      tag_138\n      jumpi\n      tag_139\n      tag_93\n      jump\t// in\n    tag_139:\n    tag_138:\n      sub\n        /* \"supplychain.sol\":4530:4592  require(p.location != Location.Delivered, \"Already delivered\") */\n      tag_140\n      jumpi\n      mload(0x40)\n      0x08c379a000000000000000000000000000000000000000000000000000000000\n      dup2\n      mstore\n      0x04\n      add\n      tag_141\n      swap1\n      tag_142\n      jump\t// in\n    tag_141:\n      mload(0x40)\n      dup1\n      swap2\n      sub\n      swap1\n      revert\n    tag_140:\n        /* \"supplychain.sol\":4627:4628  p */\n      dup1\n        /* \"supplychain.sol\":4627:4637  p.deadline */\n      0x03\n      add\n      sload\n        /* \"supplychain.sol\":4609:4624  block.timestamp */\n      timestamp\n        /* \"supplychain.sol\":4609:4637  block.timestamp > p.deadline */\n      gt\n        /* \"supplychain.sol\":4605:4892  if (block.timestamp > p.deadline) {... */\n      iszero\n      tag_143\n      jumpi\n        /* \"supplychain.sol\":4670:4674  true */\n      0x01\n        /* \"supplychain.sol\":4654:4655  p */\n      dup2\n        /* \"supplychain.sol\":4654:4667  p.isCancelled */\n      0x04\n      add\n      0x00\n        /* \"supplychain.sol\":4654:4674  p.isCancelled = true */\n      0x0100\n      exp\n      dup2\n      sload\n      dup2\n      0xff\n      mul\n      not\n      and\n      swap1\n      dup4\n      iszero\n      iszero\n      mul\n      or\n      swap1\n      sstore\n      pop\n        /* \"supplychain.sol\":4702:4720  Location.Cancelled */\n      0x04\n        /* \"supplychain.sol\":4689:4690  p */\n      dup2\n        /* \"supplychain.sol\":4689:4699  p.location */\n      0x02\n      add\n      0x14\n        /* \"supplychain.sol\":4689:4720  p.location = Location.Cancelled */\n      0x0100\n      exp\n      dup2\n      sload\n      dup2\n      0xff\n      mul\n      not\n      and\n      swap1\n      dup4\n      0x04\n      dup2\n      gt\n      iszero\n      tag_144\n      jumpi\n      tag_145\n      tag_93\n      jump\t// in\n    tag_145:\n    tag_144:\n      mul\n      or\n      swap1\n      sstore\n      pop\n        /* \"supplychain.sol\":4740:4814  PackageCancelled(_id, \"Deadline missed. Auto-cancelled.\", block.timestamp) */\n      0x868ca8f263f6f33dd8a2c8f5d85b894e3264c52c81e240455f92e37d6a32a0cd\n        /* \"supplychain.sol\":4757:4760  _id */\n      dup3\n        /* \"supplychain.sol\":4798:4813  block.timestamp */\n      timestamp\n        /* \"supplychain.sol\":4740:4814  PackageCancelled(_id, \"Deadline missed. Auto-cancelled.\", block.timestamp) */\n      mload(0x40)\n      tag_146\n      swap3\n      swap2\n      swap1\n      tag_147\n      jump\t// in\n    tag_146:\n      mload(0x40)\n      dup1\n      swap2\n      sub\n      swap1\n      log1\n        /* \"supplychain.sol\":4605:4892  if (block.timestamp > p.deadline) {... */\n      jump(tag_148)\n    tag_143:\n        /* \"supplychain.sol\":4847:4880  revert(\"Deadline not missed yet\") */\n      mload(0x40)\n      0x08c379a000000000000000000000000000000000000000000000000000000000\n      dup2\n      mstore\n      0x04\n      add\n      tag_149\n      swap1\n      tag_150\n      jump\t// in\n    tag_149:\n      mload(0x40)\n      dup1\n      swap2\n      sub\n      swap1\n      revert\n        /* \"supplychain.sol\":4605:4892  if (block.timestamp > p.deadline) {... */\n    tag_148:\n        /* \"supplychain.sol\":4420:4899  {... */\n      pop\n        /* \"supplychain.sol\":4381:4899  function cancelIfLate(uint _id) public {... */\n      pop\n      jump\t// out\n        /* \"supplychain.sol\":938:978  mapping(uint => Package) public packages */\n    tag_62:\n      mstore(0x20, 0x04)\n      dup1\n      0x00\n      mstore\n      keccak256(0x00, 0x40)\n      0x00\n      swap2\n      pop\n      swap1\n      pop\n      dup1\n      0x00\n      add\n      sload\n      swap1\n      dup1\n      0x01\n      add\n      dup1\n      sload\n      tag_151\n      swap1\n      tag_122\n      jump\t// in\n    tag_151:\n      dup1\n      0x1f\n      add\n      0x20\n      dup1\n      swap2\n      div\n      mul\n      0x20\n      add\n      mload(0x40)\n      swap1\n      dup2\n      add\n      0x40\n      mstore\n      dup1\n      swap3\n      swap2\n      swap1\n      dup2\n      dup2\n      mstore\n      0x20\n      add\n      dup3\n      dup1\n      sload\n      tag_152\n      swap1\n      tag_122\n      jump\t// in\n    tag_152:\n      dup1\n      iszero\n      tag_153\n      jumpi\n      dup1\n      0x1f\n      lt\n      tag_154\n      jumpi\n      0x0100\n      dup1\n      dup4\n      sload\n      div\n      mul\n      dup4\n      mstore\n      swap2\n      0x20\n      add\n      swap2\n      jump(tag_153)\n    tag_154:\n      dup3\n      add\n      swap2\n      swap1\n      0x00\n      mstore\n      keccak256(0x00, 0x20)\n      swap1\n    tag_155:\n      dup2\n      sload\n      dup2\n      mstore\n      swap1\n      0x01\n      add\n      swap1\n      0x20\n      add\n      dup1\n      dup4\n      gt\n      tag_155\n      jumpi\n      dup3\n      swap1\n      sub\n      0x1f\n      and\n      dup3\n      add\n      swap2\n    tag_153:\n      pop\n      pop\n      pop\n      pop\n      pop\n      swap1\n      dup1\n      0x02\n      add\n      0x00\n      swap1\n      sload\n      swap1\n      0x0100\n      exp\n      swap1\n      div\n      0xffffffffffffffffffffffffffffffffffffffff\n      and\n      swap1\n      dup1\n      0x02\n      add\n      0x14\n      swap1\n      sload\n      swap1\n      0x0100\n      exp\n      swap1\n      div\n      0xff\n      and\n      swap1\n      dup1\n      0x03\n      add\n      sload\n      swap1\n      dup1\n      0x04\n      add\n      0x00\n      swap1\n      sload\n      swap1\n      0x0100\n      exp\n      swap1\n      div\n      0xff\n      and\n      swap1\n      pop\n      dup7\n      jump\t// out\n        /* \"supplychain.sol\":4907:5042  function viewTransactionHistory(uint _id) public view returns (TransferRecord[] memory) {... */\n    tag_67:\n        /* \"supplychain.sol\":4970:4993  TransferRecord[] memory */\n      0x60\n        /* \"supplychain.sol\":5013:5029  packageTransfers */\n      0x05\n        /* \"supplychain.sol\":5013:5034  packageTransfers[_id] */\n      0x00\n        /* \"supplychain.sol\":5030:5033  _id */\n      dup4\n        /* \"supplychain.sol\":5013:5034  packageTransfers[_id] */\n      dup2\n      mstore\n      0x20\n      add\n      swap1\n      dup2\n      mstore\n      0x20\n      add\n      0x00\n      keccak256\n        /* \"supplychain.sol\":5006:5034  return packageTransfers[_id] */\n      dup1\n      sload\n      dup1\n      0x20\n      mul\n      0x20\n      add\n      mload(0x40)\n      swap1\n      dup2\n      add\n      0x40\n      mstore\n      dup1\n      swap3\n      swap2\n      swap1\n      dup2\n      dup2\n      mstore\n      0x20\n      add\n      0x00\n      swap1\n    tag_157:\n      dup3\n      dup3\n      lt\n      iszero\n      tag_158\n      jumpi\n      dup4\n      dup3\n      swap1\n      0x00\n      mstore\n      keccak256(0x00, 0x20)\n      swap1\n      0x03\n      mul\n      add\n      mload(0x40)\n      dup1\n      0x60\n      add\n      0x40\n      mstore\n      swap1\n      dup2\n      0x00\n      dup3\n      add\n      0x00\n      swap1\n      sload\n      swap1\n      0x0100\n      exp\n      swap1\n      div\n      0xffffffffffffffffffffffffffffffffffffffff\n      and\n      0xffffffffffffffffffffffffffffffffffffffff\n      and\n      0xffffffffffffffffffffffffffffffffffffffff\n      and\n      dup2\n      mstore\n      0x20\n      add\n      0x01\n      dup3\n      add\n      0x00\n      swap1\n      sload\n      swap1\n      0x0100\n      exp\n      swap1\n      div\n      0xffffffffffffffffffffffffffffffffffffffff\n      and\n      0xffffffffffffffffffffffffffffffffffffffff\n      and\n      0xffffffffffffffffffffffffffffffffffffffff\n      and\n      dup2\n      mstore\n      0x20\n      add\n      0x02\n      dup3\n      add\n      sload\n      dup2\n      mstore\n      pop\n      pop\n      dup2\n      mstore\n      0x20\n      add\n      swap1\n      0x01\n      add\n      swap1\n      jump(tag_157)\n    tag_158:\n      pop\n      pop\n      pop\n      pop\n      swap1\n      pop\n        /* \"supplychain.sol\":4907:5042  function viewTransactionHistory(uint _id) public view returns (TransferRecord[] memory) {... */\n      swap2\n      swap1\n      pop\n      jump\t// out\n        /* \"supplychain.sol\":313:384  address public deliveryBoy = 0x2222222222222222222222222222222222222222 */\n    tag_71:\n      0x03\n      0x00\n      swap1\n      sload\n      swap1\n      0x0100\n      exp\n      swap1\n      div\n      0xffffffffffffffffffffffffffffffffffffffff\n      and\n      dup2\n      jump\t// out\n        /* \"supplychain.sol\":2706:3052  function transferToWarehouse(uint _id) public onlySeller notCancelled(_id) {... */\n    tag_75:\n        /* \"supplychain.sol\":1508:1514  seller */\n      0x01\n      0x00\n      swap1\n      sload\n      swap1\n      0x0100\n      exp\n      swap1\n      div\n      0xffffffffffffffffffffffffffffffffffffffff\n      and\n        /* \"supplychain.sol\":1494:1514  msg.sender == seller */\n      0xffffffffffffffffffffffffffffffffffffffff\n      and\n        /* \"supplychain.sol\":1494:1504  msg.sender */\n      caller\n        /* \"supplychain.sol\":1494:1514  msg.sender == seller */\n      0xffffffffffffffffffffffffffffffffffffffff\n      and\n      eq\n        /* \"supplychain.sol\":1486:1533  require(msg.sender == seller, \"Not the seller\") */\n      tag_161\n      jumpi\n      mload(0x40)\n      0x08c379a000000000000000000000000000000000000000000000000000000000\n      dup2\n      mstore\n      0x04\n      add\n      tag_162\n      swap1\n      tag_107\n      jump\t// in\n    tag_162:\n      mload(0x40)\n      dup1\n      swap2\n      sub\n      swap1\n      revert\n    tag_161:\n        /* \"supplychain.sol\":2776:2779  _id */\n      dup1\n        /* \"supplychain.sol\":1959:1967  packages */\n      0x04\n        /* \"supplychain.sol\":1959:1972  packages[_id] */\n      0x00\n        /* \"supplychain.sol\":1968:1971  _id */\n      dup3\n        /* \"supplychain.sol\":1959:1972  packages[_id] */\n      dup2\n      mstore\n      0x20\n      add\n      swap1\n      dup2\n      mstore\n      0x20\n      add\n      0x00\n      keccak256\n        /* \"supplychain.sol\":1959:1984  packages[_id].isCancelled */\n      0x04\n      add\n      0x00\n      swap1\n      sload\n      swap1\n      0x0100\n      exp\n      swap1\n      div\n      0xff\n      and\n        /* \"supplychain.sol\":1958:1984  !packages[_id].isCancelled */\n      iszero\n        /* \"supplychain.sol\":1950:2009  require(!packages[_id].isCancelled, \"Package is cancelled\") */\n      tag_164\n      jumpi\n      mload(0x40)\n      0x08c379a000000000000000000000000000000000000000000000000000000000\n      dup2\n      mstore\n      0x04\n      add\n      tag_165\n      swap1\n      tag_89\n      jump\t// in\n    tag_165:\n      mload(0x40)\n      dup1\n      swap2\n      sub\n      swap1\n      revert\n    tag_164:\n        /* \"supplychain.sol\":2792:2809  Package storage p */\n      0x00\n        /* \"supplychain.sol\":2812:2820  packages */\n      0x04\n        /* \"supplychain.sol\":2812:2825  packages[_id] */\n      0x00\n        /* \"supplychain.sol\":2821:2824  _id */\n      dup5\n        /* \"supplychain.sol\":2812:2825  packages[_id] */\n      dup2\n      mstore\n      0x20\n      add\n      swap1\n      dup2\n      mstore\n      0x20\n      add\n      0x00\n      keccak256\n        /* \"supplychain.sol\":2792:2825  Package storage p = packages[_id] */\n      swap1\n      pop\n        /* \"supplychain.sol\":2858:2875  Location.AtSeller */\n      0x00\n        /* \"supplychain.sol\":2844:2875  p.location == Location.AtSeller */\n      0x04\n      dup2\n      gt\n      iszero\n      tag_167\n      jumpi\n      tag_168\n      tag_93\n      jump\t// in\n    tag_168:\n    tag_167:\n        /* \"supplychain.sol\":2844:2845  p */\n      dup2\n        /* \"supplychain.sol\":2844:2854  p.location */\n      0x02\n      add\n      0x14\n      swap1\n      sload\n      swap1\n      0x0100\n      exp\n      swap1\n      div\n      0xff\n      and\n        /* \"supplychain.sol\":2844:2875  p.location == Location.AtSeller */\n      0x04\n      dup2\n      gt\n      iszero\n      tag_169\n      jumpi\n      tag_170\n      tag_93\n      jump\t// in\n    tag_170:\n    tag_169:\n      eq\n        /* \"supplychain.sol\":2836:2901  require(p.location == Location.AtSeller, \"Package not at seller\") */\n      tag_171\n      jumpi\n      mload(0x40)\n      0x08c379a000000000000000000000000000000000000000000000000000000000\n      dup2\n      mstore\n      0x04\n      add\n      tag_172\n      swap1\n      tag_173\n      jump\t// in\n    tag_172:\n      mload(0x40)\n      dup1\n      swap2\n      sub\n      swap1\n      revert\n    tag_171:\n        /* \"supplychain.sol\":2939:2940  p */\n      dup1\n        /* \"supplychain.sol\":2939:2949  p.deadline */\n      0x03\n      add\n      sload\n        /* \"supplychain.sol\":2920:2935  block.timestamp */\n      timestamp\n        /* \"supplychain.sol\":2920:2949  block.timestamp <= p.deadline */\n      gt\n      iszero\n        /* \"supplychain.sol\":2912:2986  require(block.timestamp <= p.deadline, \"Deadline passed. Auto-cancelled.\") */\n      tag_174\n      jumpi\n      mload(0x40)\n      0x08c379a000000000000000000000000000000000000000000000000000000000\n      dup2\n      mstore\n      0x04\n      add\n      tag_175\n      swap1\n      tag_101\n      jump\t// in\n    tag_175:\n      mload(0x40)\n      dup1\n      swap2\n      sub\n      swap1\n      revert\n    tag_174:\n        /* \"supplychain.sol\":2997:3044  _transfer(_id, warehouse, Location.InWarehouse) */\n      tag_176\n        /* \"supplychain.sol\":3007:3010  _id */\n      dup4\n        /* \"supplychain.sol\":3012:3021  warehouse */\n      0x02\n      0x00\n      swap1\n      sload\n      swap1\n      0x0100\n      exp\n      swap1\n      div\n      0xffffffffffffffffffffffffffffffffffffffff\n      and\n        /* \"supplychain.sol\":3023:3043  Location.InWarehouse */\n      0x01\n        /* \"supplychain.sol\":2997:3006  _transfer */\n      tag_103\n        /* \"supplychain.sol\":2997:3044  _transfer(_id, warehouse, Location.InWarehouse) */\n      jump\t// in\n    tag_176:\n        /* \"supplychain.sol\":2781:3052  {... */\n      pop\n        /* \"supplychain.sol\":1544:1545  _ */\n      pop\n        /* \"supplychain.sol\":2706:3052  function transferToWarehouse(uint _id) public onlySeller notCancelled(_id) {... */\n      pop\n      jump\t// out\n        /* \"supplychain.sol\":3431:3786  function deliverToBuyer(uint _id) public onlyDeliveryBoy notCancelled(_id) {... */\n    tag_78:\n        /* \"supplychain.sol\":1738:1749  deliveryBoy */\n      0x03\n      0x00\n      swap1\n      sload\n      swap1\n      0x0100\n      exp\n      swap1\n      div\n      0xffffffffffffffffffffffffffffffffffffffff\n      and\n        /* \"supplychain.sol\":1724:1749  msg.sender == deliveryBoy */\n      0xffffffffffffffffffffffffffffffffffffffff\n      and\n        /* \"supplychain.sol\":1724:1734  msg.sender */\n      caller\n        /* \"supplychain.sol\":1724:1749  msg.sender == deliveryBoy */\n      0xffffffffffffffffffffffffffffffffffffffff\n      and\n      eq\n        /* \"supplychain.sol\":1716:1774  require(msg.sender == deliveryBoy, \"Not the delivery boy\") */\n      tag_178\n      jumpi\n      mload(0x40)\n      0x08c379a000000000000000000000000000000000000000000000000000000000\n      dup2\n      mstore\n      0x04\n      add\n      tag_179\n      swap1\n      tag_180\n      jump\t// in\n    tag_179:\n      mload(0x40)\n      dup1\n      swap2\n      sub\n      swap1\n      revert\n    tag_178:\n        /* \"supplychain.sol\":3501:3504  _id */\n      dup1\n        /* \"supplychain.sol\":1959:1967  packages */\n      0x04\n        /* \"supplychain.sol\":1959:1972  packages[_id] */\n      0x00\n        /* \"supplychain.sol\":1968:1971  _id */\n      dup3\n        /* \"supplychain.sol\":1959:1972  packages[_id] */\n      dup2\n      mstore\n      0x20\n      add\n      swap1\n      dup2\n      mstore\n      0x20\n      add\n      0x00\n      keccak256\n        /* \"supplychain.sol\":1959:1984  packages[_id].isCancelled */\n      0x04\n      add\n      0x00\n      swap1\n      sload\n      swap1\n      0x0100\n      exp\n      swap1\n      div\n      0xff\n      and\n        /* \"supplychain.sol\":1958:1984  !packages[_id].isCancelled */\n      iszero\n        /* \"supplychain.sol\":1950:2009  require(!packages[_id].isCancelled, \"Package is cancelled\") */\n      tag_182\n      jumpi\n      mload(0x40)\n      0x08c379a000000000000000000000000000000000000000000000000000000000\n      dup2\n      mstore\n      0x04\n      add\n      tag_183\n      swap1\n      tag_89\n      jump\t// in\n    tag_183:\n      mload(0x40)\n      dup1\n      swap2\n      sub\n      swap1\n      revert\n    tag_182:\n        /* \"supplychain.sol\":3517:3534  Package storage p */\n      0x00\n        /* \"supplychain.sol\":3537:3545  packages */\n      0x04\n        /* \"supplychain.sol\":3537:3550  packages[_id] */\n      0x00\n        /* \"supplychain.sol\":3546:3549  _id */\n      dup5\n        /* \"supplychain.sol\":3537:3550  packages[_id] */\n      dup2\n      mstore\n      0x20\n      add\n      swap1\n      dup2\n      mstore\n      0x20\n      add\n      0x00\n      keccak256\n        /* \"supplychain.sol\":3517:3550  Package storage p = packages[_id] */\n      swap1\n      pop\n        /* \"supplychain.sol\":3583:3607  Location.WithDeliveryBoy */\n      0x02\n        /* \"supplychain.sol\":3569:3607  p.location == Location.WithDeliveryBoy */\n      0x04\n      dup2\n      gt\n      iszero\n      tag_185\n      jumpi\n      tag_186\n      tag_93\n      jump\t// in\n    tag_186:\n    tag_185:\n        /* \"supplychain.sol\":3569:3570  p */\n      dup2\n        /* \"supplychain.sol\":3569:3579  p.location */\n      0x02\n      add\n      0x14\n      swap1\n      sload\n      swap1\n      0x0100\n      exp\n      swap1\n      div\n      0xff\n      and\n        /* \"supplychain.sol\":3569:3607  p.location == Location.WithDeliveryBoy */\n      0x04\n      dup2\n      gt\n      iszero\n      tag_187\n      jumpi\n      tag_188\n      tag_93\n      jump\t// in\n    tag_188:\n    tag_187:\n      eq\n        /* \"supplychain.sol\":3561:3641  require(p.location == Location.WithDeliveryBoy, \"Package not with delivery boy\") */\n      tag_189\n      jumpi\n      mload(0x40)\n      0x08c379a000000000000000000000000000000000000000000000000000000000\n      dup2\n      mstore\n      0x04\n      add\n      tag_190\n      swap1\n      tag_191\n      jump\t// in\n    tag_190:\n      mload(0x40)\n      dup1\n      swap2\n      sub\n      swap1\n      revert\n    tag_189:\n        /* \"supplychain.sol\":3679:3680  p */\n      dup1\n        /* \"supplychain.sol\":3679:3689  p.deadline */\n      0x03\n      add\n      sload\n        /* \"supplychain.sol\":3660:3675  block.timestamp */\n      timestamp\n        /* \"supplychain.sol\":3660:3689  block.timestamp <= p.deadline */\n      gt\n      iszero\n        /* \"supplychain.sol\":3652:3726  require(block.timestamp <= p.deadline, \"Deadline passed. Auto-cancelled.\") */\n      tag_192\n      jumpi\n      mload(0x40)\n      0x08c379a000000000000000000000000000000000000000000000000000000000\n      dup2\n      mstore\n      0x04\n      add\n      tag_193\n      swap1\n      tag_101\n      jump\t// in\n    tag_193:\n      mload(0x40)\n      dup1\n      swap2\n      sub\n      swap1\n      revert\n    tag_192:\n        /* \"supplychain.sol\":3737:3778  _transfer(_id, buyer, Location.Delivered) */\n      tag_194\n        /* \"supplychain.sol\":3747:3750  _id */\n      dup4\n        /* \"supplychain.sol\":3752:3757  buyer */\n      0x00\n      0x00\n      swap1\n      sload\n      swap1\n      0x0100\n      exp\n      swap1\n      div\n      0xffffffffffffffffffffffffffffffffffffffff\n      and\n        /* \"supplychain.sol\":3759:3777  Location.Delivered */\n      0x03\n        /* \"supplychain.sol\":3737:3746  _transfer */\n      tag_103\n        /* \"supplychain.sol\":3737:3778  _transfer(_id, buyer, Location.Delivered) */\n      jump\t// in\n    tag_194:\n        /* \"supplychain.sol\":3506:3786  {... */\n      pop\n        /* \"supplychain.sol\":1785:1786  _ */\n      pop\n        /* \"supplychain.sol\":3431:3786  function deliverToBuyer(uint _id) public onlyDeliveryBoy notCancelled(_id) {... */\n      pop\n      jump\t// out\n        /* \"supplychain.sol\":3830:4373  function _transfer(uint _id, address _to, Location _newLocation) internal {... */\n    tag_103:\n        /* \"supplychain.sol\":3915:3932  Package storage p */\n      0x00\n        /* \"supplychain.sol\":3935:3943  packages */\n      0x04\n        /* \"supplychain.sol\":3935:3948  packages[_id] */\n      0x00\n        /* \"supplychain.sol\":3944:3947  _id */\n      dup6\n        /* \"supplychain.sol\":3935:3948  packages[_id] */\n      dup2\n      mstore\n      0x20\n      add\n      swap1\n      dup2\n      mstore\n      0x20\n      add\n      0x00\n      keccak256\n        /* \"supplychain.sol\":3915:3948  Package storage p = packages[_id] */\n      swap1\n      pop\n        /* \"supplychain.sol\":3959:3972  address _from */\n      0x00\n        /* \"supplychain.sol\":3975:3976  p */\n      dup2\n        /* \"supplychain.sol\":3975:3990  p.currentHolder */\n      0x02\n      add\n      0x00\n      swap1\n      sload\n      swap1\n      0x0100\n      exp\n      swap1\n      div\n      0xffffffffffffffffffffffffffffffffffffffff\n      and\n        /* \"supplychain.sol\":3959:3990  address _from = p.currentHolder */\n      swap1\n      pop\n        /* \"supplychain.sol\":4021:4024  _to */\n      dup4\n        /* \"supplychain.sol\":4003:4004  p */\n      dup3\n        /* \"supplychain.sol\":4003:4018  p.currentHolder */\n      0x02\n      add\n      0x00\n        /* \"supplychain.sol\":4003:4024  p.currentHolder = _to */\n      0x0100\n      exp\n      dup2\n      sload\n      dup2\n      0xffffffffffffffffffffffffffffffffffffffff\n      mul\n      not\n      and\n      swap1\n      dup4\n      0xffffffffffffffffffffffffffffffffffffffff\n      and\n      mul\n      or\n      swap1\n      sstore\n      pop\n        /* \"supplychain.sol\":4048:4060  _newLocation */\n      dup3\n        /* \"supplychain.sol\":4035:4036  p */\n      dup3\n        /* \"supplychain.sol\":4035:4045  p.location */\n      0x02\n      add\n      0x14\n        /* \"supplychain.sol\":4035:4060  p.location = _newLocation */\n      0x0100\n      exp\n      dup2\n      sload\n      dup2\n      0xff\n      mul\n      not\n      and\n      swap1\n      dup4\n      0x04\n      dup2\n      gt\n      iszero\n      tag_196\n      jumpi\n      tag_197\n      tag_93\n      jump\t// in\n    tag_197:\n    tag_196:\n      mul\n      or\n      swap1\n      sstore\n      pop\n        /* \"supplychain.sol\":4073:4084  bool onTime */\n      0x00\n        /* \"supplychain.sol\":4106:4107  p */\n      dup3\n        /* \"supplychain.sol\":4106:4116  p.deadline */\n      0x03\n      add\n      sload\n        /* \"supplychain.sol\":4087:4102  block.timestamp */\n      timestamp\n        /* \"supplychain.sol\":4087:4116  block.timestamp <= p.deadline */\n      gt\n      iszero\n        /* \"supplychain.sol\":4073:4116  bool onTime = block.timestamp <= p.deadline */\n      swap1\n      pop\n        /* \"supplychain.sol\":4129:4145  packageTransfers */\n      0x05\n        /* \"supplychain.sol\":4129:4150  packageTransfers[_id] */\n      0x00\n        /* \"supplychain.sol\":4146:4149  _id */\n      dup8\n        /* \"supplychain.sol\":4129:4150  packageTransfers[_id] */\n      dup2\n      mstore\n      0x20\n      add\n      swap1\n      dup2\n      mstore\n      0x20\n      add\n      0x00\n      keccak256\n        /* \"supplychain.sol\":4156:4272  TransferRecord({... */\n      mload(0x40)\n      dup1\n      0x60\n      add\n      0x40\n      mstore\n      dup1\n        /* \"supplychain.sol\":4192:4197  _from */\n      dup5\n        /* \"supplychain.sol\":4156:4272  TransferRecord({... */\n      0xffffffffffffffffffffffffffffffffffffffff\n      and\n      dup2\n      mstore\n      0x20\n      add\n        /* \"supplychain.sol\":4216:4219  _to */\n      dup8\n        /* \"supplychain.sol\":4156:4272  TransferRecord({... */\n      0xffffffffffffffffffffffffffffffffffffffff\n      and\n      dup2\n      mstore\n      0x20\n      add\n        /* \"supplychain.sol\":4245:4260  block.timestamp */\n      timestamp\n        /* \"supplychain.sol\":4156:4272  TransferRecord({... */\n      dup2\n      mstore\n      pop\n        /* \"supplychain.sol\":4129:4273  packageTransfers[_id].push(TransferRecord({... */\n      swap1\n      dup1\n      0x01\n      dup2\n      sload\n      add\n      dup1\n      dup3\n      sstore\n      dup1\n      swap2\n      pop\n      pop\n      0x01\n      swap1\n      sub\n      swap1\n      0x00\n      mstore\n      keccak256(0x00, 0x20)\n      swap1\n      0x03\n      mul\n      add\n      0x00\n      swap1\n      swap2\n      swap1\n      swap2\n      swap1\n      swap2\n      pop\n      0x00\n      dup3\n      add\n      mload\n      dup2\n      0x00\n      add\n      exp(0x0100, 0x00)\n      dup2\n      sload\n      dup2\n      0xffffffffffffffffffffffffffffffffffffffff\n      mul\n      not\n      and\n      swap1\n      dup4\n      0xffffffffffffffffffffffffffffffffffffffff\n      and\n      mul\n      or\n      swap1\n      sstore\n      pop\n      0x20\n      dup3\n      add\n      mload\n      dup2\n      0x01\n      add\n      exp(0x0100, 0x00)\n      dup2\n      sload\n      dup2\n      0xffffffffffffffffffffffffffffffffffffffff\n      mul\n      not\n      and\n      swap1\n      dup4\n      0xffffffffffffffffffffffffffffffffffffffff\n      and\n      mul\n      or\n      swap1\n      sstore\n      pop\n      0x40\n      dup3\n      add\n      mload\n      dup2\n      0x02\n      add\n      sstore\n      pop\n      pop\n        /* \"supplychain.sol\":4291:4365  PackageTransferred(_id, _from, _to, block.timestamp, _newLocation, onTime) */\n      0x3df940cbc17c560183c25f0b89dbd833625fc2a29dc1cfb3cd5f93d9d8530308\n        /* \"supplychain.sol\":4310:4313  _id */\n      dup7\n        /* \"supplychain.sol\":4315:4320  _from */\n      dup4\n        /* \"supplychain.sol\":4322:4325  _to */\n      dup8\n        /* \"supplychain.sol\":4327:4342  block.timestamp */\n      timestamp\n        /* \"supplychain.sol\":4344:4356  _newLocation */\n      dup9\n        /* \"supplychain.sol\":4358:4364  onTime */\n      dup7\n        /* \"supplychain.sol\":4291:4365  PackageTransferred(_id, _from, _to, block.timestamp, _newLocation, onTime) */\n      mload(0x40)\n      tag_199\n      swap7\n      swap6\n      swap5\n      swap4\n      swap3\n      swap2\n      swap1\n      tag_200\n      jump\t// in\n    tag_199:\n      mload(0x40)\n      dup1\n      swap2\n      sub\n      swap1\n      log1\n        /* \"supplychain.sol\":3904:4373  {... */\n      pop\n      pop\n      pop\n        /* \"supplychain.sol\":3830:4373  function _transfer(uint _id, address _to, Location _newLocation) internal {... */\n      pop\n      pop\n      pop\n      jump\t// out\n        /* \"#utility.yul\":7:82   */\n    tag_201:\n        /* \"#utility.yul\":40:46   */\n      0x00\n        /* \"#utility.yul\":73:75   */\n      0x40\n        /* \"#utility.yul\":67:76   */\n      mload\n        /* \"#utility.yul\":57:76   */\n      swap1\n      pop\n        /* \"#utility.yul\":7:82   */\n      swap1\n      jump\t// out\n        /* \"#utility.yul\":88:205   */\n    tag_202:\n        /* \"#utility.yul\":197:198   */\n      0x00\n        /* \"#utility.yul\":194:195   */\n      0x00\n        /* \"#utility.yul\":187:199   */\n      revert\n        /* \"#utility.yul\":211:328   */\n    tag_203:\n        /* \"#utility.yul\":320:321   */\n      0x00\n        /* \"#utility.yul\":317:318   */\n      0x00\n        /* \"#utility.yul\":310:322   */\n      revert\n        /* \"#utility.yul\":334:411   */\n    tag_204:\n        /* \"#utility.yul\":371:378   */\n      0x00\n        /* \"#utility.yul\":400:405   */\n      dup2\n        /* \"#utility.yul\":389:405   */\n      swap1\n      pop\n        /* \"#utility.yul\":334:411   */\n      swap2\n      swap1\n      pop\n      jump\t// out\n        /* \"#utility.yul\":417:539   */\n    tag_205:\n        /* \"#utility.yul\":490:514   */\n      tag_289\n        /* \"#utility.yul\":508:513   */\n      dup2\n        /* \"#utility.yul\":490:514   */\n      tag_204\n      jump\t// in\n    tag_289:\n        /* \"#utility.yul\":483:488   */\n      dup2\n        /* \"#utility.yul\":480:515   */\n      eq\n        /* \"#utility.yul\":470:533   */\n      tag_290\n      jumpi\n        /* \"#utility.yul\":529:530   */\n      0x00\n        /* \"#utility.yul\":526:527   */\n      0x00\n        /* \"#utility.yul\":519:531   */\n      revert\n        /* \"#utility.yul\":470:533   */\n    tag_290:\n        /* \"#utility.yul\":417:539   */\n      pop\n      jump\t// out\n        /* \"#utility.yul\":545:684   */\n    tag_206:\n        /* \"#utility.yul\":591:596   */\n      0x00\n        /* \"#utility.yul\":629:635   */\n      dup2\n        /* \"#utility.yul\":616:636   */\n      calldataload\n        /* \"#utility.yul\":607:636   */\n      swap1\n      pop\n        /* \"#utility.yul\":645:678   */\n      tag_292\n        /* \"#utility.yul\":672:677   */\n      dup2\n        /* \"#utility.yul\":645:678   */\n      tag_205\n      jump\t// in\n    tag_292:\n        /* \"#utility.yul\":545:684   */\n      swap3\n      swap2\n      pop\n      pop\n      jump\t// out\n        /* \"#utility.yul\":690:1164   */\n    tag_23:\n        /* \"#utility.yul\":758:764   */\n      0x00\n        /* \"#utility.yul\":766:772   */\n      0x00\n        /* \"#utility.yul\":815:817   */\n      0x40\n        /* \"#utility.yul\":803:812   */\n      dup4\n        /* \"#utility.yul\":794:801   */\n      dup6\n        /* \"#utility.yul\":790:813   */\n      sub\n        /* \"#utility.yul\":786:818   */\n      slt\n        /* \"#utility.yul\":783:902   */\n      iszero\n      tag_294\n      jumpi\n        /* \"#utility.yul\":821:900   */\n      tag_295\n      tag_202\n      jump\t// in\n    tag_295:\n        /* \"#utility.yul\":783:902   */\n    tag_294:\n        /* \"#utility.yul\":941:942   */\n      0x00\n        /* \"#utility.yul\":966:1019   */\n      tag_296\n        /* \"#utility.yul\":1011:1018   */\n      dup6\n        /* \"#utility.yul\":1002:1008   */\n      dup3\n        /* \"#utility.yul\":991:1000   */\n      dup7\n        /* \"#utility.yul\":987:1009   */\n      add\n        /* \"#utility.yul\":966:1019   */\n      tag_206\n      jump\t// in\n    tag_296:\n        /* \"#utility.yul\":956:1019   */\n      swap3\n      pop\n        /* \"#utility.yul\":912:1029   */\n      pop\n        /* \"#utility.yul\":1068:1070   */\n      0x20\n        /* \"#utility.yul\":1094:1147   */\n      tag_297\n        /* \"#utility.yul\":1139:1146   */\n      dup6\n        /* \"#utility.yul\":1130:1136   */\n      dup3\n        /* \"#utility.yul\":1119:1128   */\n      dup7\n        /* \"#utility.yul\":1115:1137   */\n      add\n        /* \"#utility.yul\":1094:1147   */\n      tag_206\n      jump\t// in\n    tag_297:\n        /* \"#utility.yul\":1084:1147   */\n      swap2\n      pop\n        /* \"#utility.yul\":1039:1157   */\n      pop\n        /* \"#utility.yul\":690:1164   */\n      swap3\n      pop\n      swap3\n      swap1\n      pop\n      jump\t// out\n        /* \"#utility.yul\":1170:1296   */\n    tag_207:\n        /* \"#utility.yul\":1207:1214   */\n      0x00\n        /* \"#utility.yul\":1247:1289   */\n      0xffffffffffffffffffffffffffffffffffffffff\n        /* \"#utility.yul\":1240:1245   */\n      dup3\n        /* \"#utility.yul\":1236:1290   */\n      and\n        /* \"#utility.yul\":1225:1290   */\n      swap1\n      pop\n        /* \"#utility.yul\":1170:1296   */\n      swap2\n      swap1\n      pop\n      jump\t// out\n        /* \"#utility.yul\":1302:1398   */\n    tag_208:\n        /* \"#utility.yul\":1339:1346   */\n      0x00\n        /* \"#utility.yul\":1368:1392   */\n      tag_300\n        /* \"#utility.yul\":1386:1391   */\n      dup3\n        /* \"#utility.yul\":1368:1392   */\n      tag_207\n      jump\t// in\n    tag_300:\n        /* \"#utility.yul\":1357:1392   */\n      swap1\n      pop\n        /* \"#utility.yul\":1302:1398   */\n      swap2\n      swap1\n      pop\n      jump\t// out\n        /* \"#utility.yul\":1404:1522   */\n    tag_209:\n        /* \"#utility.yul\":1491:1515   */\n      tag_302\n        /* \"#utility.yul\":1509:1514   */\n      dup2\n        /* \"#utility.yul\":1491:1515   */\n      tag_208\n      jump\t// in\n    tag_302:\n        /* \"#utility.yul\":1486:1489   */\n      dup3\n        /* \"#utility.yul\":1479:1516   */\n      mstore\n        /* \"#utility.yul\":1404:1522   */\n      pop\n      pop\n      jump\t// out\n        /* \"#utility.yul\":1528:1646   */\n    tag_210:\n        /* \"#utility.yul\":1615:1639   */\n      tag_304\n        /* \"#utility.yul\":1633:1638   */\n      dup2\n        /* \"#utility.yul\":1615:1639   */\n      tag_204\n      jump\t// in\n    tag_304:\n        /* \"#utility.yul\":1610:1613   */\n      dup3\n        /* \"#utility.yul\":1603:1640   */\n      mstore\n        /* \"#utility.yul\":1528:1646   */\n      pop\n      pop\n      jump\t// out\n        /* \"#utility.yul\":1652:2094   */\n    tag_26:\n        /* \"#utility.yul\":1801:1805   */\n      0x00\n        /* \"#utility.yul\":1839:1841   */\n      0x60\n        /* \"#utility.yul\":1828:1837   */\n      dup3\n        /* \"#utility.yul\":1824:1842   */\n      add\n        /* \"#utility.yul\":1816:1842   */\n      swap1\n      pop\n        /* \"#utility.yul\":1852:1923   */\n      tag_306\n        /* \"#utility.yul\":1920:1921   */\n      0x00\n        /* \"#utility.yul\":1909:1918   */\n      dup4\n        /* \"#utility.yul\":1905:1922   */\n      add\n        /* \"#utility.yul\":1896:1902   */\n      dup7\n        /* \"#utility.yul\":1852:1923   */\n      tag_209\n      jump\t// in\n    tag_306:\n        /* \"#utility.yul\":1933:2005   */\n      tag_307\n        /* \"#utility.yul\":2001:2003   */\n      0x20\n        /* \"#utility.yul\":1990:1999   */\n      dup4\n        /* \"#utility.yul\":1986:2004   */\n      add\n        /* \"#utility.yul\":1977:1983   */\n      dup6\n        /* \"#utility.yul\":1933:2005   */\n      tag_209\n      jump\t// in\n    tag_307:\n        /* \"#utility.yul\":2015:2087   */\n      tag_308\n        /* \"#utility.yul\":2083:2085   */\n      0x40\n        /* \"#utility.yul\":2072:2081   */\n      dup4\n        /* \"#utility.yul\":2068:2086   */\n      add\n        /* \"#utility.yul\":2059:2065   */\n      dup5\n        /* \"#utility.yul\":2015:2087   */\n      tag_210\n      jump\t// in\n    tag_308:\n        /* \"#utility.yul\":1652:2094   */\n      swap5\n      swap4\n      pop\n      pop\n      pop\n      pop\n      jump\t// out\n        /* \"#utility.yul\":2100:2322   */\n    tag_30:\n        /* \"#utility.yul\":2193:2197   */\n      0x00\n        /* \"#utility.yul\":2231:2233   */\n      0x20\n        /* \"#utility.yul\":2220:2229   */\n      dup3\n        /* \"#utility.yul\":2216:2234   */\n      add\n        /* \"#utility.yul\":2208:2234   */\n      swap1\n      pop\n        /* \"#utility.yul\":2244:2315   */\n      tag_310\n        /* \"#utility.yul\":2312:2313   */\n      0x00\n        /* \"#utility.yul\":2301:2310   */\n      dup4\n        /* \"#utility.yul\":2297:2314   */\n      add\n        /* \"#utility.yul\":2288:2294   */\n      dup5\n        /* \"#utility.yul\":2244:2315   */\n      tag_209\n      jump\t// in\n    tag_310:\n        /* \"#utility.yul\":2100:2322   */\n      swap3\n      swap2\n      pop\n      pop\n      jump\t// out\n        /* \"#utility.yul\":2328:2657   */\n    tag_35:\n        /* \"#utility.yul\":2387:2393   */\n      0x00\n        /* \"#utility.yul\":2436:2438   */\n      0x20\n        /* \"#utility.yul\":2424:2433   */\n      dup3\n        /* \"#utility.yul\":2415:2422   */\n      dup5\n        /* \"#utility.yul\":2411:2434   */\n      sub\n        /* \"#utility.yul\":2407:2439   */\n      slt\n        /* \"#utility.yul\":2404:2523   */\n      iszero\n      tag_312\n      jumpi\n        /* \"#utility.yul\":2442:2521   */\n      tag_313\n      tag_202\n      jump\t// in\n    tag_313:\n        /* \"#utility.yul\":2404:2523   */\n    tag_312:\n        /* \"#utility.yul\":2562:2563   */\n      0x00\n        /* \"#utility.yul\":2587:2640   */\n      tag_314\n        /* \"#utility.yul\":2632:2639   */\n      dup5\n        /* \"#utility.yul\":2623:2629   */\n      dup3\n        /* \"#utility.yul\":2612:2621   */\n      dup6\n        /* \"#utility.yul\":2608:2630   */\n      add\n        /* \"#utility.yul\":2587:2640   */\n      tag_206\n      jump\t// in\n    tag_314:\n        /* \"#utility.yul\":2577:2640   */\n      swap2\n      pop\n        /* \"#utility.yul\":2533:2650   */\n      pop\n        /* \"#utility.yul\":2328:2657   */\n      swap3\n      swap2\n      pop\n      pop\n      jump\t// out\n        /* \"#utility.yul\":2663:2780   */\n    tag_211:\n        /* \"#utility.yul\":2772:2773   */\n      0x00\n        /* \"#utility.yul\":2769:2770   */\n      0x00\n        /* \"#utility.yul\":2762:2774   */\n      revert\n        /* \"#utility.yul\":2786:2903   */\n    tag_212:\n        /* \"#utility.yul\":2895:2896   */\n      0x00\n        /* \"#utility.yul\":2892:2893   */\n      0x00\n        /* \"#utility.yul\":2885:2897   */\n      revert\n        /* \"#utility.yul\":2909:3011   */\n    tag_213:\n        /* \"#utility.yul\":2950:2956   */\n      0x00\n        /* \"#utility.yul\":3001:3003   */\n      0x1f\n        /* \"#utility.yul\":2997:3004   */\n      not\n        /* \"#utility.yul\":2992:2994   */\n      0x1f\n        /* \"#utility.yul\":2985:2990   */\n      dup4\n        /* \"#utility.yul\":2981:2995   */\n      add\n        /* \"#utility.yul\":2977:3005   */\n      and\n        /* \"#utility.yul\":2967:3005   */\n      swap1\n      pop\n        /* \"#utility.yul\":2909:3011   */\n      swap2\n      swap1\n      pop\n      jump\t// out\n        /* \"#utility.yul\":3017:3197   */\n    tag_214:\n        /* \"#utility.yul\":3065:3142   */\n      0x4e487b7100000000000000000000000000000000000000000000000000000000\n        /* \"#utility.yul\":3062:3063   */\n      0x00\n        /* \"#utility.yul\":3055:3143   */\n      mstore\n        /* \"#utility.yul\":3162:3166   */\n      0x41\n        /* \"#utility.yul\":3159:3160   */\n      0x04\n        /* \"#utility.yul\":3152:3167   */\n      mstore\n        /* \"#utility.yul\":3186:3190   */\n      0x24\n        /* \"#utility.yul\":3183:3184   */\n      0x00\n        /* \"#utility.yul\":3176:3191   */\n      revert\n        /* \"#utility.yul\":3203:3484   */\n    tag_215:\n        /* \"#utility.yul\":3286:3313   */\n      tag_320\n        /* \"#utility.yul\":3308:3312   */\n      dup3\n        /* \"#utility.yul\":3286:3313   */\n      tag_213\n      jump\t// in\n    tag_320:\n        /* \"#utility.yul\":3278:3284   */\n      dup2\n        /* \"#utility.yul\":3274:3314   */\n      add\n        /* \"#utility.yul\":3416:3422   */\n      dup2\n        /* \"#utility.yul\":3404:3414   */\n      dup2\n        /* \"#utility.yul\":3401:3423   */\n      lt\n        /* \"#utility.yul\":3380:3398   */\n      0xffffffffffffffff\n        /* \"#utility.yul\":3368:3378   */\n      dup3\n        /* \"#utility.yul\":3365:3399   */\n      gt\n        /* \"#utility.yul\":3362:3424   */\n      or\n        /* \"#utility.yul\":3359:3447   */\n      iszero\n      tag_321\n      jumpi\n        /* \"#utility.yul\":3427:3445   */\n      tag_322\n      tag_214\n      jump\t// in\n    tag_322:\n        /* \"#utility.yul\":3359:3447   */\n    tag_321:\n        /* \"#utility.yul\":3467:3477   */\n      dup1\n        /* \"#utility.yul\":3463:3465   */\n      0x40\n        /* \"#utility.yul\":3456:3478   */\n      mstore\n        /* \"#utility.yul\":3246:3484   */\n      pop\n        /* \"#utility.yul\":3203:3484   */\n      pop\n      pop\n      jump\t// out\n        /* \"#utility.yul\":3490:3619   */\n    tag_216:\n        /* \"#utility.yul\":3524:3530   */\n      0x00\n        /* \"#utility.yul\":3551:3571   */\n      tag_324\n      tag_201\n      jump\t// in\n    tag_324:\n        /* \"#utility.yul\":3541:3571   */\n      swap1\n      pop\n        /* \"#utility.yul\":3580:3613   */\n      tag_325\n        /* \"#utility.yul\":3608:3612   */\n      dup3\n        /* \"#utility.yul\":3600:3606   */\n      dup3\n        /* \"#utility.yul\":3580:3613   */\n      tag_215\n      jump\t// in\n    tag_325:\n        /* \"#utility.yul\":3490:3619   */\n      swap2\n      swap1\n      pop\n      jump\t// out\n        /* \"#utility.yul\":3625:3933   */\n    tag_217:\n        /* \"#utility.yul\":3687:3691   */\n      0x00\n        /* \"#utility.yul\":3777:3795   */\n      0xffffffffffffffff\n        /* \"#utility.yul\":3769:3775   */\n      dup3\n        /* \"#utility.yul\":3766:3796   */\n      gt\n        /* \"#utility.yul\":3763:3819   */\n      iszero\n      tag_327\n      jumpi\n        /* \"#utility.yul\":3799:3817   */\n      tag_328\n      tag_214\n      jump\t// in\n    tag_328:\n        /* \"#utility.yul\":3763:3819   */\n    tag_327:\n        /* \"#utility.yul\":3837:3866   */\n      tag_329\n        /* \"#utility.yul\":3859:3865   */\n      dup3\n        /* \"#utility.yul\":3837:3866   */\n      tag_213\n      jump\t// in\n    tag_329:\n        /* \"#utility.yul\":3829:3866   */\n      swap1\n      pop\n        /* \"#utility.yul\":3921:3925   */\n      0x20\n        /* \"#utility.yul\":3915:3919   */\n      dup2\n        /* \"#utility.yul\":3911:3926   */\n      add\n        /* \"#utility.yul\":3903:3926   */\n      swap1\n      pop\n        /* \"#utility.yul\":3625:3933   */\n      swap2\n      swap1\n      pop\n      jump\t// out\n        /* \"#utility.yul\":3939:4087   */\n    tag_218:\n        /* \"#utility.yul\":4037:4043   */\n      dup3\n        /* \"#utility.yul\":4032:4035   */\n      dup2\n        /* \"#utility.yul\":4027:4030   */\n      dup4\n        /* \"#utility.yul\":4014:4044   */\n      calldatacopy\n        /* \"#utility.yul\":4078:4079   */\n      0x00\n        /* \"#utility.yul\":4069:4075   */\n      dup4\n        /* \"#utility.yul\":4064:4067   */\n      dup4\n        /* \"#utility.yul\":4060:4076   */\n      add\n        /* \"#utility.yul\":4053:4080   */\n      mstore\n        /* \"#utility.yul\":3939:4087   */\n      pop\n      pop\n      pop\n      jump\t// out\n        /* \"#utility.yul\":4093:4518   */\n    tag_219:\n        /* \"#utility.yul\":4171:4176   */\n      0x00\n        /* \"#utility.yul\":4196:4262   */\n      tag_332\n        /* \"#utility.yul\":4212:4261   */\n      tag_333\n        /* \"#utility.yul\":4254:4260   */\n      dup5\n        /* \"#utility.yul\":4212:4261   */\n      tag_217\n      jump\t// in\n    tag_333:\n        /* \"#utility.yul\":4196:4262   */\n      tag_216\n      jump\t// in\n    tag_332:\n        /* \"#utility.yul\":4187:4262   */\n      swap1\n      pop\n        /* \"#utility.yul\":4285:4291   */\n      dup3\n        /* \"#utility.yul\":4278:4283   */\n      dup2\n        /* \"#utility.yul\":4271:4292   */\n      mstore\n        /* \"#utility.yul\":4323:4327   */\n      0x20\n        /* \"#utility.yul\":4316:4321   */\n      dup2\n        /* \"#utility.yul\":4312:4328   */\n      add\n        /* \"#utility.yul\":4361:4364   */\n      dup5\n        /* \"#utility.yul\":4352:4358   */\n      dup5\n        /* \"#utility.yul\":4347:4350   */\n      dup5\n        /* \"#utility.yul\":4343:4359   */\n      add\n        /* \"#utility.yul\":4340:4365   */\n      gt\n        /* \"#utility.yul\":4337:4449   */\n      iszero\n      tag_334\n      jumpi\n        /* \"#utility.yul\":4368:4447   */\n      tag_335\n      tag_212\n      jump\t// in\n    tag_335:\n        /* \"#utility.yul\":4337:4449   */\n    tag_334:\n        /* \"#utility.yul\":4458:4512   */\n      tag_336\n        /* \"#utility.yul\":4505:4511   */\n      dup5\n        /* \"#utility.yul\":4500:4503   */\n      dup3\n        /* \"#utility.yul\":4495:4498   */\n      dup6\n        /* \"#utility.yul\":4458:4512   */\n      tag_218\n      jump\t// in\n    tag_336:\n        /* \"#utility.yul\":4177:4518   */\n      pop\n        /* \"#utility.yul\":4093:4518   */\n      swap4\n      swap3\n      pop\n      pop\n      pop\n      jump\t// out\n        /* \"#utility.yul\":4538:4878   */\n    tag_220:\n        /* \"#utility.yul\":4594:4599   */\n      0x00\n        /* \"#utility.yul\":4643:4646   */\n      dup3\n        /* \"#utility.yul\":4636:4640   */\n      0x1f\n        /* \"#utility.yul\":4628:4634   */\n      dup4\n        /* \"#utility.yul\":4624:4641   */\n      add\n        /* \"#utility.yul\":4620:4647   */\n      slt\n        /* \"#utility.yul\":4610:4732   */\n      tag_338\n      jumpi\n        /* \"#utility.yul\":4651:4730   */\n      tag_339\n      tag_211\n      jump\t// in\n    tag_339:\n        /* \"#utility.yul\":4610:4732   */\n    tag_338:\n        /* \"#utility.yul\":4768:4774   */\n      dup2\n        /* \"#utility.yul\":4755:4775   */\n      calldataload\n        /* \"#utility.yul\":4793:4872   */\n      tag_340\n        /* \"#utility.yul\":4868:4871   */\n      dup5\n        /* \"#utility.yul\":4860:4866   */\n      dup3\n        /* \"#utility.yul\":4853:4857   */\n      0x20\n        /* \"#utility.yul\":4845:4851   */\n      dup7\n        /* \"#utility.yul\":4841:4858   */\n      add\n        /* \"#utility.yul\":4793:4872   */\n      tag_219\n      jump\t// in\n    tag_340:\n        /* \"#utility.yul\":4784:4872   */\n      swap2\n      pop\n        /* \"#utility.yul\":4600:4878   */\n      pop\n        /* \"#utility.yul\":4538:4878   */\n      swap3\n      swap2\n      pop\n      pop\n      jump\t// out\n        /* \"#utility.yul\":4884:5538   */\n    tag_42:\n        /* \"#utility.yul\":4962:4968   */\n      0x00\n        /* \"#utility.yul\":4970:4976   */\n      0x00\n        /* \"#utility.yul\":5019:5021   */\n      0x40\n        /* \"#utility.yul\":5007:5016   */\n      dup4\n        /* \"#utility.yul\":4998:5005   */\n      dup6\n        /* \"#utility.yul\":4994:5017   */\n      sub\n        /* \"#utility.yul\":4990:5022   */\n      slt\n        /* \"#utility.yul\":4987:5106   */\n      iszero\n      tag_342\n      jumpi\n        /* \"#utility.yul\":5025:5104   */\n      tag_343\n      tag_202\n      jump\t// in\n    tag_343:\n        /* \"#utility.yul\":4987:5106   */\n    tag_342:\n        /* \"#utility.yul\":5145:5146   */\n      0x00\n        /* \"#utility.yul\":5170:5223   */\n      tag_344\n        /* \"#utility.yul\":5215:5222   */\n      dup6\n        /* \"#utility.yul\":5206:5212   */\n      dup3\n        /* \"#utility.yul\":5195:5204   */\n      dup7\n        /* \"#utility.yul\":5191:5213   */\n      add\n        /* \"#utility.yul\":5170:5223   */\n      tag_206\n      jump\t// in\n    tag_344:\n        /* \"#utility.yul\":5160:5223   */\n      swap3\n      pop\n        /* \"#utility.yul\":5116:5233   */\n      pop\n        /* \"#utility.yul\":5300:5302   */\n      0x20\n        /* \"#utility.yul\":5289:5298   */\n      dup4\n        /* \"#utility.yul\":5285:5303   */\n      add\n        /* \"#utility.yul\":5272:5304   */\n      calldataload\n        /* \"#utility.yul\":5331:5349   */\n      0xffffffffffffffff\n        /* \"#utility.yul\":5323:5329   */\n      dup2\n        /* \"#utility.yul\":5320:5350   */\n      gt\n        /* \"#utility.yul\":5317:5434   */\n      iszero\n      tag_345\n      jumpi\n        /* \"#utility.yul\":5353:5432   */\n      tag_346\n      tag_203\n      jump\t// in\n    tag_346:\n        /* \"#utility.yul\":5317:5434   */\n    tag_345:\n        /* \"#utility.yul\":5458:5521   */\n      tag_347\n        /* \"#utility.yul\":5513:5520   */\n      dup6\n        /* \"#utility.yul\":5504:5510   */\n      dup3\n        /* \"#utility.yul\":5493:5502   */\n      dup7\n        /* \"#utility.yul\":5489:5511   */\n      add\n        /* \"#utility.yul\":5458:5521   */\n      tag_220\n      jump\t// in\n    tag_347:\n        /* \"#utility.yul\":5448:5521   */\n      swap2\n      pop\n        /* \"#utility.yul\":5243:5531   */\n      pop\n        /* \"#utility.yul\":4884:5538   */\n      swap3\n      pop\n      swap3\n      swap1\n      pop\n      jump\t// out\n        /* \"#utility.yul\":5544:5724   */\n    tag_93:\n        /* \"#utility.yul\":5592:5669   */\n      0x4e487b7100000000000000000000000000000000000000000000000000000000\n        /* \"#utility.yul\":5589:5590   */\n      0x00\n        /* \"#utility.yul\":5582:5670   */\n      mstore\n        /* \"#utility.yul\":5689:5693   */\n      0x21\n        /* \"#utility.yul\":5686:5687   */\n      0x04\n        /* \"#utility.yul\":5679:5694   */\n      mstore\n        /* \"#utility.yul\":5713:5717   */\n      0x24\n        /* \"#utility.yul\":5710:5711   */\n      0x00\n        /* \"#utility.yul\":5703:5718   */\n      revert\n        /* \"#utility.yul\":5730:5846   */\n    tag_221:\n        /* \"#utility.yul\":5814:5815   */\n      0x05\n        /* \"#utility.yul\":5807:5812   */\n      dup2\n        /* \"#utility.yul\":5804:5816   */\n      lt\n        /* \"#utility.yul\":5794:5840   */\n      tag_350\n      jumpi\n        /* \"#utility.yul\":5820:5838   */\n      tag_351\n      tag_93\n      jump\t// in\n    tag_351:\n        /* \"#utility.yul\":5794:5840   */\n    tag_350:\n        /* \"#utility.yul\":5730:5846   */\n      pop\n      jump\t// out\n        /* \"#utility.yul\":5852:5985   */\n    tag_222:\n        /* \"#utility.yul\":5900:5907   */\n      0x00\n        /* \"#utility.yul\":5929:5934   */\n      dup2\n        /* \"#utility.yul\":5918:5934   */\n      swap1\n      pop\n        /* \"#utility.yul\":5935:5979   */\n      tag_353\n        /* \"#utility.yul\":5973:5978   */\n      dup3\n        /* \"#utility.yul\":5935:5979   */\n      tag_221\n      jump\t// in\n    tag_353:\n        /* \"#utility.yul\":5852:5985   */\n      swap2\n      swap1\n      pop\n      jump\t// out\n        /* \"#utility.yul\":5991:6124   */\n    tag_223:\n        /* \"#utility.yul\":6050:6059   */\n      0x00\n        /* \"#utility.yul\":6083:6118   */\n      tag_355\n        /* \"#utility.yul\":6112:6117   */\n      dup3\n        /* \"#utility.yul\":6083:6118   */\n      tag_222\n      jump\t// in\n    tag_355:\n        /* \"#utility.yul\":6070:6118   */\n      swap1\n      pop\n        /* \"#utility.yul\":5991:6124   */\n      swap2\n      swap1\n      pop\n      jump\t// out\n        /* \"#utility.yul\":6130:6279   */\n    tag_224:\n        /* \"#utility.yul\":6226:6272   */\n      tag_357\n        /* \"#utility.yul\":6266:6271   */\n      dup2\n        /* \"#utility.yul\":6226:6272   */\n      tag_223\n      jump\t// in\n    tag_357:\n        /* \"#utility.yul\":6221:6224   */\n      dup3\n        /* \"#utility.yul\":6214:6273   */\n      mstore\n        /* \"#utility.yul\":6130:6279   */\n      pop\n      pop\n      jump\t// out\n        /* \"#utility.yul\":6285:6375   */\n    tag_225:\n        /* \"#utility.yul\":6319:6326   */\n      0x00\n        /* \"#utility.yul\":6362:6367   */\n      dup2\n        /* \"#utility.yul\":6355:6368   */\n      iszero\n        /* \"#utility.yul\":6348:6369   */\n      iszero\n        /* \"#utility.yul\":6337:6369   */\n      swap1\n      pop\n        /* \"#utility.yul\":6285:6375   */\n      swap2\n      swap1\n      pop\n      jump\t// out\n        /* \"#utility.yul\":6381:6490   */\n    tag_226:\n        /* \"#utility.yul\":6462:6483   */\n      tag_360\n        /* \"#utility.yul\":6477:6482   */\n      dup2\n        /* \"#utility.yul\":6462:6483   */\n      tag_225\n      jump\t// in\n    tag_360:\n        /* \"#utility.yul\":6457:6460   */\n      dup3\n        /* \"#utility.yul\":6450:6484   */\n      mstore\n        /* \"#utility.yul\":6381:6490   */\n      pop\n      pop\n      jump\t// out\n        /* \"#utility.yul\":6496:7154   */\n    tag_48:\n        /* \"#utility.yul\":6698:6702   */\n      0x00\n        /* \"#utility.yul\":6736:6739   */\n      0xa0\n        /* \"#utility.yul\":6725:6734   */\n      dup3\n        /* \"#utility.yul\":6721:6740   */\n      add\n        /* \"#utility.yul\":6713:6740   */\n      swap1\n      pop\n        /* \"#utility.yul\":6750:6821   */\n      tag_362\n        /* \"#utility.yul\":6818:6819   */\n      0x00\n        /* \"#utility.yul\":6807:6816   */\n      dup4\n        /* \"#utility.yul\":6803:6820   */\n      add\n        /* \"#utility.yul\":6794:6800   */\n      dup9\n        /* \"#utility.yul\":6750:6821   */\n      tag_209\n      jump\t// in\n    tag_362:\n        /* \"#utility.yul\":6831:6912   */\n      tag_363\n        /* \"#utility.yul\":6908:6910   */\n      0x20\n        /* \"#utility.yul\":6897:6906   */\n      dup4\n        /* \"#utility.yul\":6893:6911   */\n      add\n        /* \"#utility.yul\":6884:6890   */\n      dup8\n        /* \"#utility.yul\":6831:6912   */\n      tag_224\n      jump\t// in\n    tag_363:\n        /* \"#utility.yul\":6922:6994   */\n      tag_364\n        /* \"#utility.yul\":6990:6992   */\n      0x40\n        /* \"#utility.yul\":6979:6988   */\n      dup4\n        /* \"#utility.yul\":6975:6993   */\n      add\n        /* \"#utility.yul\":6966:6972   */\n      dup7\n        /* \"#utility.yul\":6922:6994   */\n      tag_210\n      jump\t// in\n    tag_364:\n        /* \"#utility.yul\":7004:7070   */\n      tag_365\n        /* \"#utility.yul\":7066:7068   */\n      0x60\n        /* \"#utility.yul\":7055:7064   */\n      dup4\n        /* \"#utility.yul\":7051:7069   */\n      add\n        /* \"#utility.yul\":7042:7048   */\n      dup6\n        /* \"#utility.yul\":7004:7070   */\n      tag_226\n      jump\t// in\n    tag_365:\n        /* \"#utility.yul\":7080:7147   */\n      tag_366\n        /* \"#utility.yul\":7142:7145   */\n      0x80\n        /* \"#utility.yul\":7131:7140   */\n      dup4\n        /* \"#utility.yul\":7127:7146   */\n      add\n        /* \"#utility.yul\":7118:7124   */\n      dup5\n        /* \"#utility.yul\":7080:7147   */\n      tag_226\n      jump\t// in\n    tag_366:\n        /* \"#utility.yul\":6496:7154   */\n      swap7\n      swap6\n      pop\n      pop\n      pop\n      pop\n      pop\n      pop\n      jump\t// out\n        /* \"#utility.yul\":7160:7370   */\n    tag_56:\n        /* \"#utility.yul\":7247:7251   */\n      0x00\n        /* \"#utility.yul\":7285:7287   */\n      0x20\n        /* \"#utility.yul\":7274:7283   */\n      dup3\n        /* \"#utility.yul\":7270:7288   */\n      add\n        /* \"#utility.yul\":7262:7288   */\n      swap1\n      pop\n        /* \"#utility.yul\":7298:7363   */\n      tag_368\n        /* \"#utility.yul\":7360:7361   */\n      0x00\n        /* \"#utility.yul\":7349:7358   */\n      dup4\n        /* \"#utility.yul\":7345:7362   */\n      add\n        /* \"#utility.yul\":7336:7342   */\n      dup5\n        /* \"#utility.yul\":7298:7363   */\n      tag_226\n      jump\t// in\n    tag_368:\n        /* \"#utility.yul\":7160:7370   */\n      swap3\n      swap2\n      pop\n      pop\n      jump\t// out\n        /* \"#utility.yul\":7376:7475   */\n    tag_227:\n        /* \"#utility.yul\":7428:7434   */\n      0x00\n        /* \"#utility.yul\":7462:7467   */\n      dup2\n        /* \"#utility.yul\":7456:7468   */\n      mload\n        /* \"#utility.yul\":7446:7468   */\n      swap1\n      pop\n        /* \"#utility.yul\":7376:7475   */\n      swap2\n      swap1\n      pop\n      jump\t// out\n        /* \"#utility.yul\":7481:7650   */\n    tag_228:\n        /* \"#utility.yul\":7565:7576   */\n      0x00\n        /* \"#utility.yul\":7599:7605   */\n      dup3\n        /* \"#utility.yul\":7594:7597   */\n      dup3\n        /* \"#utility.yul\":7587:7606   */\n      mstore\n        /* \"#utility.yul\":7639:7643   */\n      0x20\n        /* \"#utility.yul\":7634:7637   */\n      dup3\n        /* \"#utility.yul\":7630:7644   */\n      add\n        /* \"#utility.yul\":7615:7644   */\n      swap1\n      pop\n        /* \"#utility.yul\":7481:7650   */\n      swap3\n      swap2\n      pop\n      pop\n      jump\t// out\n        /* \"#utility.yul\":7656:7795   */\n    tag_229:\n        /* \"#utility.yul\":7745:7751   */\n      dup3\n        /* \"#utility.yul\":7740:7743   */\n      dup2\n        /* \"#utility.yul\":7735:7738   */\n      dup4\n        /* \"#utility.yul\":7729:7752   */\n      mcopy\n        /* \"#utility.yul\":7786:7787   */\n      0x00\n        /* \"#utility.yul\":7777:7783   */\n      dup4\n        /* \"#utility.yul\":7772:7775   */\n      dup4\n        /* \"#utility.yul\":7768:7784   */\n      add\n        /* \"#utility.yul\":7761:7788   */\n      mstore\n        /* \"#utility.yul\":7656:7795   */\n      pop\n      pop\n      pop\n      jump\t// out\n        /* \"#utility.yul\":7801:8178   */\n    tag_230:\n        /* \"#utility.yul\":7889:7892   */\n      0x00\n        /* \"#utility.yul\":7917:7956   */\n      tag_373\n        /* \"#utility.yul\":7950:7955   */\n      dup3\n        /* \"#utility.yul\":7917:7956   */\n      tag_227\n      jump\t// in\n    tag_373:\n        /* \"#utility.yul\":7972:8043   */\n      tag_374\n        /* \"#utility.yul\":8036:8042   */\n      dup2\n        /* \"#utility.yul\":8031:8034   */\n      dup6\n        /* \"#utility.yul\":7972:8043   */\n      tag_228\n      jump\t// in\n    tag_374:\n        /* \"#utility.yul\":7965:8043   */\n      swap4\n      pop\n        /* \"#utility.yul\":8052:8117   */\n      tag_375\n        /* \"#utility.yul\":8110:8116   */\n      dup2\n        /* \"#utility.yul\":8105:8108   */\n      dup6\n        /* \"#utility.yul\":8098:8102   */\n      0x20\n        /* \"#utility.yul\":8091:8096   */\n      dup7\n        /* \"#utility.yul\":8087:8103   */\n      add\n        /* \"#utility.yul\":8052:8117   */\n      tag_229\n      jump\t// in\n    tag_375:\n        /* \"#utility.yul\":8142:8171   */\n      tag_376\n        /* \"#utility.yul\":8164:8170   */\n      dup2\n        /* \"#utility.yul\":8142:8171   */\n      tag_213\n      jump\t// in\n    tag_376:\n        /* \"#utility.yul\":8137:8140   */\n      dup5\n        /* \"#utility.yul\":8133:8172   */\n      add\n        /* \"#utility.yul\":8126:8172   */\n      swap2\n      pop\n        /* \"#utility.yul\":7893:8178   */\n      pop\n        /* \"#utility.yul\":7801:8178   */\n      swap3\n      swap2\n      pop\n      pop\n      jump\t// out\n        /* \"#utility.yul\":8184:9056   */\n    tag_64:\n        /* \"#utility.yul\":8440:8444   */\n      0x00\n        /* \"#utility.yul\":8478:8481   */\n      0xc0\n        /* \"#utility.yul\":8467:8476   */\n      dup3\n        /* \"#utility.yul\":8463:8482   */\n      add\n        /* \"#utility.yul\":8455:8482   */\n      swap1\n      pop\n        /* \"#utility.yul\":8492:8563   */\n      tag_378\n        /* \"#utility.yul\":8560:8561   */\n      0x00\n        /* \"#utility.yul\":8549:8558   */\n      dup4\n        /* \"#utility.yul\":8545:8562   */\n      add\n        /* \"#utility.yul\":8536:8542   */\n      dup10\n        /* \"#utility.yul\":8492:8563   */\n      tag_210\n      jump\t// in\n    tag_378:\n        /* \"#utility.yul\":8610:8619   */\n      dup2\n        /* \"#utility.yul\":8604:8608   */\n      dup2\n        /* \"#utility.yul\":8600:8620   */\n      sub\n        /* \"#utility.yul\":8595:8597   */\n      0x20\n        /* \"#utility.yul\":8584:8593   */\n      dup4\n        /* \"#utility.yul\":8580:8598   */\n      add\n        /* \"#utility.yul\":8573:8621   */\n      mstore\n        /* \"#utility.yul\":8638:8716   */\n      tag_379\n        /* \"#utility.yul\":8711:8715   */\n      dup2\n        /* \"#utility.yul\":8702:8708   */\n      dup9\n        /* \"#utility.yul\":8638:8716   */\n      tag_230\n      jump\t// in\n    tag_379:\n        /* \"#utility.yul\":8630:8716   */\n      swap1\n      pop\n        /* \"#utility.yul\":8726:8798   */\n      tag_380\n        /* \"#utility.yul\":8794:8796   */\n      0x40\n        /* \"#utility.yul\":8783:8792   */\n      dup4\n        /* \"#utility.yul\":8779:8797   */\n      add\n        /* \"#utility.yul\":8770:8776   */\n      dup8\n        /* \"#utility.yul\":8726:8798   */\n      tag_209\n      jump\t// in\n    tag_380:\n        /* \"#utility.yul\":8808:8889   */\n      tag_381\n        /* \"#utility.yul\":8885:8887   */\n      0x60\n        /* \"#utility.yul\":8874:8883   */\n      dup4\n        /* \"#utility.yul\":8870:8888   */\n      add\n        /* \"#utility.yul\":8861:8867   */\n      dup7\n        /* \"#utility.yul\":8808:8889   */\n      tag_224\n      jump\t// in\n    tag_381:\n        /* \"#utility.yul\":8899:8972   */\n      tag_382\n        /* \"#utility.yul\":8967:8970   */\n      0x80\n        /* \"#utility.yul\":8956:8965   */\n      dup4\n        /* \"#utility.yul\":8952:8971   */\n      add\n        /* \"#utility.yul\":8943:8949   */\n      dup6\n        /* \"#utility.yul\":8899:8972   */\n      tag_210\n      jump\t// in\n    tag_382:\n        /* \"#utility.yul\":8982:9049   */\n      tag_383\n        /* \"#utility.yul\":9044:9047   */\n      0xa0\n        /* \"#utility.yul\":9033:9042   */\n      dup4\n        /* \"#utility.yul\":9029:9048   */\n      add\n        /* \"#utility.yul\":9020:9026   */\n      dup5\n        /* \"#utility.yul\":8982:9049   */\n      tag_226\n      jump\t// in\n    tag_383:\n        /* \"#utility.yul\":8184:9056   */\n      swap8\n      swap7\n      pop\n      pop\n      pop\n      pop\n      pop\n      pop\n      pop\n      jump\t// out\n        /* \"#utility.yul\":9062:9206   */\n    tag_231:\n        /* \"#utility.yul\":9159:9165   */\n      0x00\n        /* \"#utility.yul\":9193:9198   */\n      dup2\n        /* \"#utility.yul\":9187:9199   */\n      mload\n        /* \"#utility.yul\":9177:9199   */\n      swap1\n      pop\n        /* \"#utility.yul\":9062:9206   */\n      swap2\n      swap1\n      pop\n      jump\t// out\n        /* \"#utility.yul\":9212:9426   */\n    tag_232:\n        /* \"#utility.yul\":9341:9352   */\n      0x00\n        /* \"#utility.yul\":9375:9381   */\n      dup3\n        /* \"#utility.yul\":9370:9373   */\n      dup3\n        /* \"#utility.yul\":9363:9382   */\n      mstore\n        /* \"#utility.yul\":9415:9419   */\n      0x20\n        /* \"#utility.yul\":9410:9413   */\n      dup3\n        /* \"#utility.yul\":9406:9420   */\n      add\n        /* \"#utility.yul\":9391:9420   */\n      swap1\n      pop\n        /* \"#utility.yul\":9212:9426   */\n      swap3\n      swap2\n      pop\n      pop\n      jump\t// out\n        /* \"#utility.yul\":9432:9594   */\n    tag_233:\n        /* \"#utility.yul\":9529:9533   */\n      0x00\n        /* \"#utility.yul\":9552:9555   */\n      dup2\n        /* \"#utility.yul\":9544:9555   */\n      swap1\n      pop\n        /* \"#utility.yul\":9582:9586   */\n      0x20\n        /* \"#utility.yul\":9577:9580   */\n      dup3\n        /* \"#utility.yul\":9573:9587   */\n      add\n        /* \"#utility.yul\":9565:9587   */\n      swap1\n      pop\n        /* \"#utility.yul\":9432:9594   */\n      swap2\n      swap1\n      pop\n      jump\t// out\n        /* \"#utility.yul\":9600:9708   */\n    tag_234:\n        /* \"#utility.yul\":9677:9701   */\n      tag_388\n        /* \"#utility.yul\":9695:9700   */\n      dup2\n        /* \"#utility.yul\":9677:9701   */\n      tag_208\n      jump\t// in\n    tag_388:\n        /* \"#utility.yul\":9672:9675   */\n      dup3\n        /* \"#utility.yul\":9665:9702   */\n      mstore\n        /* \"#utility.yul\":9600:9708   */\n      pop\n      pop\n      jump\t// out\n        /* \"#utility.yul\":9714:9822   */\n    tag_235:\n        /* \"#utility.yul\":9791:9815   */\n      tag_390\n        /* \"#utility.yul\":9809:9814   */\n      dup2\n        /* \"#utility.yul\":9791:9815   */\n      tag_204\n      jump\t// in\n    tag_390:\n        /* \"#utility.yul\":9786:9789   */\n      dup3\n        /* \"#utility.yul\":9779:9816   */\n      mstore\n        /* \"#utility.yul\":9714:9822   */\n      pop\n      pop\n      jump\t// out\n        /* \"#utility.yul\":9920:10604   */\n    tag_236:\n        /* \"#utility.yul\":10067:10071   */\n      0x60\n        /* \"#utility.yul\":10062:10065   */\n      dup3\n        /* \"#utility.yul\":10058:10072   */\n      add\n        /* \"#utility.yul\":10154:10158   */\n      0x00\n        /* \"#utility.yul\":10147:10152   */\n      dup3\n        /* \"#utility.yul\":10143:10159   */\n      add\n        /* \"#utility.yul\":10137:10160   */\n      mload\n        /* \"#utility.yul\":10173:10236   */\n      tag_392\n        /* \"#utility.yul\":10230:10234   */\n      0x00\n        /* \"#utility.yul\":10225:10228   */\n      dup6\n        /* \"#utility.yul\":10221:10235   */\n      add\n        /* \"#utility.yul\":10207:10219   */\n      dup3\n        /* \"#utility.yul\":10173:10236   */\n      tag_234\n      jump\t// in\n    tag_392:\n        /* \"#utility.yul\":10082:10246   */\n      pop\n        /* \"#utility.yul\":10326:10330   */\n      0x20\n        /* \"#utility.yul\":10319:10324   */\n      dup3\n        /* \"#utility.yul\":10315:10331   */\n      add\n        /* \"#utility.yul\":10309:10332   */\n      mload\n        /* \"#utility.yul\":10345:10408   */\n      tag_393\n        /* \"#utility.yul\":10402:10406   */\n      0x20\n        /* \"#utility.yul\":10397:10400   */\n      dup6\n        /* \"#utility.yul\":10393:10407   */\n      add\n        /* \"#utility.yul\":10379:10391   */\n      dup3\n        /* \"#utility.yul\":10345:10408   */\n      tag_234\n      jump\t// in\n    tag_393:\n        /* \"#utility.yul\":10256:10418   */\n      pop\n        /* \"#utility.yul\":10505:10509   */\n      0x40\n        /* \"#utility.yul\":10498:10503   */\n      dup3\n        /* \"#utility.yul\":10494:10510   */\n      add\n        /* \"#utility.yul\":10488:10511   */\n      mload\n        /* \"#utility.yul\":10524:10587   */\n      tag_394\n        /* \"#utility.yul\":10581:10585   */\n      0x40\n        /* \"#utility.yul\":10576:10579   */\n      dup6\n        /* \"#utility.yul\":10572:10586   */\n      add\n        /* \"#utility.yul\":10558:10570   */\n      dup3\n        /* \"#utility.yul\":10524:10587   */\n      tag_235\n      jump\t// in\n    tag_394:\n        /* \"#utility.yul\":10428:10597   */\n      pop\n        /* \"#utility.yul\":10036:10604   */\n      pop\n        /* \"#utility.yul\":9920:10604   */\n      pop\n      pop\n      jump\t// out\n        /* \"#utility.yul\":10610:10909   */\n    tag_237:\n        /* \"#utility.yul\":10739:10749   */\n      0x00\n        /* \"#utility.yul\":10760:10866   */\n      tag_396\n        /* \"#utility.yul\":10862:10865   */\n      dup4\n        /* \"#utility.yul\":10854:10860   */\n      dup4\n        /* \"#utility.yul\":10760:10866   */\n      tag_236\n      jump\t// in\n    tag_396:\n        /* \"#utility.yul\":10898:10902   */\n      0x60\n        /* \"#utility.yul\":10893:10896   */\n      dup4\n        /* \"#utility.yul\":10889:10903   */\n      add\n        /* \"#utility.yul\":10875:10903   */\n      swap1\n      pop\n        /* \"#utility.yul\":10610:10909   */\n      swap3\n      swap2\n      pop\n      pop\n      jump\t// out\n        /* \"#utility.yul\":10915:11058   */\n    tag_238:\n        /* \"#utility.yul\":11015:11019   */\n      0x00\n        /* \"#utility.yul\":11047:11051   */\n      0x20\n        /* \"#utility.yul\":11042:11045   */\n      dup3\n        /* \"#utility.yul\":11038:11052   */\n      add\n        /* \"#utility.yul\":11030:11052   */\n      swap1\n      pop\n        /* \"#utility.yul\":10915:11058   */\n      swap2\n      swap1\n      pop\n      jump\t// out\n        /* \"#utility.yul\":11160:12132   */\n    tag_239:\n        /* \"#utility.yul\":11339:11342   */\n      0x00\n        /* \"#utility.yul\":11368:11452   */\n      tag_399\n        /* \"#utility.yul\":11446:11451   */\n      dup3\n        /* \"#utility.yul\":11368:11452   */\n      tag_231\n      jump\t// in\n    tag_399:\n        /* \"#utility.yul\":11468:11584   */\n      tag_400\n        /* \"#utility.yul\":11577:11583   */\n      dup2\n        /* \"#utility.yul\":11572:11575   */\n      dup6\n        /* \"#utility.yul\":11468:11584   */\n      tag_232\n      jump\t// in\n    tag_400:\n        /* \"#utility.yul\":11461:11584   */\n      swap4\n      pop\n        /* \"#utility.yul\":11608:11694   */\n      tag_401\n        /* \"#utility.yul\":11688:11693   */\n      dup4\n        /* \"#utility.yul\":11608:11694   */\n      tag_233\n      jump\t// in\n    tag_401:\n        /* \"#utility.yul\":11717:11724   */\n      dup1\n        /* \"#utility.yul\":11748:11749   */\n      0x00\n        /* \"#utility.yul\":11733:12107   */\n    tag_402:\n        /* \"#utility.yul\":11758:11764   */\n      dup4\n        /* \"#utility.yul\":11755:11756   */\n      dup2\n        /* \"#utility.yul\":11752:11765   */\n      lt\n        /* \"#utility.yul\":11733:12107   */\n      iszero\n      tag_404\n      jumpi\n        /* \"#utility.yul\":11834:11840   */\n      dup2\n        /* \"#utility.yul\":11828:11841   */\n      mload\n        /* \"#utility.yul\":11861:11984   */\n      tag_405\n        /* \"#utility.yul\":11980:11983   */\n      dup9\n        /* \"#utility.yul\":11965:11978   */\n      dup3\n        /* \"#utility.yul\":11861:11984   */\n      tag_237\n      jump\t// in\n    tag_405:\n        /* \"#utility.yul\":11854:11984   */\n      swap8\n      pop\n        /* \"#utility.yul\":12007:12097   */\n      tag_406\n        /* \"#utility.yul\":12090:12096   */\n      dup4\n        /* \"#utility.yul\":12007:12097   */\n      tag_238\n      jump\t// in\n    tag_406:\n        /* \"#utility.yul\":11997:12097   */\n      swap3\n      pop\n        /* \"#utility.yul\":11793:12107   */\n      pop\n        /* \"#utility.yul\":11780:11781   */\n      0x01\n        /* \"#utility.yul\":11777:11778   */\n      dup2\n        /* \"#utility.yul\":11773:11782   */\n      add\n        /* \"#utility.yul\":11768:11782   */\n      swap1\n      pop\n        /* \"#utility.yul\":11733:12107   */\n      jump(tag_402)\n    tag_404:\n        /* \"#utility.yul\":11737:11751   */\n      pop\n        /* \"#utility.yul\":12123:12126   */\n      dup6\n        /* \"#utility.yul\":12116:12126   */\n      swap4\n      pop\n        /* \"#utility.yul\":11344:12132   */\n      pop\n      pop\n      pop\n        /* \"#utility.yul\":11160:12132   */\n      swap3\n      swap2\n      pop\n      pop\n      jump\t// out\n        /* \"#utility.yul\":12138:12631   */\n    tag_69:\n        /* \"#utility.yul\":12341:12345   */\n      0x00\n        /* \"#utility.yul\":12379:12381   */\n      0x20\n        /* \"#utility.yul\":12368:12377   */\n      dup3\n        /* \"#utility.yul\":12364:12382   */\n      add\n        /* \"#utility.yul\":12356:12382   */\n      swap1\n      pop\n        /* \"#utility.yul\":12428:12437   */\n      dup2\n        /* \"#utility.yul\":12422:12426   */\n      dup2\n        /* \"#utility.yul\":12418:12438   */\n      sub\n        /* \"#utility.yul\":12414:12415   */\n      0x00\n        /* \"#utility.yul\":12403:12412   */\n      dup4\n        /* \"#utility.yul\":12399:12416   */\n      add\n        /* \"#utility.yul\":12392:12439   */\n      mstore\n        /* \"#utility.yul\":12456:12624   */\n      tag_408\n        /* \"#utility.yul\":12619:12623   */\n      dup2\n        /* \"#utility.yul\":12610:12616   */\n      dup5\n        /* \"#utility.yul\":12456:12624   */\n      tag_239\n      jump\t// in\n    tag_408:\n        /* \"#utility.yul\":12448:12624   */\n      swap1\n      pop\n        /* \"#utility.yul\":12138:12631   */\n      swap3\n      swap2\n      pop\n      pop\n      jump\t// out\n        /* \"#utility.yul\":12637:12804   */\n    tag_240:\n        /* \"#utility.yul\":12777:12796   */\n      0x4e6f74207468652077617265686f757365000000000000000000000000000000\n        /* \"#utility.yul\":12773:12774   */\n      0x00\n        /* \"#utility.yul\":12765:12771   */\n      dup3\n        /* \"#utility.yul\":12761:12775   */\n      add\n        /* \"#utility.yul\":12754:12797   */\n      mstore\n        /* \"#utility.yul\":12637:12804   */\n      pop\n      jump\t// out\n        /* \"#utility.yul\":12810:13176   */\n    tag_241:\n        /* \"#utility.yul\":12952:12955   */\n      0x00\n        /* \"#utility.yul\":12973:13040   */\n      tag_411\n        /* \"#utility.yul\":13037:13039   */\n      0x11\n        /* \"#utility.yul\":13032:13035   */\n      dup4\n        /* \"#utility.yul\":12973:13040   */\n      tag_228\n      jump\t// in\n    tag_411:\n        /* \"#utility.yul\":12966:13040   */\n      swap2\n      pop\n        /* \"#utility.yul\":13049:13142   */\n      tag_412\n        /* \"#utility.yul\":13138:13141   */\n      dup3\n        /* \"#utility.yul\":13049:13142   */\n      tag_240\n      jump\t// in\n    tag_412:\n        /* \"#utility.yul\":13167:13169   */\n      0x20\n        /* \"#utility.yul\":13162:13165   */\n      dup3\n        /* \"#utility.yul\":13158:13170   */\n      add\n        /* \"#utility.yul\":13151:13170   */\n      swap1\n      pop\n        /* \"#utility.yul\":12810:13176   */\n      swap2\n      swap1\n      pop\n      jump\t// out\n        /* \"#utility.yul\":13182:13601   */\n    tag_85:\n        /* \"#utility.yul\":13348:13352   */\n      0x00\n        /* \"#utility.yul\":13386:13388   */\n      0x20\n        /* \"#utility.yul\":13375:13384   */\n      dup3\n        /* \"#utility.yul\":13371:13389   */\n      add\n        /* \"#utility.yul\":13363:13389   */\n      swap1\n      pop\n        /* \"#utility.yul\":13435:13444   */\n      dup2\n        /* \"#utility.yul\":13429:13433   */\n      dup2\n        /* \"#utility.yul\":13425:13445   */\n      sub\n        /* \"#utility.yul\":13421:13422   */\n      0x00\n        /* \"#utility.yul\":13410:13419   */\n      dup4\n        /* \"#utility.yul\":13406:13423   */\n      add\n        /* \"#utility.yul\":13399:13446   */\n      mstore\n        /* \"#utility.yul\":13463:13594   */\n      tag_414\n        /* \"#utility.yul\":13589:13593   */\n      dup2\n        /* \"#utility.yul\":13463:13594   */\n      tag_241\n      jump\t// in\n    tag_414:\n        /* \"#utility.yul\":13455:13594   */\n      swap1\n      pop\n        /* \"#utility.yul\":13182:13601   */\n      swap2\n      swap1\n      pop\n      jump\t// out\n        /* \"#utility.yul\":13607:13777   */\n    tag_242:\n        /* \"#utility.yul\":13747:13769   */\n      0x5061636b6167652069732063616e63656c6c6564000000000000000000000000\n        /* \"#utility.yul\":13743:13744   */\n      0x00\n        /* \"#utility.yul\":13735:13741   */\n      dup3\n        /* \"#utility.yul\":13731:13745   */\n      add\n        /* \"#utility.yul\":13724:13770   */\n      mstore\n        /* \"#utility.yul\":13607:13777   */\n      pop\n      jump\t// out\n        /* \"#utility.yul\":13783:14149   */\n    tag_243:\n        /* \"#utility.yul\":13925:13928   */\n      0x00\n        /* \"#utility.yul\":13946:14013   */\n      tag_417\n        /* \"#utility.yul\":14010:14012   */\n      0x14\n        /* \"#utility.yul\":14005:14008   */\n      dup4\n        /* \"#utility.yul\":13946:14013   */\n      tag_228\n      jump\t// in\n    tag_417:\n        /* \"#utility.yul\":13939:14013   */\n      swap2\n      pop\n        /* \"#utility.yul\":14022:14115   */\n      tag_418\n        /* \"#utility.yul\":14111:14114   */\n      dup3\n        /* \"#utility.yul\":14022:14115   */\n      tag_242\n      jump\t// in\n    tag_418:\n        /* \"#utility.yul\":14140:14142   */\n      0x20\n        /* \"#utility.yul\":14135:14138   */\n      dup3\n        /* \"#utility.yul\":14131:14143   */\n      add\n        /* \"#utility.yul\":14124:14143   */\n      swap1\n      pop\n        /* \"#utility.yul\":13783:14149   */\n      swap2\n      swap1\n      pop\n      jump\t// out\n        /* \"#utility.yul\":14155:14574   */\n    tag_89:\n        /* \"#utility.yul\":14321:14325   */\n      0x00\n        /* \"#utility.yul\":14359:14361   */\n      0x20\n        /* \"#utility.yul\":14348:14357   */\n      dup3\n        /* \"#utility.yul\":14344:14362   */\n      add\n        /* \"#utility.yul\":14336:14362   */\n      swap1\n      pop\n        /* \"#utility.yul\":14408:14417   */\n      dup2\n        /* \"#utility.yul\":14402:14406   */\n      dup2\n        /* \"#utility.yul\":14398:14418   */\n      sub\n        /* \"#utility.yul\":14394:14395   */\n      0x00\n        /* \"#utility.yul\":14383:14392   */\n      dup4\n        /* \"#utility.yul\":14379:14396   */\n      add\n        /* \"#utility.yul\":14372:14419   */\n      mstore\n        /* \"#utility.yul\":14436:14567   */\n      tag_420\n        /* \"#utility.yul\":14562:14566   */\n      dup2\n        /* \"#utility.yul\":14436:14567   */\n      tag_243\n      jump\t// in\n    tag_420:\n        /* \"#utility.yul\":14428:14567   */\n      swap1\n      pop\n        /* \"#utility.yul\":14155:14574   */\n      swap2\n      swap1\n      pop\n      jump\t// out\n        /* \"#utility.yul\":14580:14754   */\n    tag_244:\n        /* \"#utility.yul\":14720:14746   */\n      0x5061636b616765206e6f7420696e2077617265686f7573650000000000000000\n        /* \"#utility.yul\":14716:14717   */\n      0x00\n        /* \"#utility.yul\":14708:14714   */\n      dup3\n        /* \"#utility.yul\":14704:14718   */\n      add\n        /* \"#utility.yul\":14697:14747   */\n      mstore\n        /* \"#utility.yul\":14580:14754   */\n      pop\n      jump\t// out\n        /* \"#utility.yul\":14760:15126   */\n    tag_245:\n        /* \"#utility.yul\":14902:14905   */\n      0x00\n        /* \"#utility.yul\":14923:14990   */\n      tag_423\n        /* \"#utility.yul\":14987:14989   */\n      0x18\n        /* \"#utility.yul\":14982:14985   */\n      dup4\n        /* \"#utility.yul\":14923:14990   */\n      tag_228\n      jump\t// in\n    tag_423:\n        /* \"#utility.yul\":14916:14990   */\n      swap2\n      pop\n        /* \"#utility.yul\":14999:15092   */\n      tag_424\n        /* \"#utility.yul\":15088:15091   */\n      dup3\n        /* \"#utility.yul\":14999:15092   */\n      tag_244\n      jump\t// in\n    tag_424:\n        /* \"#utility.yul\":15117:15119   */\n      0x20\n        /* \"#utility.yul\":15112:15115   */\n      dup3\n        /* \"#utility.yul\":15108:15120   */\n      add\n        /* \"#utility.yul\":15101:15120   */\n      swap1\n      pop\n        /* \"#utility.yul\":14760:15126   */\n      swap2\n      swap1\n      pop\n      jump\t// out\n        /* \"#utility.yul\":15132:15551   */\n    tag_98:\n        /* \"#utility.yul\":15298:15302   */\n      0x00\n        /* \"#utility.yul\":15336:15338   */\n      0x20\n        /* \"#utility.yul\":15325:15334   */\n      dup3\n        /* \"#utility.yul\":15321:15339   */\n      add\n        /* \"#utility.yul\":15313:15339   */\n      swap1\n      pop\n        /* \"#utility.yul\":15385:15394   */\n      dup2\n        /* \"#utility.yul\":15379:15383   */\n      dup2\n        /* \"#utility.yul\":15375:15395   */\n      sub\n        /* \"#utility.yul\":15371:15372   */\n      0x00\n        /* \"#utility.yul\":15360:15369   */\n      dup4\n        /* \"#utility.yul\":15356:15373   */\n      add\n        /* \"#utility.yul\":15349:15396   */\n      mstore\n        /* \"#utility.yul\":15413:15544   */\n      tag_426\n        /* \"#utility.yul\":15539:15543   */\n      dup2\n        /* \"#utility.yul\":15413:15544   */\n      tag_245\n      jump\t// in\n    tag_426:\n        /* \"#utility.yul\":15405:15544   */\n      swap1\n      pop\n        /* \"#utility.yul\":15132:15551   */\n      swap2\n      swap1\n      pop\n      jump\t// out\n        /* \"#utility.yul\":15557:15739   */\n    tag_246:\n        /* \"#utility.yul\":15697:15731   */\n      0x446561646c696e65207061737365642e204175746f2d63616e63656c6c65642e\n        /* \"#utility.yul\":15693:15694   */\n      0x00\n        /* \"#utility.yul\":15685:15691   */\n      dup3\n        /* \"#utility.yul\":15681:15695   */\n      add\n        /* \"#utility.yul\":15674:15732   */\n      mstore\n        /* \"#utility.yul\":15557:15739   */\n      pop\n      jump\t// out\n        /* \"#utility.yul\":15745:16111   */\n    tag_247:\n        /* \"#utility.yul\":15887:15890   */\n      0x00\n        /* \"#utility.yul\":15908:15975   */\n      tag_429\n        /* \"#utility.yul\":15972:15974   */\n      0x20\n        /* \"#utility.yul\":15967:15970   */\n      dup4\n        /* \"#utility.yul\":15908:15975   */\n      tag_228\n      jump\t// in\n    tag_429:\n        /* \"#utility.yul\":15901:15975   */\n      swap2\n      pop\n        /* \"#utility.yul\":15984:16077   */\n      tag_430\n        /* \"#utility.yul\":16073:16076   */\n      dup3\n        /* \"#utility.yul\":15984:16077   */\n      tag_246\n      jump\t// in\n    tag_430:\n        /* \"#utility.yul\":16102:16104   */\n      0x20\n        /* \"#utility.yul\":16097:16100   */\n      dup3\n        /* \"#utility.yul\":16093:16105   */\n      add\n        /* \"#utility.yul\":16086:16105   */\n      swap1\n      pop\n        /* \"#utility.yul\":15745:16111   */\n      swap2\n      swap1\n      pop\n      jump\t// out\n        /* \"#utility.yul\":16117:16536   */\n    tag_101:\n        /* \"#utility.yul\":16283:16287   */\n      0x00\n        /* \"#utility.yul\":16321:16323   */\n      0x20\n        /* \"#utility.yul\":16310:16319   */\n      dup3\n        /* \"#utility.yul\":16306:16324   */\n      add\n        /* \"#utility.yul\":16298:16324   */\n      swap1\n      pop\n        /* \"#utility.yul\":16370:16379   */\n      dup2\n        /* \"#utility.yul\":16364:16368   */\n      dup2\n        /* \"#utility.yul\":16360:16380   */\n      sub\n        /* \"#utility.yul\":16356:16357   */\n      0x00\n        /* \"#utility.yul\":16345:16354   */\n      dup4\n        /* \"#utility.yul\":16341:16358   */\n      add\n        /* \"#utility.yul\":16334:16381   */\n      mstore\n        /* \"#utility.yul\":16398:16529   */\n      tag_432\n        /* \"#utility.yul\":16524:16528   */\n      dup2\n        /* \"#utility.yul\":16398:16529   */\n      tag_247\n      jump\t// in\n    tag_432:\n        /* \"#utility.yul\":16390:16529   */\n      swap1\n      pop\n        /* \"#utility.yul\":16117:16536   */\n      swap2\n      swap1\n      pop\n      jump\t// out\n        /* \"#utility.yul\":16542:16706   */\n    tag_248:\n        /* \"#utility.yul\":16682:16698   */\n      0x4e6f74207468652073656c6c6572000000000000000000000000000000000000\n        /* \"#utility.yul\":16678:16679   */\n      0x00\n        /* \"#utility.yul\":16670:16676   */\n      dup3\n        /* \"#utility.yul\":16666:16680   */\n      add\n        /* \"#utility.yul\":16659:16699   */\n      mstore\n        /* \"#utility.yul\":16542:16706   */\n      pop\n      jump\t// out\n        /* \"#utility.yul\":16712:17078   */\n    tag_249:\n        /* \"#utility.yul\":16854:16857   */\n      0x00\n        /* \"#utility.yul\":16875:16942   */\n      tag_435\n        /* \"#utility.yul\":16939:16941   */\n      0x0e\n        /* \"#utility.yul\":16934:16937   */\n      dup4\n        /* \"#utility.yul\":16875:16942   */\n      tag_228\n      jump\t// in\n    tag_435:\n        /* \"#utility.yul\":16868:16942   */\n      swap2\n      pop\n        /* \"#utility.yul\":16951:17044   */\n      tag_436\n        /* \"#utility.yul\":17040:17043   */\n      dup3\n        /* \"#utility.yul\":16951:17044   */\n      tag_248\n      jump\t// in\n    tag_436:\n        /* \"#utility.yul\":17069:17071   */\n      0x20\n        /* \"#utility.yul\":17064:17067   */\n      dup3\n        /* \"#utility.yul\":17060:17072   */\n      add\n        /* \"#utility.yul\":17053:17072   */\n      swap1\n      pop\n        /* \"#utility.yul\":16712:17078   */\n      swap2\n      swap1\n      pop\n      jump\t// out\n        /* \"#utility.yul\":17084:17503   */\n    tag_107:\n        /* \"#utility.yul\":17250:17254   */\n      0x00\n        /* \"#utility.yul\":17288:17290   */\n      0x20\n        /* \"#utility.yul\":17277:17286   */\n      dup3\n        /* \"#utility.yul\":17273:17291   */\n      add\n        /* \"#utility.yul\":17265:17291   */\n      swap1\n      pop\n        /* \"#utility.yul\":17337:17346   */\n      dup2\n        /* \"#utility.yul\":17331:17335   */\n      dup2\n        /* \"#utility.yul\":17327:17347   */\n      sub\n        /* \"#utility.yul\":17323:17324   */\n      0x00\n        /* \"#utility.yul\":17312:17321   */\n      dup4\n        /* \"#utility.yul\":17308:17325   */\n      add\n        /* \"#utility.yul\":17301:17348   */\n      mstore\n        /* \"#utility.yul\":17365:17496   */\n      tag_438\n        /* \"#utility.yul\":17491:17495   */\n      dup2\n        /* \"#utility.yul\":17365:17496   */\n      tag_249\n      jump\t// in\n    tag_438:\n        /* \"#utility.yul\":17357:17496   */\n      swap1\n      pop\n        /* \"#utility.yul\":17084:17503   */\n      swap2\n      swap1\n      pop\n      jump\t// out\n        /* \"#utility.yul\":17509:17682   */\n    tag_250:\n        /* \"#utility.yul\":17649:17674   */\n      0x5061636b61676520494420616c72656164792075736564000000000000000000\n        /* \"#utility.yul\":17645:17646   */\n      0x00\n        /* \"#utility.yul\":17637:17643   */\n      dup3\n        /* \"#utility.yul\":17633:17647   */\n      add\n        /* \"#utility.yul\":17626:17675   */\n      mstore\n        /* \"#utility.yul\":17509:17682   */\n      pop\n      jump\t// out\n        /* \"#utility.yul\":17688:18054   */\n    tag_251:\n        /* \"#utility.yul\":17830:17833   */\n      0x00\n        /* \"#utility.yul\":17851:17918   */\n      tag_441\n        /* \"#utility.yul\":17915:17917   */\n      0x17\n        /* \"#utility.yul\":17910:17913   */\n      dup4\n        /* \"#utility.yul\":17851:17918   */\n      tag_228\n      jump\t// in\n    tag_441:\n        /* \"#utility.yul\":17844:17918   */\n      swap2\n      pop\n        /* \"#utility.yul\":17927:18020   */\n      tag_442\n        /* \"#utility.yul\":18016:18019   */\n      dup3\n        /* \"#utility.yul\":17927:18020   */\n      tag_250\n      jump\t// in\n    tag_442:\n        /* \"#utility.yul\":18045:18047   */\n      0x20\n        /* \"#utility.yul\":18040:18043   */\n      dup3\n        /* \"#utility.yul\":18036:18048   */\n      add\n        /* \"#utility.yul\":18029:18048   */\n      swap1\n      pop\n        /* \"#utility.yul\":17688:18054   */\n      swap2\n      swap1\n      pop\n      jump\t// out\n        /* \"#utility.yul\":18060:18479   */\n    tag_111:\n        /* \"#utility.yul\":18226:18230   */\n      0x00\n        /* \"#utility.yul\":18264:18266   */\n      0x20\n        /* \"#utility.yul\":18253:18262   */\n      dup3\n        /* \"#utility.yul\":18249:18267   */\n      add\n        /* \"#utility.yul\":18241:18267   */\n      swap1\n      pop\n        /* \"#utility.yul\":18313:18322   */\n      dup2\n        /* \"#utility.yul\":18307:18311   */\n      dup2\n        /* \"#utility.yul\":18303:18323   */\n      sub\n        /* \"#utility.yul\":18299:18300   */\n      0x00\n        /* \"#utility.yul\":18288:18297   */\n      dup4\n        /* \"#utility.yul\":18284:18301   */\n      add\n        /* \"#utility.yul\":18277:18324   */\n      mstore\n        /* \"#utility.yul\":18341:18472   */\n      tag_444\n        /* \"#utility.yul\":18467:18471   */\n      dup2\n        /* \"#utility.yul\":18341:18472   */\n      tag_251\n      jump\t// in\n    tag_444:\n        /* \"#utility.yul\":18333:18472   */\n      swap1\n      pop\n        /* \"#utility.yul\":18060:18479   */\n      swap2\n      swap1\n      pop\n      jump\t// out\n        /* \"#utility.yul\":18485:18665   */\n    tag_252:\n        /* \"#utility.yul\":18533:18610   */\n      0x4e487b7100000000000000000000000000000000000000000000000000000000\n        /* \"#utility.yul\":18530:18531   */\n      0x00\n        /* \"#utility.yul\":18523:18611   */\n      mstore\n        /* \"#utility.yul\":18630:18634   */\n      0x11\n        /* \"#utility.yul\":18627:18628   */\n      0x04\n        /* \"#utility.yul\":18620:18635   */\n      mstore\n        /* \"#utility.yul\":18654:18658   */\n      0x24\n        /* \"#utility.yul\":18651:18652   */\n      0x00\n        /* \"#utility.yul\":18644:18659   */\n      revert\n        /* \"#utility.yul\":18671:18862   */\n    tag_113:\n        /* \"#utility.yul\":18711:18714   */\n      0x00\n        /* \"#utility.yul\":18730:18750   */\n      tag_447\n        /* \"#utility.yul\":18748:18749   */\n      dup3\n        /* \"#utility.yul\":18730:18750   */\n      tag_204\n      jump\t// in\n    tag_447:\n        /* \"#utility.yul\":18725:18750   */\n      swap2\n      pop\n        /* \"#utility.yul\":18764:18784   */\n      tag_448\n        /* \"#utility.yul\":18782:18783   */\n      dup4\n        /* \"#utility.yul\":18764:18784   */\n      tag_204\n      jump\t// in\n    tag_448:\n        /* \"#utility.yul\":18759:18784   */\n      swap3\n      pop\n        /* \"#utility.yul\":18807:18808   */\n      dup3\n        /* \"#utility.yul\":18804:18805   */\n      dup3\n        /* \"#utility.yul\":18800:18809   */\n      add\n        /* \"#utility.yul\":18793:18809   */\n      swap1\n      pop\n        /* \"#utility.yul\":18828:18831   */\n      dup1\n        /* \"#utility.yul\":18825:18826   */\n      dup3\n        /* \"#utility.yul\":18822:18832   */\n      gt\n        /* \"#utility.yul\":18819:18855   */\n      iszero\n      tag_449\n      jumpi\n        /* \"#utility.yul\":18835:18853   */\n      tag_450\n      tag_252\n      jump\t// in\n    tag_450:\n        /* \"#utility.yul\":18819:18855   */\n    tag_449:\n        /* \"#utility.yul\":18671:18862   */\n      swap3\n      swap2\n      pop\n      pop\n      jump\t// out\n        /* \"#utility.yul\":18868:19048   */\n    tag_253:\n        /* \"#utility.yul\":18916:18993   */\n      0x4e487b7100000000000000000000000000000000000000000000000000000000\n        /* \"#utility.yul\":18913:18914   */\n      0x00\n        /* \"#utility.yul\":18906:18994   */\n      mstore\n        /* \"#utility.yul\":19013:19017   */\n      0x22\n        /* \"#utility.yul\":19010:19011   */\n      0x04\n        /* \"#utility.yul\":19003:19018   */\n      mstore\n        /* \"#utility.yul\":19037:19041   */\n      0x24\n        /* \"#utility.yul\":19034:19035   */\n      0x00\n        /* \"#utility.yul\":19027:19042   */\n      revert\n        /* \"#utility.yul\":19054:19374   */\n    tag_122:\n        /* \"#utility.yul\":19098:19104   */\n      0x00\n        /* \"#utility.yul\":19135:19136   */\n      0x02\n        /* \"#utility.yul\":19129:19133   */\n      dup3\n        /* \"#utility.yul\":19125:19137   */\n      div\n        /* \"#utility.yul\":19115:19137   */\n      swap1\n      pop\n        /* \"#utility.yul\":19182:19183   */\n      0x01\n        /* \"#utility.yul\":19176:19180   */\n      dup3\n        /* \"#utility.yul\":19172:19184   */\n      and\n        /* \"#utility.yul\":19203:19221   */\n      dup1\n        /* \"#utility.yul\":19193:19274   */\n      tag_453\n      jumpi\n        /* \"#utility.yul\":19259:19263   */\n      0x7f\n        /* \"#utility.yul\":19251:19257   */\n      dup3\n        /* \"#utility.yul\":19247:19264   */\n      and\n        /* \"#utility.yul\":19237:19264   */\n      swap2\n      pop\n        /* \"#utility.yul\":19193:19274   */\n    tag_453:\n        /* \"#utility.yul\":19321:19323   */\n      0x20\n        /* \"#utility.yul\":19313:19319   */\n      dup3\n        /* \"#utility.yul\":19310:19324   */\n      lt\n        /* \"#utility.yul\":19290:19308   */\n      dup2\n        /* \"#utility.yul\":19287:19325   */\n      sub\n        /* \"#utility.yul\":19284:19368   */\n      tag_454\n      jumpi\n        /* \"#utility.yul\":19340:19358   */\n      tag_455\n      tag_253\n      jump\t// in\n    tag_455:\n        /* \"#utility.yul\":19284:19368   */\n    tag_454:\n        /* \"#utility.yul\":19105:19374   */\n      pop\n        /* \"#utility.yul\":19054:19374   */\n      swap2\n      swap1\n      pop\n      jump\t// out\n        /* \"#utility.yul\":19380:19521   */\n    tag_254:\n        /* \"#utility.yul\":19429:19433   */\n      0x00\n        /* \"#utility.yul\":19452:19455   */\n      dup2\n        /* \"#utility.yul\":19444:19455   */\n      swap1\n      pop\n        /* \"#utility.yul\":19475:19478   */\n      dup2\n        /* \"#utility.yul\":19472:19473   */\n      0x00\n        /* \"#utility.yul\":19465:19479   */\n      mstore\n        /* \"#utility.yul\":19509:19513   */\n      0x20\n        /* \"#utility.yul\":19506:19507   */\n      0x00\n        /* \"#utility.yul\":19496:19514   */\n      keccak256\n        /* \"#utility.yul\":19488:19514   */\n      swap1\n      pop\n        /* \"#utility.yul\":19380:19521   */\n      swap2\n      swap1\n      pop\n      jump\t// out\n        /* \"#utility.yul\":19527:19620   */\n    tag_255:\n        /* \"#utility.yul\":19564:19570   */\n      0x00\n        /* \"#utility.yul\":19611:19613   */\n      0x20\n        /* \"#utility.yul\":19606:19608   */\n      0x1f\n        /* \"#utility.yul\":19599:19604   */\n      dup4\n        /* \"#utility.yul\":19595:19609   */\n      add\n        /* \"#utility.yul\":19591:19614   */\n      div\n        /* \"#utility.yul\":19581:19614   */\n      swap1\n      pop\n        /* \"#utility.yul\":19527:19620   */\n      swap2\n      swap1\n      pop\n      jump\t// out\n        /* \"#utility.yul\":19626:19733   */\n    tag_256:\n        /* \"#utility.yul\":19670:19678   */\n      0x00\n        /* \"#utility.yul\":19720:19725   */\n      dup3\n        /* \"#utility.yul\":19714:19718   */\n      dup3\n        /* \"#utility.yul\":19710:19726   */\n      shl\n        /* \"#utility.yul\":19689:19726   */\n      swap1\n      pop\n        /* \"#utility.yul\":19626:19733   */\n      swap3\n      swap2\n      pop\n      pop\n      jump\t// out\n        /* \"#utility.yul\":19739:20132   */\n    tag_257:\n        /* \"#utility.yul\":19808:19814   */\n      0x00\n        /* \"#utility.yul\":19858:19859   */\n      0x08\n        /* \"#utility.yul\":19846:19856   */\n      dup4\n        /* \"#utility.yul\":19842:19860   */\n      mul\n        /* \"#utility.yul\":19881:19978   */\n      tag_460\n        /* \"#utility.yul\":19911:19977   */\n      0xffffffffffffffffffffffffffffffffffffffffffffffffffffffffffffffff\n        /* \"#utility.yul\":19900:19909   */\n      dup3\n        /* \"#utility.yul\":19881:19978   */\n      tag_256\n      jump\t// in\n    tag_460:\n        /* \"#utility.yul\":19999:20038   */\n      tag_461\n        /* \"#utility.yul\":20029:20037   */\n      dup7\n        /* \"#utility.yul\":20018:20027   */\n      dup4\n        /* \"#utility.yul\":19999:20038   */\n      tag_256\n      jump\t// in\n    tag_461:\n        /* \"#utility.yul\":19987:20038   */\n      swap6\n      pop\n        /* \"#utility.yul\":20071:20075   */\n      dup1\n        /* \"#utility.yul\":20067:20076   */\n      not\n        /* \"#utility.yul\":20060:20065   */\n      dup5\n        /* \"#utility.yul\":20056:20077   */\n      and\n        /* \"#utility.yul\":20047:20077   */\n      swap4\n      pop\n        /* \"#utility.yul\":20120:20124   */\n      dup1\n        /* \"#utility.yul\":20110:20118   */\n      dup7\n        /* \"#utility.yul\":20106:20125   */\n      and\n        /* \"#utility.yul\":20099:20104   */\n      dup5\n        /* \"#utility.yul\":20096:20126   */\n      or\n        /* \"#utility.yul\":20086:20126   */\n      swap3\n      pop\n        /* \"#utility.yul\":19815:20132   */\n      pop\n      pop\n        /* \"#utility.yul\":19739:20132   */\n      swap4\n      swap3\n      pop\n      pop\n      pop\n      jump\t// out\n        /* \"#utility.yul\":20138:20198   */\n    tag_258:\n        /* \"#utility.yul\":20166:20169   */\n      0x00\n        /* \"#utility.yul\":20187:20192   */\n      dup2\n        /* \"#utility.yul\":20180:20192   */\n      swap1\n      pop\n        /* \"#utility.yul\":20138:20198   */\n      swap2\n      swap1\n      pop\n      jump\t// out\n        /* \"#utility.yul\":20204:20346   */\n    tag_259:\n        /* \"#utility.yul\":20254:20263   */\n      0x00\n        /* \"#utility.yul\":20287:20340   */\n      tag_464\n        /* \"#utility.yul\":20305:20339   */\n      tag_465\n        /* \"#utility.yul\":20314:20338   */\n      tag_466\n        /* \"#utility.yul\":20332:20337   */\n      dup5\n        /* \"#utility.yul\":20314:20338   */\n      tag_204\n      jump\t// in\n    tag_466:\n        /* \"#utility.yul\":20305:20339   */\n      tag_258\n      jump\t// in\n    tag_465:\n        /* \"#utility.yul\":20287:20340   */\n      tag_204\n      jump\t// in\n    tag_464:\n        /* \"#utility.yul\":20274:20340   */\n      swap1\n      pop\n        /* \"#utility.yul\":20204:20346   */\n      swap2\n      swap1\n      pop\n      jump\t// out\n        /* \"#utility.yul\":20352:20427   */\n    tag_260:\n        /* \"#utility.yul\":20395:20398   */\n      0x00\n        /* \"#utility.yul\":20416:20421   */\n      dup2\n        /* \"#utility.yul\":20409:20421   */\n      swap1\n      pop\n        /* \"#utility.yul\":20352:20427   */\n      swap2\n      swap1\n      pop\n      jump\t// out\n        /* \"#utility.yul\":20433:20702   */\n    tag_261:\n        /* \"#utility.yul\":20543:20582   */\n      tag_469\n        /* \"#utility.yul\":20574:20581   */\n      dup4\n        /* \"#utility.yul\":20543:20582   */\n      tag_259\n      jump\t// in\n    tag_469:\n        /* \"#utility.yul\":20604:20695   */\n      tag_470\n        /* \"#utility.yul\":20653:20694   */\n      tag_471\n        /* \"#utility.yul\":20677:20693   */\n      dup3\n        /* \"#utility.yul\":20653:20694   */\n      tag_260\n      jump\t// in\n    tag_471:\n        /* \"#utility.yul\":20645:20651   */\n      dup5\n        /* \"#utility.yul\":20638:20642   */\n      dup5\n        /* \"#utility.yul\":20632:20643   */\n      sload\n        /* \"#utility.yul\":20604:20695   */\n      tag_257\n      jump\t// in\n    tag_470:\n        /* \"#utility.yul\":20598:20602   */\n      dup3\n        /* \"#utility.yul\":20591:20696   */\n      sstore\n        /* \"#utility.yul\":20509:20702   */\n      pop\n        /* \"#utility.yul\":20433:20702   */\n      pop\n      pop\n      pop\n      jump\t// out\n        /* \"#utility.yul\":20708:20781   */\n    tag_262:\n        /* \"#utility.yul\":20753:20756   */\n      0x00\n        /* \"#utility.yul\":20774:20775   */\n      0x00\n        /* \"#utility.yul\":20767:20775   */\n      swap1\n      pop\n        /* \"#utility.yul\":20708:20781   */\n      swap1\n      jump\t// out\n        /* \"#utility.yul\":20787:20976   */\n    tag_263:\n        /* \"#utility.yul\":20864:20896   */\n      tag_474\n      tag_262\n      jump\t// in\n    tag_474:\n        /* \"#utility.yul\":20905:20970   */\n      tag_475\n        /* \"#utility.yul\":20963:20969   */\n      dup2\n        /* \"#utility.yul\":20955:20961   */\n      dup5\n        /* \"#utility.yul\":20949:20953   */\n      dup5\n        /* \"#utility.yul\":20905:20970   */\n      tag_261\n      jump\t// in\n    tag_475:\n        /* \"#utility.yul\":20840:20976   */\n      pop\n        /* \"#utility.yul\":20787:20976   */\n      pop\n      pop\n      jump\t// out\n        /* \"#utility.yul\":20982:21168   */\n    tag_264:\n        /* \"#utility.yul\":21042:21162   */\n    tag_477:\n        /* \"#utility.yul\":21059:21062   */\n      dup2\n        /* \"#utility.yul\":21052:21057   */\n      dup2\n        /* \"#utility.yul\":21049:21063   */\n      lt\n        /* \"#utility.yul\":21042:21162   */\n      iszero\n      tag_479\n      jumpi\n        /* \"#utility.yul\":21113:21152   */\n      tag_480\n        /* \"#utility.yul\":21150:21151   */\n      0x00\n        /* \"#utility.yul\":21143:21148   */\n      dup3\n        /* \"#utility.yul\":21113:21152   */\n      tag_263\n      jump\t// in\n    tag_480:\n        /* \"#utility.yul\":21086:21087   */\n      0x01\n        /* \"#utility.yul\":21079:21084   */\n      dup2\n        /* \"#utility.yul\":21075:21088   */\n      add\n        /* \"#utility.yul\":21066:21088   */\n      swap1\n      pop\n        /* \"#utility.yul\":21042:21162   */\n      jump(tag_477)\n    tag_479:\n        /* \"#utility.yul\":20982:21168   */\n      pop\n      pop\n      jump\t// out\n        /* \"#utility.yul\":21174:21717   */\n    tag_265:\n        /* \"#utility.yul\":21275:21277   */\n      0x1f\n        /* \"#utility.yul\":21270:21273   */\n      dup3\n        /* \"#utility.yul\":21267:21278   */\n      gt\n        /* \"#utility.yul\":21264:21710   */\n      iszero\n      tag_482\n      jumpi\n        /* \"#utility.yul\":21309:21347   */\n      tag_483\n        /* \"#utility.yul\":21341:21346   */\n      dup2\n        /* \"#utility.yul\":21309:21347   */\n      tag_254\n      jump\t// in\n    tag_483:\n        /* \"#utility.yul\":21393:21422   */\n      tag_484\n        /* \"#utility.yul\":21411:21421   */\n      dup5\n        /* \"#utility.yul\":21393:21422   */\n      tag_255\n      jump\t// in\n    tag_484:\n        /* \"#utility.yul\":21383:21391   */\n      dup2\n        /* \"#utility.yul\":21379:21423   */\n      add\n        /* \"#utility.yul\":21576:21578   */\n      0x20\n        /* \"#utility.yul\":21564:21574   */\n      dup6\n        /* \"#utility.yul\":21561:21579   */\n      lt\n        /* \"#utility.yul\":21558:21607   */\n      iszero\n      tag_485\n      jumpi\n        /* \"#utility.yul\":21597:21605   */\n      dup2\n        /* \"#utility.yul\":21582:21605   */\n      swap1\n      pop\n        /* \"#utility.yul\":21558:21607   */\n    tag_485:\n        /* \"#utility.yul\":21620:21700   */\n      tag_486\n        /* \"#utility.yul\":21676:21698   */\n      tag_487\n        /* \"#utility.yul\":21694:21697   */\n      dup6\n        /* \"#utility.yul\":21676:21698   */\n      tag_255\n      jump\t// in\n    tag_487:\n        /* \"#utility.yul\":21666:21674   */\n      dup4\n        /* \"#utility.yul\":21662:21699   */\n      add\n        /* \"#utility.yul\":21649:21660   */\n      dup3\n        /* \"#utility.yul\":21620:21700   */\n      tag_264\n      jump\t// in\n    tag_486:\n        /* \"#utility.yul\":21279:21710   */\n      pop\n      pop\n        /* \"#utility.yul\":21264:21710   */\n    tag_482:\n        /* \"#utility.yul\":21174:21717   */\n      pop\n      pop\n      pop\n      jump\t// out\n        /* \"#utility.yul\":21723:21840   */\n    tag_266:\n        /* \"#utility.yul\":21777:21785   */\n      0x00\n        /* \"#utility.yul\":21827:21832   */\n      dup3\n        /* \"#utility.yul\":21821:21825   */\n      dup3\n        /* \"#utility.yul\":21817:21833   */\n      shr\n        /* \"#utility.yul\":21796:21833   */\n      swap1\n      pop\n        /* \"#utility.yul\":21723:21840   */\n      swap3\n      swap2\n      pop\n      pop\n      jump\t// out\n        /* \"#utility.yul\":21846:22015   */\n    tag_267:\n        /* \"#utility.yul\":21890:21896   */\n      0x00\n        /* \"#utility.yul\":21923:21974   */\n      tag_490\n        /* \"#utility.yul\":21971:21972   */\n      0x00\n        /* \"#utility.yul\":21967:21973   */\n      not\n        /* \"#utility.yul\":21959:21964   */\n      dup5\n        /* \"#utility.yul\":21956:21957   */\n      0x08\n        /* \"#utility.yul\":21952:21965   */\n      mul\n        /* \"#utility.yul\":21923:21974   */\n      tag_266\n      jump\t// in\n    tag_490:\n        /* \"#utility.yul\":21919:21975   */\n      not\n        /* \"#utility.yul\":22004:22008   */\n      dup1\n        /* \"#utility.yul\":21998:22002   */\n      dup4\n        /* \"#utility.yul\":21994:22009   */\n      and\n        /* \"#utility.yul\":21984:22009   */\n      swap2\n      pop\n        /* \"#utility.yul\":21897:22015   */\n      pop\n        /* \"#utility.yul\":21846:22015   */\n      swap3\n      swap2\n      pop\n      pop\n      jump\t// out\n        /* \"#utility.yul\":22020:22315   */\n    tag_268:\n        /* \"#utility.yul\":22096:22100   */\n      0x00\n        /* \"#utility.yul\":22242:22271   */\n      tag_492\n        /* \"#utility.yul\":22267:22270   */\n      dup4\n        /* \"#utility.yul\":22261:22265   */\n      dup4\n        /* \"#utility.yul\":22242:22271   */\n      tag_267\n      jump\t// in\n    tag_492:\n        /* \"#utility.yul\":22234:22271   */\n      swap2\n      pop\n        /* \"#utility.yul\":22304:22307   */\n      dup3\n        /* \"#utility.yul\":22301:22302   */\n      0x02\n        /* \"#utility.yul\":22297:22308   */\n      mul\n        /* \"#utility.yul\":22291:22295   */\n      dup3\n        /* \"#utility.yul\":22288:22309   */\n      or\n        /* \"#utility.yul\":22280:22309   */\n      swap1\n      pop\n        /* \"#utility.yul\":22020:22315   */\n      swap3\n      swap2\n      pop\n      pop\n      jump\t// out\n        /* \"#utility.yul\":22320:23715   */\n    tag_117:\n        /* \"#utility.yul\":22437:22474   */\n      tag_494\n        /* \"#utility.yul\":22470:22473   */\n      dup3\n        /* \"#utility.yul\":22437:22474   */\n      tag_227\n      jump\t// in\n    tag_494:\n        /* \"#utility.yul\":22539:22557   */\n      0xffffffffffffffff\n        /* \"#utility.yul\":22531:22537   */\n      dup2\n        /* \"#utility.yul\":22528:22558   */\n      gt\n        /* \"#utility.yul\":22525:22581   */\n      iszero\n      tag_495\n      jumpi\n        /* \"#utility.yul\":22561:22579   */\n      tag_496\n      tag_214\n      jump\t// in\n    tag_496:\n        /* \"#utility.yul\":22525:22581   */\n    tag_495:\n        /* \"#utility.yul\":22605:22643   */\n      tag_497\n        /* \"#utility.yul\":22637:22641   */\n      dup3\n        /* \"#utility.yul\":22631:22642   */\n      sload\n        /* \"#utility.yul\":22605:22643   */\n      tag_122\n      jump\t// in\n    tag_497:\n        /* \"#utility.yul\":22690:22757   */\n      tag_498\n        /* \"#utility.yul\":22750:22756   */\n      dup3\n        /* \"#utility.yul\":22742:22748   */\n      dup3\n        /* \"#utility.yul\":22736:22740   */\n      dup6\n        /* \"#utility.yul\":22690:22757   */\n      tag_265\n      jump\t// in\n    tag_498:\n        /* \"#utility.yul\":22784:22785   */\n      0x00\n        /* \"#utility.yul\":22808:22812   */\n      0x20\n        /* \"#utility.yul\":22795:22812   */\n      swap1\n      pop\n        /* \"#utility.yul\":22840:22842   */\n      0x1f\n        /* \"#utility.yul\":22832:22838   */\n      dup4\n        /* \"#utility.yul\":22829:22843   */\n      gt\n        /* \"#utility.yul\":22857:22858   */\n      0x01\n        /* \"#utility.yul\":22852:23470   */\n      dup2\n      eq\n      tag_500\n      jumpi\n        /* \"#utility.yul\":23514:23515   */\n      0x00\n        /* \"#utility.yul\":23531:23537   */\n      dup5\n        /* \"#utility.yul\":23528:23605   */\n      iszero\n      tag_501\n      jumpi\n        /* \"#utility.yul\":23580:23589   */\n      dup3\n        /* \"#utility.yul\":23575:23578   */\n      dup8\n        /* \"#utility.yul\":23571:23590   */\n      add\n        /* \"#utility.yul\":23565:23591   */\n      mload\n        /* \"#utility.yul\":23556:23591   */\n      swap1\n      pop\n        /* \"#utility.yul\":23528:23605   */\n    tag_501:\n        /* \"#utility.yul\":23631:23698   */\n      tag_502\n        /* \"#utility.yul\":23691:23697   */\n      dup6\n        /* \"#utility.yul\":23684:23689   */\n      dup3\n        /* \"#utility.yul\":23631:23698   */\n      tag_268\n      jump\t// in\n    tag_502:\n        /* \"#utility.yul\":23625:23629   */\n      dup7\n        /* \"#utility.yul\":23618:23699   */\n      sstore\n        /* \"#utility.yul\":23487:23709   */\n      pop\n        /* \"#utility.yul\":22822:23709   */\n      jump(tag_499)\n        /* \"#utility.yul\":22852:23470   */\n    tag_500:\n        /* \"#utility.yul\":22904:22908   */\n      0x1f\n        /* \"#utility.yul\":22900:22909   */\n      not\n        /* \"#utility.yul\":22892:22898   */\n      dup5\n        /* \"#utility.yul\":22888:22910   */\n      and\n        /* \"#utility.yul\":22938:22975   */\n      tag_503\n        /* \"#utility.yul\":22970:22974   */\n      dup7\n        /* \"#utility.yul\":22938:22975   */\n      tag_254\n      jump\t// in\n    tag_503:\n        /* \"#utility.yul\":22997:22998   */\n      0x00\n        /* \"#utility.yul\":23011:23219   */\n    tag_504:\n        /* \"#utility.yul\":23025:23032   */\n      dup3\n        /* \"#utility.yul\":23022:23023   */\n      dup2\n        /* \"#utility.yul\":23019:23033   */\n      lt\n        /* \"#utility.yul\":23011:23219   */\n      iszero\n      tag_506\n      jumpi\n        /* \"#utility.yul\":23104:23113   */\n      dup5\n        /* \"#utility.yul\":23099:23102   */\n      dup10\n        /* \"#utility.yul\":23095:23114   */\n      add\n        /* \"#utility.yul\":23089:23115   */\n      mload\n        /* \"#utility.yul\":23081:23087   */\n      dup3\n        /* \"#utility.yul\":23074:23116   */\n      sstore\n        /* \"#utility.yul\":23155:23156   */\n      0x01\n        /* \"#utility.yul\":23147:23153   */\n      dup3\n        /* \"#utility.yul\":23143:23157   */\n      add\n        /* \"#utility.yul\":23133:23157   */\n      swap2\n      pop\n        /* \"#utility.yul\":23202:23204   */\n      0x20\n        /* \"#utility.yul\":23191:23200   */\n      dup6\n        /* \"#utility.yul\":23187:23205   */\n      add\n        /* \"#utility.yul\":23174:23205   */\n      swap5\n      pop\n        /* \"#utility.yul\":23048:23052   */\n      0x20\n        /* \"#utility.yul\":23045:23046   */\n      dup2\n        /* \"#utility.yul\":23041:23053   */\n      add\n        /* \"#utility.yul\":23036:23053   */\n      swap1\n      pop\n        /* \"#utility.yul\":23011:23219   */\n      jump(tag_504)\n    tag_506:\n        /* \"#utility.yul\":23247:23253   */\n      dup7\n        /* \"#utility.yul\":23238:23245   */\n      dup4\n        /* \"#utility.yul\":23235:23254   */\n      lt\n        /* \"#utility.yul\":23232:23411   */\n      iszero\n      tag_507\n      jumpi\n        /* \"#utility.yul\":23305:23314   */\n      dup5\n        /* \"#utility.yul\":23300:23303   */\n      dup10\n        /* \"#utility.yul\":23296:23315   */\n      add\n        /* \"#utility.yul\":23290:23316   */\n      mload\n        /* \"#utility.yul\":23348:23396   */\n      tag_508\n        /* \"#utility.yul\":23390:23394   */\n      0x1f\n        /* \"#utility.yul\":23382:23388   */\n      dup10\n        /* \"#utility.yul\":23378:23395   */\n      and\n        /* \"#utility.yul\":23367:23376   */\n      dup3\n        /* \"#utility.yul\":23348:23396   */\n      tag_267\n      jump\t// in\n    tag_508:\n        /* \"#utility.yul\":23340:23346   */\n      dup4\n        /* \"#utility.yul\":23333:23397   */\n      sstore\n        /* \"#utility.yul\":23255:23411   */\n      pop\n        /* \"#utility.yul\":23232:23411   */\n    tag_507:\n        /* \"#utility.yul\":23457:23458   */\n      0x01\n        /* \"#utility.yul\":23453:23454   */\n      0x02\n        /* \"#utility.yul\":23445:23451   */\n      dup9\n        /* \"#utility.yul\":23441:23455   */\n      mul\n        /* \"#utility.yul\":23437:23459   */\n      add\n        /* \"#utility.yul\":23431:23435   */\n      dup9\n        /* \"#utility.yul\":23424:23460   */\n      sstore\n        /* \"#utility.yul\":22859:23470   */\n      pop\n      pop\n      pop\n        /* \"#utility.yul\":22822:23709   */\n    tag_499:\n      pop\n        /* \"#utility.yul\":22412:23715   */\n      pop\n      pop\n      pop\n        /* \"#utility.yul\":22320:23715   */\n      pop\n      pop\n      jump\t// out\n        /* \"#utility.yul\":23721:23888   */\n    tag_269:\n        /* \"#utility.yul\":23861:23880   */\n      0x416c72656164792063616e63656c6c6564000000000000000000000000000000\n        /* \"#utility.yul\":23857:23858   */\n      0x00\n        /* \"#utility.yul\":23849:23855   */\n      dup3\n        /* \"#utility.yul\":23845:23859   */\n      add\n        /* \"#utility.yul\":23838:23881   */\n      mstore\n        /* \"#utility.yul\":23721:23888   */\n      pop\n      jump\t// out\n        /* \"#utility.yul\":23894:24260   */\n    tag_270:\n        /* \"#utility.yul\":24036:24039   */\n      0x00\n        /* \"#utility.yul\":24057:24124   */\n      tag_511\n        /* \"#utility.yul\":24121:24123   */\n      0x11\n        /* \"#utility.yul\":24116:24119   */\n      dup4\n        /* \"#utility.yul\":24057:24124   */\n      tag_228\n      jump\t// in\n    tag_511:\n        /* \"#utility.yul\":24050:24124   */\n      swap2\n      pop\n        /* \"#utility.yul\":24133:24226   */\n      tag_512\n        /* \"#utility.yul\":24222:24225   */\n      dup3\n        /* \"#utility.yul\":24133:24226   */\n      tag_269\n      jump\t// in\n    tag_512:\n        /* \"#utility.yul\":24251:24253   */\n      0x20\n        /* \"#utility.yul\":24246:24249   */\n      dup3\n        /* \"#utility.yul\":24242:24254   */\n      add\n        /* \"#utility.yul\":24235:24254   */\n      swap1\n      pop\n        /* \"#utility.yul\":23894:24260   */\n      swap2\n      swap1\n      pop\n      jump\t// out\n        /* \"#utility.yul\":24266:24685   */\n    tag_135:\n        /* \"#utility.yul\":24432:24436   */\n      0x00\n        /* \"#utility.yul\":24470:24472   */\n      0x20\n        /* \"#utility.yul\":24459:24468   */\n      dup3\n        /* \"#utility.yul\":24455:24473   */\n      add\n        /* \"#utility.yul\":24447:24473   */\n      swap1\n      pop\n        /* \"#utility.yul\":24519:24528   */\n      dup2\n        /* \"#utility.yul\":24513:24517   */\n      dup2\n        /* \"#utility.yul\":24509:24529   */\n      sub\n        /* \"#utility.yul\":24505:24506   */\n      0x00\n        /* \"#utility.yul\":24494:24503   */\n      dup4\n        /* \"#utility.yul\":24490:24507   */\n      add\n        /* \"#utility.yul\":24483:24530   */\n      mstore\n        /* \"#utility.yul\":24547:24678   */\n      tag_514\n        /* \"#utility.yul\":24673:24677   */\n      dup2\n        /* \"#utility.yul\":24547:24678   */\n      tag_270\n      jump\t// in\n    tag_514:\n        /* \"#utility.yul\":24539:24678   */\n      swap1\n      pop\n        /* \"#utility.yul\":24266:24685   */\n      swap2\n      swap1\n      pop\n      jump\t// out\n        /* \"#utility.yul\":24691:24858   */\n    tag_271:\n        /* \"#utility.yul\":24831:24850   */\n      0x416c72656164792064656c697665726564000000000000000000000000000000\n        /* \"#utility.yul\":24827:24828   */\n      0x00\n        /* \"#utility.yul\":24819:24825   */\n      dup3\n        /* \"#utility.yul\":24815:24829   */\n      add\n        /* \"#utility.yul\":24808:24851   */\n      mstore\n        /* \"#utility.yul\":24691:24858   */\n      pop\n      jump\t// out\n        /* \"#utility.yul\":24864:25230   */\n    tag_272:\n        /* \"#utility.yul\":25006:25009   */\n      0x00\n        /* \"#utility.yul\":25027:25094   */\n      tag_517\n        /* \"#utility.yul\":25091:25093   */\n      0x11\n        /* \"#utility.yul\":25086:25089   */\n      dup4\n        /* \"#utility.yul\":25027:25094   */\n      tag_228\n      jump\t// in\n    tag_517:\n        /* \"#utility.yul\":25020:25094   */\n      swap2\n      pop\n        /* \"#utility.yul\":25103:25196   */\n      tag_518\n        /* \"#utility.yul\":25192:25195   */\n      dup3\n        /* \"#utility.yul\":25103:25196   */\n      tag_271\n      jump\t// in\n    tag_518:\n        /* \"#utility.yul\":25221:25223   */\n      0x20\n        /* \"#utility.yul\":25216:25219   */\n      dup3\n        /* \"#utility.yul\":25212:25224   */\n      add\n        /* \"#utility.yul\":25205:25224   */\n      swap1\n      pop\n        /* \"#utility.yul\":24864:25230   */\n      swap2\n      swap1\n      pop\n      jump\t// out\n        /* \"#utility.yul\":25236:25655   */\n    tag_142:\n        /* \"#utility.yul\":25402:25406   */\n      0x00\n        /* \"#utility.yul\":25440:25442   */\n      0x20\n        /* \"#utility.yul\":25429:25438   */\n      dup3\n        /* \"#utility.yul\":25425:25443   */\n      add\n        /* \"#utility.yul\":25417:25443   */\n      swap1\n      pop\n        /* \"#utility.yul\":25489:25498   */\n      dup2\n        /* \"#utility.yul\":25483:25487   */\n      dup2\n        /* \"#utility.yul\":25479:25499   */\n      sub\n        /* \"#utility.yul\":25475:25476   */\n      0x00\n        /* \"#utility.yul\":25464:25473   */\n      dup4\n        /* \"#utility.yul\":25460:25477   */\n      add\n        /* \"#utility.yul\":25453:25500   */\n      mstore\n        /* \"#utility.yul\":25517:25648   */\n      tag_520\n        /* \"#utility.yul\":25643:25647   */\n      dup2\n        /* \"#utility.yul\":25517:25648   */\n      tag_272\n      jump\t// in\n    tag_520:\n        /* \"#utility.yul\":25509:25648   */\n      swap1\n      pop\n        /* \"#utility.yul\":25236:25655   */\n      swap2\n      swap1\n      pop\n      jump\t// out\n        /* \"#utility.yul\":25661:25843   */\n    tag_273:\n        /* \"#utility.yul\":25801:25835   */\n      0x446561646c696e65206d69737365642e204175746f2d63616e63656c6c65642e\n        /* \"#utility.yul\":25797:25798   */\n      0x00\n        /* \"#utility.yul\":25789:25795   */\n      dup3\n        /* \"#utility.yul\":25785:25799   */\n      add\n        /* \"#utility.yul\":25778:25836   */\n      mstore\n        /* \"#utility.yul\":25661:25843   */\n      pop\n      jump\t// out\n        /* \"#utility.yul\":25849:26215   */\n    tag_274:\n        /* \"#utility.yul\":25991:25994   */\n      0x00\n        /* \"#utility.yul\":26012:26079   */\n      tag_523\n        /* \"#utility.yul\":26076:26078   */\n      0x20\n        /* \"#utility.yul\":26071:26074   */\n      dup4\n        /* \"#utility.yul\":26012:26079   */\n      tag_228\n      jump\t// in\n    tag_523:\n        /* \"#utility.yul\":26005:26079   */\n      swap2\n      pop\n        /* \"#utility.yul\":26088:26181   */\n      tag_524\n        /* \"#utility.yul\":26177:26180   */\n      dup3\n        /* \"#utility.yul\":26088:26181   */\n      tag_273\n      jump\t// in\n    tag_524:\n        /* \"#utility.yul\":26206:26208   */\n      0x20\n        /* \"#utility.yul\":26201:26204   */\n      dup3\n        /* \"#utility.yul\":26197:26209   */\n      add\n        /* \"#utility.yul\":26190:26209   */\n      swap1\n      pop\n        /* \"#utility.yul\":25849:26215   */\n      swap2\n      swap1\n      pop\n      jump\t// out\n        /* \"#utility.yul\":26221:26860   */\n    tag_147:\n        /* \"#utility.yul\":26443:26447   */\n      0x00\n        /* \"#utility.yul\":26481:26483   */\n      0x60\n        /* \"#utility.yul\":26470:26479   */\n      dup3\n        /* \"#utility.yul\":26466:26484   */\n      add\n        /* \"#utility.yul\":26458:26484   */\n      swap1\n      pop\n        /* \"#utility.yul\":26494:26565   */\n      tag_526\n        /* \"#utility.yul\":26562:26563   */\n      0x00\n        /* \"#utility.yul\":26551:26560   */\n      dup4\n        /* \"#utility.yul\":26547:26564   */\n      add\n        /* \"#utility.yul\":26538:26544   */\n      dup6\n        /* \"#utility.yul\":26494:26565   */\n      tag_210\n      jump\t// in\n    tag_526:\n        /* \"#utility.yul\":26612:26621   */\n      dup2\n        /* \"#utility.yul\":26606:26610   */\n      dup2\n        /* \"#utility.yul\":26602:26622   */\n      sub\n        /* \"#utility.yul\":26597:26599   */\n      0x20\n        /* \"#utility.yul\":26586:26595   */\n      dup4\n        /* \"#utility.yul\":26582:26600   */\n      add\n        /* \"#utility.yul\":26575:26623   */\n      mstore\n        /* \"#utility.yul\":26640:26771   */\n      tag_527\n        /* \"#utility.yul\":26766:26770   */\n      dup2\n        /* \"#utility.yul\":26640:26771   */\n      tag_274\n      jump\t// in\n    tag_527:\n        /* \"#utility.yul\":26632:26771   */\n      swap1\n      pop\n        /* \"#utility.yul\":26781:26853   */\n      tag_528\n        /* \"#utility.yul\":26849:26851   */\n      0x40\n        /* \"#utility.yul\":26838:26847   */\n      dup4\n        /* \"#utility.yul\":26834:26852   */\n      add\n        /* \"#utility.yul\":26825:26831   */\n      dup5\n        /* \"#utility.yul\":26781:26853   */\n      tag_210\n      jump\t// in\n    tag_528:\n        /* \"#utility.yul\":26221:26860   */\n      swap4\n      swap3\n      pop\n      pop\n      pop\n      jump\t// out\n        /* \"#utility.yul\":26866:27039   */\n    tag_275:\n        /* \"#utility.yul\":27006:27031   */\n      0x446561646c696e65206e6f74206d697373656420796574000000000000000000\n        /* \"#utility.yul\":27002:27003   */\n      0x00\n        /* \"#utility.yul\":26994:27000   */\n      dup3\n        /* \"#utility.yul\":26990:27004   */\n      add\n        /* \"#utility.yul\":26983:27032   */\n      mstore\n        /* \"#utility.yul\":26866:27039   */\n      pop\n      jump\t// out\n        /* \"#utility.yul\":27045:27411   */\n    tag_276:\n        /* \"#utility.yul\":27187:27190   */\n      0x00\n        /* \"#utility.yul\":27208:27275   */\n      tag_531\n        /* \"#utility.yul\":27272:27274   */\n      0x17\n        /* \"#utility.yul\":27267:27270   */\n      dup4\n        /* \"#utility.yul\":27208:27275   */\n      tag_228\n      jump\t// in\n    tag_531:\n        /* \"#utility.yul\":27201:27275   */\n      swap2\n      pop\n        /* \"#utility.yul\":27284:27377   */\n      tag_532\n        /* \"#utility.yul\":27373:27376   */\n      dup3\n        /* \"#utility.yul\":27284:27377   */\n      tag_275\n      jump\t// in\n    tag_532:\n        /* \"#utility.yul\":27402:27404   */\n      0x20\n        /* \"#utility.yul\":27397:27400   */\n      dup3\n        /* \"#utility.yul\":27393:27405   */\n      add\n        /* \"#utility.yul\":27386:27405   */\n      swap1\n      pop\n        /* \"#utility.yul\":27045:27411   */\n      swap2\n      swap1\n      pop\n      jump\t// out\n        /* \"#utility.yul\":27417:27836   */\n    tag_150:\n        /* \"#utility.yul\":27583:27587   */\n      0x00\n        /* \"#utility.yul\":27621:27623   */\n      0x20\n        /* \"#utility.yul\":27610:27619   */\n      dup3\n        /* \"#utility.yul\":27606:27624   */\n      add\n        /* \"#utility.yul\":27598:27624   */\n      swap1\n      pop\n        /* \"#utility.yul\":27670:27679   */\n      dup2\n        /* \"#utility.yul\":27664:27668   */\n      dup2\n        /* \"#utility.yul\":27660:27680   */\n      sub\n        /* \"#utility.yul\":27656:27657   */\n      0x00\n        /* \"#utility.yul\":27645:27654   */\n      dup4\n        /* \"#utility.yul\":27641:27658   */\n      add\n        /* \"#utility.yul\":27634:27681   */\n      mstore\n        /* \"#utility.yul\":27698:27829   */\n      tag_534\n        /* \"#utility.yul\":27824:27828   */\n      dup2\n        /* \"#utility.yul\":27698:27829   */\n      tag_276\n      jump\t// in\n    tag_534:\n        /* \"#utility.yul\":27690:27829   */\n      swap1\n      pop\n        /* \"#utility.yul\":27417:27836   */\n      swap2\n      swap1\n      pop\n      jump\t// out\n        /* \"#utility.yul\":27842:28013   */\n    tag_277:\n        /* \"#utility.yul\":27982:28005   */\n      0x5061636b616765206e6f742061742073656c6c65720000000000000000000000\n        /* \"#utility.yul\":27978:27979   */\n      0x00\n        /* \"#utility.yul\":27970:27976   */\n      dup3\n        /* \"#utility.yul\":27966:27980   */\n      add\n        /* \"#utility.yul\":27959:28006   */\n      mstore\n        /* \"#utility.yul\":27842:28013   */\n      pop\n      jump\t// out\n        /* \"#utility.yul\":28019:28385   */\n    tag_278:\n        /* \"#utility.yul\":28161:28164   */\n      0x00\n        /* \"#utility.yul\":28182:28249   */\n      tag_537\n        /* \"#utility.yul\":28246:28248   */\n      0x15\n        /* \"#utility.yul\":28241:28244   */\n      dup4\n        /* \"#utility.yul\":28182:28249   */\n      tag_228\n      jump\t// in\n    tag_537:\n        /* \"#utility.yul\":28175:28249   */\n      swap2\n      pop\n        /* \"#utility.yul\":28258:28351   */\n      tag_538\n        /* \"#utility.yul\":28347:28350   */\n      dup3\n        /* \"#utility.yul\":28258:28351   */\n      tag_277\n      jump\t// in\n    tag_538:\n        /* \"#utility.yul\":28376:28378   */\n      0x20\n        /* \"#utility.yul\":28371:28374   */\n      dup3\n        /* \"#utility.yul\":28367:28379   */\n      add\n        /* \"#utility.yul\":28360:28379   */\n      swap1\n      pop\n        /* \"#utility.yul\":28019:28385   */\n      swap2\n      swap1\n      pop\n      jump\t// out\n        /* \"#utility.yul\":28391:28810   */\n    tag_173:\n        /* \"#utility.yul\":28557:28561   */\n      0x00\n        /* \"#utility.yul\":28595:28597   */\n      0x20\n        /* \"#utility.yul\":28584:28593   */\n      dup3\n        /* \"#utility.yul\":28580:28598   */\n      add\n        /* \"#utility.yul\":28572:28598   */\n      swap1\n      pop\n        /* \"#utility.yul\":28644:28653   */\n      dup2\n        /* \"#utility.yul\":28638:28642   */\n      dup2\n        /* \"#utility.yul\":28634:28654   */\n      sub\n        /* \"#utility.yul\":28630:28631   */\n      0x00\n        /* \"#utility.yul\":28619:28628   */\n      dup4\n        /* \"#utility.yul\":28615:28632   */\n      add\n        /* \"#utility.yul\":28608:28655   */\n      mstore\n        /* \"#utility.yul\":28672:28803   */\n      tag_540\n        /* \"#utility.yul\":28798:28802   */\n      dup2\n        /* \"#utility.yul\":28672:28803   */\n      tag_278\n      jump\t// in\n    tag_540:\n        /* \"#utility.yul\":28664:28803   */\n      swap1\n      pop\n        /* \"#utility.yul\":28391:28810   */\n      swap2\n      swap1\n      pop\n      jump\t// out\n        /* \"#utility.yul\":28816:28986   */\n    tag_279:\n        /* \"#utility.yul\":28956:28978   */\n      0x4e6f74207468652064656c697665727920626f79000000000000000000000000\n        /* \"#utility.yul\":28952:28953   */\n      0x00\n        /* \"#utility.yul\":28944:28950   */\n      dup3\n        /* \"#utility.yul\":28940:28954   */\n      add\n        /* \"#utility.yul\":28933:28979   */\n      mstore\n        /* \"#utility.yul\":28816:28986   */\n      pop\n      jump\t// out\n        /* \"#utility.yul\":28992:29358   */\n    tag_280:\n        /* \"#utility.yul\":29134:29137   */\n      0x00\n        /* \"#utility.yul\":29155:29222   */\n      tag_543\n        /* \"#utility.yul\":29219:29221   */\n      0x14\n        /* \"#utility.yul\":29214:29217   */\n      dup4\n        /* \"#utility.yul\":29155:29222   */\n      tag_228\n      jump\t// in\n    tag_543:\n        /* \"#utility.yul\":29148:29222   */\n      swap2\n      pop\n        /* \"#utility.yul\":29231:29324   */\n      tag_544\n        /* \"#utility.yul\":29320:29323   */\n      dup3\n        /* \"#utility.yul\":29231:29324   */\n      tag_279\n      jump\t// in\n    tag_544:\n        /* \"#utility.yul\":29349:29351   */\n      0x20\n        /* \"#utility.yul\":29344:29347   */\n      dup3\n        /* \"#utility.yul\":29340:29352   */\n      add\n        /* \"#utility.yul\":29333:29352   */\n      swap1\n      pop\n        /* \"#utility.yul\":28992:29358   */\n      swap2\n      swap1\n      pop\n      jump\t// out\n        /* \"#utility.yul\":29364:29783   */\n    tag_180:\n        /* \"#utility.yul\":29530:29534   */\n      0x00\n        /* \"#utility.yul\":29568:29570   */\n      0x20\n        /* \"#utility.yul\":29557:29566   */\n      dup3\n        /* \"#utility.yul\":29553:29571   */\n      add\n        /* \"#utility.yul\":29545:29571   */\n      swap1\n      pop\n        /* \"#utility.yul\":29617:29626   */\n      dup2\n        /* \"#utility.yul\":29611:29615   */\n      dup2\n        /* \"#utility.yul\":29607:29627   */\n      sub\n        /* \"#utility.yul\":29603:29604   */\n      0x00\n        /* \"#utility.yul\":29592:29601   */\n      dup4\n        /* \"#utility.yul\":29588:29605   */\n      add\n        /* \"#utility.yul\":29581:29628   */\n      mstore\n        /* \"#utility.yul\":29645:29776   */\n      tag_546\n        /* \"#utility.yul\":29771:29775   */\n      dup2\n        /* \"#utility.yul\":29645:29776   */\n      tag_280\n      jump\t// in\n    tag_546:\n        /* \"#utility.yul\":29637:29776   */\n      swap1\n      pop\n        /* \"#utility.yul\":29364:29783   */\n      swap2\n      swap1\n      pop\n      jump\t// out\n        /* \"#utility.yul\":29789:29968   */\n    tag_281:\n        /* \"#utility.yul\":29929:29960   */\n      0x5061636b616765206e6f7420776974682064656c697665727920626f79000000\n        /* \"#utility.yul\":29925:29926   */\n      0x00\n        /* \"#utility.yul\":29917:29923   */\n      dup3\n        /* \"#utility.yul\":29913:29927   */\n      add\n        /* \"#utility.yul\":29906:29961   */\n      mstore\n        /* \"#utility.yul\":29789:29968   */\n      pop\n      jump\t// out\n        /* \"#utility.yul\":29974:30340   */\n    tag_282:\n        /* \"#utility.yul\":30116:30119   */\n      0x00\n        /* \"#utility.yul\":30137:30204   */\n      tag_549\n        /* \"#utility.yul\":30201:30203   */\n      0x1d\n        /* \"#utility.yul\":30196:30199   */\n      dup4\n        /* \"#utility.yul\":30137:30204   */\n      tag_228\n      jump\t// in\n    tag_549:\n        /* \"#utility.yul\":30130:30204   */\n      swap2\n      pop\n        /* \"#utility.yul\":30213:30306   */\n      tag_550\n        /* \"#utility.yul\":30302:30305   */\n      dup3\n        /* \"#utility.yul\":30213:30306   */\n      tag_281\n      jump\t// in\n    tag_550:\n        /* \"#utility.yul\":30331:30333   */\n      0x20\n        /* \"#utility.yul\":30326:30329   */\n      dup3\n        /* \"#utility.yul\":30322:30334   */\n      add\n        /* \"#utility.yul\":30315:30334   */\n      swap1\n      pop\n        /* \"#utility.yul\":29974:30340   */\n      swap2\n      swap1\n      pop\n      jump\t// out\n        /* \"#utility.yul\":30346:30765   */\n    tag_191:\n        /* \"#utility.yul\":30512:30516   */\n      0x00\n        /* \"#utility.yul\":30550:30552   */\n      0x20\n        /* \"#utility.yul\":30539:30548   */\n      dup3\n        /* \"#utility.yul\":30535:30553   */\n      add\n        /* \"#utility.yul\":30527:30553   */\n      swap1\n      pop\n        /* \"#utility.yul\":30599:30608   */\n      dup2\n        /* \"#utility.yul\":30593:30597   */\n      dup2\n        /* \"#utility.yul\":30589:30609   */\n      sub\n        /* \"#utility.yul\":30585:30586   */\n      0x00\n        /* \"#utility.yul\":30574:30583   */\n      dup4\n        /* \"#utility.yul\":30570:30587   */\n      add\n        /* \"#utility.yul\":30563:30610   */\n      mstore\n        /* \"#utility.yul\":30627:30758   */\n      tag_552\n        /* \"#utility.yul\":30753:30757   */\n      dup2\n        /* \"#utility.yul\":30627:30758   */\n      tag_282\n      jump\t// in\n    tag_552:\n        /* \"#utility.yul\":30619:30758   */\n      swap1\n      pop\n        /* \"#utility.yul\":30346:30765   */\n      swap2\n      swap1\n      pop\n      jump\t// out\n        /* \"#utility.yul\":30771:31552   */\n    tag_200:\n        /* \"#utility.yul\":31007:31011   */\n      0x00\n        /* \"#utility.yul\":31045:31048   */\n      0xc0\n        /* \"#utility.yul\":31034:31043   */\n      dup3\n        /* \"#utility.yul\":31030:31049   */\n      add\n        /* \"#utility.yul\":31022:31049   */\n      swap1\n      pop\n        /* \"#utility.yul\":31059:31130   */\n      tag_554\n        /* \"#utility.yul\":31127:31128   */\n      0x00\n        /* \"#utility.yul\":31116:31125   */\n      dup4\n        /* \"#utility.yul\":31112:31129   */\n      add\n        /* \"#utility.yul\":31103:31109   */\n      dup10\n        /* \"#utility.yul\":31059:31130   */\n      tag_210\n      jump\t// in\n    tag_554:\n        /* \"#utility.yul\":31140:31212   */\n      tag_555\n        /* \"#utility.yul\":31208:31210   */\n      0x20\n        /* \"#utility.yul\":31197:31206   */\n      dup4\n        /* \"#utility.yul\":31193:31211   */\n      add\n        /* \"#utility.yul\":31184:31190   */\n      dup9\n        /* \"#utility.yul\":31140:31212   */\n      tag_209\n      jump\t// in\n    tag_555:\n        /* \"#utility.yul\":31222:31294   */\n      tag_556\n        /* \"#utility.yul\":31290:31292   */\n      0x40\n        /* \"#utility.yul\":31279:31288   */\n      dup4\n        /* \"#utility.yul\":31275:31293   */\n      add\n        /* \"#utility.yul\":31266:31272   */\n      dup8\n        /* \"#utility.yul\":31222:31294   */\n      tag_209\n      jump\t// in\n    tag_556:\n        /* \"#utility.yul\":31304:31376   */\n      tag_557\n        /* \"#utility.yul\":31372:31374   */\n      0x60\n        /* \"#utility.yul\":31361:31370   */\n      dup4\n        /* \"#utility.yul\":31357:31375   */\n      add\n        /* \"#utility.yul\":31348:31354   */\n      dup7\n        /* \"#utility.yul\":31304:31376   */\n      tag_210\n      jump\t// in\n    tag_557:\n        /* \"#utility.yul\":31386:31468   */\n      tag_558\n        /* \"#utility.yul\":31463:31466   */\n      0x80\n        /* \"#utility.yul\":31452:31461   */\n      dup4\n        /* \"#utility.yul\":31448:31467   */\n      add\n        /* \"#utility.yul\":31439:31445   */\n      dup6\n        /* \"#utility.yul\":31386:31468   */\n      tag_224\n      jump\t// in\n    tag_558:\n        /* \"#utility.yul\":31478:31545   */\n      tag_559\n        /* \"#utility.yul\":31540:31543   */\n      0xa0\n        /* \"#utility.yul\":31529:31538   */\n      dup4\n        /* \"#utility.yul\":31525:31544   */\n      add\n        /* \"#utility.yul\":31516:31522   */\n      dup5\n        /* \"#utility.yul\":31478:31545   */\n      tag_226\n      jump\t// in\n    tag_559:\n        /* \"#utility.yul\":30771:31552   */\n      swap8\n      swap7\n      pop\n      pop\n      pop\n      pop\n      pop\n      pop\n      pop\n      jump\t// out\n\n    auxdata: 0xa2646970667358221220cfdd56becd6d6a92b411c2fd315b2f01b902222990f31d2d37b748c5658da52764736f6c634300081e0033\n}\n",
				"bytecode": {
					"linkReferences": {},
					"object": "6080604052335f5f6101000a81548173ffffffffffffffffffffffffffffffffffffffff021916908373ffffffffffffffffffffffffffffffffffffffff16021790555073333333333333333333333333333333333333333360015f6101000a81548173ffffffffffffffffffffffffffffffffffffffff021916908373ffffffffffffffffffffffffffffffffffffffff16021790555073111111111111111111111111111111111111111160025f6101000a81548173ffffffffffffffffffffffffffffffffffffffff021916908373ffffffffffffffffffffffffffffffffffffffff16021790555073222222222222222222222222222222222222222260035f6101000a81548173ffffffffffffffffffffffffffffffffffffffff021916908373ffffffffffffffffffffffffffffffffffffffff16021790555034801561014a575f5ffd5b506122f3806101585f395ff3fe608060405234801561000f575f5ffd5b50600436106100f3575f3560e01c80639b62276911610095578063c495c8a811610064578063c495c8a81461027a578063cd22243f146102aa578063ea453684146102c8578063fcabba1e146102e4576100f3565b80639b622769146101db578063a6990946146101f9578063bf5f3d4a14610229578063c216212a14610245576100f3565b80634d695f95116100d15780634d695f95146101515780637150d8ae1461016d57806373cf03b61461018b5780638bab233b146101a7576100f3565b80630479fec5146100f757806308551a5314610129578063128b853214610147575b5f5ffd5b610111600480360381019061010c9190611450565b610300565b604051610120939291906114dc565b60405180910390f35b61013161037e565b60405161013e9190611511565b60405180910390f35b61014f6103a3565b005b61016b6004803603810190610166919061152a565b6103e5565b005b6101756105db565b6040516101829190611511565b60405180910390f35b6101a560048036038101906101a09190611691565b6105ff565b005b6101c160048036038101906101bc919061152a565b610841565b6040516101d2959493929190611778565b60405180910390f35b6101e36109e2565b6040516101f09190611511565b60405180910390f35b610213600480360381019061020e919061152a565b610a07565b60405161022091906117c9565b60405180910390f35b610243600480360381019061023e919061152a565b610a27565b005b61025f600480360381019061025a919061152a565b610bd6565b60405161027196959493929190611842565b60405180910390f35b610294600480360381019061028f919061152a565b610ccc565b6040516102a191906119ae565b60405180910390f35b6102b2610dec565b6040516102bf9190611511565b60405180910390f35b6102e260048036038101906102dd919061152a565b610e11565b005b6102fe60048036038101906102f9919061152a565b611006565b005b6005602052815f5260405f208181548110610319575f80fd5b905f5260205f2090600302015f9150915050805f015f9054906101000a900473ffffffffffffffffffffffffffffffffffffffff1690806001015f9054906101000a900473ffffffffffffffffffffffffffffffffffffffff16908060020154905083565b60015f9054906101000a900473ffffffffffffffffffffffffffffffffffffffff1681565b3360015f6101000a81548173ffffffffffffffffffffffffffffffffffffffff021916908373ffffffffffffffffffffffffffffffffffffffff160217905550565b60025f9054906101000a900473ffffffffffffffffffffffffffffffffffffffff1673ffffffffffffffffffffffffffffffffffffffff163373ffffffffffffffffffffffffffffffffffffffff1614610474576040517f08c379a000000000000000000000000000000000000000000000000000000000815260040161046b90611a18565b60405180910390fd5b8060045f8281526020019081526020015f206004015f9054906101000a900460ff16156104d6576040517f08c379a00000000000000000000000000000000000000000000000000000000081526004016104cd90611a80565b60405180910390fd5b5f60045f8481526020019081526020015f209050600160048111156104fe576104fd6116eb565b5b8160020160149054906101000a900460ff166004811115610522576105216116eb565b5b14610562576040517f08c379a000000000000000000000000000000000000000000000000000000000815260040161055990611ae8565b60405180910390fd5b80600301544211156105a9576040517f08c379a00000000000000000000000000000000000000000000000000000000081526004016105a090611b50565b60405180910390fd5b6105d68360035f9054906101000a900473ffffffffffffffffffffffffffffffffffffffff1660026111fb565b505050565b5f5f9054906101000a900473ffffffffffffffffffffffffffffffffffffffff1681565b60015f9054906101000a900473ffffffffffffffffffffffffffffffffffffffff1673ffffffffffffffffffffffffffffffffffffffff163373ffffffffffffffffffffffffffffffffffffffff161461068e576040517f08c379a000000000000000000000000000000000000000000000000000000000815260040161068590611bb8565b60405180910390fd5b5f60045f8481526020019081526020015f205f0154146106e3576040517f08c379a00000000000000000000000000000000000000000000000000000000081526004016106da90611c20565b60405180910390fd5b5f6078426106f19190611c6b565b90506040518060c0016040528084815260200183815260200160015f9054906101000a900473ffffffffffffffffffffffffffffffffffffffff1673ffffffffffffffffffffffffffffffffffffffff1681526020015f600481111561075a576107596116eb565b5b81526020018281526020015f151581525060045f8581526020019081526020015f205f820151815f015560208201518160010190816107999190611e9b565b506040820151816002015f6101000a81548173ffffffffffffffffffffffffffffffffffffffff021916908373ffffffffffffffffffffffffffffffffffffffff16021790555060608201518160020160146101000a81548160ff0219169083600481111561080b5761080a6116eb565b5b02179055506080820151816003015560a0820151816004015f6101000a81548160ff021916908315150217905550905050505050565b5f5f5f5f5f5f60045f8881526020019081526020015f206040518060c00160405290815f820154815260200160018201805461087c90611ccb565b80601f01602080910402602001604051908101604052809291908181526020018280546108a890611ccb565b80156108f35780601f106108ca576101008083540402835291602001916108f3565b820191905f5260205f20905b8154815290600101906020018083116108d657829003601f168201915b50505050508152602001600282015f9054906101000a900473ffffffffffffffffffffffffffffffffffffffff1673ffffffffffffffffffffffffffffffffffffffff1673ffffffffffffffffffffffffffffffffffffffff1681526020016002820160149054906101000a900460ff166004811115610976576109756116eb565b5b6004811115610988576109876116eb565b5b815260200160038201548152602001600482015f9054906101000a900460ff161515151581525050905080604001518160600151826080015183608001514211158460a00151955095509550955095505091939590929450565b60025f9054906101000a900473ffffffffffffffffffffffffffffffffffffffff1681565b5f60045f8381526020019081526020015f20600301544211159050919050565b5f60045f8381526020019081526020015f209050806004015f9054906101000a900460ff1615610a8c576040517f08c379a0000000000000000000000000000000000000000000000000000000008152600401610a8390611fb4565b60405180910390fd5b60036004811115610aa057610a9f6116eb565b5b8160020160149054906101000a900460ff166004811115610ac457610ac36116eb565b5b03610b04576040517f08c379a0000000000000000000000000000000000000000000000000000000008152600401610afb9061201c565b60405180910390fd5b8060030154421115610b97576001816004015f6101000a81548160ff02191690831515021790555060048160020160146101000a81548160ff02191690836004811115610b5457610b536116eb565b5b02179055507f868ca8f263f6f33dd8a2c8f5d85b894e3264c52c81e240455f92e37d6a32a0cd8242604051610b8a929190612084565b60405180910390a1610bd2565b6040517f08c379a0000000000000000000000000000000000000000000000000000000008152600401610bc990612108565b60405180910390fd5b5050565b6004602052805f5260405f205f91509050805f015490806001018054610bfb90611ccb565b80601f0160208091040260200160405190810160405280929190818152602001828054610c2790611ccb565b8015610c725780601f10610c4957610100808354040283529160200191610c72565b820191905f5260205f20905b815481529060010190602001808311610c5557829003601f168201915b505050505090806002015f9054906101000a900473ffffffffffffffffffffffffffffffffffffffff16908060020160149054906101000a900460ff1690806003015490806004015f9054906101000a900460ff16905086565b606060055f8381526020019081526020015f20805480602002602001604051908101604052809291908181526020015f905b82821015610de1578382905f5260205f2090600302016040518060600160405290815f82015f9054906101000a900473ffffffffffffffffffffffffffffffffffffffff1673ffffffffffffffffffffffffffffffffffffffff1673ffffffffffffffffffffffffffffffffffffffff168152602001600182015f9054906101000a900473ffffffffffffffffffffffffffffffffffffffff1673ffffffffffffffffffffffffffffffffffffffff1673ffffffffffffffffffffffffffffffffffffffff16815260200160028201548152505081526020019060010190610cfe565b505050509050919050565b60035f9054906101000a900473ffffffffffffffffffffffffffffffffffffffff1681565b60015f9054906101000a900473ffffffffffffffffffffffffffffffffffffffff1673ffffffffffffffffffffffffffffffffffffffff163373ffffffffffffffffffffffffffffffffffffffff1614610ea0576040517f08c379a0000000000000000000000000000000000000000000000000000000008152600401610e9790611bb8565b60405180910390fd5b8060045f8281526020019081526020015f206004015f9054906101000a900460ff1615610f02576040517f08c379a0000000000000000000000000000000000000000000000000000000008152600401610ef990611a80565b60405180910390fd5b5f60045f8481526020019081526020015f2090505f6004811115610f2957610f286116eb565b5b8160020160149054906101000a900460ff166004811115610f4d57610f4c6116eb565b5b14610f8d576040517f08c379a0000000000000000000000000000000000000000000000000000000008152600401610f8490612170565b60405180910390fd5b8060030154421115610fd4576040517f08c379a0000000000000000000000000000000000000000000000000000000008152600401610fcb90611b50565b60405180910390fd5b6110018360025f9054906101000a900473ffffffffffffffffffffffffffffffffffffffff1660016111fb565b505050565b60035f9054906101000a900473ffffffffffffffffffffffffffffffffffffffff1673ffffffffffffffffffffffffffffffffffffffff163373ffffffffffffffffffffffffffffffffffffffff1614611095576040517f08c379a000000000000000000000000000000000000000000000000000000000815260040161108c906121d8565b60405180910390fd5b8060045f8281526020019081526020015f206004015f9054906101000a900460ff16156110f7576040517f08c379a00000000000000000000000000000000000000000000000000000000081526004016110ee90611a80565b60405180910390fd5b5f60045f8481526020019081526020015f2090506002600481111561111f5761111e6116eb565b5b8160020160149054906101000a900460ff166004811115611143576111426116eb565b5b14611183576040517f08c379a000000000000000000000000000000000000000000000000000000000815260040161117a90612240565b60405180910390fd5b80600301544211156111ca576040517f08c379a00000000000000000000000000000000000000000000000000000000081526004016111c190611b50565b60405180910390fd5b6111f6835f5f9054906101000a900473ffffffffffffffffffffffffffffffffffffffff1660036111fb565b505050565b5f60045f8581526020019081526020015f2090505f816002015f9054906101000a900473ffffffffffffffffffffffffffffffffffffffff16905083826002015f6101000a81548173ffffffffffffffffffffffffffffffffffffffff021916908373ffffffffffffffffffffffffffffffffffffffff160217905550828260020160146101000a81548160ff0219169083600481111561129f5761129e6116eb565b5b02179055505f8260030154421115905060055f8781526020019081526020015f2060405180606001604052808473ffffffffffffffffffffffffffffffffffffffff1681526020018773ffffffffffffffffffffffffffffffffffffffff16815260200142815250908060018154018082558091505060019003905f5260205f2090600302015f909190919091505f820151815f015f6101000a81548173ffffffffffffffffffffffffffffffffffffffff021916908373ffffffffffffffffffffffffffffffffffffffff1602179055506020820151816001015f6101000a81548173ffffffffffffffffffffffffffffffffffffffff021916908373ffffffffffffffffffffffffffffffffffffffff1602179055506040820151816002015550507f3df940cbc17c560183c25f0b89dbd833625fc2a29dc1cfb3cd5f93d9d85303088683874288866040516113fc9695949392919061225e565b60405180910390a1505050505050565b5f604051905090565b5f5ffd5b5f5ffd5b5f819050919050565b61142f8161141d565b8114611439575f5ffd5b50565b5f8135905061144a81611426565b92915050565b5f5f6040838503121561146657611465611415565b5b5f6114738582860161143c565b92505060206114848582860161143c565b9150509250929050565b5f73ffffffffffffffffffffffffffffffffffffffff82169050919050565b5f6114b78261148e565b9050919050565b6114c7816114ad565b82525050565b6114d68161141d565b82525050565b5f6060820190506114ef5f8301866114be565b6114fc60208301856114be565b61150960408301846114cd565b949350505050565b5f6020820190506115245f8301846114be565b92915050565b5f6020828403121561153f5761153e611415565b5b5f61154c8482850161143c565b91505092915050565b5f5ffd5b5f5ffd5b5f601f19601f8301169050919050565b7f4e487b71000000000000000000000000000000000000000000000000000000005f52604160045260245ffd5b6115a38261155d565b810181811067ffffffffffffffff821117156115c2576115c161156d565b5b80604052505050565b5f6115d461140c565b90506115e0828261159a565b919050565b5f67ffffffffffffffff8211156115ff576115fe61156d565b5b6116088261155d565b9050602081019050919050565b828183375f83830152505050565b5f611635611630846115e5565b6115cb565b90508281526020810184848401111561165157611650611559565b5b61165c848285611615565b509392505050565b5f82601f83011261167857611677611555565b5b8135611688848260208601611623565b91505092915050565b5f5f604083850312156116a7576116a6611415565b5b5f6116b48582860161143c565b925050602083013567ffffffffffffffff8111156116d5576116d4611419565b5b6116e185828601611664565b9150509250929050565b7f4e487b71000000000000000000000000000000000000000000000000000000005f52602160045260245ffd5b60058110611729576117286116eb565b5b50565b5f81905061173982611718565b919050565b5f6117488261172c565b9050919050565b6117588161173e565b82525050565b5f8115159050919050565b6117728161175e565b82525050565b5f60a08201905061178b5f8301886114be565b611798602083018761174f565b6117a560408301866114cd565b6117b26060830185611769565b6117bf6080830184611769565b9695505050505050565b5f6020820190506117dc5f830184611769565b92915050565b5f81519050919050565b5f82825260208201905092915050565b8281835e5f83830152505050565b5f611814826117e2565b61181e81856117ec565b935061182e8185602086016117fc565b6118378161155d565b840191505092915050565b5f60c0820190506118555f8301896114cd565b8181036020830152611867818861180a565b905061187660408301876114be565b611883606083018661174f565b61189060808301856114cd565b61189d60a0830184611769565b979650505050505050565b5f81519050919050565b5f82825260208201905092915050565b5f819050602082019050919050565b6118da816114ad565b82525050565b6118e98161141d565b82525050565b606082015f8201516119035f8501826118d1565b50602082015161191660208501826118d1565b50604082015161192960408501826118e0565b50505050565b5f61193a83836118ef565b60608301905092915050565b5f602082019050919050565b5f61195c826118a8565b61196681856118b2565b9350611971836118c2565b805f5b838110156119a1578151611988888261192f565b975061199383611946565b925050600181019050611974565b5085935050505092915050565b5f6020820190508181035f8301526119c68184611952565b905092915050565b7f4e6f74207468652077617265686f7573650000000000000000000000000000005f82015250565b5f611a026011836117ec565b9150611a0d826119ce565b602082019050919050565b5f6020820190508181035f830152611a2f816119f6565b9050919050565b7f5061636b6167652069732063616e63656c6c65640000000000000000000000005f82015250565b5f611a6a6014836117ec565b9150611a7582611a36565b602082019050919050565b5f6020820190508181035f830152611a9781611a5e565b9050919050565b7f5061636b616765206e6f7420696e2077617265686f75736500000000000000005f82015250565b5f611ad26018836117ec565b9150611add82611a9e565b602082019050919050565b5f6020820190508181035f830152611aff81611ac6565b9050919050565b7f446561646c696e65207061737365642e204175746f2d63616e63656c6c65642e5f82015250565b5f611b3a6020836117ec565b9150611b4582611b06565b602082019050919050565b5f6020820190508181035f830152611b6781611b2e565b9050919050565b7f4e6f74207468652073656c6c65720000000000000000000000000000000000005f82015250565b5f611ba2600e836117ec565b9150611bad82611b6e565b602082019050919050565b5f6020820190508181035f830152611bcf81611b96565b9050919050565b7f5061636b61676520494420616c726561647920757365640000000000000000005f82015250565b5f611c0a6017836117ec565b9150611c1582611bd6565b602082019050919050565b5f6020820190508181035f830152611c3781611bfe565b9050919050565b7f4e487b71000000000000000000000000000000000000000000000000000000005f52601160045260245ffd5b5f611c758261141d565b9150611c808361141d565b9250828201905080821115611c9857611c97611c3e565b5b92915050565b7f4e487b71000000000000000000000000000000000000000000000000000000005f52602260045260245ffd5b5f6002820490506001821680611ce257607f821691505b602082108103611cf557611cf4611c9e565b5b50919050565b5f819050815f5260205f209050919050565b5f6020601f8301049050919050565b5f82821b905092915050565b5f60088302611d577fffffffffffffffffffffffffffffffffffffffffffffffffffffffffffffffff82611d1c565b611d618683611d1c565b95508019841693508086168417925050509392505050565b5f819050919050565b5f611d9c611d97611d928461141d565b611d79565b61141d565b9050919050565b5f819050919050565b611db583611d82565b611dc9611dc182611da3565b848454611d28565b825550505050565b5f5f905090565b611de0611dd1565b611deb818484611dac565b505050565b5b81811015611e0e57611e035f82611dd8565b600181019050611df1565b5050565b601f821115611e5357611e2481611cfb565b611e2d84611d0d565b81016020851015611e3c578190505b611e50611e4885611d0d565b830182611df0565b50505b505050565b5f82821c905092915050565b5f611e735f1984600802611e58565b1980831691505092915050565b5f611e8b8383611e64565b9150826002028217905092915050565b611ea4826117e2565b67ffffffffffffffff811115611ebd57611ebc61156d565b5b611ec78254611ccb565b611ed2828285611e12565b5f60209050601f831160018114611f03575f8415611ef1578287015190505b611efb8582611e80565b865550611f62565b601f198416611f1186611cfb565b5f5b82811015611f3857848901518255600182019150602085019450602081019050611f13565b86831015611f555784890151611f51601f891682611e64565b8355505b6001600288020188555050505b505050505050565b7f416c72656164792063616e63656c6c65640000000000000000000000000000005f82015250565b5f611f9e6011836117ec565b9150611fa982611f6a565b602082019050919050565b5f6020820190508181035f830152611fcb81611f92565b9050919050565b7f416c72656164792064656c6976657265640000000000000000000000000000005f82015250565b5f6120066011836117ec565b915061201182611fd2565b602082019050919050565b5f6020820190508181035f83015261203381611ffa565b9050919050565b7f446561646c696e65206d69737365642e204175746f2d63616e63656c6c65642e5f82015250565b5f61206e6020836117ec565b91506120798261203a565b602082019050919050565b5f6060820190506120975f8301856114cd565b81810360208301526120a881612062565b90506120b760408301846114cd565b9392505050565b7f446561646c696e65206e6f74206d6973736564207965740000000000000000005f82015250565b5f6120f26017836117ec565b91506120fd826120be565b602082019050919050565b5f6020820190508181035f83015261211f816120e6565b9050919050565b7f5061636b616765206e6f742061742073656c6c657200000000000000000000005f82015250565b5f61215a6015836117ec565b915061216582612126565b602082019050919050565b5f6020820190508181035f8301526121878161214e565b9050919050565b7f4e6f74207468652064656c697665727920626f790000000000000000000000005f82015250565b5f6121c26014836117ec565b91506121cd8261218e565b602082019050919050565b5f6020820190508181035f8301526121ef816121b6565b9050919050565b7f5061636b616765206e6f7420776974682064656c697665727920626f790000005f82015250565b5f61222a601d836117ec565b9150612235826121f6565b602082019050919050565b5f6020820190508181035f8301526122578161221e565b9050919050565b5f60c0820190506122715f8301896114cd565b61227e60208301886114be565b61228b60408301876114be565b61229860608301866114cd565b6122a5608083018561174f565b6122b260a0830184611769565b97965050505050505056fea2646970667358221220cfdd56becd6d6a92b411c2fd315b2f01b902222990f31d2d37b748c5658da52764736f6c634300081e0033",
					"opcodes": "PUSH1 0x80 PUSH1 0x40 MSTORE CALLER PUSH0 PUSH0 PUSH2 0x100 EXP DUP2 SLOAD DUP2 PUSH20 0xFFFFFFFFFFFFFFFFFFFFFFFFFFFFFFFFFFFFFFFF MUL NOT AND SWAP1 DUP4 PUSH20 0xFFFFFFFFFFFFFFFFFFFFFFFFFFFFFFFFFFFFFFFF AND MUL OR SWAP1 SSTORE POP PUSH20 0x3333333333333333333333333333333333333333 PUSH1 0x1 PUSH0 PUSH2 0x100 EXP DUP2 SLOAD DUP2 PUSH20 0xFFFFFFFFFFFFFFFFFFFFFFFFFFFFFFFFFFFFFFFF MUL NOT AND SWAP1 DUP4 PUSH20 0xFFFFFFFFFFFFFFFFFFFFFFFFFFFFFFFFFFFFFFFF AND MUL OR SWAP1 SSTORE POP PUSH20 0x1111111111111111111111111111111111111111 PUSH1 0x2 PUSH0 PUSH2 0x100 EXP DUP2 SLOAD DUP2 PUSH20 0xFFFFFFFFFFFFFFFFFFFFFFFFFFFFFFFFFFFFFFFF MUL NOT AND SWAP1 DUP4 PUSH20 0xFFFFFFFFFFFFFFFFFFFFFFFFFFFFFFFFFFFFFFFF AND MUL OR SWAP1 SSTORE POP PUSH20 0x2222222222222222222222222222222222222222 PUSH1 0x3 PUSH0 PUSH2 0x100 EXP DUP2 SLOAD DUP2 PUSH20 0xFFFFFFFFFFFFFFFFFFFFFFFFFFFFFFFFFFFFFFFF MUL NOT AND SWAP1 DUP4 PUSH20 0xFFFFFFFFFFFFFFFFFFFFFFFFFFFFFFFFFFFFFFFF AND MUL OR SWAP1 SSTORE POP CALLVALUE DUP1 ISZERO PUSH2 0x14A JUMPI PUSH0 PUSH0 REVERT JUMPDEST POP PUSH2 0x22F3 DUP1 PUSH2 0x158 PUSH0 CODECOPY PUSH0 RETURN INVALID PUSH1 0x80 PUSH1 0x40 MSTORE CALLVALUE DUP1 ISZERO PUSH2 0xF JUMPI PUSH0 PUSH0 REVERT JUMPDEST POP PUSH1 0x4 CALLDATASIZE LT PUSH2 0xF3 JUMPI PUSH0 CALLDATALOAD PUSH1 0xE0 SHR DUP1 PUSH4 0x9B622769 GT PUSH2 0x95 JUMPI DUP1 PUSH4 0xC495C8A8 GT PUSH2 0x64 JUMPI DUP1 PUSH4 0xC495C8A8 EQ PUSH2 0x27A JUMPI DUP1 PUSH4 0xCD22243F EQ PUSH2 0x2AA JUMPI DUP1 PUSH4 0xEA453684 EQ PUSH2 0x2C8 JUMPI DUP1 PUSH4 0xFCABBA1E EQ PUSH2 0x2E4 JUMPI PUSH2 0xF3 JUMP JUMPDEST DUP1 PUSH4 0x9B622769 EQ PUSH2 0x1DB JUMPI DUP1 PUSH4 0xA6990946 EQ PUSH2 0x1F9 JUMPI DUP1 PUSH4 0xBF5F3D4A EQ PUSH2 0x229 JUMPI DUP1 PUSH4 0xC216212A EQ PUSH2 0x245 JUMPI PUSH2 0xF3 JUMP JUMPDEST DUP1 PUSH4 0x4D695F95 GT PUSH2 0xD1 JUMPI DUP1 PUSH4 0x4D695F95 EQ PUSH2 0x151 JUMPI DUP1 PUSH4 0x7150D8AE EQ PUSH2 0x16D JUMPI DUP1 PUSH4 0x73CF03B6 EQ PUSH2 0x18B JUMPI DUP1 PUSH4 0x8BAB233B EQ PUSH2 0x1A7 JUMPI PUSH2 0xF3 JUMP JUMPDEST DUP1 PUSH4 0x479FEC5 EQ PUSH2 0xF7 JUMPI DUP1 PUSH4 0x8551A53 EQ PUSH2 0x129 JUMPI DUP1 PUSH4 0x128B8532 EQ PUSH2 0x147 JUMPI JUMPDEST PUSH0 PUSH0 REVERT JUMPDEST PUSH2 0x111 PUSH1 0x4 DUP1 CALLDATASIZE SUB DUP2 ADD SWAP1 PUSH2 0x10C SWAP2 SWAP1 PUSH2 0x1450 JUMP JUMPDEST PUSH2 0x300 JUMP JUMPDEST PUSH1 0x40 MLOAD PUSH2 0x120 SWAP4 SWAP3 SWAP2 SWAP1 PUSH2 0x14DC JUMP JUMPDEST PUSH1 0x40 MLOAD DUP1 SWAP2 SUB SWAP1 RETURN JUMPDEST PUSH2 0x131 PUSH2 0x37E JUMP JUMPDEST PUSH1 0x40 MLOAD PUSH2 0x13E SWAP2 SWAP1 PUSH2 0x1511 JUMP JUMPDEST PUSH1 0x40 MLOAD DUP1 SWAP2 SUB SWAP1 RETURN JUMPDEST PUSH2 0x14F PUSH2 0x3A3 JUMP JUMPDEST STOP JUMPDEST PUSH2 0x16B PUSH1 0x4 DUP1 CALLDATASIZE SUB DUP2 ADD SWAP1 PUSH2 0x166 SWAP2 SWAP1 PUSH2 0x152A JUMP JUMPDEST PUSH2 0x3E5 JUMP JUMPDEST STOP JUMPDEST PUSH2 0x175 PUSH2 0x5DB JUMP JUMPDEST PUSH1 0x40 MLOAD PUSH2 0x182 SWAP2 SWAP1 PUSH2 0x1511 JUMP JUMPDEST PUSH1 0x40 MLOAD DUP1 SWAP2 SUB SWAP1 RETURN JUMPDEST PUSH2 0x1A5 PUSH1 0x4 DUP1 CALLDATASIZE SUB DUP2 ADD SWAP1 PUSH2 0x1A0 SWAP2 SWAP1 PUSH2 0x1691 JUMP JUMPDEST PUSH2 0x5FF JUMP JUMPDEST STOP JUMPDEST PUSH2 0x1C1 PUSH1 0x4 DUP1 CALLDATASIZE SUB DUP2 ADD SWAP1 PUSH2 0x1BC SWAP2 SWAP1 PUSH2 0x152A JUMP JUMPDEST PUSH2 0x841 JUMP JUMPDEST PUSH1 0x40 MLOAD PUSH2 0x1D2 SWAP6 SWAP5 SWAP4 SWAP3 SWAP2 SWAP1 PUSH2 0x1778 JUMP JUMPDEST PUSH1 0x40 MLOAD DUP1 SWAP2 SUB SWAP1 RETURN JUMPDEST PUSH2 0x1E3 PUSH2 0x9E2 JUMP JUMPDEST PUSH1 0x40 MLOAD PUSH2 0x1F0 SWAP2 SWAP1 PUSH2 0x1511 JUMP JUMPDEST PUSH1 0x40 MLOAD DUP1 SWAP2 SUB SWAP1 RETURN JUMPDEST PUSH2 0x213 PUSH1 0x4 DUP1 CALLDATASIZE SUB DUP2 ADD SWAP1 PUSH2 0x20E SWAP2 SWAP1 PUSH2 0x152A JUMP JUMPDEST PUSH2 0xA07 JUMP JUMPDEST PUSH1 0x40 MLOAD PUSH2 0x220 SWAP2 SWAP1 PUSH2 0x17C9 JUMP JUMPDEST PUSH1 0x40 MLOAD DUP1 SWAP2 SUB SWAP1 RETURN JUMPDEST PUSH2 0x243 PUSH1 0x4 DUP1 CALLDATASIZE SUB DUP2 ADD SWAP1 PUSH2 0x23E SWAP2 SWAP1 PUSH2 0x152A JUMP JUMPDEST PUSH2 0xA27 JUMP JUMPDEST STOP JUMPDEST PUSH2 0x25F PUSH1 0x4 DUP1 CALLDATASIZE SUB DUP2 ADD SWAP1 PUSH2 0x25A SWAP2 SWAP1 PUSH2 0x152A JUMP JUMPDEST PUSH2 0xBD6 JUMP JUMPDEST PUSH1 0x40 MLOAD PUSH2 0x271 SWAP7 SWAP6 SWAP5 SWAP4 SWAP3 SWAP2 SWAP1 PUSH2 0x1842 JUMP JUMPDEST PUSH1 0x40 MLOAD DUP1 SWAP2 SUB SWAP1 RETURN JUMPDEST PUSH2 0x294 PUSH1 0x4 DUP1 CALLDATASIZE SUB DUP2 ADD SWAP1 PUSH2 0x28F SWAP2 SWAP1 PUSH2 0x152A JUMP JUMPDEST PUSH2 0xCCC JUMP JUMPDEST PUSH1 0x40 MLOAD PUSH2 0x2A1 SWAP2 SWAP1 PUSH2 0x19AE JUMP JUMPDEST PUSH1 0x40 MLOAD DUP1 SWAP2 SUB SWAP1 RETURN JUMPDEST PUSH2 0x2B2 PUSH2 0xDEC JUMP JUMPDEST PUSH1 0x40 MLOAD PUSH2 0x2BF SWAP2 SWAP1 PUSH2 0x1511 JUMP JUMPDEST PUSH1 0x40 MLOAD DUP1 SWAP2 SUB SWAP1 RETURN JUMPDEST PUSH2 0x2E2 PUSH1 0x4 DUP1 CALLDATASIZE SUB DUP2 ADD SWAP1 PUSH2 0x2DD SWAP2 SWAP1 PUSH2 0x152A JUMP JUMPDEST PUSH2 0xE11 JUMP JUMPDEST STOP JUMPDEST PUSH2 0x2FE PUSH1 0x4 DUP1 CALLDATASIZE SUB DUP2 ADD SWAP1 PUSH2 0x2F9 SWAP2 SWAP1 PUSH2 0x152A JUMP JUMPDEST PUSH2 0x1006 JUMP JUMPDEST STOP JUMPDEST PUSH1 0x5 PUSH1 0x20 MSTORE DUP2 PUSH0 MSTORE PUSH1 0x40 PUSH0 KECCAK256 DUP2 DUP2 SLOAD DUP2 LT PUSH2 0x319 JUMPI PUSH0 DUP1 REVERT JUMPDEST SWAP1 PUSH0 MSTORE PUSH1 0x20 PUSH0 KECCAK256 SWAP1 PUSH1 0x3 MUL ADD PUSH0 SWAP2 POP SWAP2 POP POP DUP1 PUSH0 ADD PUSH0 SWAP1 SLOAD SWAP1 PUSH2 0x100 EXP SWAP1 DIV PUSH20 0xFFFFFFFFFFFFFFFFFFFFFFFFFFFFFFFFFFFFFFFF AND SWAP1 DUP1 PUSH1 0x1 ADD PUSH0 SWAP1 SLOAD SWAP1 PUSH2 0x100 EXP SWAP1 DIV PUSH20 0xFFFFFFFFFFFFFFFFFFFFFFFFFFFFFFFFFFFFFFFF AND SWAP1 DUP1 PUSH1 0x2 ADD SLOAD SWAP1 POP DUP4 JUMP JUMPDEST PUSH1 0x1 PUSH0 SWAP1 SLOAD SWAP1 PUSH2 0x100 EXP SWAP1 DIV PUSH20 0xFFFFFFFFFFFFFFFFFFFFFFFFFFFFFFFFFFFFFFFF AND DUP2 JUMP JUMPDEST CALLER PUSH1 0x1 PUSH0 PUSH2 0x100 EXP DUP2 SLOAD DUP2 PUSH20 0xFFFFFFFFFFFFFFFFFFFFFFFFFFFFFFFFFFFFFFFF MUL NOT AND SWAP1 DUP4 PUSH20 0xFFFFFFFFFFFFFFFFFFFFFFFFFFFFFFFFFFFFFFFF AND MUL OR SWAP1 SSTORE POP JUMP JUMPDEST PUSH1 0x2 PUSH0 SWAP1 SLOAD SWAP1 PUSH2 0x100 EXP SWAP1 DIV PUSH20 0xFFFFFFFFFFFFFFFFFFFFFFFFFFFFFFFFFFFFFFFF AND PUSH20 0xFFFFFFFFFFFFFFFFFFFFFFFFFFFFFFFFFFFFFFFF AND CALLER PUSH20 0xFFFFFFFFFFFFFFFFFFFFFFFFFFFFFFFFFFFFFFFF AND EQ PUSH2 0x474 JUMPI PUSH1 0x40 MLOAD PUSH32 0x8C379A000000000000000000000000000000000000000000000000000000000 DUP2 MSTORE PUSH1 0x4 ADD PUSH2 0x46B SWAP1 PUSH2 0x1A18 JUMP JUMPDEST PUSH1 0x40 MLOAD DUP1 SWAP2 SUB SWAP1 REVERT JUMPDEST DUP1 PUSH1 0x4 PUSH0 DUP3 DUP2 MSTORE PUSH1 0x20 ADD SWAP1 DUP2 MSTORE PUSH1 0x20 ADD PUSH0 KECCAK256 PUSH1 0x4 ADD PUSH0 SWAP1 SLOAD SWAP1 PUSH2 0x100 EXP SWAP1 DIV PUSH1 0xFF AND ISZERO PUSH2 0x4D6 JUMPI PUSH1 0x40 MLOAD PUSH32 0x8C379A000000000000000000000000000000000000000000000000000000000 DUP2 MSTORE PUSH1 0x4 ADD PUSH2 0x4CD SWAP1 PUSH2 0x1A80 JUMP JUMPDEST PUSH1 0x40 MLOAD DUP1 SWAP2 SUB SWAP1 REVERT JUMPDEST PUSH0 PUSH1 0x4 PUSH0 DUP5 DUP2 MSTORE PUSH1 0x20 ADD SWAP1 DUP2 MSTORE PUSH1 0x20 ADD PUSH0 KECCAK256 SWAP1 POP PUSH1 0x1 PUSH1 0x4 DUP2 GT ISZERO PUSH2 0x4FE JUMPI PUSH2 0x4FD PUSH2 0x16EB JUMP JUMPDEST JUMPDEST DUP2 PUSH1 0x2 ADD PUSH1 0x14 SWAP1 SLOAD SWAP1 PUSH2 0x100 EXP SWAP1 DIV PUSH1 0xFF AND PUSH1 0x4 DUP2 GT ISZERO PUSH2 0x522 JUMPI PUSH2 0x521 PUSH2 0x16EB JUMP JUMPDEST JUMPDEST EQ PUSH2 0x562 JUMPI PUSH1 0x40 MLOAD PUSH32 0x8C379A000000000000000000000000000000000000000000000000000000000 DUP2 MSTORE PUSH1 0x4 ADD PUSH2 0x559 SWAP1 PUSH2 0x1AE8 JUMP JUMPDEST PUSH1 0x40 MLOAD DUP1 SWAP2 SUB SWAP1 REVERT JUMPDEST DUP1 PUSH1 0x3 ADD SLOAD TIMESTAMP GT ISZERO PUSH2 0x5A9 JUMPI PUSH1 0x40 MLOAD PUSH32 0x8C379A000000000000000000000000000000000000000000000000000000000 DUP2 MSTORE PUSH1 0x4 ADD PUSH2 0x5A0 SWAP1 PUSH2 0x1B50 JUMP JUMPDEST PUSH1 0x40 MLOAD DUP1 SWAP2 SUB SWAP1 REVERT JUMPDEST PUSH2 0x5D6 DUP4 PUSH1 0x3 PUSH0 SWAP1 SLOAD SWAP1 PUSH2 0x100 EXP SWAP1 DIV PUSH20 0xFFFFFFFFFFFFFFFFFFFFFFFFFFFFFFFFFFFFFFFF AND PUSH1 0x2 PUSH2 0x11FB JUMP JUMPDEST POP POP POP JUMP JUMPDEST PUSH0 PUSH0 SWAP1 SLOAD SWAP1 PUSH2 0x100 EXP SWAP1 DIV PUSH20 0xFFFFFFFFFFFFFFFFFFFFFFFFFFFFFFFFFFFFFFFF AND DUP2 JUMP JUMPDEST PUSH1 0x1 PUSH0 SWAP1 SLOAD SWAP1 PUSH2 0x100 EXP SWAP1 DIV PUSH20 0xFFFFFFFFFFFFFFFFFFFFFFFFFFFFFFFFFFFFFFFF AND PUSH20 0xFFFFFFFFFFFFFFFFFFFFFFFFFFFFFFFFFFFFFFFF AND CALLER PUSH20 0xFFFFFFFFFFFFFFFFFFFFFFFFFFFFFFFFFFFFFFFF AND EQ PUSH2 0x68E JUMPI PUSH1 0x40 MLOAD PUSH32 0x8C379A000000000000000000000000000000000000000000000000000000000 DUP2 MSTORE PUSH1 0x4 ADD PUSH2 0x685 SWAP1 PUSH2 0x1BB8 JUMP JUMPDEST PUSH1 0x40 MLOAD DUP1 SWAP2 SUB SWAP1 REVERT JUMPDEST PUSH0 PUSH1 0x4 PUSH0 DUP5 DUP2 MSTORE PUSH1 0x20 ADD SWAP1 DUP2 MSTORE PUSH1 0x20 ADD PUSH0 KECCAK256 PUSH0 ADD SLOAD EQ PUSH2 0x6E3 JUMPI PUSH1 0x40 MLOAD PUSH32 0x8C379A000000000000000000000000000000000000000000000000000000000 DUP2 MSTORE PUSH1 0x4 ADD PUSH2 0x6DA SWAP1 PUSH2 0x1C20 JUMP JUMPDEST PUSH1 0x40 MLOAD DUP1 SWAP2 SUB SWAP1 REVERT JUMPDEST PUSH0 PUSH1 0x78 TIMESTAMP PUSH2 0x6F1 SWAP2 SWAP1 PUSH2 0x1C6B JUMP JUMPDEST SWAP1 POP PUSH1 0x40 MLOAD DUP1 PUSH1 0xC0 ADD PUSH1 0x40 MSTORE DUP1 DUP5 DUP2 MSTORE PUSH1 0x20 ADD DUP4 DUP2 MSTORE PUSH1 0x20 ADD PUSH1 0x1 PUSH0 SWAP1 SLOAD SWAP1 PUSH2 0x100 EXP SWAP1 DIV PUSH20 0xFFFFFFFFFFFFFFFFFFFFFFFFFFFFFFFFFFFFFFFF AND PUSH20 0xFFFFFFFFFFFFFFFFFFFFFFFFFFFFFFFFFFFFFFFF AND DUP2 MSTORE PUSH1 0x20 ADD PUSH0 PUSH1 0x4 DUP2 GT ISZERO PUSH2 0x75A JUMPI PUSH2 0x759 PUSH2 0x16EB JUMP JUMPDEST JUMPDEST DUP2 MSTORE PUSH1 0x20 ADD DUP3 DUP2 MSTORE PUSH1 0x20 ADD PUSH0 ISZERO ISZERO DUP2 MSTORE POP PUSH1 0x4 PUSH0 DUP6 DUP2 MSTORE PUSH1 0x20 ADD SWAP1 DUP2 MSTORE PUSH1 0x20 ADD PUSH0 KECCAK256 PUSH0 DUP3 ADD MLOAD DUP2 PUSH0 ADD SSTORE PUSH1 0x20 DUP3 ADD MLOAD DUP2 PUSH1 0x1 ADD SWAP1 DUP2 PUSH2 0x799 SWAP2 SWAP1 PUSH2 0x1E9B JUMP JUMPDEST POP PUSH1 0x40 DUP3 ADD MLOAD DUP2 PUSH1 0x2 ADD PUSH0 PUSH2 0x100 EXP DUP2 SLOAD DUP2 PUSH20 0xFFFFFFFFFFFFFFFFFFFFFFFFFFFFFFFFFFFFFFFF MUL NOT AND SWAP1 DUP4 PUSH20 0xFFFFFFFFFFFFFFFFFFFFFFFFFFFFFFFFFFFFFFFF AND MUL OR SWAP1 SSTORE POP PUSH1 0x60 DUP3 ADD MLOAD DUP2 PUSH1 0x2 ADD PUSH1 0x14 PUSH2 0x100 EXP DUP2 SLOAD DUP2 PUSH1 0xFF MUL NOT AND SWAP1 DUP4 PUSH1 0x4 DUP2 GT ISZERO PUSH2 0x80B JUMPI PUSH2 0x80A PUSH2 0x16EB JUMP JUMPDEST JUMPDEST MUL OR SWAP1 SSTORE POP PUSH1 0x80 DUP3 ADD MLOAD DUP2 PUSH1 0x3 ADD SSTORE PUSH1 0xA0 DUP3 ADD MLOAD DUP2 PUSH1 0x4 ADD PUSH0 PUSH2 0x100 EXP DUP2 SLOAD DUP2 PUSH1 0xFF MUL NOT AND SWAP1 DUP4 ISZERO ISZERO MUL OR SWAP1 SSTORE POP SWAP1 POP POP POP POP POP JUMP JUMPDEST PUSH0 PUSH0 PUSH0 PUSH0 PUSH0 PUSH0 PUSH1 0x4 PUSH0 DUP9 DUP2 MSTORE PUSH1 0x20 ADD SWAP1 DUP2 MSTORE PUSH1 0x20 ADD PUSH0 KECCAK256 PUSH1 0x40 MLOAD DUP1 PUSH1 0xC0 ADD PUSH1 0x40 MSTORE SWAP1 DUP2 PUSH0 DUP3 ADD SLOAD DUP2 MSTORE PUSH1 0x20 ADD PUSH1 0x1 DUP3 ADD DUP1 SLOAD PUSH2 0x87C SWAP1 PUSH2 0x1CCB JUMP JUMPDEST DUP1 PUSH1 0x1F ADD PUSH1 0x20 DUP1 SWAP2 DIV MUL PUSH1 0x20 ADD PUSH1 0x40 MLOAD SWAP1 DUP2 ADD PUSH1 0x40 MSTORE DUP1 SWAP3 SWAP2 SWAP1 DUP2 DUP2 MSTORE PUSH1 0x20 ADD DUP3 DUP1 SLOAD PUSH2 0x8A8 SWAP1 PUSH2 0x1CCB JUMP JUMPDEST DUP1 ISZERO PUSH2 0x8F3 JUMPI DUP1 PUSH1 0x1F LT PUSH2 0x8CA JUMPI PUSH2 0x100 DUP1 DUP4 SLOAD DIV MUL DUP4 MSTORE SWAP2 PUSH1 0x20 ADD SWAP2 PUSH2 0x8F3 JUMP JUMPDEST DUP3 ADD SWAP2 SWAP1 PUSH0 MSTORE PUSH1 0x20 PUSH0 KECCAK256 SWAP1 JUMPDEST DUP2 SLOAD DUP2 MSTORE SWAP1 PUSH1 0x1 ADD SWAP1 PUSH1 0x20 ADD DUP1 DUP4 GT PUSH2 0x8D6 JUMPI DUP3 SWAP1 SUB PUSH1 0x1F AND DUP3 ADD SWAP2 JUMPDEST POP POP POP POP POP DUP2 MSTORE PUSH1 0x20 ADD PUSH1 0x2 DUP3 ADD PUSH0 SWAP1 SLOAD SWAP1 PUSH2 0x100 EXP SWAP1 DIV PUSH20 0xFFFFFFFFFFFFFFFFFFFFFFFFFFFFFFFFFFFFFFFF AND PUSH20 0xFFFFFFFFFFFFFFFFFFFFFFFFFFFFFFFFFFFFFFFF AND PUSH20 0xFFFFFFFFFFFFFFFFFFFFFFFFFFFFFFFFFFFFFFFF AND DUP2 MSTORE PUSH1 0x20 ADD PUSH1 0x2 DUP3 ADD PUSH1 0x14 SWAP1 SLOAD SWAP1 PUSH2 0x100 EXP SWAP1 DIV PUSH1 0xFF AND PUSH1 0x4 DUP2 GT ISZERO PUSH2 0x976 JUMPI PUSH2 0x975 PUSH2 0x16EB JUMP JUMPDEST JUMPDEST PUSH1 0x4 DUP2 GT ISZERO PUSH2 0x988 JUMPI PUSH2 0x987 PUSH2 0x16EB JUMP JUMPDEST JUMPDEST DUP2 MSTORE PUSH1 0x20 ADD PUSH1 0x3 DUP3 ADD SLOAD DUP2 MSTORE PUSH1 0x20 ADD PUSH1 0x4 DUP3 ADD PUSH0 SWAP1 SLOAD SWAP1 PUSH2 0x100 EXP SWAP1 DIV PUSH1 0xFF AND ISZERO ISZERO ISZERO ISZERO DUP2 MSTORE POP POP SWAP1 POP DUP1 PUSH1 0x40 ADD MLOAD DUP2 PUSH1 0x60 ADD MLOAD DUP3 PUSH1 0x80 ADD MLOAD DUP4 PUSH1 0x80 ADD MLOAD TIMESTAMP GT ISZERO DUP5 PUSH1 0xA0 ADD MLOAD SWAP6 POP SWAP6 POP SWAP6 POP SWAP6 POP SWAP6 POP POP SWAP2 SWAP4 SWAP6 SWAP1 SWAP3 SWAP5 POP JUMP JUMPDEST PUSH1 0x2 PUSH0 SWAP1 SLOAD SWAP1 PUSH2 0x100 EXP SWAP1 DIV PUSH20 0xFFFFFFFFFFFFFFFFFFFFFFFFFFFFFFFFFFFFFFFF AND DUP2 JUMP JUMPDEST PUSH0 PUSH1 0x4 PUSH0 DUP4 DUP2 MSTORE PUSH1 0x20 ADD SWAP1 DUP2 MSTORE PUSH1 0x20 ADD PUSH0 KECCAK256 PUSH1 0x3 ADD SLOAD TIMESTAMP GT ISZERO SWAP1 POP SWAP2 SWAP1 POP JUMP JUMPDEST PUSH0 PUSH1 0x4 PUSH0 DUP4 DUP2 MSTORE PUSH1 0x20 ADD SWAP1 DUP2 MSTORE PUSH1 0x20 ADD PUSH0 KECCAK256 SWAP1 POP DUP1 PUSH1 0x4 ADD PUSH0 SWAP1 SLOAD SWAP1 PUSH2 0x100 EXP SWAP1 DIV PUSH1 0xFF AND ISZERO PUSH2 0xA8C JUMPI PUSH1 0x40 MLOAD PUSH32 0x8C379A000000000000000000000000000000000000000000000000000000000 DUP2 MSTORE PUSH1 0x4 ADD PUSH2 0xA83 SWAP1 PUSH2 0x1FB4 JUMP JUMPDEST PUSH1 0x40 MLOAD DUP1 SWAP2 SUB SWAP1 REVERT JUMPDEST PUSH1 0x3 PUSH1 0x4 DUP2 GT ISZERO PUSH2 0xAA0 JUMPI PUSH2 0xA9F PUSH2 0x16EB JUMP JUMPDEST JUMPDEST DUP2 PUSH1 0x2 ADD PUSH1 0x14 SWAP1 SLOAD SWAP1 PUSH2 0x100 EXP SWAP1 DIV PUSH1 0xFF AND PUSH1 0x4 DUP2 GT ISZERO PUSH2 0xAC4 JUMPI PUSH2 0xAC3 PUSH2 0x16EB JUMP JUMPDEST JUMPDEST SUB PUSH2 0xB04 JUMPI PUSH1 0x40 MLOAD PUSH32 0x8C379A000000000000000000000000000000000000000000000000000000000 DUP2 MSTORE PUSH1 0x4 ADD PUSH2 0xAFB SWAP1 PUSH2 0x201C JUMP JUMPDEST PUSH1 0x40 MLOAD DUP1 SWAP2 SUB SWAP1 REVERT JUMPDEST DUP1 PUSH1 0x3 ADD SLOAD TIMESTAMP GT ISZERO PUSH2 0xB97 JUMPI PUSH1 0x1 DUP2 PUSH1 0x4 ADD PUSH0 PUSH2 0x100 EXP DUP2 SLOAD DUP2 PUSH1 0xFF MUL NOT AND SWAP1 DUP4 ISZERO ISZERO MUL OR SWAP1 SSTORE POP PUSH1 0x4 DUP2 PUSH1 0x2 ADD PUSH1 0x14 PUSH2 0x100 EXP DUP2 SLOAD DUP2 PUSH1 0xFF MUL NOT AND SWAP1 DUP4 PUSH1 0x4 DUP2 GT ISZERO PUSH2 0xB54 JUMPI PUSH2 0xB53 PUSH2 0x16EB JUMP JUMPDEST JUMPDEST MUL OR SWAP1 SSTORE POP PUSH32 0x868CA8F263F6F33DD8A2C8F5D85B894E3264C52C81E240455F92E37D6A32A0CD DUP3 TIMESTAMP PUSH1 0x40 MLOAD PUSH2 0xB8A SWAP3 SWAP2 SWAP1 PUSH2 0x2084 JUMP JUMPDEST PUSH1 0x40 MLOAD DUP1 SWAP2 SUB SWAP1 LOG1 PUSH2 0xBD2 JUMP JUMPDEST PUSH1 0x40 MLOAD PUSH32 0x8C379A000000000000000000000000000000000000000000000000000000000 DUP2 MSTORE PUSH1 0x4 ADD PUSH2 0xBC9 SWAP1 PUSH2 0x2108 JUMP JUMPDEST PUSH1 0x40 MLOAD DUP1 SWAP2 SUB SWAP1 REVERT JUMPDEST POP POP JUMP JUMPDEST PUSH1 0x4 PUSH1 0x20 MSTORE DUP1 PUSH0 MSTORE PUSH1 0x40 PUSH0 KECCAK256 PUSH0 SWAP2 POP SWAP1 POP DUP1 PUSH0 ADD SLOAD SWAP1 DUP1 PUSH1 0x1 ADD DUP1 SLOAD PUSH2 0xBFB SWAP1 PUSH2 0x1CCB JUMP JUMPDEST DUP1 PUSH1 0x1F ADD PUSH1 0x20 DUP1 SWAP2 DIV MUL PUSH1 0x20 ADD PUSH1 0x40 MLOAD SWAP1 DUP2 ADD PUSH1 0x40 MSTORE DUP1 SWAP3 SWAP2 SWAP1 DUP2 DUP2 MSTORE PUSH1 0x20 ADD DUP3 DUP1 SLOAD PUSH2 0xC27 SWAP1 PUSH2 0x1CCB JUMP JUMPDEST DUP1 ISZERO PUSH2 0xC72 JUMPI DUP1 PUSH1 0x1F LT PUSH2 0xC49 JUMPI PUSH2 0x100 DUP1 DUP4 SLOAD DIV MUL DUP4 MSTORE SWAP2 PUSH1 0x20 ADD SWAP2 PUSH2 0xC72 JUMP JUMPDEST DUP3 ADD SWAP2 SWAP1 PUSH0 MSTORE PUSH1 0x20 PUSH0 KECCAK256 SWAP1 JUMPDEST DUP2 SLOAD DUP2 MSTORE SWAP1 PUSH1 0x1 ADD SWAP1 PUSH1 0x20 ADD DUP1 DUP4 GT PUSH2 0xC55 JUMPI DUP3 SWAP1 SUB PUSH1 0x1F AND DUP3 ADD SWAP2 JUMPDEST POP POP POP POP POP SWAP1 DUP1 PUSH1 0x2 ADD PUSH0 SWAP1 SLOAD SWAP1 PUSH2 0x100 EXP SWAP1 DIV PUSH20 0xFFFFFFFFFFFFFFFFFFFFFFFFFFFFFFFFFFFFFFFF AND SWAP1 DUP1 PUSH1 0x2 ADD PUSH1 0x14 SWAP1 SLOAD SWAP1 PUSH2 0x100 EXP SWAP1 DIV PUSH1 0xFF AND SWAP1 DUP1 PUSH1 0x3 ADD SLOAD SWAP1 DUP1 PUSH1 0x4 ADD PUSH0 SWAP1 SLOAD SWAP1 PUSH2 0x100 EXP SWAP1 DIV PUSH1 0xFF AND SWAP1 POP DUP7 JUMP JUMPDEST PUSH1 0x60 PUSH1 0x5 PUSH0 DUP4 DUP2 MSTORE PUSH1 0x20 ADD SWAP1 DUP2 MSTORE PUSH1 0x20 ADD PUSH0 KECCAK256 DUP1 SLOAD DUP1 PUSH1 0x20 MUL PUSH1 0x20 ADD PUSH1 0x40 MLOAD SWAP1 DUP2 ADD PUSH1 0x40 MSTORE DUP1 SWAP3 SWAP2 SWAP1 DUP2 DUP2 MSTORE PUSH1 0x20 ADD PUSH0 SWAP1 JUMPDEST DUP3 DUP3 LT ISZERO PUSH2 0xDE1 JUMPI DUP4 DUP3 SWAP1 PUSH0 MSTORE PUSH1 0x20 PUSH0 KECCAK256 SWAP1 PUSH1 0x3 MUL ADD PUSH1 0x40 MLOAD DUP1 PUSH1 0x60 ADD PUSH1 0x40 MSTORE SWAP1 DUP2 PUSH0 DUP3 ADD PUSH0 SWAP1 SLOAD SWAP1 PUSH2 0x100 EXP SWAP1 DIV PUSH20 0xFFFFFFFFFFFFFFFFFFFFFFFFFFFFFFFFFFFFFFFF AND PUSH20 0xFFFFFFFFFFFFFFFFFFFFFFFFFFFFFFFFFFFFFFFF AND PUSH20 0xFFFFFFFFFFFFFFFFFFFFFFFFFFFFFFFFFFFFFFFF AND DUP2 MSTORE PUSH1 0x20 ADD PUSH1 0x1 DUP3 ADD PUSH0 SWAP1 SLOAD SWAP1 PUSH2 0x100 EXP SWAP1 DIV PUSH20 0xFFFFFFFFFFFFFFFFFFFFFFFFFFFFFFFFFFFFFFFF AND PUSH20 0xFFFFFFFFFFFFFFFFFFFFFFFFFFFFFFFFFFFFFFFF AND PUSH20 0xFFFFFFFFFFFFFFFFFFFFFFFFFFFFFFFFFFFFFFFF AND DUP2 MSTORE PUSH1 0x20 ADD PUSH1 0x2 DUP3 ADD SLOAD DUP2 MSTORE POP POP DUP2 MSTORE PUSH1 0x20 ADD SWAP1 PUSH1 0x1 ADD SWAP1 PUSH2 0xCFE JUMP JUMPDEST POP POP POP POP SWAP1 POP SWAP2 SWAP1 POP JUMP JUMPDEST PUSH1 0x3 PUSH0 SWAP1 SLOAD SWAP1 PUSH2 0x100 EXP SWAP1 DIV PUSH20 0xFFFFFFFFFFFFFFFFFFFFFFFFFFFFFFFFFFFFFFFF AND DUP2 JUMP JUMPDEST PUSH1 0x1 PUSH0 SWAP1 SLOAD SWAP1 PUSH2 0x100 EXP SWAP1 DIV PUSH20 0xFFFFFFFFFFFFFFFFFFFFFFFFFFFFFFFFFFFFFFFF AND PUSH20 0xFFFFFFFFFFFFFFFFFFFFFFFFFFFFFFFFFFFFFFFF AND CALLER PUSH20 0xFFFFFFFFFFFFFFFFFFFFFFFFFFFFFFFFFFFFFFFF AND EQ PUSH2 0xEA0 JUMPI PUSH1 0x40 MLOAD PUSH32 0x8C379A000000000000000000000000000000000000000000000000000000000 DUP2 MSTORE PUSH1 0x4 ADD PUSH2 0xE97 SWAP1 PUSH2 0x1BB8 JUMP JUMPDEST PUSH1 0x40 MLOAD DUP1 SWAP2 SUB SWAP1 REVERT JUMPDEST DUP1 PUSH1 0x4 PUSH0 DUP3 DUP2 MSTORE PUSH1 0x20 ADD SWAP1 DUP2 MSTORE PUSH1 0x20 ADD PUSH0 KECCAK256 PUSH1 0x4 ADD PUSH0 SWAP1 SLOAD SWAP1 PUSH2 0x100 EXP SWAP1 DIV PUSH1 0xFF AND ISZERO PUSH2 0xF02 JUMPI PUSH1 0x40 MLOAD PUSH32 0x8C379A000000000000000000000000000000000000000000000000000000000 DUP2 MSTORE PUSH1 0x4 ADD PUSH2 0xEF9 SWAP1 PUSH2 0x1A80 JUMP JUMPDEST PUSH1 0x40 MLOAD DUP1 SWAP2 SUB SWAP1 REVERT JUMPDEST PUSH0 PUSH1 0x4 PUSH0 DUP5 DUP2 MSTORE PUSH1 0x20 ADD SWAP1 DUP2 MSTORE PUSH1 0x20 ADD PUSH0 KECCAK256 SWAP1 POP PUSH0 PUSH1 0x4 DUP2 GT ISZERO PUSH2 0xF29 JUMPI PUSH2 0xF28 PUSH2 0x16EB JUMP JUMPDEST JUMPDEST DUP2 PUSH1 0x2 ADD PUSH1 0x14 SWAP1 SLOAD SWAP1 PUSH2 0x100 EXP SWAP1 DIV PUSH1 0xFF AND PUSH1 0x4 DUP2 GT ISZERO PUSH2 0xF4D JUMPI PUSH2 0xF4C PUSH2 0x16EB JUMP JUMPDEST JUMPDEST EQ PUSH2 0xF8D JUMPI PUSH1 0x40 MLOAD PUSH32 0x8C379A000000000000000000000000000000000000000000000000000000000 DUP2 MSTORE PUSH1 0x4 ADD PUSH2 0xF84 SWAP1 PUSH2 0x2170 JUMP JUMPDEST PUSH1 0x40 MLOAD DUP1 SWAP2 SUB SWAP1 REVERT JUMPDEST DUP1 PUSH1 0x3 ADD SLOAD TIMESTAMP GT ISZERO PUSH2 0xFD4 JUMPI PUSH1 0x40 MLOAD PUSH32 0x8C379A000000000000000000000000000000000000000000000000000000000 DUP2 MSTORE PUSH1 0x4 ADD PUSH2 0xFCB SWAP1 PUSH2 0x1B50 JUMP JUMPDEST PUSH1 0x40 MLOAD DUP1 SWAP2 SUB SWAP1 REVERT JUMPDEST PUSH2 0x1001 DUP4 PUSH1 0x2 PUSH0 SWAP1 SLOAD SWAP1 PUSH2 0x100 EXP SWAP1 DIV PUSH20 0xFFFFFFFFFFFFFFFFFFFFFFFFFFFFFFFFFFFFFFFF AND PUSH1 0x1 PUSH2 0x11FB JUMP JUMPDEST POP POP POP JUMP JUMPDEST PUSH1 0x3 PUSH0 SWAP1 SLOAD SWAP1 PUSH2 0x100 EXP SWAP1 DIV PUSH20 0xFFFFFFFFFFFFFFFFFFFFFFFFFFFFFFFFFFFFFFFF AND PUSH20 0xFFFFFFFFFFFFFFFFFFFFFFFFFFFFFFFFFFFFFFFF AND CALLER PUSH20 0xFFFFFFFFFFFFFFFFFFFFFFFFFFFFFFFFFFFFFFFF AND EQ PUSH2 0x1095 JUMPI PUSH1 0x40 MLOAD PUSH32 0x8C379A000000000000000000000000000000000000000000000000000000000 DUP2 MSTORE PUSH1 0x4 ADD PUSH2 0x108C SWAP1 PUSH2 0x21D8 JUMP JUMPDEST PUSH1 0x40 MLOAD DUP1 SWAP2 SUB SWAP1 REVERT JUMPDEST DUP1 PUSH1 0x4 PUSH0 DUP3 DUP2 MSTORE PUSH1 0x20 ADD SWAP1 DUP2 MSTORE PUSH1 0x20 ADD PUSH0 KECCAK256 PUSH1 0x4 ADD PUSH0 SWAP1 SLOAD SWAP1 PUSH2 0x100 EXP SWAP1 DIV PUSH1 0xFF AND ISZERO PUSH2 0x10F7 JUMPI PUSH1 0x40 MLOAD PUSH32 0x8C379A000000000000000000000000000000000000000000000000000000000 DUP2 MSTORE PUSH1 0x4 ADD PUSH2 0x10EE SWAP1 PUSH2 0x1A80 JUMP JUMPDEST PUSH1 0x40 MLOAD DUP1 SWAP2 SUB SWAP1 REVERT JUMPDEST PUSH0 PUSH1 0x4 PUSH0 DUP5 DUP2 MSTORE PUSH1 0x20 ADD SWAP1 DUP2 MSTORE PUSH1 0x20 ADD PUSH0 KECCAK256 SWAP1 POP PUSH1 0x2 PUSH1 0x4 DUP2 GT ISZERO PUSH2 0x111F JUMPI PUSH2 0x111E PUSH2 0x16EB JUMP JUMPDEST JUMPDEST DUP2 PUSH1 0x2 ADD PUSH1 0x14 SWAP1 SLOAD SWAP1 PUSH2 0x100 EXP SWAP1 DIV PUSH1 0xFF AND PUSH1 0x4 DUP2 GT ISZERO PUSH2 0x1143 JUMPI PUSH2 0x1142 PUSH2 0x16EB JUMP JUMPDEST JUMPDEST EQ PUSH2 0x1183 JUMPI PUSH1 0x40 MLOAD PUSH32 0x8C379A000000000000000000000000000000000000000000000000000000000 DUP2 MSTORE PUSH1 0x4 ADD PUSH2 0x117A SWAP1 PUSH2 0x2240 JUMP JUMPDEST PUSH1 0x40 MLOAD DUP1 SWAP2 SUB SWAP1 REVERT JUMPDEST DUP1 PUSH1 0x3 ADD SLOAD TIMESTAMP GT ISZERO PUSH2 0x11CA JUMPI PUSH1 0x40 MLOAD PUSH32 0x8C379A000000000000000000000000000000000000000000000000000000000 DUP2 MSTORE PUSH1 0x4 ADD PUSH2 0x11C1 SWAP1 PUSH2 0x1B50 JUMP JUMPDEST PUSH1 0x40 MLOAD DUP1 SWAP2 SUB SWAP1 REVERT JUMPDEST PUSH2 0x11F6 DUP4 PUSH0 PUSH0 SWAP1 SLOAD SWAP1 PUSH2 0x100 EXP SWAP1 DIV PUSH20 0xFFFFFFFFFFFFFFFFFFFFFFFFFFFFFFFFFFFFFFFF AND PUSH1 0x3 PUSH2 0x11FB JUMP JUMPDEST POP POP POP JUMP JUMPDEST PUSH0 PUSH1 0x4 PUSH0 DUP6 DUP2 MSTORE PUSH1 0x20 ADD SWAP1 DUP2 MSTORE PUSH1 0x20 ADD PUSH0 KECCAK256 SWAP1 POP PUSH0 DUP2 PUSH1 0x2 ADD PUSH0 SWAP1 SLOAD SWAP1 PUSH2 0x100 EXP SWAP1 DIV PUSH20 0xFFFFFFFFFFFFFFFFFFFFFFFFFFFFFFFFFFFFFFFF AND SWAP1 POP DUP4 DUP3 PUSH1 0x2 ADD PUSH0 PUSH2 0x100 EXP DUP2 SLOAD DUP2 PUSH20 0xFFFFFFFFFFFFFFFFFFFFFFFFFFFFFFFFFFFFFFFF MUL NOT AND SWAP1 DUP4 PUSH20 0xFFFFFFFFFFFFFFFFFFFFFFFFFFFFFFFFFFFFFFFF AND MUL OR SWAP1 SSTORE POP DUP3 DUP3 PUSH1 0x2 ADD PUSH1 0x14 PUSH2 0x100 EXP DUP2 SLOAD DUP2 PUSH1 0xFF MUL NOT AND SWAP1 DUP4 PUSH1 0x4 DUP2 GT ISZERO PUSH2 0x129F JUMPI PUSH2 0x129E PUSH2 0x16EB JUMP JUMPDEST JUMPDEST MUL OR SWAP1 SSTORE POP PUSH0 DUP3 PUSH1 0x3 ADD SLOAD TIMESTAMP GT ISZERO SWAP1 POP PUSH1 0x5 PUSH0 DUP8 DUP2 MSTORE PUSH1 0x20 ADD SWAP1 DUP2 MSTORE PUSH1 0x20 ADD PUSH0 KECCAK256 PUSH1 0x40 MLOAD DUP1 PUSH1 0x60 ADD PUSH1 0x40 MSTORE DUP1 DUP5 PUSH20 0xFFFFFFFFFFFFFFFFFFFFFFFFFFFFFFFFFFFFFFFF AND DUP2 MSTORE PUSH1 0x20 ADD DUP8 PUSH20 0xFFFFFFFFFFFFFFFFFFFFFFFFFFFFFFFFFFFFFFFF AND DUP2 MSTORE PUSH1 0x20 ADD TIMESTAMP DUP2 MSTORE POP SWAP1 DUP1 PUSH1 0x1 DUP2 SLOAD ADD DUP1 DUP3 SSTORE DUP1 SWAP2 POP POP PUSH1 0x1 SWAP1 SUB SWAP1 PUSH0 MSTORE PUSH1 0x20 PUSH0 KECCAK256 SWAP1 PUSH1 0x3 MUL ADD PUSH0 SWAP1 SWAP2 SWAP1 SWAP2 SWAP1 SWAP2 POP PUSH0 DUP3 ADD MLOAD DUP2 PUSH0 ADD PUSH0 PUSH2 0x100 EXP DUP2 SLOAD DUP2 PUSH20 0xFFFFFFFFFFFFFFFFFFFFFFFFFFFFFFFFFFFFFFFF MUL NOT AND SWAP1 DUP4 PUSH20 0xFFFFFFFFFFFFFFFFFFFFFFFFFFFFFFFFFFFFFFFF AND MUL OR SWAP1 SSTORE POP PUSH1 0x20 DUP3 ADD MLOAD DUP2 PUSH1 0x1 ADD PUSH0 PUSH2 0x100 EXP DUP2 SLOAD DUP2 PUSH20 0xFFFFFFFFFFFFFFFFFFFFFFFFFFFFFFFFFFFFFFFF MUL NOT AND SWAP1 DUP4 PUSH20 0xFFFFFFFFFFFFFFFFFFFFFFFFFFFFFFFFFFFFFFFF AND MUL OR SWAP1 SSTORE POP PUSH1 0x40 DUP3 ADD MLOAD DUP2 PUSH1 0x2 ADD SSTORE POP POP PUSH32 0x3DF940CBC17C560183C25F0B89DBD833625FC2A29DC1CFB3CD5F93D9D8530308 DUP7 DUP4 DUP8 TIMESTAMP DUP9 DUP7 PUSH1 0x40 MLOAD PUSH2 0x13FC SWAP7 SWAP6 SWAP5 SWAP4 SWAP3 SWAP2 SWAP1 PUSH2 0x225E JUMP JUMPDEST PUSH1 0x40 MLOAD DUP1 SWAP2 SUB SWAP1 LOG1 POP POP POP POP POP POP JUMP JUMPDEST PUSH0 PUSH1 0x40 MLOAD SWAP1 POP SWAP1 JUMP JUMPDEST PUSH0 PUSH0 REVERT JUMPDEST PUSH0 PUSH0 REVERT JUMPDEST PUSH0 DUP2 SWAP1 POP SWAP2 SWAP1 POP JUMP JUMPDEST PUSH2 0x142F DUP2 PUSH2 0x141D JUMP JUMPDEST DUP2 EQ PUSH2 0x1439 JUMPI PUSH0 PUSH0 REVERT JUMPDEST POP JUMP JUMPDEST PUSH0 DUP2 CALLDATALOAD SWAP1 POP PUSH2 0x144A DUP2 PUSH2 0x1426 JUMP JUMPDEST SWAP3 SWAP2 POP POP JUMP JUMPDEST PUSH0 PUSH0 PUSH1 0x40 DUP4 DUP6 SUB SLT ISZERO PUSH2 0x1466 JUMPI PUSH2 0x1465 PUSH2 0x1415 JUMP JUMPDEST JUMPDEST PUSH0 PUSH2 0x1473 DUP6 DUP3 DUP7 ADD PUSH2 0x143C JUMP JUMPDEST SWAP3 POP POP PUSH1 0x20 PUSH2 0x1484 DUP6 DUP3 DUP7 ADD PUSH2 0x143C JUMP JUMPDEST SWAP2 POP POP SWAP3 POP SWAP3 SWAP1 POP JUMP JUMPDEST PUSH0 PUSH20 0xFFFFFFFFFFFFFFFFFFFFFFFFFFFFFFFFFFFFFFFF DUP3 AND SWAP1 POP SWAP2 SWAP1 POP JUMP JUMPDEST PUSH0 PUSH2 0x14B7 DUP3 PUSH2 0x148E JUMP JUMPDEST SWAP1 POP SWAP2 SWAP1 POP JUMP JUMPDEST PUSH2 0x14C7 DUP2 PUSH2 0x14AD JUMP JUMPDEST DUP3 MSTORE POP POP JUMP JUMPDEST PUSH2 0x14D6 DUP2 PUSH2 0x141D JUMP JUMPDEST DUP3 MSTORE POP POP JUMP JUMPDEST PUSH0 PUSH1 0x60 DUP3 ADD SWAP1 POP PUSH2 0x14EF PUSH0 DUP4 ADD DUP7 PUSH2 0x14BE JUMP JUMPDEST PUSH2 0x14FC PUSH1 0x20 DUP4 ADD DUP6 PUSH2 0x14BE JUMP JUMPDEST PUSH2 0x1509 PUSH1 0x40 DUP4 ADD DUP5 PUSH2 0x14CD JUMP JUMPDEST SWAP5 SWAP4 POP POP POP POP JUMP JUMPDEST PUSH0 PUSH1 0x20 DUP3 ADD SWAP1 POP PUSH2 0x1524 PUSH0 DUP4 ADD DUP5 PUSH2 0x14BE JUMP JUMPDEST SWAP3 SWAP2 POP POP JUMP JUMPDEST PUSH0 PUSH1 0x20 DUP3 DUP5 SUB SLT ISZERO PUSH2 0x153F JUMPI PUSH2 0x153E PUSH2 0x1415 JUMP JUMPDEST JUMPDEST PUSH0 PUSH2 0x154C DUP5 DUP3 DUP6 ADD PUSH2 0x143C JUMP JUMPDEST SWAP2 POP POP SWAP3 SWAP2 POP POP JUMP JUMPDEST PUSH0 PUSH0 REVERT JUMPDEST PUSH0 PUSH0 REVERT JUMPDEST PUSH0 PUSH1 0x1F NOT PUSH1 0x1F DUP4 ADD AND SWAP1 POP SWAP2 SWAP1 POP JUMP JUMPDEST PUSH32 0x4E487B7100000000000000000000000000000000000000000000000000000000 PUSH0 MSTORE PUSH1 0x41 PUSH1 0x4 MSTORE PUSH1 0x24 PUSH0 REVERT JUMPDEST PUSH2 0x15A3 DUP3 PUSH2 0x155D JUMP JUMPDEST DUP2 ADD DUP2 DUP2 LT PUSH8 0xFFFFFFFFFFFFFFFF DUP3 GT OR ISZERO PUSH2 0x15C2 JUMPI PUSH2 0x15C1 PUSH2 0x156D JUMP JUMPDEST JUMPDEST DUP1 PUSH1 0x40 MSTORE POP POP POP JUMP JUMPDEST PUSH0 PUSH2 0x15D4 PUSH2 0x140C JUMP JUMPDEST SWAP1 POP PUSH2 0x15E0 DUP3 DUP3 PUSH2 0x159A JUMP JUMPDEST SWAP2 SWAP1 POP JUMP JUMPDEST PUSH0 PUSH8 0xFFFFFFFFFFFFFFFF DUP3 GT ISZERO PUSH2 0x15FF JUMPI PUSH2 0x15FE PUSH2 0x156D JUMP JUMPDEST JUMPDEST PUSH2 0x1608 DUP3 PUSH2 0x155D JUMP JUMPDEST SWAP1 POP PUSH1 0x20 DUP2 ADD SWAP1 POP SWAP2 SWAP1 POP JUMP JUMPDEST DUP3 DUP2 DUP4 CALLDATACOPY PUSH0 DUP4 DUP4 ADD MSTORE POP POP POP JUMP JUMPDEST PUSH0 PUSH2 0x1635 PUSH2 0x1630 DUP5 PUSH2 0x15E5 JUMP JUMPDEST PUSH2 0x15CB JUMP JUMPDEST SWAP1 POP DUP3 DUP2 MSTORE PUSH1 0x20 DUP2 ADD DUP5 DUP5 DUP5 ADD GT ISZERO PUSH2 0x1651 JUMPI PUSH2 0x1650 PUSH2 0x1559 JUMP JUMPDEST JUMPDEST PUSH2 0x165C DUP5 DUP3 DUP6 PUSH2 0x1615 JUMP JUMPDEST POP SWAP4 SWAP3 POP POP POP JUMP JUMPDEST PUSH0 DUP3 PUSH1 0x1F DUP4 ADD SLT PUSH2 0x1678 JUMPI PUSH2 0x1677 PUSH2 0x1555 JUMP JUMPDEST JUMPDEST DUP2 CALLDATALOAD PUSH2 0x1688 DUP5 DUP3 PUSH1 0x20 DUP7 ADD PUSH2 0x1623 JUMP JUMPDEST SWAP2 POP POP SWAP3 SWAP2 POP POP JUMP JUMPDEST PUSH0 PUSH0 PUSH1 0x40 DUP4 DUP6 SUB SLT ISZERO PUSH2 0x16A7 JUMPI PUSH2 0x16A6 PUSH2 0x1415 JUMP JUMPDEST JUMPDEST PUSH0 PUSH2 0x16B4 DUP6 DUP3 DUP7 ADD PUSH2 0x143C JUMP JUMPDEST SWAP3 POP POP PUSH1 0x20 DUP4 ADD CALLDATALOAD PUSH8 0xFFFFFFFFFFFFFFFF DUP2 GT ISZERO PUSH2 0x16D5 JUMPI PUSH2 0x16D4 PUSH2 0x1419 JUMP JUMPDEST JUMPDEST PUSH2 0x16E1 DUP6 DUP3 DUP7 ADD PUSH2 0x1664 JUMP JUMPDEST SWAP2 POP POP SWAP3 POP SWAP3 SWAP1 POP JUMP JUMPDEST PUSH32 0x4E487B7100000000000000000000000000000000000000000000000000000000 PUSH0 MSTORE PUSH1 0x21 PUSH1 0x4 MSTORE PUSH1 0x24 PUSH0 REVERT JUMPDEST PUSH1 0x5 DUP2 LT PUSH2 0x1729 JUMPI PUSH2 0x1728 PUSH2 0x16EB JUMP JUMPDEST JUMPDEST POP JUMP JUMPDEST PUSH0 DUP2 SWAP1 POP PUSH2 0x1739 DUP3 PUSH2 0x1718 JUMP JUMPDEST SWAP2 SWAP1 POP JUMP JUMPDEST PUSH0 PUSH2 0x1748 DUP3 PUSH2 0x172C JUMP JUMPDEST SWAP1 POP SWAP2 SWAP1 POP JUMP JUMPDEST PUSH2 0x1758 DUP2 PUSH2 0x173E JUMP JUMPDEST DUP3 MSTORE POP POP JUMP JUMPDEST PUSH0 DUP2 ISZERO ISZERO SWAP1 POP SWAP2 SWAP1 POP JUMP JUMPDEST PUSH2 0x1772 DUP2 PUSH2 0x175E JUMP JUMPDEST DUP3 MSTORE POP POP JUMP JUMPDEST PUSH0 PUSH1 0xA0 DUP3 ADD SWAP1 POP PUSH2 0x178B PUSH0 DUP4 ADD DUP9 PUSH2 0x14BE JUMP JUMPDEST PUSH2 0x1798 PUSH1 0x20 DUP4 ADD DUP8 PUSH2 0x174F JUMP JUMPDEST PUSH2 0x17A5 PUSH1 0x40 DUP4 ADD DUP7 PUSH2 0x14CD JUMP JUMPDEST PUSH2 0x17B2 PUSH1 0x60 DUP4 ADD DUP6 PUSH2 0x1769 JUMP JUMPDEST PUSH2 0x17BF PUSH1 0x80 DUP4 ADD DUP5 PUSH2 0x1769 JUMP JUMPDEST SWAP7 SWAP6 POP POP POP POP POP POP JUMP JUMPDEST PUSH0 PUSH1 0x20 DUP3 ADD SWAP1 POP PUSH2 0x17DC PUSH0 DUP4 ADD DUP5 PUSH2 0x1769 JUMP JUMPDEST SWAP3 SWAP2 POP POP JUMP JUMPDEST PUSH0 DUP2 MLOAD SWAP1 POP SWAP2 SWAP1 POP JUMP JUMPDEST PUSH0 DUP3 DUP3 MSTORE PUSH1 0x20 DUP3 ADD SWAP1 POP SWAP3 SWAP2 POP POP JUMP JUMPDEST DUP3 DUP2 DUP4 MCOPY PUSH0 DUP4 DUP4 ADD MSTORE POP POP POP JUMP JUMPDEST PUSH0 PUSH2 0x1814 DUP3 PUSH2 0x17E2 JUMP JUMPDEST PUSH2 0x181E DUP2 DUP6 PUSH2 0x17EC JUMP JUMPDEST SWAP4 POP PUSH2 0x182E DUP2 DUP6 PUSH1 0x20 DUP7 ADD PUSH2 0x17FC JUMP JUMPDEST PUSH2 0x1837 DUP2 PUSH2 0x155D JUMP JUMPDEST DUP5 ADD SWAP2 POP POP SWAP3 SWAP2 POP POP JUMP JUMPDEST PUSH0 PUSH1 0xC0 DUP3 ADD SWAP1 POP PUSH2 0x1855 PUSH0 DUP4 ADD DUP10 PUSH2 0x14CD JUMP JUMPDEST DUP2 DUP2 SUB PUSH1 0x20 DUP4 ADD MSTORE PUSH2 0x1867 DUP2 DUP9 PUSH2 0x180A JUMP JUMPDEST SWAP1 POP PUSH2 0x1876 PUSH1 0x40 DUP4 ADD DUP8 PUSH2 0x14BE JUMP JUMPDEST PUSH2 0x1883 PUSH1 0x60 DUP4 ADD DUP7 PUSH2 0x174F JUMP JUMPDEST PUSH2 0x1890 PUSH1 0x80 DUP4 ADD DUP6 PUSH2 0x14CD JUMP JUMPDEST PUSH2 0x189D PUSH1 0xA0 DUP4 ADD DUP5 PUSH2 0x1769 JUMP JUMPDEST SWAP8 SWAP7 POP POP POP POP POP POP POP JUMP JUMPDEST PUSH0 DUP2 MLOAD SWAP1 POP SWAP2 SWAP1 POP JUMP JUMPDEST PUSH0 DUP3 DUP3 MSTORE PUSH1 0x20 DUP3 ADD SWAP1 POP SWAP3 SWAP2 POP POP JUMP JUMPDEST PUSH0 DUP2 SWAP1 POP PUSH1 0x20 DUP3 ADD SWAP1 POP SWAP2 SWAP1 POP JUMP JUMPDEST PUSH2 0x18DA DUP2 PUSH2 0x14AD JUMP JUMPDEST DUP3 MSTORE POP POP JUMP JUMPDEST PUSH2 0x18E9 DUP2 PUSH2 0x141D JUMP JUMPDEST DUP3 MSTORE POP POP JUMP JUMPDEST PUSH1 0x60 DUP3 ADD PUSH0 DUP3 ADD MLOAD PUSH2 0x1903 PUSH0 DUP6 ADD DUP3 PUSH2 0x18D1 JUMP JUMPDEST POP PUSH1 0x20 DUP3 ADD MLOAD PUSH2 0x1916 PUSH1 0x20 DUP6 ADD DUP3 PUSH2 0x18D1 JUMP JUMPDEST POP PUSH1 0x40 DUP3 ADD MLOAD PUSH2 0x1929 PUSH1 0x40 DUP6 ADD DUP3 PUSH2 0x18E0 JUMP JUMPDEST POP POP POP POP JUMP JUMPDEST PUSH0 PUSH2 0x193A DUP4 DUP4 PUSH2 0x18EF JUMP JUMPDEST PUSH1 0x60 DUP4 ADD SWAP1 POP SWAP3 SWAP2 POP POP JUMP JUMPDEST PUSH0 PUSH1 0x20 DUP3 ADD SWAP1 POP SWAP2 SWAP1 POP JUMP JUMPDEST PUSH0 PUSH2 0x195C DUP3 PUSH2 0x18A8 JUMP JUMPDEST PUSH2 0x1966 DUP2 DUP6 PUSH2 0x18B2 JUMP JUMPDEST SWAP4 POP PUSH2 0x1971 DUP4 PUSH2 0x18C2 JUMP JUMPDEST DUP1 PUSH0 JUMPDEST DUP4 DUP2 LT ISZERO PUSH2 0x19A1 JUMPI DUP2 MLOAD PUSH2 0x1988 DUP9 DUP3 PUSH2 0x192F JUMP JUMPDEST SWAP8 POP PUSH2 0x1993 DUP4 PUSH2 0x1946 JUMP JUMPDEST SWAP3 POP POP PUSH1 0x1 DUP2 ADD SWAP1 POP PUSH2 0x1974 JUMP JUMPDEST POP DUP6 SWAP4 POP POP POP POP SWAP3 SWAP2 POP POP JUMP JUMPDEST PUSH0 PUSH1 0x20 DUP3 ADD SWAP1 POP DUP2 DUP2 SUB PUSH0 DUP4 ADD MSTORE PUSH2 0x19C6 DUP2 DUP5 PUSH2 0x1952 JUMP JUMPDEST SWAP1 POP SWAP3 SWAP2 POP POP JUMP JUMPDEST PUSH32 0x4E6F74207468652077617265686F757365000000000000000000000000000000 PUSH0 DUP3 ADD MSTORE POP JUMP JUMPDEST PUSH0 PUSH2 0x1A02 PUSH1 0x11 DUP4 PUSH2 0x17EC JUMP JUMPDEST SWAP2 POP PUSH2 0x1A0D DUP3 PUSH2 0x19CE JUMP JUMPDEST PUSH1 0x20 DUP3 ADD SWAP1 POP SWAP2 SWAP1 POP JUMP JUMPDEST PUSH0 PUSH1 0x20 DUP3 ADD SWAP1 POP DUP2 DUP2 SUB PUSH0 DUP4 ADD MSTORE PUSH2 0x1A2F DUP2 PUSH2 0x19F6 JUMP JUMPDEST SWAP1 POP SWAP2 SWAP1 POP JUMP JUMPDEST PUSH32 0x5061636B6167652069732063616E63656C6C6564000000000000000000000000 PUSH0 DUP3 ADD MSTORE POP JUMP JUMPDEST PUSH0 PUSH2 0x1A6A PUSH1 0x14 DUP4 PUSH2 0x17EC JUMP JUMPDEST SWAP2 POP PUSH2 0x1A75 DUP3 PUSH2 0x1A36 JUMP JUMPDEST PUSH1 0x20 DUP3 ADD SWAP1 POP SWAP2 SWAP1 POP JUMP JUMPDEST PUSH0 PUSH1 0x20 DUP3 ADD SWAP1 POP DUP2 DUP2 SUB PUSH0 DUP4 ADD MSTORE PUSH2 0x1A97 DUP2 PUSH2 0x1A5E JUMP JUMPDEST SWAP1 POP SWAP2 SWAP1 POP JUMP JUMPDEST PUSH32 0x5061636B616765206E6F7420696E2077617265686F7573650000000000000000 PUSH0 DUP3 ADD MSTORE POP JUMP JUMPDEST PUSH0 PUSH2 0x1AD2 PUSH1 0x18 DUP4 PUSH2 0x17EC JUMP JUMPDEST SWAP2 POP PUSH2 0x1ADD DUP3 PUSH2 0x1A9E JUMP JUMPDEST PUSH1 0x20 DUP3 ADD SWAP1 POP SWAP2 SWAP1 POP JUMP JUMPDEST PUSH0 PUSH1 0x20 DUP3 ADD SWAP1 POP DUP2 DUP2 SUB PUSH0 DUP4 ADD MSTORE PUSH2 0x1AFF DUP2 PUSH2 0x1AC6 JUMP JUMPDEST SWAP1 POP SWAP2 SWAP1 POP JUMP JUMPDEST PUSH32 0x446561646C696E65207061737365642E204175746F2D63616E63656C6C65642E PUSH0 DUP3 ADD MSTORE POP JUMP JUMPDEST PUSH0 PUSH2 0x1B3A PUSH1 0x20 DUP4 PUSH2 0x17EC JUMP JUMPDEST SWAP2 POP PUSH2 0x1B45 DUP3 PUSH2 0x1B06 JUMP JUMPDEST PUSH1 0x20 DUP3 ADD SWAP1 POP SWAP2 SWAP1 POP JUMP JUMPDEST PUSH0 PUSH1 0x20 DUP3 ADD SWAP1 POP DUP2 DUP2 SUB PUSH0 DUP4 ADD MSTORE PUSH2 0x1B67 DUP2 PUSH2 0x1B2E JUMP JUMPDEST SWAP1 POP SWAP2 SWAP1 POP JUMP JUMPDEST PUSH32 0x4E6F74207468652073656C6C6572000000000000000000000000000000000000 PUSH0 DUP3 ADD MSTORE POP JUMP JUMPDEST PUSH0 PUSH2 0x1BA2 PUSH1 0xE DUP4 PUSH2 0x17EC JUMP JUMPDEST SWAP2 POP PUSH2 0x1BAD DUP3 PUSH2 0x1B6E JUMP JUMPDEST PUSH1 0x20 DUP3 ADD SWAP1 POP SWAP2 SWAP1 POP JUMP JUMPDEST PUSH0 PUSH1 0x20 DUP3 ADD SWAP1 POP DUP2 DUP2 SUB PUSH0 DUP4 ADD MSTORE PUSH2 0x1BCF DUP2 PUSH2 0x1B96 JUMP JUMPDEST SWAP1 POP SWAP2 SWAP1 POP JUMP JUMPDEST PUSH32 0x5061636B61676520494420616C72656164792075736564000000000000000000 PUSH0 DUP3 ADD MSTORE POP JUMP JUMPDEST PUSH0 PUSH2 0x1C0A PUSH1 0x17 DUP4 PUSH2 0x17EC JUMP JUMPDEST SWAP2 POP PUSH2 0x1C15 DUP3 PUSH2 0x1BD6 JUMP JUMPDEST PUSH1 0x20 DUP3 ADD SWAP1 POP SWAP2 SWAP1 POP JUMP JUMPDEST PUSH0 PUSH1 0x20 DUP3 ADD SWAP1 POP DUP2 DUP2 SUB PUSH0 DUP4 ADD MSTORE PUSH2 0x1C37 DUP2 PUSH2 0x1BFE JUMP JUMPDEST SWAP1 POP SWAP2 SWAP1 POP JUMP JUMPDEST PUSH32 0x4E487B7100000000000000000000000000000000000000000000000000000000 PUSH0 MSTORE PUSH1 0x11 PUSH1 0x4 MSTORE PUSH1 0x24 PUSH0 REVERT JUMPDEST PUSH0 PUSH2 0x1C75 DUP3 PUSH2 0x141D JUMP JUMPDEST SWAP2 POP PUSH2 0x1C80 DUP4 PUSH2 0x141D JUMP JUMPDEST SWAP3 POP DUP3 DUP3 ADD SWAP1 POP DUP1 DUP3 GT ISZERO PUSH2 0x1C98 JUMPI PUSH2 0x1C97 PUSH2 0x1C3E JUMP JUMPDEST JUMPDEST SWAP3 SWAP2 POP POP JUMP JUMPDEST PUSH32 0x4E487B7100000000000000000000000000000000000000000000000000000000 PUSH0 MSTORE PUSH1 0x22 PUSH1 0x4 MSTORE PUSH1 0x24 PUSH0 REVERT JUMPDEST PUSH0 PUSH1 0x2 DUP3 DIV SWAP1 POP PUSH1 0x1 DUP3 AND DUP1 PUSH2 0x1CE2 JUMPI PUSH1 0x7F DUP3 AND SWAP2 POP JUMPDEST PUSH1 0x20 DUP3 LT DUP2 SUB PUSH2 0x1CF5 JUMPI PUSH2 0x1CF4 PUSH2 0x1C9E JUMP JUMPDEST JUMPDEST POP SWAP2 SWAP1 POP JUMP JUMPDEST PUSH0 DUP2 SWAP1 POP DUP2 PUSH0 MSTORE PUSH1 0x20 PUSH0 KECCAK256 SWAP1 POP SWAP2 SWAP1 POP JUMP JUMPDEST PUSH0 PUSH1 0x20 PUSH1 0x1F DUP4 ADD DIV SWAP1 POP SWAP2 SWAP1 POP JUMP JUMPDEST PUSH0 DUP3 DUP3 SHL SWAP1 POP SWAP3 SWAP2 POP POP JUMP JUMPDEST PUSH0 PUSH1 0x8 DUP4 MUL PUSH2 0x1D57 PUSH32 0xFFFFFFFFFFFFFFFFFFFFFFFFFFFFFFFFFFFFFFFFFFFFFFFFFFFFFFFFFFFFFFFF DUP3 PUSH2 0x1D1C JUMP JUMPDEST PUSH2 0x1D61 DUP7 DUP4 PUSH2 0x1D1C JUMP JUMPDEST SWAP6 POP DUP1 NOT DUP5 AND SWAP4 POP DUP1 DUP7 AND DUP5 OR SWAP3 POP POP POP SWAP4 SWAP3 POP POP POP JUMP JUMPDEST PUSH0 DUP2 SWAP1 POP SWAP2 SWAP1 POP JUMP JUMPDEST PUSH0 PUSH2 0x1D9C PUSH2 0x1D97 PUSH2 0x1D92 DUP5 PUSH2 0x141D JUMP JUMPDEST PUSH2 0x1D79 JUMP JUMPDEST PUSH2 0x141D JUMP JUMPDEST SWAP1 POP SWAP2 SWAP1 POP JUMP JUMPDEST PUSH0 DUP2 SWAP1 POP SWAP2 SWAP1 POP JUMP JUMPDEST PUSH2 0x1DB5 DUP4 PUSH2 0x1D82 JUMP JUMPDEST PUSH2 0x1DC9 PUSH2 0x1DC1 DUP3 PUSH2 0x1DA3 JUMP JUMPDEST DUP5 DUP5 SLOAD PUSH2 0x1D28 JUMP JUMPDEST DUP3 SSTORE POP POP POP POP JUMP JUMPDEST PUSH0 PUSH0 SWAP1 POP SWAP1 JUMP JUMPDEST PUSH2 0x1DE0 PUSH2 0x1DD1 JUMP JUMPDEST PUSH2 0x1DEB DUP2 DUP5 DUP5 PUSH2 0x1DAC JUMP JUMPDEST POP POP POP JUMP JUMPDEST JUMPDEST DUP2 DUP2 LT ISZERO PUSH2 0x1E0E JUMPI PUSH2 0x1E03 PUSH0 DUP3 PUSH2 0x1DD8 JUMP JUMPDEST PUSH1 0x1 DUP2 ADD SWAP1 POP PUSH2 0x1DF1 JUMP JUMPDEST POP POP JUMP JUMPDEST PUSH1 0x1F DUP3 GT ISZERO PUSH2 0x1E53 JUMPI PUSH2 0x1E24 DUP2 PUSH2 0x1CFB JUMP JUMPDEST PUSH2 0x1E2D DUP5 PUSH2 0x1D0D JUMP JUMPDEST DUP2 ADD PUSH1 0x20 DUP6 LT ISZERO PUSH2 0x1E3C JUMPI DUP2 SWAP1 POP JUMPDEST PUSH2 0x1E50 PUSH2 0x1E48 DUP6 PUSH2 0x1D0D JUMP JUMPDEST DUP4 ADD DUP3 PUSH2 0x1DF0 JUMP JUMPDEST POP POP JUMPDEST POP POP POP JUMP JUMPDEST PUSH0 DUP3 DUP3 SHR SWAP1 POP SWAP3 SWAP2 POP POP JUMP JUMPDEST PUSH0 PUSH2 0x1E73 PUSH0 NOT DUP5 PUSH1 0x8 MUL PUSH2 0x1E58 JUMP JUMPDEST NOT DUP1 DUP4 AND SWAP2 POP POP SWAP3 SWAP2 POP POP JUMP JUMPDEST PUSH0 PUSH2 0x1E8B DUP4 DUP4 PUSH2 0x1E64 JUMP JUMPDEST SWAP2 POP DUP3 PUSH1 0x2 MUL DUP3 OR SWAP1 POP SWAP3 SWAP2 POP POP JUMP JUMPDEST PUSH2 0x1EA4 DUP3 PUSH2 0x17E2 JUMP JUMPDEST PUSH8 0xFFFFFFFFFFFFFFFF DUP2 GT ISZERO PUSH2 0x1EBD JUMPI PUSH2 0x1EBC PUSH2 0x156D JUMP JUMPDEST JUMPDEST PUSH2 0x1EC7 DUP3 SLOAD PUSH2 0x1CCB JUMP JUMPDEST PUSH2 0x1ED2 DUP3 DUP3 DUP6 PUSH2 0x1E12 JUMP JUMPDEST PUSH0 PUSH1 0x20 SWAP1 POP PUSH1 0x1F DUP4 GT PUSH1 0x1 DUP2 EQ PUSH2 0x1F03 JUMPI PUSH0 DUP5 ISZERO PUSH2 0x1EF1 JUMPI DUP3 DUP8 ADD MLOAD SWAP1 POP JUMPDEST PUSH2 0x1EFB DUP6 DUP3 PUSH2 0x1E80 JUMP JUMPDEST DUP7 SSTORE POP PUSH2 0x1F62 JUMP JUMPDEST PUSH1 0x1F NOT DUP5 AND PUSH2 0x1F11 DUP7 PUSH2 0x1CFB JUMP JUMPDEST PUSH0 JUMPDEST DUP3 DUP2 LT ISZERO PUSH2 0x1F38 JUMPI DUP5 DUP10 ADD MLOAD DUP3 SSTORE PUSH1 0x1 DUP3 ADD SWAP2 POP PUSH1 0x20 DUP6 ADD SWAP5 POP PUSH1 0x20 DUP2 ADD SWAP1 POP PUSH2 0x1F13 JUMP JUMPDEST DUP7 DUP4 LT ISZERO PUSH2 0x1F55 JUMPI DUP5 DUP10 ADD MLOAD PUSH2 0x1F51 PUSH1 0x1F DUP10 AND DUP3 PUSH2 0x1E64 JUMP JUMPDEST DUP4 SSTORE POP JUMPDEST PUSH1 0x1 PUSH1 0x2 DUP9 MUL ADD DUP9 SSTORE POP POP POP JUMPDEST POP POP POP POP POP POP JUMP JUMPDEST PUSH32 0x416C72656164792063616E63656C6C6564000000000000000000000000000000 PUSH0 DUP3 ADD MSTORE POP JUMP JUMPDEST PUSH0 PUSH2 0x1F9E PUSH1 0x11 DUP4 PUSH2 0x17EC JUMP JUMPDEST SWAP2 POP PUSH2 0x1FA9 DUP3 PUSH2 0x1F6A JUMP JUMPDEST PUSH1 0x20 DUP3 ADD SWAP1 POP SWAP2 SWAP1 POP JUMP JUMPDEST PUSH0 PUSH1 0x20 DUP3 ADD SWAP1 POP DUP2 DUP2 SUB PUSH0 DUP4 ADD MSTORE PUSH2 0x1FCB DUP2 PUSH2 0x1F92 JUMP JUMPDEST SWAP1 POP SWAP2 SWAP1 POP JUMP JUMPDEST PUSH32 0x416C72656164792064656C697665726564000000000000000000000000000000 PUSH0 DUP3 ADD MSTORE POP JUMP JUMPDEST PUSH0 PUSH2 0x2006 PUSH1 0x11 DUP4 PUSH2 0x17EC JUMP JUMPDEST SWAP2 POP PUSH2 0x2011 DUP3 PUSH2 0x1FD2 JUMP JUMPDEST PUSH1 0x20 DUP3 ADD SWAP1 POP SWAP2 SWAP1 POP JUMP JUMPDEST PUSH0 PUSH1 0x20 DUP3 ADD SWAP1 POP DUP2 DUP2 SUB PUSH0 DUP4 ADD MSTORE PUSH2 0x2033 DUP2 PUSH2 0x1FFA JUMP JUMPDEST SWAP1 POP SWAP2 SWAP1 POP JUMP JUMPDEST PUSH32 0x446561646C696E65206D69737365642E204175746F2D63616E63656C6C65642E PUSH0 DUP3 ADD MSTORE POP JUMP JUMPDEST PUSH0 PUSH2 0x206E PUSH1 0x20 DUP4 PUSH2 0x17EC JUMP JUMPDEST SWAP2 POP PUSH2 0x2079 DUP3 PUSH2 0x203A JUMP JUMPDEST PUSH1 0x20 DUP3 ADD SWAP1 POP SWAP2 SWAP1 POP JUMP JUMPDEST PUSH0 PUSH1 0x60 DUP3 ADD SWAP1 POP PUSH2 0x2097 PUSH0 DUP4 ADD DUP6 PUSH2 0x14CD JUMP JUMPDEST DUP2 DUP2 SUB PUSH1 0x20 DUP4 ADD MSTORE PUSH2 0x20A8 DUP2 PUSH2 0x2062 JUMP JUMPDEST SWAP1 POP PUSH2 0x20B7 PUSH1 0x40 DUP4 ADD DUP5 PUSH2 0x14CD JUMP JUMPDEST SWAP4 SWAP3 POP POP POP JUMP JUMPDEST PUSH32 0x446561646C696E65206E6F74206D697373656420796574000000000000000000 PUSH0 DUP3 ADD MSTORE POP JUMP JUMPDEST PUSH0 PUSH2 0x20F2 PUSH1 0x17 DUP4 PUSH2 0x17EC JUMP JUMPDEST SWAP2 POP PUSH2 0x20FD DUP3 PUSH2 0x20BE JUMP JUMPDEST PUSH1 0x20 DUP3 ADD SWAP1 POP SWAP2 SWAP1 POP JUMP JUMPDEST PUSH0 PUSH1 0x20 DUP3 ADD SWAP1 POP DUP2 DUP2 SUB PUSH0 DUP4 ADD MSTORE PUSH2 0x211F DUP2 PUSH2 0x20E6 JUMP JUMPDEST SWAP1 POP SWAP2 SWAP1 POP JUMP JUMPDEST PUSH32 0x5061636B616765206E6F742061742073656C6C65720000000000000000000000 PUSH0 DUP3 ADD MSTORE POP JUMP JUMPDEST PUSH0 PUSH2 0x215A PUSH1 0x15 DUP4 PUSH2 0x17EC JUMP JUMPDEST SWAP2 POP PUSH2 0x2165 DUP3 PUSH2 0x2126 JUMP JUMPDEST PUSH1 0x20 DUP3 ADD SWAP1 POP SWAP2 SWAP1 POP JUMP JUMPDEST PUSH0 PUSH1 0x20 DUP3 ADD SWAP1 POP DUP2 DUP2 SUB PUSH0 DUP4 ADD MSTORE PUSH2 0x2187 DUP2 PUSH2 0x214E JUMP JUMPDEST SWAP1 POP SWAP2 SWAP1 POP JUMP JUMPDEST PUSH32 0x4E6F74207468652064656C697665727920626F79000000000000000000000000 PUSH0 DUP3 ADD MSTORE POP JUMP JUMPDEST PUSH0 PUSH2 0x21C2 PUSH1 0x14 DUP4 PUSH2 0x17EC JUMP JUMPDEST SWAP2 POP PUSH2 0x21CD DUP3 PUSH2 0x218E JUMP JUMPDEST PUSH1 0x20 DUP3 ADD SWAP1 POP SWAP2 SWAP1 POP JUMP JUMPDEST PUSH0 PUSH1 0x20 DUP3 ADD SWAP1 POP DUP2 DUP2 SUB PUSH0 DUP4 ADD MSTORE PUSH2 0x21EF DUP2 PUSH2 0x21B6 JUMP JUMPDEST SWAP1 POP SWAP2 SWAP1 POP JUMP JUMPDEST PUSH32 0x5061636B616765206E6F7420776974682064656C697665727920626F79000000 PUSH0 DUP3 ADD MSTORE POP JUMP JUMPDEST PUSH0 PUSH2 0x222A PUSH1 0x1D DUP4 PUSH2 0x17EC JUMP JUMPDEST SWAP2 POP PUSH2 0x2235 DUP3 PUSH2 0x21F6 JUMP JUMPDEST PUSH1 0x20 DUP3 ADD SWAP1 POP SWAP2 SWAP1 POP JUMP JUMPDEST PUSH0 PUSH1 0x20 DUP3 ADD SWAP1 POP DUP2 DUP2 SUB PUSH0 DUP4 ADD MSTORE PUSH2 0x2257 DUP2 PUSH2 0x221E JUMP JUMPDEST SWAP1 POP SWAP2 SWAP1 POP JUMP JUMPDEST PUSH0 PUSH1 0xC0 DUP3 ADD SWAP1 POP PUSH2 0x2271 PUSH0 DUP4 ADD DUP10 PUSH2 0x14CD JUMP JUMPDEST PUSH2 0x227E PUSH1 0x20 DUP4 ADD DUP9 PUSH2 0x14BE JUMP JUMPDEST PUSH2 0x228B PUSH1 0x40 DUP4 ADD DUP8 PUSH2 0x14BE JUMP JUMPDEST PUSH2 0x2298 PUSH1 0x60 DUP4 ADD DUP7 PUSH2 0x14CD JUMP JUMPDEST PUSH2 0x22A5 PUSH1 0x80 DUP4 ADD DUP6 PUSH2 0x174F JUMP JUMPDEST PUSH2 0x22B2 PUSH1 0xA0 DUP4 ADD DUP5 PUSH2 0x1769 JUMP JUMPDEST SWAP8 SWAP7 POP POP POP POP POP POP POP JUMP INVALID LOG2 PUSH5 0x6970667358 0x22 SLT KECCAK256 0xCF 0xDD JUMP 0xBE 0xCD PUSH14 0x6A92B411C2FD315B2F01B9022229 SWAP1 RETURN SAR 0x2D CALLDATACOPY 0xB7 BASEFEE 0xC5 PUSH6 0x8DA52764736F PUSH13 0x634300081E0033000000000000 "
				},
				"gasEstimates": {
					"creation": {
						"codeDepositCost": "1789400",
						"executionCost": "98944",
						"totalCost": "1888344"
					},
					"external": {
						"buyer()": "2552",
						"cancelIfLate(uint256)": "infinite",
						"checkDeadline(uint256)": "2834",
						"createPackage(uint256,string)": "infinite",
						"deliverToBuyer(uint256)": "infinite",
						"deliveryBoy()": "2552",
						"packageTransfers(uint256,uint256)": "infinite",
						"packages(uint256)": "infinite",
						"registerAsSeller()": "24476",
						"seller()": "2554",
						"transferToDeliveryBoy(uint256)": "infinite",
						"transferToWarehouse(uint256)": "infinite",
						"viewCurrentStatus(uint256)": "infinite",
						"viewTransactionHistory(uint256)": "infinite",
						"warehouse()": "2531"
					},
					"internal": {
						"_transfer(uint256,address,enum SupplyChainTracker.Location)": "infinite"
					}
				},
				"methodIdentifiers": {
					"buyer()": "7150d8ae",
					"cancelIfLate(uint256)": "bf5f3d4a",
					"checkDeadline(uint256)": "a6990946",
					"createPackage(uint256,string)": "73cf03b6",
					"deliverToBuyer(uint256)": "fcabba1e",
					"deliveryBoy()": "cd22243f",
					"packageTransfers(uint256,uint256)": "0479fec5",
					"packages(uint256)": "c216212a",
					"registerAsSeller()": "128b8532",
					"seller()": "08551a53",
					"transferToDeliveryBoy(uint256)": "4d695f95",
					"transferToWarehouse(uint256)": "ea453684",
					"viewCurrentStatus(uint256)": "8bab233b",
					"viewTransactionHistory(uint256)": "c495c8a8",
					"warehouse()": "9b622769"
				}
			},
			"storageLayout": {
				"storage": [
					{
						"astId": 5,
						"contract": "supplychain.sol:SupplyChainTracker",
						"label": "buyer",
						"offset": 0,
						"slot": "0",
						"type": "t_address"
					},
					{
						"astId": 8,
						"contract": "supplychain.sol:SupplyChainTracker",
						"label": "seller",
						"offset": 0,
						"slot": "1",
						"type": "t_address"
					},
					{
						"astId": 11,
						"contract": "supplychain.sol:SupplyChainTracker",
						"label": "warehouse",
						"offset": 0,
						"slot": "2",
						"type": "t_address"
					},
					{
						"astId": 14,
						"contract": "supplychain.sol:SupplyChainTracker",
						"label": "deliveryBoy",
						"offset": 0,
						"slot": "3",
						"type": "t_address"
					},
					{
						"astId": 46,
						"contract": "supplychain.sol:SupplyChainTracker",
						"label": "packages",
						"offset": 0,
						"slot": "4",
						"type": "t_mapping(t_uint256,t_struct(Package)34_storage)"
					},
					{
						"astId": 52,
						"contract": "supplychain.sol:SupplyChainTracker",
						"label": "packageTransfers",
						"offset": 0,
						"slot": "5",
						"type": "t_mapping(t_uint256,t_array(t_struct(TransferRecord)41_storage)dyn_storage)"
					}
				],
				"types": {
					"t_address": {
						"encoding": "inplace",
						"label": "address",
						"numberOfBytes": "20"
					},
					"t_array(t_struct(TransferRecord)41_storage)dyn_storage": {
						"base": "t_struct(TransferRecord)41_storage",
						"encoding": "dynamic_array",
						"label": "struct SupplyChainTracker.TransferRecord[]",
						"numberOfBytes": "32"
					},
					"t_bool": {
						"encoding": "inplace",
						"label": "bool",
						"numberOfBytes": "1"
					},
					"t_enum(Location)20": {
						"encoding": "inplace",
						"label": "enum SupplyChainTracker.Location",
						"numberOfBytes": "1"
					},
					"t_mapping(t_uint256,t_array(t_struct(TransferRecord)41_storage)dyn_storage)": {
						"encoding": "mapping",
						"key": "t_uint256",
						"label": "mapping(uint256 => struct SupplyChainTracker.TransferRecord[])",
						"numberOfBytes": "32",
						"value": "t_array(t_struct(TransferRecord)41_storage)dyn_storage"
					},
					"t_mapping(t_uint256,t_struct(Package)34_storage)": {
						"encoding": "mapping",
						"key": "t_uint256",
						"label": "mapping(uint256 => struct SupplyChainTracker.Package)",
						"numberOfBytes": "32",
						"value": "t_struct(Package)34_storage"
					},
					"t_string_storage": {
						"encoding": "bytes",
						"label": "string",
						"numberOfBytes": "32"
					},
					"t_struct(Package)34_storage": {
						"encoding": "inplace",
						"label": "struct SupplyChainTracker.Package",
						"members": [
							{
								"astId": 22,
								"contract": "supplychain.sol:SupplyChainTracker",
								"label": "id",
								"offset": 0,
								"slot": "0",
								"type": "t_uint256"
							},
							{
								"astId": 24,
								"contract": "supplychain.sol:SupplyChainTracker",
								"label": "name",
								"offset": 0,
								"slot": "1",
								"type": "t_string_storage"
							},
							{
								"astId": 26,
								"contract": "supplychain.sol:SupplyChainTracker",
								"label": "currentHolder",
								"offset": 0,
								"slot": "2",
								"type": "t_address"
							},
							{
								"astId": 29,
								"contract": "supplychain.sol:SupplyChainTracker",
								"label": "location",
								"offset": 20,
								"slot": "2",
								"type": "t_enum(Location)20"
							},
							{
								"astId": 31,
								"contract": "supplychain.sol:SupplyChainTracker",
								"label": "deadline",
								"offset": 0,
								"slot": "3",
								"type": "t_uint256"
							},
							{
								"astId": 33,
								"contract": "supplychain.sol:SupplyChainTracker",
								"label": "isCancelled",
								"offset": 0,
								"slot": "4",
								"type": "t_bool"
							}
						],
						"numberOfBytes": "160"
					},
					"t_struct(TransferRecord)41_storage": {
						"encoding": "inplace",
						"label": "struct SupplyChainTracker.TransferRecord",
						"members": [
							{
								"astId": 36,
								"contract": "supplychain.sol:SupplyChainTracker",
								"label": "from",
								"offset": 0,
								"slot": "0",
								"type": "t_address"
							},
							{
								"astId": 38,
								"contract": "supplychain.sol:SupplyChainTracker",
								"label": "to",
								"offset": 0,
								"slot": "1",
								"type": "t_address"
							},
							{
								"astId": 40,
								"contract": "supplychain.sol:SupplyChainTracker",
								"label": "timestamp",
								"offset": 0,
								"slot": "2",
								"type": "t_uint256"
							}
						],
						"numberOfBytes": "96"
					},
					"t_uint256": {
						"encoding": "inplace",
						"label": "uint256",
						"numberOfBytes": "32"
					}
				}
			},
			"userdoc": {
				"kind": "user",
				"methods": {},
				"version": 1
			}
		}
	}
}