{
	"ecommerce.sol": {
		"SupplyChain": {
			"abi": [
				{
					"anonymous": false,
					"inputs": [
						{
							"indexed": false,
							"internalType": "uint256",
							"name": "_id",
							"type": "uint256"
						},
						{
							"indexed": false,
							"internalType": "address",
							"name": "_from",
							"type": "address"
						},
						{
							"indexed": false,
							"internalType": "address",
							"name": "_to",
							"type": "address"
						}
					],
					"name": "orderDelivered",
					"type": "event"
				},
				{
					"anonymous": false,
					"inputs": [
						{
							"indexed": false,
							"internalType": "uint256",
							"name": "_id",
							"type": "uint256"
						},
						{
							"indexed": false,
							"internalType": "address",
							"name": "_from",
							"type": "address"
						},
						{
							"indexed": false,
							"internalType": "address",
							"name": "_to",
							"type": "address"
						}
					],
					"name": "orderPlaced",
					"type": "event"
				},
				{
					"inputs": [
						{
							"internalType": "uint256",
							"name": "_id",
							"type": "uint256"
						}
					],
					"name": "checkStatus",
					"outputs": [
						{
							"internalType": "string",
							"name": "",
							"type": "string"
						}
					],
					"stateMutability": "view",
					"type": "function"
				},
				{
					"inputs": [],
					"name": "isDeadlineOver",
					"outputs": [
						{
							"internalType": "bool",
							"name": "",
							"type": "bool"
						}
					],
					"stateMutability": "view",
					"type": "function"
				},
				{
					"inputs": [
						{
							"internalType": "uint256",
							"name": "",
							"type": "uint256"
						}
					],
					"name": "orderList",
					"outputs": [
						{
							"internalType": "string",
							"name": "productName",
							"type": "string"
						},
						{
							"internalType": "string",
							"name": "location",
							"type": "string"
						},
						{
							"internalType": "uint256",
							"name": "id",
							"type": "uint256"
						},
						{
							"internalType": "uint256",
							"name": "price",
							"type": "uint256"
						},
						{
							"internalType": "address",
							"name": "owner",
							"type": "address"
						},
						{
							"internalType": "bool",
							"name": "isSold",
							"type": "bool"
						}
					],
					"stateMutability": "view",
					"type": "function"
				},
				{
					"inputs": [
						{
							"internalType": "address",
							"name": "_buyer",
							"type": "address"
						},
						{
							"internalType": "address",
							"name": "_seller",
							"type": "address"
						}
					],
					"name": "requestProduct",
					"outputs": [
						{
							"internalType": "string",
							"name": "",
							"type": "string"
						}
					],
					"stateMutability": "pure",
					"type": "function"
				},
				{
					"inputs": [
						{
							"components": [
								{
									"internalType": "string",
									"name": "productName",
									"type": "string"
								},
								{
									"internalType": "string",
									"name": "location",
									"type": "string"
								},
								{
									"internalType": "uint256",
									"name": "id",
									"type": "uint256"
								},
								{
									"internalType": "uint256",
									"name": "price",
									"type": "uint256"
								},
								{
									"internalType": "address",
									"name": "owner",
									"type": "address"
								},
								{
									"internalType": "bool",
									"name": "isSold",
									"type": "bool"
								}
							],
							"internalType": "struct SupplyChain.Product[]",
							"name": "_productList",
							"type": "tuple[]"
						}
					],
					"name": "setTime",
					"outputs": [],
					"stateMutability": "nonpayable",
					"type": "function"
				}
			],
			"devdoc": {
				"kind": "dev",
				"methods": {},
				"version": 1
			},
			"evm": {
				"assembly": "    /* \"ecommerce.sol\":65:1313  contract SupplyChain { ... */\n  mstore(0x40, 0x80)\n  callvalue\n  dup1\n  iszero\n  tag_1\n  jumpi\n  revert(0x00, 0x00)\ntag_1:\n  pop\n  dataSize(sub_0)\n  dup1\n  dataOffset(sub_0)\n  0x00\n  codecopy\n  0x00\n  return\nstop\n\nsub_0: assembly {\n        /* \"ecommerce.sol\":65:1313  contract SupplyChain { ... */\n      mstore(0x40, 0x80)\n      callvalue\n      dup1\n      iszero\n      tag_1\n      jumpi\n      revert(0x00, 0x00)\n    tag_1:\n      pop\n      jumpi(tag_2, lt(calldatasize, 0x04))\n      shr(0xe0, calldataload(0x00))\n      dup1\n      0x2858c764\n      eq\n      tag_3\n      jumpi\n      dup1\n      0x2dce602f\n      eq\n      tag_4\n      jumpi\n      dup1\n      0x6dad12b7\n      eq\n      tag_5\n      jumpi\n      dup1\n      0x76f75e7f\n      eq\n      tag_6\n      jumpi\n      dup1\n      0x97d1deb3\n      eq\n      tag_7\n      jumpi\n    tag_2:\n      revert(0x00, 0x00)\n        /* \"ecommerce.sol\":889:968  function checkStatus(uint256 _id) public view returns(string memory) {... */\n    tag_3:\n      tag_8\n      0x04\n      dup1\n      calldatasize\n      sub\n      dup2\n      add\n      swap1\n      tag_9\n      swap2\n      swap1\n      tag_10\n      jump\t// in\n    tag_9:\n      tag_11\n      jump\t// in\n    tag_8:\n      mload(0x40)\n      tag_12\n      swap2\n      swap1\n      tag_13\n      jump\t// in\n    tag_12:\n      mload(0x40)\n      dup1\n      swap2\n      sub\n      swap1\n      return\n        /* \"ecommerce.sol\":771:881  function requestProduct(address _buyer, address _seller) public pure returns(string memory) {... */\n    tag_4:\n      tag_14\n      0x04\n      dup1\n      calldatasize\n      sub\n      dup2\n      add\n      swap1\n      tag_15\n      swap2\n      swap1\n      tag_16\n      jump\t// in\n    tag_15:\n      tag_17\n      jump\t// in\n    tag_14:\n      mload(0x40)\n      tag_18\n      swap2\n      swap1\n      tag_13\n      jump\t// in\n    tag_18:\n      mload(0x40)\n      dup1\n      swap2\n      sub\n      swap1\n      return\n        /* \"ecommerce.sol\":1105:1206  function isDeadlineOver() public view returns(bool) {... */\n    tag_5:\n      tag_19\n      tag_20\n      jump\t// in\n    tag_19:\n      mload(0x40)\n      tag_21\n      swap2\n      swap1\n      tag_22\n      jump\t// in\n    tag_21:\n      mload(0x40)\n      dup1\n      swap2\n      sub\n      swap1\n      return\n        /* \"ecommerce.sol\":194:238  mapping(uint256 => Product) public orderList */\n    tag_6:\n      tag_23\n      0x04\n      dup1\n      calldatasize\n      sub\n      dup2\n      add\n      swap1\n      tag_24\n      swap2\n      swap1\n      tag_10\n      jump\t// in\n    tag_24:\n      tag_25\n      jump\t// in\n    tag_23:\n      mload(0x40)\n      tag_26\n      swap7\n      swap6\n      swap5\n      swap4\n      swap3\n      swap2\n      swap1\n      tag_27\n      jump\t// in\n    tag_26:\n      mload(0x40)\n      dup1\n      swap2\n      sub\n      swap1\n      return\n        /* \"ecommerce.sol\":976:1097  function setTime(Product[] memory _productList) public {... */\n    tag_7:\n      tag_28\n      0x04\n      dup1\n      calldatasize\n      sub\n      dup2\n      add\n      swap1\n      tag_29\n      swap2\n      swap1\n      tag_30\n      jump\t// in\n    tag_29:\n      tag_31\n      jump\t// in\n    tag_28:\n      stop\n        /* \"ecommerce.sol\":889:968  function checkStatus(uint256 _id) public view returns(string memory) {... */\n    tag_11:\n        /* \"ecommerce.sol\":943:956  string memory */\n      0x60\n        /* \"ecommerce.sol\":889:968  function checkStatus(uint256 _id) public view returns(string memory) {... */\n      swap2\n      swap1\n      pop\n      jump\t// out\n        /* \"ecommerce.sol\":771:881  function requestProduct(address _buyer, address _seller) public pure returns(string memory) {... */\n    tag_17:\n        /* \"ecommerce.sol\":848:861  string memory */\n      0x60\n        /* \"ecommerce.sol\":771:881  function requestProduct(address _buyer, address _seller) public pure returns(string memory) {... */\n      swap3\n      swap2\n      pop\n      pop\n      jump\t// out\n        /* \"ecommerce.sol\":1105:1206  function isDeadlineOver() public view returns(bool) {... */\n    tag_20:\n        /* \"ecommerce.sol\":1151:1155  bool */\n      0x00\n        /* \"ecommerce.sol\":1194:1198  time */\n      sload(0x01)\n        /* \"ecommerce.sol\":1175:1190  block.timestamp */\n      timestamp\n        /* \"ecommerce.sol\":1175:1198  block.timestamp >= time */\n      lt\n      iszero\n        /* \"ecommerce.sol\":1168:1198  return block.timestamp >= time */\n      swap1\n      pop\n        /* \"ecommerce.sol\":1105:1206  function isDeadlineOver() public view returns(bool) {... */\n      swap1\n      jump\t// out\n        /* \"ecommerce.sol\":194:238  mapping(uint256 => Product) public orderList */\n    tag_25:\n      mstore(0x20, 0x00)\n      dup1\n      0x00\n      mstore\n      keccak256(0x00, 0x40)\n      0x00\n      swap2\n      pop\n      swap1\n      pop\n      dup1\n      0x00\n      add\n      dup1\n      sload\n      tag_35\n      swap1\n      tag_36\n      jump\t// in\n    tag_35:\n      dup1\n      0x1f\n      add\n      0x20\n      dup1\n      swap2\n      div\n      mul\n      0x20\n      add\n      mload(0x40)\n      swap1\n      dup2\n      add\n      0x40\n      mstore\n      dup1\n      swap3\n      swap2\n      swap1\n      dup2\n      dup2\n      mstore\n      0x20\n      add\n      dup3\n      dup1\n      sload\n      tag_37\n      swap1\n      tag_36\n      jump\t// in\n    tag_37:\n      dup1\n      iszero\n      tag_38\n      jumpi\n      dup1\n      0x1f\n      lt\n      tag_39\n      jumpi\n      0x0100\n      dup1\n      dup4\n      sload\n      div\n      mul\n      dup4\n      mstore\n      swap2\n      0x20\n      add\n      swap2\n      jump(tag_38)\n    tag_39:\n      dup3\n      add\n      swap2\n      swap1\n      0x00\n      mstore\n      keccak256(0x00, 0x20)\n      swap1\n    tag_40:\n      dup2\n      sload\n      dup2\n      mstore\n      swap1\n      0x01\n      add\n      swap1\n      0x20\n      add\n      dup1\n      dup4\n      gt\n      tag_40\n      jumpi\n      dup3\n      swap1\n      sub\n      0x1f\n      and\n      dup3\n      add\n      swap2\n    tag_38:\n      pop\n      pop\n      pop\n      pop\n      pop\n      swap1\n      dup1\n      0x01\n      add\n      dup1\n      sload\n      tag_41\n      swap1\n      tag_36\n      jump\t// in\n    tag_41:\n      dup1\n      0x1f\n      add\n      0x20\n      dup1\n      swap2\n      div\n      mul\n      0x20\n      add\n      mload(0x40)\n      swap1\n      dup2\n      add\n      0x40\n      mstore\n      dup1\n      swap3\n      swap2\n      swap1\n      dup2\n      dup2\n      mstore\n      0x20\n      add\n      dup3\n      dup1\n      sload\n      tag_42\n      swap1\n      tag_36\n      jump\t// in\n    tag_42:\n      dup1\n      iszero\n      tag_43\n      jumpi\n      dup1\n      0x1f\n      lt\n      tag_44\n      jumpi\n      0x0100\n      dup1\n      dup4\n      sload\n      div\n      mul\n      dup4\n      mstore\n      swap2\n      0x20\n      add\n      swap2\n      jump(tag_43)\n    tag_44:\n      dup3\n      add\n      swap2\n      swap1\n      0x00\n      mstore\n      keccak256(0x00, 0x20)\n      swap1\n    tag_45:\n      dup2\n      sload\n      dup2\n      mstore\n      swap1\n      0x01\n      add\n      swap1\n      0x20\n      add\n      dup1\n      dup4\n      gt\n      tag_45\n      jumpi\n      dup3\n      swap1\n      sub\n      0x1f\n      and\n      dup3\n      add\n      swap2\n    tag_43:\n      pop\n      pop\n      pop\n      pop\n      pop\n      swap1\n      dup1\n      0x02\n      add\n      sload\n      swap1\n      dup1\n      0x03\n      add\n      sload\n      swap1\n      dup1\n      0x04\n      add\n      0x00\n      swap1\n      sload\n      swap1\n      0x0100\n      exp\n      swap1\n      div\n      0xffffffffffffffffffffffffffffffffffffffff\n      and\n      swap1\n      dup1\n      0x04\n      add\n      0x14\n      swap1\n      sload\n      swap1\n      0x0100\n      exp\n      swap1\n      div\n      0xff\n      and\n      swap1\n      pop\n      dup7\n      jump\t// out\n        /* \"ecommerce.sol\":976:1097  function setTime(Product[] memory _productList) public {... */\n    tag_31:\n        /* \"ecommerce.sol\":1087:1089  60 */\n      0x3c\n        /* \"ecommerce.sol\":1067:1079  _productList */\n      dup2\n        /* \"ecommerce.sol\":1067:1086  _productList.length */\n      mload\n        /* \"ecommerce.sol\":1067:1089  _productList.length*60 */\n      tag_47\n      swap2\n      swap1\n      tag_48\n      jump\t// in\n    tag_47:\n        /* \"ecommerce.sol\":1049:1064  block.timestamp */\n      timestamp\n        /* \"ecommerce.sol\":1049:1089  block.timestamp + _productList.length*60 */\n      tag_49\n      swap2\n      swap1\n      tag_50\n      jump\t// in\n    tag_49:\n        /* \"ecommerce.sol\":1042:1046  time */\n      0x01\n        /* \"ecommerce.sol\":1042:1089  time = block.timestamp + _productList.length*60 */\n      dup2\n      swap1\n      sstore\n      pop\n        /* \"ecommerce.sol\":976:1097  function setTime(Product[] memory _productList) public {... */\n      pop\n      jump\t// out\n        /* \"#utility.yul\":7:82   */\n    tag_51:\n        /* \"#utility.yul\":40:46   */\n      0x00\n        /* \"#utility.yul\":73:75   */\n      0x40\n        /* \"#utility.yul\":67:76   */\n      mload\n        /* \"#utility.yul\":57:76   */\n      swap1\n      pop\n        /* \"#utility.yul\":7:82   */\n      swap1\n      jump\t// out\n        /* \"#utility.yul\":88:205   */\n    tag_52:\n        /* \"#utility.yul\":197:198   */\n      0x00\n        /* \"#utility.yul\":194:195   */\n      0x00\n        /* \"#utility.yul\":187:199   */\n      revert\n        /* \"#utility.yul\":211:328   */\n    tag_53:\n        /* \"#utility.yul\":320:321   */\n      0x00\n        /* \"#utility.yul\":317:318   */\n      0x00\n        /* \"#utility.yul\":310:322   */\n      revert\n        /* \"#utility.yul\":334:411   */\n    tag_54:\n        /* \"#utility.yul\":371:378   */\n      0x00\n        /* \"#utility.yul\":400:405   */\n      dup2\n        /* \"#utility.yul\":389:405   */\n      swap1\n      pop\n        /* \"#utility.yul\":334:411   */\n      swap2\n      swap1\n      pop\n      jump\t// out\n        /* \"#utility.yul\":417:539   */\n    tag_55:\n        /* \"#utility.yul\":490:514   */\n      tag_96\n        /* \"#utility.yul\":508:513   */\n      dup2\n        /* \"#utility.yul\":490:514   */\n      tag_54\n      jump\t// in\n    tag_96:\n        /* \"#utility.yul\":483:488   */\n      dup2\n        /* \"#utility.yul\":480:515   */\n      eq\n        /* \"#utility.yul\":470:533   */\n      tag_97\n      jumpi\n        /* \"#utility.yul\":529:530   */\n      0x00\n        /* \"#utility.yul\":526:527   */\n      0x00\n        /* \"#utility.yul\":519:531   */\n      revert\n        /* \"#utility.yul\":470:533   */\n    tag_97:\n        /* \"#utility.yul\":417:539   */\n      pop\n      jump\t// out\n        /* \"#utility.yul\":545:684   */\n    tag_56:\n        /* \"#utility.yul\":591:596   */\n      0x00\n        /* \"#utility.yul\":629:635   */\n      dup2\n        /* \"#utility.yul\":616:636   */\n      calldataload\n        /* \"#utility.yul\":607:636   */\n      swap1\n      pop\n        /* \"#utility.yul\":645:678   */\n      tag_99\n        /* \"#utility.yul\":672:677   */\n      dup2\n        /* \"#utility.yul\":645:678   */\n      tag_55\n      jump\t// in\n    tag_99:\n        /* \"#utility.yul\":545:684   */\n      swap3\n      swap2\n      pop\n      pop\n      jump\t// out\n        /* \"#utility.yul\":690:1019   */\n    tag_10:\n        /* \"#utility.yul\":749:755   */\n      0x00\n        /* \"#utility.yul\":798:800   */\n      0x20\n        /* \"#utility.yul\":786:795   */\n      dup3\n        /* \"#utility.yul\":777:784   */\n      dup5\n        /* \"#utility.yul\":773:796   */\n      sub\n        /* \"#utility.yul\":769:801   */\n      slt\n        /* \"#utility.yul\":766:885   */\n      iszero\n      tag_101\n      jumpi\n        /* \"#utility.yul\":804:883   */\n      tag_102\n      tag_52\n      jump\t// in\n    tag_102:\n        /* \"#utility.yul\":766:885   */\n    tag_101:\n        /* \"#utility.yul\":924:925   */\n      0x00\n        /* \"#utility.yul\":949:1002   */\n      tag_103\n        /* \"#utility.yul\":994:1001   */\n      dup5\n        /* \"#utility.yul\":985:991   */\n      dup3\n        /* \"#utility.yul\":974:983   */\n      dup6\n        /* \"#utility.yul\":970:992   */\n      add\n        /* \"#utility.yul\":949:1002   */\n      tag_56\n      jump\t// in\n    tag_103:\n        /* \"#utility.yul\":939:1002   */\n      swap2\n      pop\n        /* \"#utility.yul\":895:1012   */\n      pop\n        /* \"#utility.yul\":690:1019   */\n      swap3\n      swap2\n      pop\n      pop\n      jump\t// out\n        /* \"#utility.yul\":1025:1124   */\n    tag_57:\n        /* \"#utility.yul\":1077:1083   */\n      0x00\n        /* \"#utility.yul\":1111:1116   */\n      dup2\n        /* \"#utility.yul\":1105:1117   */\n      mload\n        /* \"#utility.yul\":1095:1117   */\n      swap1\n      pop\n        /* \"#utility.yul\":1025:1124   */\n      swap2\n      swap1\n      pop\n      jump\t// out\n        /* \"#utility.yul\":1130:1299   */\n    tag_58:\n        /* \"#utility.yul\":1214:1225   */\n      0x00\n        /* \"#utility.yul\":1248:1254   */\n      dup3\n        /* \"#utility.yul\":1243:1246   */\n      dup3\n        /* \"#utility.yul\":1236:1255   */\n      mstore\n        /* \"#utility.yul\":1288:1292   */\n      0x20\n        /* \"#utility.yul\":1283:1286   */\n      dup3\n        /* \"#utility.yul\":1279:1293   */\n      add\n        /* \"#utility.yul\":1264:1293   */\n      swap1\n      pop\n        /* \"#utility.yul\":1130:1299   */\n      swap3\n      swap2\n      pop\n      pop\n      jump\t// out\n        /* \"#utility.yul\":1305:1444   */\n    tag_59:\n        /* \"#utility.yul\":1394:1400   */\n      dup3\n        /* \"#utility.yul\":1389:1392   */\n      dup2\n        /* \"#utility.yul\":1384:1387   */\n      dup4\n        /* \"#utility.yul\":1378:1401   */\n      mcopy\n        /* \"#utility.yul\":1435:1436   */\n      0x00\n        /* \"#utility.yul\":1426:1432   */\n      dup4\n        /* \"#utility.yul\":1421:1424   */\n      dup4\n        /* \"#utility.yul\":1417:1433   */\n      add\n        /* \"#utility.yul\":1410:1437   */\n      mstore\n        /* \"#utility.yul\":1305:1444   */\n      pop\n      pop\n      pop\n      jump\t// out\n        /* \"#utility.yul\":1450:1552   */\n    tag_60:\n        /* \"#utility.yul\":1491:1497   */\n      0x00\n        /* \"#utility.yul\":1542:1544   */\n      0x1f\n        /* \"#utility.yul\":1538:1545   */\n      not\n        /* \"#utility.yul\":1533:1535   */\n      0x1f\n        /* \"#utility.yul\":1526:1531   */\n      dup4\n        /* \"#utility.yul\":1522:1536   */\n      add\n        /* \"#utility.yul\":1518:1546   */\n      and\n        /* \"#utility.yul\":1508:1546   */\n      swap1\n      pop\n        /* \"#utility.yul\":1450:1552   */\n      swap2\n      swap1\n      pop\n      jump\t// out\n        /* \"#utility.yul\":1558:1935   */\n    tag_61:\n        /* \"#utility.yul\":1646:1649   */\n      0x00\n        /* \"#utility.yul\":1674:1713   */\n      tag_109\n        /* \"#utility.yul\":1707:1712   */\n      dup3\n        /* \"#utility.yul\":1674:1713   */\n      tag_57\n      jump\t// in\n    tag_109:\n        /* \"#utility.yul\":1729:1800   */\n      tag_110\n        /* \"#utility.yul\":1793:1799   */\n      dup2\n        /* \"#utility.yul\":1788:1791   */\n      dup6\n        /* \"#utility.yul\":1729:1800   */\n      tag_58\n      jump\t// in\n    tag_110:\n        /* \"#utility.yul\":1722:1800   */\n      swap4\n      pop\n        /* \"#utility.yul\":1809:1874   */\n      tag_111\n        /* \"#utility.yul\":1867:1873   */\n      dup2\n        /* \"#utility.yul\":1862:1865   */\n      dup6\n        /* \"#utility.yul\":1855:1859   */\n      0x20\n        /* \"#utility.yul\":1848:1853   */\n      dup7\n        /* \"#utility.yul\":1844:1860   */\n      add\n        /* \"#utility.yul\":1809:1874   */\n      tag_59\n      jump\t// in\n    tag_111:\n        /* \"#utility.yul\":1899:1928   */\n      tag_112\n        /* \"#utility.yul\":1921:1927   */\n      dup2\n        /* \"#utility.yul\":1899:1928   */\n      tag_60\n      jump\t// in\n    tag_112:\n        /* \"#utility.yul\":1894:1897   */\n      dup5\n        /* \"#utility.yul\":1890:1929   */\n      add\n        /* \"#utility.yul\":1883:1929   */\n      swap2\n      pop\n        /* \"#utility.yul\":1650:1935   */\n      pop\n        /* \"#utility.yul\":1558:1935   */\n      swap3\n      swap2\n      pop\n      pop\n      jump\t// out\n        /* \"#utility.yul\":1941:2254   */\n    tag_13:\n        /* \"#utility.yul\":2054:2058   */\n      0x00\n        /* \"#utility.yul\":2092:2094   */\n      0x20\n        /* \"#utility.yul\":2081:2090   */\n      dup3\n        /* \"#utility.yul\":2077:2095   */\n      add\n        /* \"#utility.yul\":2069:2095   */\n      swap1\n      pop\n        /* \"#utility.yul\":2141:2150   */\n      dup2\n        /* \"#utility.yul\":2135:2139   */\n      dup2\n        /* \"#utility.yul\":2131:2151   */\n      sub\n        /* \"#utility.yul\":2127:2128   */\n      0x00\n        /* \"#utility.yul\":2116:2125   */\n      dup4\n        /* \"#utility.yul\":2112:2129   */\n      add\n        /* \"#utility.yul\":2105:2152   */\n      mstore\n        /* \"#utility.yul\":2169:2247   */\n      tag_114\n        /* \"#utility.yul\":2242:2246   */\n      dup2\n        /* \"#utility.yul\":2233:2239   */\n      dup5\n        /* \"#utility.yul\":2169:2247   */\n      tag_61\n      jump\t// in\n    tag_114:\n        /* \"#utility.yul\":2161:2247   */\n      swap1\n      pop\n        /* \"#utility.yul\":1941:2254   */\n      swap3\n      swap2\n      pop\n      pop\n      jump\t// out\n        /* \"#utility.yul\":2260:2386   */\n    tag_62:\n        /* \"#utility.yul\":2297:2304   */\n      0x00\n        /* \"#utility.yul\":2337:2379   */\n      0xffffffffffffffffffffffffffffffffffffffff\n        /* \"#utility.yul\":2330:2335   */\n      dup3\n        /* \"#utility.yul\":2326:2380   */\n      and\n        /* \"#utility.yul\":2315:2380   */\n      swap1\n      pop\n        /* \"#utility.yul\":2260:2386   */\n      swap2\n      swap1\n      pop\n      jump\t// out\n        /* \"#utility.yul\":2392:2488   */\n    tag_63:\n        /* \"#utility.yul\":2429:2436   */\n      0x00\n        /* \"#utility.yul\":2458:2482   */\n      tag_117\n        /* \"#utility.yul\":2476:2481   */\n      dup3\n        /* \"#utility.yul\":2458:2482   */\n      tag_62\n      jump\t// in\n    tag_117:\n        /* \"#utility.yul\":2447:2482   */\n      swap1\n      pop\n        /* \"#utility.yul\":2392:2488   */\n      swap2\n      swap1\n      pop\n      jump\t// out\n        /* \"#utility.yul\":2494:2616   */\n    tag_64:\n        /* \"#utility.yul\":2567:2591   */\n      tag_119\n        /* \"#utility.yul\":2585:2590   */\n      dup2\n        /* \"#utility.yul\":2567:2591   */\n      tag_63\n      jump\t// in\n    tag_119:\n        /* \"#utility.yul\":2560:2565   */\n      dup2\n        /* \"#utility.yul\":2557:2592   */\n      eq\n        /* \"#utility.yul\":2547:2610   */\n      tag_120\n      jumpi\n        /* \"#utility.yul\":2606:2607   */\n      0x00\n        /* \"#utility.yul\":2603:2604   */\n      0x00\n        /* \"#utility.yul\":2596:2608   */\n      revert\n        /* \"#utility.yul\":2547:2610   */\n    tag_120:\n        /* \"#utility.yul\":2494:2616   */\n      pop\n      jump\t// out\n        /* \"#utility.yul\":2622:2761   */\n    tag_65:\n        /* \"#utility.yul\":2668:2673   */\n      0x00\n        /* \"#utility.yul\":2706:2712   */\n      dup2\n        /* \"#utility.yul\":2693:2713   */\n      calldataload\n        /* \"#utility.yul\":2684:2713   */\n      swap1\n      pop\n        /* \"#utility.yul\":2722:2755   */\n      tag_122\n        /* \"#utility.yul\":2749:2754   */\n      dup2\n        /* \"#utility.yul\":2722:2755   */\n      tag_64\n      jump\t// in\n    tag_122:\n        /* \"#utility.yul\":2622:2761   */\n      swap3\n      swap2\n      pop\n      pop\n      jump\t// out\n        /* \"#utility.yul\":2767:3241   */\n    tag_16:\n        /* \"#utility.yul\":2835:2841   */\n      0x00\n        /* \"#utility.yul\":2843:2849   */\n      0x00\n        /* \"#utility.yul\":2892:2894   */\n      0x40\n        /* \"#utility.yul\":2880:2889   */\n      dup4\n        /* \"#utility.yul\":2871:2878   */\n      dup6\n        /* \"#utility.yul\":2867:2890   */\n      sub\n        /* \"#utility.yul\":2863:2895   */\n      slt\n        /* \"#utility.yul\":2860:2979   */\n      iszero\n      tag_124\n      jumpi\n        /* \"#utility.yul\":2898:2977   */\n      tag_125\n      tag_52\n      jump\t// in\n    tag_125:\n        /* \"#utility.yul\":2860:2979   */\n    tag_124:\n        /* \"#utility.yul\":3018:3019   */\n      0x00\n        /* \"#utility.yul\":3043:3096   */\n      tag_126\n        /* \"#utility.yul\":3088:3095   */\n      dup6\n        /* \"#utility.yul\":3079:3085   */\n      dup3\n        /* \"#utility.yul\":3068:3077   */\n      dup7\n        /* \"#utility.yul\":3064:3086   */\n      add\n        /* \"#utility.yul\":3043:3096   */\n      tag_65\n      jump\t// in\n    tag_126:\n        /* \"#utility.yul\":3033:3096   */\n      swap3\n      pop\n        /* \"#utility.yul\":2989:3106   */\n      pop\n        /* \"#utility.yul\":3145:3147   */\n      0x20\n        /* \"#utility.yul\":3171:3224   */\n      tag_127\n        /* \"#utility.yul\":3216:3223   */\n      dup6\n        /* \"#utility.yul\":3207:3213   */\n      dup3\n        /* \"#utility.yul\":3196:3205   */\n      dup7\n        /* \"#utility.yul\":3192:3214   */\n      add\n        /* \"#utility.yul\":3171:3224   */\n      tag_65\n      jump\t// in\n    tag_127:\n        /* \"#utility.yul\":3161:3224   */\n      swap2\n      pop\n        /* \"#utility.yul\":3116:3234   */\n      pop\n        /* \"#utility.yul\":2767:3241   */\n      swap3\n      pop\n      swap3\n      swap1\n      pop\n      jump\t// out\n        /* \"#utility.yul\":3247:3337   */\n    tag_66:\n        /* \"#utility.yul\":3281:3288   */\n      0x00\n        /* \"#utility.yul\":3324:3329   */\n      dup2\n        /* \"#utility.yul\":3317:3330   */\n      iszero\n        /* \"#utility.yul\":3310:3331   */\n      iszero\n        /* \"#utility.yul\":3299:3331   */\n      swap1\n      pop\n        /* \"#utility.yul\":3247:3337   */\n      swap2\n      swap1\n      pop\n      jump\t// out\n        /* \"#utility.yul\":3343:3452   */\n    tag_67:\n        /* \"#utility.yul\":3424:3445   */\n      tag_130\n        /* \"#utility.yul\":3439:3444   */\n      dup2\n        /* \"#utility.yul\":3424:3445   */\n      tag_66\n      jump\t// in\n    tag_130:\n        /* \"#utility.yul\":3419:3422   */\n      dup3\n        /* \"#utility.yul\":3412:3446   */\n      mstore\n        /* \"#utility.yul\":3343:3452   */\n      pop\n      pop\n      jump\t// out\n        /* \"#utility.yul\":3458:3668   */\n    tag_22:\n        /* \"#utility.yul\":3545:3549   */\n      0x00\n        /* \"#utility.yul\":3583:3585   */\n      0x20\n        /* \"#utility.yul\":3572:3581   */\n      dup3\n        /* \"#utility.yul\":3568:3586   */\n      add\n        /* \"#utility.yul\":3560:3586   */\n      swap1\n      pop\n        /* \"#utility.yul\":3596:3661   */\n      tag_132\n        /* \"#utility.yul\":3658:3659   */\n      0x00\n        /* \"#utility.yul\":3647:3656   */\n      dup4\n        /* \"#utility.yul\":3643:3660   */\n      add\n        /* \"#utility.yul\":3634:3640   */\n      dup5\n        /* \"#utility.yul\":3596:3661   */\n      tag_67\n      jump\t// in\n    tag_132:\n        /* \"#utility.yul\":3458:3668   */\n      swap3\n      swap2\n      pop\n      pop\n      jump\t// out\n        /* \"#utility.yul\":3674:3792   */\n    tag_68:\n        /* \"#utility.yul\":3761:3785   */\n      tag_134\n        /* \"#utility.yul\":3779:3784   */\n      dup2\n        /* \"#utility.yul\":3761:3785   */\n      tag_54\n      jump\t// in\n    tag_134:\n        /* \"#utility.yul\":3756:3759   */\n      dup3\n        /* \"#utility.yul\":3749:3786   */\n      mstore\n        /* \"#utility.yul\":3674:3792   */\n      pop\n      pop\n      jump\t// out\n        /* \"#utility.yul\":3798:3916   */\n    tag_69:\n        /* \"#utility.yul\":3885:3909   */\n      tag_136\n        /* \"#utility.yul\":3903:3908   */\n      dup2\n        /* \"#utility.yul\":3885:3909   */\n      tag_63\n      jump\t// in\n    tag_136:\n        /* \"#utility.yul\":3880:3883   */\n      dup3\n        /* \"#utility.yul\":3873:3910   */\n      mstore\n        /* \"#utility.yul\":3798:3916   */\n      pop\n      pop\n      jump\t// out\n        /* \"#utility.yul\":3922:4867   */\n    tag_27:\n        /* \"#utility.yul\":4189:4193   */\n      0x00\n        /* \"#utility.yul\":4227:4230   */\n      0xc0\n        /* \"#utility.yul\":4216:4225   */\n      dup3\n        /* \"#utility.yul\":4212:4231   */\n      add\n        /* \"#utility.yul\":4204:4231   */\n      swap1\n      pop\n        /* \"#utility.yul\":4277:4286   */\n      dup2\n        /* \"#utility.yul\":4271:4275   */\n      dup2\n        /* \"#utility.yul\":4267:4287   */\n      sub\n        /* \"#utility.yul\":4263:4264   */\n      0x00\n        /* \"#utility.yul\":4252:4261   */\n      dup4\n        /* \"#utility.yul\":4248:4265   */\n      add\n        /* \"#utility.yul\":4241:4288   */\n      mstore\n        /* \"#utility.yul\":4305:4383   */\n      tag_138\n        /* \"#utility.yul\":4378:4382   */\n      dup2\n        /* \"#utility.yul\":4369:4375   */\n      dup10\n        /* \"#utility.yul\":4305:4383   */\n      tag_61\n      jump\t// in\n    tag_138:\n        /* \"#utility.yul\":4297:4383   */\n      swap1\n      pop\n        /* \"#utility.yul\":4430:4439   */\n      dup2\n        /* \"#utility.yul\":4424:4428   */\n      dup2\n        /* \"#utility.yul\":4420:4440   */\n      sub\n        /* \"#utility.yul\":4415:4417   */\n      0x20\n        /* \"#utility.yul\":4404:4413   */\n      dup4\n        /* \"#utility.yul\":4400:4418   */\n      add\n        /* \"#utility.yul\":4393:4441   */\n      mstore\n        /* \"#utility.yul\":4458:4536   */\n      tag_139\n        /* \"#utility.yul\":4531:4535   */\n      dup2\n        /* \"#utility.yul\":4522:4528   */\n      dup9\n        /* \"#utility.yul\":4458:4536   */\n      tag_61\n      jump\t// in\n    tag_139:\n        /* \"#utility.yul\":4450:4536   */\n      swap1\n      pop\n        /* \"#utility.yul\":4546:4618   */\n      tag_140\n        /* \"#utility.yul\":4614:4616   */\n      0x40\n        /* \"#utility.yul\":4603:4612   */\n      dup4\n        /* \"#utility.yul\":4599:4617   */\n      add\n        /* \"#utility.yul\":4590:4596   */\n      dup8\n        /* \"#utility.yul\":4546:4618   */\n      tag_68\n      jump\t// in\n    tag_140:\n        /* \"#utility.yul\":4628:4700   */\n      tag_141\n        /* \"#utility.yul\":4696:4698   */\n      0x60\n        /* \"#utility.yul\":4685:4694   */\n      dup4\n        /* \"#utility.yul\":4681:4699   */\n      add\n        /* \"#utility.yul\":4672:4678   */\n      dup7\n        /* \"#utility.yul\":4628:4700   */\n      tag_68\n      jump\t// in\n    tag_141:\n        /* \"#utility.yul\":4710:4783   */\n      tag_142\n        /* \"#utility.yul\":4778:4781   */\n      0x80\n        /* \"#utility.yul\":4767:4776   */\n      dup4\n        /* \"#utility.yul\":4763:4782   */\n      add\n        /* \"#utility.yul\":4754:4760   */\n      dup6\n        /* \"#utility.yul\":4710:4783   */\n      tag_69\n      jump\t// in\n    tag_142:\n        /* \"#utility.yul\":4793:4860   */\n      tag_143\n        /* \"#utility.yul\":4855:4858   */\n      0xa0\n        /* \"#utility.yul\":4844:4853   */\n      dup4\n        /* \"#utility.yul\":4840:4859   */\n      add\n        /* \"#utility.yul\":4831:4837   */\n      dup5\n        /* \"#utility.yul\":4793:4860   */\n      tag_67\n      jump\t// in\n    tag_143:\n        /* \"#utility.yul\":3922:4867   */\n      swap8\n      swap7\n      pop\n      pop\n      pop\n      pop\n      pop\n      pop\n      pop\n      jump\t// out\n        /* \"#utility.yul\":4873:4990   */\n    tag_70:\n        /* \"#utility.yul\":4982:4983   */\n      0x00\n        /* \"#utility.yul\":4979:4980   */\n      0x00\n        /* \"#utility.yul\":4972:4984   */\n      revert\n        /* \"#utility.yul\":4996:5176   */\n    tag_71:\n        /* \"#utility.yul\":5044:5121   */\n      0x4e487b7100000000000000000000000000000000000000000000000000000000\n        /* \"#utility.yul\":5041:5042   */\n      0x00\n        /* \"#utility.yul\":5034:5122   */\n      mstore\n        /* \"#utility.yul\":5141:5145   */\n      0x41\n        /* \"#utility.yul\":5138:5139   */\n      0x04\n        /* \"#utility.yul\":5131:5146   */\n      mstore\n        /* \"#utility.yul\":5165:5169   */\n      0x24\n        /* \"#utility.yul\":5162:5163   */\n      0x00\n        /* \"#utility.yul\":5155:5170   */\n      revert\n        /* \"#utility.yul\":5182:5463   */\n    tag_72:\n        /* \"#utility.yul\":5265:5292   */\n      tag_147\n        /* \"#utility.yul\":5287:5291   */\n      dup3\n        /* \"#utility.yul\":5265:5292   */\n      tag_60\n      jump\t// in\n    tag_147:\n        /* \"#utility.yul\":5257:5263   */\n      dup2\n        /* \"#utility.yul\":5253:5293   */\n      add\n        /* \"#utility.yul\":5395:5401   */\n      dup2\n        /* \"#utility.yul\":5383:5393   */\n      dup2\n        /* \"#utility.yul\":5380:5402   */\n      lt\n        /* \"#utility.yul\":5359:5377   */\n      0xffffffffffffffff\n        /* \"#utility.yul\":5347:5357   */\n      dup3\n        /* \"#utility.yul\":5344:5378   */\n      gt\n        /* \"#utility.yul\":5341:5403   */\n      or\n        /* \"#utility.yul\":5338:5426   */\n      iszero\n      tag_148\n      jumpi\n        /* \"#utility.yul\":5406:5424   */\n      tag_149\n      tag_71\n      jump\t// in\n    tag_149:\n        /* \"#utility.yul\":5338:5426   */\n    tag_148:\n        /* \"#utility.yul\":5446:5456   */\n      dup1\n        /* \"#utility.yul\":5442:5444   */\n      0x40\n        /* \"#utility.yul\":5435:5457   */\n      mstore\n        /* \"#utility.yul\":5225:5463   */\n      pop\n        /* \"#utility.yul\":5182:5463   */\n      pop\n      pop\n      jump\t// out\n        /* \"#utility.yul\":5469:5598   */\n    tag_73:\n        /* \"#utility.yul\":5503:5509   */\n      0x00\n        /* \"#utility.yul\":5530:5550   */\n      tag_151\n      tag_51\n      jump\t// in\n    tag_151:\n        /* \"#utility.yul\":5520:5550   */\n      swap1\n      pop\n        /* \"#utility.yul\":5559:5592   */\n      tag_152\n        /* \"#utility.yul\":5587:5591   */\n      dup3\n        /* \"#utility.yul\":5579:5585   */\n      dup3\n        /* \"#utility.yul\":5559:5592   */\n      tag_72\n      jump\t// in\n    tag_152:\n        /* \"#utility.yul\":5469:5598   */\n      swap2\n      swap1\n      pop\n      jump\t// out\n        /* \"#utility.yul\":5604:5938   */\n    tag_74:\n        /* \"#utility.yul\":5704:5708   */\n      0x00\n        /* \"#utility.yul\":5794:5812   */\n      0xffffffffffffffff\n        /* \"#utility.yul\":5786:5792   */\n      dup3\n        /* \"#utility.yul\":5783:5813   */\n      gt\n        /* \"#utility.yul\":5780:5836   */\n      iszero\n      tag_154\n      jumpi\n        /* \"#utility.yul\":5816:5834   */\n      tag_155\n      tag_71\n      jump\t// in\n    tag_155:\n        /* \"#utility.yul\":5780:5836   */\n    tag_154:\n        /* \"#utility.yul\":5866:5870   */\n      0x20\n        /* \"#utility.yul\":5858:5864   */\n      dup3\n        /* \"#utility.yul\":5854:5871   */\n      mul\n        /* \"#utility.yul\":5846:5871   */\n      swap1\n      pop\n        /* \"#utility.yul\":5926:5930   */\n      0x20\n        /* \"#utility.yul\":5920:5924   */\n      dup2\n        /* \"#utility.yul\":5916:5931   */\n      add\n        /* \"#utility.yul\":5908:5931   */\n      swap1\n      pop\n        /* \"#utility.yul\":5604:5938   */\n      swap2\n      swap1\n      pop\n      jump\t// out\n        /* \"#utility.yul\":5944:6061   */\n    tag_75:\n        /* \"#utility.yul\":6053:6054   */\n      0x00\n        /* \"#utility.yul\":6050:6051   */\n      0x00\n        /* \"#utility.yul\":6043:6055   */\n      revert\n        /* \"#utility.yul\":6067:6184   */\n    tag_76:\n        /* \"#utility.yul\":6176:6177   */\n      0x00\n        /* \"#utility.yul\":6173:6174   */\n      0x00\n        /* \"#utility.yul\":6166:6178   */\n      revert\n        /* \"#utility.yul\":6190:6307   */\n    tag_77:\n        /* \"#utility.yul\":6299:6300   */\n      0x00\n        /* \"#utility.yul\":6296:6297   */\n      0x00\n        /* \"#utility.yul\":6289:6301   */\n      revert\n        /* \"#utility.yul\":6313:6430   */\n    tag_78:\n        /* \"#utility.yul\":6422:6423   */\n      0x00\n        /* \"#utility.yul\":6419:6420   */\n      0x00\n        /* \"#utility.yul\":6412:6424   */\n      revert\n        /* \"#utility.yul\":6436:6744   */\n    tag_79:\n        /* \"#utility.yul\":6498:6502   */\n      0x00\n        /* \"#utility.yul\":6588:6606   */\n      0xffffffffffffffff\n        /* \"#utility.yul\":6580:6586   */\n      dup3\n        /* \"#utility.yul\":6577:6607   */\n      gt\n        /* \"#utility.yul\":6574:6630   */\n      iszero\n      tag_161\n      jumpi\n        /* \"#utility.yul\":6610:6628   */\n      tag_162\n      tag_71\n      jump\t// in\n    tag_162:\n        /* \"#utility.yul\":6574:6630   */\n    tag_161:\n        /* \"#utility.yul\":6648:6677   */\n      tag_163\n        /* \"#utility.yul\":6670:6676   */\n      dup3\n        /* \"#utility.yul\":6648:6677   */\n      tag_60\n      jump\t// in\n    tag_163:\n        /* \"#utility.yul\":6640:6677   */\n      swap1\n      pop\n        /* \"#utility.yul\":6732:6736   */\n      0x20\n        /* \"#utility.yul\":6726:6730   */\n      dup2\n        /* \"#utility.yul\":6722:6737   */\n      add\n        /* \"#utility.yul\":6714:6737   */\n      swap1\n      pop\n        /* \"#utility.yul\":6436:6744   */\n      swap2\n      swap1\n      pop\n      jump\t// out\n        /* \"#utility.yul\":6750:6898   */\n    tag_80:\n        /* \"#utility.yul\":6848:6854   */\n      dup3\n        /* \"#utility.yul\":6843:6846   */\n      dup2\n        /* \"#utility.yul\":6838:6841   */\n      dup4\n        /* \"#utility.yul\":6825:6855   */\n      calldatacopy\n        /* \"#utility.yul\":6889:6890   */\n      0x00\n        /* \"#utility.yul\":6880:6886   */\n      dup4\n        /* \"#utility.yul\":6875:6878   */\n      dup4\n        /* \"#utility.yul\":6871:6887   */\n      add\n        /* \"#utility.yul\":6864:6891   */\n      mstore\n        /* \"#utility.yul\":6750:6898   */\n      pop\n      pop\n      pop\n      jump\t// out\n        /* \"#utility.yul\":6904:7329   */\n    tag_81:\n        /* \"#utility.yul\":6982:6987   */\n      0x00\n        /* \"#utility.yul\":7007:7073   */\n      tag_166\n        /* \"#utility.yul\":7023:7072   */\n      tag_167\n        /* \"#utility.yul\":7065:7071   */\n      dup5\n        /* \"#utility.yul\":7023:7072   */\n      tag_79\n      jump\t// in\n    tag_167:\n        /* \"#utility.yul\":7007:7073   */\n      tag_73\n      jump\t// in\n    tag_166:\n        /* \"#utility.yul\":6998:7073   */\n      swap1\n      pop\n        /* \"#utility.yul\":7096:7102   */\n      dup3\n        /* \"#utility.yul\":7089:7094   */\n      dup2\n        /* \"#utility.yul\":7082:7103   */\n      mstore\n        /* \"#utility.yul\":7134:7138   */\n      0x20\n        /* \"#utility.yul\":7127:7132   */\n      dup2\n        /* \"#utility.yul\":7123:7139   */\n      add\n        /* \"#utility.yul\":7172:7175   */\n      dup5\n        /* \"#utility.yul\":7163:7169   */\n      dup5\n        /* \"#utility.yul\":7158:7161   */\n      dup5\n        /* \"#utility.yul\":7154:7170   */\n      add\n        /* \"#utility.yul\":7151:7176   */\n      gt\n        /* \"#utility.yul\":7148:7260   */\n      iszero\n      tag_168\n      jumpi\n        /* \"#utility.yul\":7179:7258   */\n      tag_169\n      tag_78\n      jump\t// in\n    tag_169:\n        /* \"#utility.yul\":7148:7260   */\n    tag_168:\n        /* \"#utility.yul\":7269:7323   */\n      tag_170\n        /* \"#utility.yul\":7316:7322   */\n      dup5\n        /* \"#utility.yul\":7311:7314   */\n      dup3\n        /* \"#utility.yul\":7306:7309   */\n      dup6\n        /* \"#utility.yul\":7269:7323   */\n      tag_80\n      jump\t// in\n    tag_170:\n        /* \"#utility.yul\":6988:7329   */\n      pop\n        /* \"#utility.yul\":6904:7329   */\n      swap4\n      swap3\n      pop\n      pop\n      pop\n      jump\t// out\n        /* \"#utility.yul\":7349:7689   */\n    tag_82:\n        /* \"#utility.yul\":7405:7410   */\n      0x00\n        /* \"#utility.yul\":7454:7457   */\n      dup3\n        /* \"#utility.yul\":7447:7451   */\n      0x1f\n        /* \"#utility.yul\":7439:7445   */\n      dup4\n        /* \"#utility.yul\":7435:7452   */\n      add\n        /* \"#utility.yul\":7431:7458   */\n      slt\n        /* \"#utility.yul\":7421:7543   */\n      tag_172\n      jumpi\n        /* \"#utility.yul\":7462:7541   */\n      tag_173\n      tag_70\n      jump\t// in\n    tag_173:\n        /* \"#utility.yul\":7421:7543   */\n    tag_172:\n        /* \"#utility.yul\":7579:7585   */\n      dup2\n        /* \"#utility.yul\":7566:7586   */\n      calldataload\n        /* \"#utility.yul\":7604:7683   */\n      tag_174\n        /* \"#utility.yul\":7679:7682   */\n      dup5\n        /* \"#utility.yul\":7671:7677   */\n      dup3\n        /* \"#utility.yul\":7664:7668   */\n      0x20\n        /* \"#utility.yul\":7656:7662   */\n      dup7\n        /* \"#utility.yul\":7652:7669   */\n      add\n        /* \"#utility.yul\":7604:7683   */\n      tag_81\n      jump\t// in\n    tag_174:\n        /* \"#utility.yul\":7595:7683   */\n      swap2\n      pop\n        /* \"#utility.yul\":7411:7689   */\n      pop\n        /* \"#utility.yul\":7349:7689   */\n      swap3\n      swap2\n      pop\n      pop\n      jump\t// out\n        /* \"#utility.yul\":7695:7811   */\n    tag_83:\n        /* \"#utility.yul\":7765:7786   */\n      tag_176\n        /* \"#utility.yul\":7780:7785   */\n      dup2\n        /* \"#utility.yul\":7765:7786   */\n      tag_66\n      jump\t// in\n    tag_176:\n        /* \"#utility.yul\":7758:7763   */\n      dup2\n        /* \"#utility.yul\":7755:7787   */\n      eq\n        /* \"#utility.yul\":7745:7805   */\n      tag_177\n      jumpi\n        /* \"#utility.yul\":7801:7802   */\n      0x00\n        /* \"#utility.yul\":7798:7799   */\n      0x00\n        /* \"#utility.yul\":7791:7803   */\n      revert\n        /* \"#utility.yul\":7745:7805   */\n    tag_177:\n        /* \"#utility.yul\":7695:7811   */\n      pop\n      jump\t// out\n        /* \"#utility.yul\":7817:7950   */\n    tag_84:\n        /* \"#utility.yul\":7860:7865   */\n      0x00\n        /* \"#utility.yul\":7898:7904   */\n      dup2\n        /* \"#utility.yul\":7885:7905   */\n      calldataload\n        /* \"#utility.yul\":7876:7905   */\n      swap1\n      pop\n        /* \"#utility.yul\":7914:7944   */\n      tag_179\n        /* \"#utility.yul\":7938:7943   */\n      dup2\n        /* \"#utility.yul\":7914:7944   */\n      tag_83\n      jump\t// in\n    tag_179:\n        /* \"#utility.yul\":7817:7950   */\n      swap3\n      swap2\n      pop\n      pop\n      jump\t// out\n        /* \"#utility.yul\":7990:9558   */\n    tag_85:\n        /* \"#utility.yul\":8062:8067   */\n      0x00\n        /* \"#utility.yul\":8106:8110   */\n      0xc0\n        /* \"#utility.yul\":8094:8103   */\n      dup3\n        /* \"#utility.yul\":8089:8092   */\n      dup5\n        /* \"#utility.yul\":8085:8104   */\n      sub\n        /* \"#utility.yul\":8081:8111   */\n      slt\n        /* \"#utility.yul\":8078:8195   */\n      iszero\n      tag_181\n      jumpi\n        /* \"#utility.yul\":8114:8193   */\n      tag_182\n      tag_76\n      jump\t// in\n    tag_182:\n        /* \"#utility.yul\":8078:8195   */\n    tag_181:\n        /* \"#utility.yul\":8213:8234   */\n      tag_183\n        /* \"#utility.yul\":8229:8233   */\n      0xc0\n        /* \"#utility.yul\":8213:8234   */\n      tag_73\n      jump\t// in\n    tag_183:\n        /* \"#utility.yul\":8204:8234   */\n      swap1\n      pop\n        /* \"#utility.yul\":8328:8329   */\n      0x00\n        /* \"#utility.yul\":8317:8326   */\n      dup3\n        /* \"#utility.yul\":8313:8330   */\n      add\n        /* \"#utility.yul\":8300:8331   */\n      calldataload\n        /* \"#utility.yul\":8358:8376   */\n      0xffffffffffffffff\n        /* \"#utility.yul\":8350:8356   */\n      dup2\n        /* \"#utility.yul\":8347:8377   */\n      gt\n        /* \"#utility.yul\":8344:8461   */\n      iszero\n      tag_184\n      jumpi\n        /* \"#utility.yul\":8380:8459   */\n      tag_185\n      tag_77\n      jump\t// in\n    tag_185:\n        /* \"#utility.yul\":8344:8461   */\n    tag_184:\n        /* \"#utility.yul\":8500:8559   */\n      tag_186\n        /* \"#utility.yul\":8555:8558   */\n      dup5\n        /* \"#utility.yul\":8546:8552   */\n      dup3\n        /* \"#utility.yul\":8535:8544   */\n      dup6\n        /* \"#utility.yul\":8531:8553   */\n      add\n        /* \"#utility.yul\":8500:8559   */\n      tag_82\n      jump\t// in\n    tag_186:\n        /* \"#utility.yul\":8493:8497   */\n      0x00\n        /* \"#utility.yul\":8486:8491   */\n      dup4\n        /* \"#utility.yul\":8482:8498   */\n      add\n        /* \"#utility.yul\":8475:8560   */\n      mstore\n        /* \"#utility.yul\":8244:8571   */\n      pop\n        /* \"#utility.yul\":8662:8664   */\n      0x20\n        /* \"#utility.yul\":8651:8660   */\n      dup3\n        /* \"#utility.yul\":8647:8665   */\n      add\n        /* \"#utility.yul\":8634:8666   */\n      calldataload\n        /* \"#utility.yul\":8693:8711   */\n      0xffffffffffffffff\n        /* \"#utility.yul\":8685:8691   */\n      dup2\n        /* \"#utility.yul\":8682:8712   */\n      gt\n        /* \"#utility.yul\":8679:8796   */\n      iszero\n      tag_187\n      jumpi\n        /* \"#utility.yul\":8715:8794   */\n      tag_188\n      tag_77\n      jump\t// in\n    tag_188:\n        /* \"#utility.yul\":8679:8796   */\n    tag_187:\n        /* \"#utility.yul\":8835:8894   */\n      tag_189\n        /* \"#utility.yul\":8890:8893   */\n      dup5\n        /* \"#utility.yul\":8881:8887   */\n      dup3\n        /* \"#utility.yul\":8870:8879   */\n      dup6\n        /* \"#utility.yul\":8866:8888   */\n      add\n        /* \"#utility.yul\":8835:8894   */\n      tag_82\n      jump\t// in\n    tag_189:\n        /* \"#utility.yul\":8828:8832   */\n      0x20\n        /* \"#utility.yul\":8821:8826   */\n      dup4\n        /* \"#utility.yul\":8817:8833   */\n      add\n        /* \"#utility.yul\":8810:8895   */\n      mstore\n        /* \"#utility.yul\":8581:8906   */\n      pop\n        /* \"#utility.yul\":8963:8965   */\n      0x40\n        /* \"#utility.yul\":9004:9053   */\n      tag_190\n        /* \"#utility.yul\":9049:9052   */\n      dup5\n        /* \"#utility.yul\":9040:9046   */\n      dup3\n        /* \"#utility.yul\":9029:9038   */\n      dup6\n        /* \"#utility.yul\":9025:9047   */\n      add\n        /* \"#utility.yul\":9004:9053   */\n      tag_56\n      jump\t// in\n    tag_190:\n        /* \"#utility.yul\":8997:9001   */\n      0x40\n        /* \"#utility.yul\":8990:8995   */\n      dup4\n        /* \"#utility.yul\":8986:9002   */\n      add\n        /* \"#utility.yul\":8979:9054   */\n      mstore\n        /* \"#utility.yul\":8916:9065   */\n      pop\n        /* \"#utility.yul\":9125:9127   */\n      0x60\n        /* \"#utility.yul\":9166:9215   */\n      tag_191\n        /* \"#utility.yul\":9211:9214   */\n      dup5\n        /* \"#utility.yul\":9202:9208   */\n      dup3\n        /* \"#utility.yul\":9191:9200   */\n      dup6\n        /* \"#utility.yul\":9187:9209   */\n      add\n        /* \"#utility.yul\":9166:9215   */\n      tag_56\n      jump\t// in\n    tag_191:\n        /* \"#utility.yul\":9159:9163   */\n      0x60\n        /* \"#utility.yul\":9152:9157   */\n      dup4\n        /* \"#utility.yul\":9148:9164   */\n      add\n        /* \"#utility.yul\":9141:9216   */\n      mstore\n        /* \"#utility.yul\":9075:9227   */\n      pop\n        /* \"#utility.yul\":9287:9290   */\n      0x80\n        /* \"#utility.yul\":9329:9378   */\n      tag_192\n        /* \"#utility.yul\":9374:9377   */\n      dup5\n        /* \"#utility.yul\":9365:9371   */\n      dup3\n        /* \"#utility.yul\":9354:9363   */\n      dup6\n        /* \"#utility.yul\":9350:9372   */\n      add\n        /* \"#utility.yul\":9329:9378   */\n      tag_65\n      jump\t// in\n    tag_192:\n        /* \"#utility.yul\":9322:9326   */\n      0x80\n        /* \"#utility.yul\":9315:9320   */\n      dup4\n        /* \"#utility.yul\":9311:9327   */\n      add\n        /* \"#utility.yul\":9304:9379   */\n      mstore\n        /* \"#utility.yul\":9237:9390   */\n      pop\n        /* \"#utility.yul\":9451:9454   */\n      0xa0\n        /* \"#utility.yul\":9493:9539   */\n      tag_193\n        /* \"#utility.yul\":9535:9538   */\n      dup5\n        /* \"#utility.yul\":9526:9532   */\n      dup3\n        /* \"#utility.yul\":9515:9524   */\n      dup6\n        /* \"#utility.yul\":9511:9533   */\n      add\n        /* \"#utility.yul\":9493:9539   */\n      tag_84\n      jump\t// in\n    tag_193:\n        /* \"#utility.yul\":9486:9490   */\n      0xa0\n        /* \"#utility.yul\":9479:9484   */\n      dup4\n        /* \"#utility.yul\":9475:9491   */\n      add\n        /* \"#utility.yul\":9468:9540   */\n      mstore\n        /* \"#utility.yul\":9400:9551   */\n      pop\n        /* \"#utility.yul\":7990:9558   */\n      swap3\n      swap2\n      pop\n      pop\n      jump\t// out\n        /* \"#utility.yul\":9600:10584   */\n    tag_86:\n        /* \"#utility.yul\":9719:9724   */\n      0x00\n        /* \"#utility.yul\":9744:9848   */\n      tag_195\n        /* \"#utility.yul\":9760:9847   */\n      tag_196\n        /* \"#utility.yul\":9840:9846   */\n      dup5\n        /* \"#utility.yul\":9760:9847   */\n      tag_74\n      jump\t// in\n    tag_196:\n        /* \"#utility.yul\":9744:9848   */\n      tag_73\n      jump\t// in\n    tag_195:\n        /* \"#utility.yul\":9735:9848   */\n      swap1\n      pop\n        /* \"#utility.yul\":9868:9873   */\n      dup1\n        /* \"#utility.yul\":9897:9903   */\n      dup4\n        /* \"#utility.yul\":9890:9895   */\n      dup3\n        /* \"#utility.yul\":9883:9904   */\n      mstore\n        /* \"#utility.yul\":9931:9935   */\n      0x20\n        /* \"#utility.yul\":9924:9929   */\n      dup3\n        /* \"#utility.yul\":9920:9936   */\n      add\n        /* \"#utility.yul\":9913:9936   */\n      swap1\n      pop\n        /* \"#utility.yul\":9984:9988   */\n      0x20\n        /* \"#utility.yul\":9976:9982   */\n      dup5\n        /* \"#utility.yul\":9972:9989   */\n      mul\n        /* \"#utility.yul\":9964:9970   */\n      dup4\n        /* \"#utility.yul\":9960:9990   */\n      add\n        /* \"#utility.yul\":10013:10016   */\n      dup6\n        /* \"#utility.yul\":10005:10011   */\n      dup2\n        /* \"#utility.yul\":10002:10017   */\n      gt\n        /* \"#utility.yul\":9999:10121   */\n      iszero\n      tag_197\n      jumpi\n        /* \"#utility.yul\":10032:10111   */\n      tag_198\n      tag_75\n      jump\t// in\n    tag_198:\n        /* \"#utility.yul\":9999:10121   */\n    tag_197:\n        /* \"#utility.yul\":10147:10153   */\n      dup4\n        /* \"#utility.yul\":10130:10578   */\n    tag_199:\n        /* \"#utility.yul\":10164:10170   */\n      dup2\n        /* \"#utility.yul\":10159:10162   */\n      dup2\n        /* \"#utility.yul\":10156:10171   */\n      lt\n        /* \"#utility.yul\":10130:10578   */\n      iszero\n      tag_201\n      jumpi\n        /* \"#utility.yul\":10253:10256   */\n      dup1\n        /* \"#utility.yul\":10240:10257   */\n      calldataload\n        /* \"#utility.yul\":10289:10307   */\n      0xffffffffffffffff\n        /* \"#utility.yul\":10276:10287   */\n      dup2\n        /* \"#utility.yul\":10273:10308   */\n      gt\n        /* \"#utility.yul\":10270:10392   */\n      iszero\n      tag_202\n      jumpi\n        /* \"#utility.yul\":10311:10390   */\n      tag_203\n      tag_70\n      jump\t// in\n    tag_203:\n        /* \"#utility.yul\":10270:10392   */\n    tag_202:\n        /* \"#utility.yul\":10435:10446   */\n      dup1\n        /* \"#utility.yul\":10427:10433   */\n      dup7\n        /* \"#utility.yul\":10423:10447   */\n      add\n        /* \"#utility.yul\":10473:10533   */\n      tag_204\n        /* \"#utility.yul\":10529:10532   */\n      dup10\n        /* \"#utility.yul\":10517:10527   */\n      dup3\n        /* \"#utility.yul\":10473:10533   */\n      tag_85\n      jump\t// in\n    tag_204:\n        /* \"#utility.yul\":10468:10471   */\n      dup6\n        /* \"#utility.yul\":10461:10534   */\n      mstore\n        /* \"#utility.yul\":10563:10567   */\n      0x20\n        /* \"#utility.yul\":10558:10561   */\n      dup6\n        /* \"#utility.yul\":10554:10568   */\n      add\n        /* \"#utility.yul\":10547:10568   */\n      swap5\n      pop\n        /* \"#utility.yul\":10206:10578   */\n      pop\n      pop\n        /* \"#utility.yul\":10190:10194   */\n      0x20\n        /* \"#utility.yul\":10185:10188   */\n      dup2\n        /* \"#utility.yul\":10181:10195   */\n      add\n        /* \"#utility.yul\":10174:10195   */\n      swap1\n      pop\n        /* \"#utility.yul\":10130:10578   */\n      jump(tag_199)\n    tag_201:\n        /* \"#utility.yul\":10134:10155   */\n      pop\n        /* \"#utility.yul\":9725:10584   */\n      pop\n      pop\n        /* \"#utility.yul\":9600:10584   */\n      swap4\n      swap3\n      pop\n      pop\n      pop\n      jump\t// out\n        /* \"#utility.yul\":10626:11042   */\n    tag_87:\n        /* \"#utility.yul\":10720:10725   */\n      0x00\n        /* \"#utility.yul\":10769:10772   */\n      dup3\n        /* \"#utility.yul\":10762:10766   */\n      0x1f\n        /* \"#utility.yul\":10754:10760   */\n      dup4\n        /* \"#utility.yul\":10750:10767   */\n      add\n        /* \"#utility.yul\":10746:10773   */\n      slt\n        /* \"#utility.yul\":10736:10858   */\n      tag_206\n      jumpi\n        /* \"#utility.yul\":10777:10856   */\n      tag_207\n      tag_70\n      jump\t// in\n    tag_207:\n        /* \"#utility.yul\":10736:10858   */\n    tag_206:\n        /* \"#utility.yul\":10894:10900   */\n      dup2\n        /* \"#utility.yul\":10881:10901   */\n      calldataload\n        /* \"#utility.yul\":10919:11036   */\n      tag_208\n        /* \"#utility.yul\":11032:11035   */\n      dup5\n        /* \"#utility.yul\":11024:11030   */\n      dup3\n        /* \"#utility.yul\":11017:11021   */\n      0x20\n        /* \"#utility.yul\":11009:11015   */\n      dup7\n        /* \"#utility.yul\":11005:11022   */\n      add\n        /* \"#utility.yul\":10919:11036   */\n      tag_86\n      jump\t// in\n    tag_208:\n        /* \"#utility.yul\":10910:11036   */\n      swap2\n      pop\n        /* \"#utility.yul\":10726:11042   */\n      pop\n        /* \"#utility.yul\":10626:11042   */\n      swap3\n      swap2\n      pop\n      pop\n      jump\t// out\n        /* \"#utility.yul\":11048:11633   */\n    tag_30:\n        /* \"#utility.yul\":11155:11161   */\n      0x00\n        /* \"#utility.yul\":11204:11206   */\n      0x20\n        /* \"#utility.yul\":11192:11201   */\n      dup3\n        /* \"#utility.yul\":11183:11190   */\n      dup5\n        /* \"#utility.yul\":11179:11202   */\n      sub\n        /* \"#utility.yul\":11175:11207   */\n      slt\n        /* \"#utility.yul\":11172:11291   */\n      iszero\n      tag_210\n      jumpi\n        /* \"#utility.yul\":11210:11289   */\n      tag_211\n      tag_52\n      jump\t// in\n    tag_211:\n        /* \"#utility.yul\":11172:11291   */\n    tag_210:\n        /* \"#utility.yul\":11358:11359   */\n      0x00\n        /* \"#utility.yul\":11347:11356   */\n      dup3\n        /* \"#utility.yul\":11343:11360   */\n      add\n        /* \"#utility.yul\":11330:11361   */\n      calldataload\n        /* \"#utility.yul\":11388:11406   */\n      0xffffffffffffffff\n        /* \"#utility.yul\":11380:11386   */\n      dup2\n        /* \"#utility.yul\":11377:11407   */\n      gt\n        /* \"#utility.yul\":11374:11491   */\n      iszero\n      tag_212\n      jumpi\n        /* \"#utility.yul\":11410:11489   */\n      tag_213\n      tag_53\n      jump\t// in\n    tag_213:\n        /* \"#utility.yul\":11374:11491   */\n    tag_212:\n        /* \"#utility.yul\":11515:11616   */\n      tag_214\n        /* \"#utility.yul\":11608:11615   */\n      dup5\n        /* \"#utility.yul\":11599:11605   */\n      dup3\n        /* \"#utility.yul\":11588:11597   */\n      dup6\n        /* \"#utility.yul\":11584:11606   */\n      add\n        /* \"#utility.yul\":11515:11616   */\n      tag_87\n      jump\t// in\n    tag_214:\n        /* \"#utility.yul\":11505:11616   */\n      swap2\n      pop\n        /* \"#utility.yul\":11301:11626   */\n      pop\n        /* \"#utility.yul\":11048:11633   */\n      swap3\n      swap2\n      pop\n      pop\n      jump\t// out\n        /* \"#utility.yul\":11639:11819   */\n    tag_88:\n        /* \"#utility.yul\":11687:11764   */\n      0x4e487b7100000000000000000000000000000000000000000000000000000000\n        /* \"#utility.yul\":11684:11685   */\n      0x00\n        /* \"#utility.yul\":11677:11765   */\n      mstore\n        /* \"#utility.yul\":11784:11788   */\n      0x22\n        /* \"#utility.yul\":11781:11782   */\n      0x04\n        /* \"#utility.yul\":11774:11789   */\n      mstore\n        /* \"#utility.yul\":11808:11812   */\n      0x24\n        /* \"#utility.yul\":11805:11806   */\n      0x00\n        /* \"#utility.yul\":11798:11813   */\n      revert\n        /* \"#utility.yul\":11825:12145   */\n    tag_36:\n        /* \"#utility.yul\":11869:11875   */\n      0x00\n        /* \"#utility.yul\":11906:11907   */\n      0x02\n        /* \"#utility.yul\":11900:11904   */\n      dup3\n        /* \"#utility.yul\":11896:11908   */\n      div\n        /* \"#utility.yul\":11886:11908   */\n      swap1\n      pop\n        /* \"#utility.yul\":11953:11954   */\n      0x01\n        /* \"#utility.yul\":11947:11951   */\n      dup3\n        /* \"#utility.yul\":11943:11955   */\n      and\n        /* \"#utility.yul\":11974:11992   */\n      dup1\n        /* \"#utility.yul\":11964:12045   */\n      tag_217\n      jumpi\n        /* \"#utility.yul\":12030:12034   */\n      0x7f\n        /* \"#utility.yul\":12022:12028   */\n      dup3\n        /* \"#utility.yul\":12018:12035   */\n      and\n        /* \"#utility.yul\":12008:12035   */\n      swap2\n      pop\n        /* \"#utility.yul\":11964:12045   */\n    tag_217:\n        /* \"#utility.yul\":12092:12094   */\n      0x20\n        /* \"#utility.yul\":12084:12090   */\n      dup3\n        /* \"#utility.yul\":12081:12095   */\n      lt\n        /* \"#utility.yul\":12061:12079   */\n      dup2\n        /* \"#utility.yul\":12058:12096   */\n      sub\n        /* \"#utility.yul\":12055:12139   */\n      tag_218\n      jumpi\n        /* \"#utility.yul\":12111:12129   */\n      tag_219\n      tag_88\n      jump\t// in\n    tag_219:\n        /* \"#utility.yul\":12055:12139   */\n    tag_218:\n        /* \"#utility.yul\":11876:12145   */\n      pop\n        /* \"#utility.yul\":11825:12145   */\n      swap2\n      swap1\n      pop\n      jump\t// out\n        /* \"#utility.yul\":12151:12331   */\n    tag_89:\n        /* \"#utility.yul\":12199:12276   */\n      0x4e487b7100000000000000000000000000000000000000000000000000000000\n        /* \"#utility.yul\":12196:12197   */\n      0x00\n        /* \"#utility.yul\":12189:12277   */\n      mstore\n        /* \"#utility.yul\":12296:12300   */\n      0x11\n        /* \"#utility.yul\":12293:12294   */\n      0x04\n        /* \"#utility.yul\":12286:12301   */\n      mstore\n        /* \"#utility.yul\":12320:12324   */\n      0x24\n        /* \"#utility.yul\":12317:12318   */\n      0x00\n        /* \"#utility.yul\":12310:12325   */\n      revert\n        /* \"#utility.yul\":12337:12747   */\n    tag_48:\n        /* \"#utility.yul\":12377:12384   */\n      0x00\n        /* \"#utility.yul\":12400:12420   */\n      tag_222\n        /* \"#utility.yul\":12418:12419   */\n      dup3\n        /* \"#utility.yul\":12400:12420   */\n      tag_54\n      jump\t// in\n    tag_222:\n        /* \"#utility.yul\":12395:12420   */\n      swap2\n      pop\n        /* \"#utility.yul\":12434:12454   */\n      tag_223\n        /* \"#utility.yul\":12452:12453   */\n      dup4\n        /* \"#utility.yul\":12434:12454   */\n      tag_54\n      jump\t// in\n    tag_223:\n        /* \"#utility.yul\":12429:12454   */\n      swap3\n      pop\n        /* \"#utility.yul\":12489:12490   */\n      dup3\n        /* \"#utility.yul\":12486:12487   */\n      dup3\n        /* \"#utility.yul\":12482:12491   */\n      mul\n        /* \"#utility.yul\":12511:12541   */\n      tag_224\n        /* \"#utility.yul\":12529:12540   */\n      dup2\n        /* \"#utility.yul\":12511:12541   */\n      tag_54\n      jump\t// in\n    tag_224:\n        /* \"#utility.yul\":12500:12541   */\n      swap2\n      pop\n        /* \"#utility.yul\":12690:12691   */\n      dup3\n        /* \"#utility.yul\":12681:12688   */\n      dup3\n        /* \"#utility.yul\":12677:12692   */\n      div\n        /* \"#utility.yul\":12674:12675   */\n      dup5\n        /* \"#utility.yul\":12671:12693   */\n      eq\n        /* \"#utility.yul\":12651:12652   */\n      dup4\n        /* \"#utility.yul\":12644:12653   */\n      iszero\n        /* \"#utility.yul\":12624:12707   */\n      or\n        /* \"#utility.yul\":12601:12740   */\n      tag_225\n      jumpi\n        /* \"#utility.yul\":12720:12738   */\n      tag_226\n      tag_89\n      jump\t// in\n    tag_226:\n        /* \"#utility.yul\":12601:12740   */\n    tag_225:\n        /* \"#utility.yul\":12385:12747   */\n      pop\n        /* \"#utility.yul\":12337:12747   */\n      swap3\n      swap2\n      pop\n      pop\n      jump\t// out\n        /* \"#utility.yul\":12753:12944   */\n    tag_50:\n        /* \"#utility.yul\":12793:12796   */\n      0x00\n        /* \"#utility.yul\":12812:12832   */\n      tag_228\n        /* \"#utility.yul\":12830:12831   */\n      dup3\n        /* \"#utility.yul\":12812:12832   */\n      tag_54\n      jump\t// in\n    tag_228:\n        /* \"#utility.yul\":12807:12832   */\n      swap2\n      pop\n        /* \"#utility.yul\":12846:12866   */\n      tag_229\n        /* \"#utility.yul\":12864:12865   */\n      dup4\n        /* \"#utility.yul\":12846:12866   */\n      tag_54\n      jump\t// in\n    tag_229:\n        /* \"#utility.yul\":12841:12866   */\n      swap3\n      pop\n        /* \"#utility.yul\":12889:12890   */\n      dup3\n        /* \"#utility.yul\":12886:12887   */\n      dup3\n        /* \"#utility.yul\":12882:12891   */\n      add\n        /* \"#utility.yul\":12875:12891   */\n      swap1\n      pop\n        /* \"#utility.yul\":12910:12913   */\n      dup1\n        /* \"#utility.yul\":12907:12908   */\n      dup3\n        /* \"#utility.yul\":12904:12914   */\n      gt\n        /* \"#utility.yul\":12901:12937   */\n      iszero\n      tag_230\n      jumpi\n        /* \"#utility.yul\":12917:12935   */\n      tag_231\n      tag_89\n      jump\t// in\n    tag_231:\n        /* \"#utility.yul\":12901:12937   */\n    tag_230:\n        /* \"#utility.yul\":12753:12944   */\n      swap3\n      swap2\n      pop\n      pop\n      jump\t// out\n\n    auxdata: 0xa26469706673582212202e685d303e18a2fa8d755c6577ded66c634b968369cf2303ba1c27dd79d5e74d64736f6c634300081e0033\n}\n",
				"bytecode": {
					"linkReferences": {},
					"object": "6080604052348015600e575f5ffd5b506109b98061001c5f395ff3fe608060405234801561000f575f5ffd5b5060043610610055575f3560e01c80632858c764146100595780632dce602f146100895780636dad12b7146100b957806376f75e7f146100d757806397d1deb31461010c575b5f5ffd5b610073600480360381019061006e9190610318565b610128565b60405161008091906103b3565b60405180910390f35b6100a3600480360381019061009e919061042d565b61012f565b6040516100b091906103b3565b60405180910390f35b6100c1610137565b6040516100ce9190610485565b60405180910390f35b6100f160048036038101906100ec9190610318565b610143565b604051610103969594939291906104bc565b60405180910390f35b6101266004803603810190610121919061083e565b6102b2565b005b6060919050565b606092915050565b5f600154421015905090565b5f602052805f5260405f205f91509050805f018054610161906108b2565b80601f016020809104026020016040519081016040528092919081815260200182805461018d906108b2565b80156101d85780601f106101af576101008083540402835291602001916101d8565b820191905f5260205f20905b8154815290600101906020018083116101bb57829003601f168201915b5050505050908060010180546101ed906108b2565b80601f0160208091040260200160405190810160405280929190818152602001828054610219906108b2565b80156102645780601f1061023b57610100808354040283529160200191610264565b820191905f5260205f20905b81548152906001019060200180831161024757829003601f168201915b505050505090806002015490806003015490806004015f9054906101000a900473ffffffffffffffffffffffffffffffffffffffff16908060040160149054906101000a900460ff16905086565b603c81516102c0919061090f565b426102cb9190610950565b60018190555050565b5f604051905090565b5f5ffd5b5f5ffd5b5f819050919050565b6102f7816102e5565b8114610301575f5ffd5b50565b5f81359050610312816102ee565b92915050565b5f6020828403121561032d5761032c6102dd565b5b5f61033a84828501610304565b91505092915050565b5f81519050919050565b5f82825260208201905092915050565b8281835e5f83830152505050565b5f601f19601f8301169050919050565b5f61038582610343565b61038f818561034d565b935061039f81856020860161035d565b6103a88161036b565b840191505092915050565b5f6020820190508181035f8301526103cb818461037b565b905092915050565b5f73ffffffffffffffffffffffffffffffffffffffff82169050919050565b5f6103fc826103d3565b9050919050565b61040c816103f2565b8114610416575f5ffd5b50565b5f8135905061042781610403565b92915050565b5f5f60408385031215610443576104426102dd565b5b5f61045085828601610419565b925050602061046185828601610419565b9150509250929050565b5f8115159050919050565b61047f8161046b565b82525050565b5f6020820190506104985f830184610476565b92915050565b6104a7816102e5565b82525050565b6104b6816103f2565b82525050565b5f60c0820190508181035f8301526104d4818961037b565b905081810360208301526104e8818861037b565b90506104f7604083018761049e565b610504606083018661049e565b61051160808301856104ad565b61051e60a0830184610476565b979650505050505050565b5f5ffd5b7f4e487b71000000000000000000000000000000000000000000000000000000005f52604160045260245ffd5b6105638261036b565b810181811067ffffffffffffffff821117156105825761058161052d565b5b80604052505050565b5f6105946102d4565b90506105a0828261055a565b919050565b5f67ffffffffffffffff8211156105bf576105be61052d565b5b602082029050602081019050919050565b5f5ffd5b5f5ffd5b5f5ffd5b5f5ffd5b5f67ffffffffffffffff8211156105fa576105f961052d565b5b6106038261036b565b9050602081019050919050565b828183375f83830152505050565b5f61063061062b846105e0565b61058b565b90508281526020810184848401111561064c5761064b6105dc565b5b610657848285610610565b509392505050565b5f82601f83011261067357610672610529565b5b813561068384826020860161061e565b91505092915050565b6106958161046b565b811461069f575f5ffd5b50565b5f813590506106b08161068c565b92915050565b5f60c082840312156106cb576106ca6105d4565b5b6106d560c061058b565b90505f82013567ffffffffffffffff8111156106f4576106f36105d8565b5b6107008482850161065f565b5f83015250602082013567ffffffffffffffff811115610723576107226105d8565b5b61072f8482850161065f565b602083015250604061074384828501610304565b604083015250606061075784828501610304565b606083015250608061076b84828501610419565b60808301525060a061077f848285016106a2565b60a08301525092915050565b5f61079d610798846105a5565b61058b565b905080838252602082019050602084028301858111156107c0576107bf6105d0565b5b835b8181101561080757803567ffffffffffffffff8111156107e5576107e4610529565b5b8086016107f289826106b6565b855260208501945050506020810190506107c2565b5050509392505050565b5f82601f83011261082557610824610529565b5b813561083584826020860161078b565b91505092915050565b5f60208284031215610853576108526102dd565b5b5f82013567ffffffffffffffff8111156108705761086f6102e1565b5b61087c84828501610811565b91505092915050565b7f4e487b71000000000000000000000000000000000000000000000000000000005f52602260045260245ffd5b5f60028204905060018216806108c957607f821691505b6020821081036108dc576108db610885565b5b50919050565b7f4e487b71000000000000000000000000000000000000000000000000000000005f52601160045260245ffd5b5f610919826102e5565b9150610924836102e5565b9250828202610932816102e5565b91508282048414831517610949576109486108e2565b5b5092915050565b5f61095a826102e5565b9150610965836102e5565b925082820190508082111561097d5761097c6108e2565b5b9291505056fea26469706673582212202e685d303e18a2fa8d755c6577ded66c634b968369cf2303ba1c27dd79d5e74d64736f6c634300081e0033",
					"opcodes": "PUSH1 0x80 PUSH1 0x40 MSTORE CALLVALUE DUP1 ISZERO PUSH1 0xE JUMPI PUSH0 PUSH0 REVERT JUMPDEST POP PUSH2 0x9B9 DUP1 PUSH2 0x1C PUSH0 CODECOPY PUSH0 RETURN INVALID PUSH1 0x80 PUSH1 0x40 MSTORE CALLVALUE DUP1 ISZERO PUSH2 0xF JUMPI PUSH0 PUSH0 REVERT JUMPDEST POP PUSH1 0x4 CALLDATASIZE LT PUSH2 0x55 JUMPI PUSH0 CALLDATALOAD PUSH1 0xE0 SHR DUP1 PUSH4 0x2858C764 EQ PUSH2 0x59 JUMPI DUP1 PUSH4 0x2DCE602F EQ PUSH2 0x89 JUMPI DUP1 PUSH4 0x6DAD12B7 EQ PUSH2 0xB9 JUMPI DUP1 PUSH4 0x76F75E7F EQ PUSH2 0xD7 JUMPI DUP1 PUSH4 0x97D1DEB3 EQ PUSH2 0x10C JUMPI JUMPDEST PUSH0 PUSH0 REVERT JUMPDEST PUSH2 0x73 PUSH1 0x4 DUP1 CALLDATASIZE SUB DUP2 ADD SWAP1 PUSH2 0x6E SWAP2 SWAP1 PUSH2 0x318 JUMP JUMPDEST PUSH2 0x128 JUMP JUMPDEST PUSH1 0x40 MLOAD PUSH2 0x80 SWAP2 SWAP1 PUSH2 0x3B3 JUMP JUMPDEST PUSH1 0x40 MLOAD DUP1 SWAP2 SUB SWAP1 RETURN JUMPDEST PUSH2 0xA3 PUSH1 0x4 DUP1 CALLDATASIZE SUB DUP2 ADD SWAP1 PUSH2 0x9E SWAP2 SWAP1 PUSH2 0x42D JUMP JUMPDEST PUSH2 0x12F JUMP JUMPDEST PUSH1 0x40 MLOAD PUSH2 0xB0 SWAP2 SWAP1 PUSH2 0x3B3 JUMP JUMPDEST PUSH1 0x40 MLOAD DUP1 SWAP2 SUB SWAP1 RETURN JUMPDEST PUSH2 0xC1 PUSH2 0x137 JUMP JUMPDEST PUSH1 0x40 MLOAD PUSH2 0xCE SWAP2 SWAP1 PUSH2 0x485 JUMP JUMPDEST PUSH1 0x40 MLOAD DUP1 SWAP2 SUB SWAP1 RETURN JUMPDEST PUSH2 0xF1 PUSH1 0x4 DUP1 CALLDATASIZE SUB DUP2 ADD SWAP1 PUSH2 0xEC SWAP2 SWAP1 PUSH2 0x318 JUMP JUMPDEST PUSH2 0x143 JUMP JUMPDEST PUSH1 0x40 MLOAD PUSH2 0x103 SWAP7 SWAP6 SWAP5 SWAP4 SWAP3 SWAP2 SWAP1 PUSH2 0x4BC JUMP JUMPDEST PUSH1 0x40 MLOAD DUP1 SWAP2 SUB SWAP1 RETURN JUMPDEST PUSH2 0x126 PUSH1 0x4 DUP1 CALLDATASIZE SUB DUP2 ADD SWAP1 PUSH2 0x121 SWAP2 SWAP1 PUSH2 0x83E JUMP JUMPDEST PUSH2 0x2B2 JUMP JUMPDEST STOP JUMPDEST PUSH1 0x60 SWAP2 SWAP1 POP JUMP JUMPDEST PUSH1 0x60 SWAP3 SWAP2 POP POP JUMP JUMPDEST PUSH0 PUSH1 0x1 SLOAD TIMESTAMP LT ISZERO SWAP1 POP SWAP1 JUMP JUMPDEST PUSH0 PUSH1 0x20 MSTORE DUP1 PUSH0 MSTORE PUSH1 0x40 PUSH0 KECCAK256 PUSH0 SWAP2 POP SWAP1 POP DUP1 PUSH0 ADD DUP1 SLOAD PUSH2 0x161 SWAP1 PUSH2 0x8B2 JUMP JUMPDEST DUP1 PUSH1 0x1F ADD PUSH1 0x20 DUP1 SWAP2 DIV MUL PUSH1 0x20 ADD PUSH1 0x40 MLOAD SWAP1 DUP2 ADD PUSH1 0x40 MSTORE DUP1 SWAP3 SWAP2 SWAP1 DUP2 DUP2 MSTORE PUSH1 0x20 ADD DUP3 DUP1 SLOAD PUSH2 0x18D SWAP1 PUSH2 0x8B2 JUMP JUMPDEST DUP1 ISZERO PUSH2 0x1D8 JUMPI DUP1 PUSH1 0x1F LT PUSH2 0x1AF JUMPI PUSH2 0x100 DUP1 DUP4 SLOAD DIV MUL DUP4 MSTORE SWAP2 PUSH1 0x20 ADD SWAP2 PUSH2 0x1D8 JUMP JUMPDEST DUP3 ADD SWAP2 SWAP1 PUSH0 MSTORE PUSH1 0x20 PUSH0 KECCAK256 SWAP1 JUMPDEST DUP2 SLOAD DUP2 MSTORE SWAP1 PUSH1 0x1 ADD SWAP1 PUSH1 0x20 ADD DUP1 DUP4 GT PUSH2 0x1BB JUMPI DUP3 SWAP1 SUB PUSH1 0x1F AND DUP3 ADD SWAP2 JUMPDEST POP POP POP POP POP SWAP1 DUP1 PUSH1 0x1 ADD DUP1 SLOAD PUSH2 0x1ED SWAP1 PUSH2 0x8B2 JUMP JUMPDEST DUP1 PUSH1 0x1F ADD PUSH1 0x20 DUP1 SWAP2 DIV MUL PUSH1 0x20 ADD PUSH1 0x40 MLOAD SWAP1 DUP2 ADD PUSH1 0x40 MSTORE DUP1 SWAP3 SWAP2 SWAP1 DUP2 DUP2 MSTORE PUSH1 0x20 ADD DUP3 DUP1 SLOAD PUSH2 0x219 SWAP1 PUSH2 0x8B2 JUMP JUMPDEST DUP1 ISZERO PUSH2 0x264 JUMPI DUP1 PUSH1 0x1F LT PUSH2 0x23B JUMPI PUSH2 0x100 DUP1 DUP4 SLOAD DIV MUL DUP4 MSTORE SWAP2 PUSH1 0x20 ADD SWAP2 PUSH2 0x264 JUMP JUMPDEST DUP3 ADD SWAP2 SWAP1 PUSH0 MSTORE PUSH1 0x20 PUSH0 KECCAK256 SWAP1 JUMPDEST DUP2 SLOAD DUP2 MSTORE SWAP1 PUSH1 0x1 ADD SWAP1 PUSH1 0x20 ADD DUP1 DUP4 GT PUSH2 0x247 JUMPI DUP3 SWAP1 SUB PUSH1 0x1F AND DUP3 ADD SWAP2 JUMPDEST POP POP POP POP POP SWAP1 DUP1 PUSH1 0x2 ADD SLOAD SWAP1 DUP1 PUSH1 0x3 ADD SLOAD SWAP1 DUP1 PUSH1 0x4 ADD PUSH0 SWAP1 SLOAD SWAP1 PUSH2 0x100 EXP SWAP1 DIV PUSH20 0xFFFFFFFFFFFFFFFFFFFFFFFFFFFFFFFFFFFFFFFF AND SWAP1 DUP1 PUSH1 0x4 ADD PUSH1 0x14 SWAP1 SLOAD SWAP1 PUSH2 0x100 EXP SWAP1 DIV PUSH1 0xFF AND SWAP1 POP DUP7 JUMP JUMPDEST PUSH1 0x3C DUP2 MLOAD PUSH2 0x2C0 SWAP2 SWAP1 PUSH2 0x90F JUMP JUMPDEST TIMESTAMP PUSH2 0x2CB SWAP2 SWAP1 PUSH2 0x950 JUMP JUMPDEST PUSH1 0x1 DUP2 SWAP1 SSTORE POP POP JUMP JUMPDEST PUSH0 PUSH1 0x40 MLOAD SWAP1 POP SWAP1 JUMP JUMPDEST PUSH0 PUSH0 REVERT JUMPDEST PUSH0 PUSH0 REVERT JUMPDEST PUSH0 DUP2 SWAP1 POP SWAP2 SWAP1 POP JUMP JUMPDEST PUSH2 0x2F7 DUP2 PUSH2 0x2E5 JUMP JUMPDEST DUP2 EQ PUSH2 0x301 JUMPI PUSH0 PUSH0 REVERT JUMPDEST POP JUMP JUMPDEST PUSH0 DUP2 CALLDATALOAD SWAP1 POP PUSH2 0x312 DUP2 PUSH2 0x2EE JUMP JUMPDEST SWAP3 SWAP2 POP POP JUMP JUMPDEST PUSH0 PUSH1 0x20 DUP3 DUP5 SUB SLT ISZERO PUSH2 0x32D JUMPI PUSH2 0x32C PUSH2 0x2DD JUMP JUMPDEST JUMPDEST PUSH0 PUSH2 0x33A DUP5 DUP3 DUP6 ADD PUSH2 0x304 JUMP JUMPDEST SWAP2 POP POP SWAP3 SWAP2 POP POP JUMP JUMPDEST PUSH0 DUP2 MLOAD SWAP1 POP SWAP2 SWAP1 POP JUMP JUMPDEST PUSH0 DUP3 DUP3 MSTORE PUSH1 0x20 DUP3 ADD SWAP1 POP SWAP3 SWAP2 POP POP JUMP JUMPDEST DUP3 DUP2 DUP4 MCOPY PUSH0 DUP4 DUP4 ADD MSTORE POP POP POP JUMP JUMPDEST PUSH0 PUSH1 0x1F NOT PUSH1 0x1F DUP4 ADD AND SWAP1 POP SWAP2 SWAP1 POP JUMP JUMPDEST PUSH0 PUSH2 0x385 DUP3 PUSH2 0x343 JUMP JUMPDEST PUSH2 0x38F DUP2 DUP6 PUSH2 0x34D JUMP JUMPDEST SWAP4 POP PUSH2 0x39F DUP2 DUP6 PUSH1 0x20 DUP7 ADD PUSH2 0x35D JUMP JUMPDEST PUSH2 0x3A8 DUP2 PUSH2 0x36B JUMP JUMPDEST DUP5 ADD SWAP2 POP POP SWAP3 SWAP2 POP POP JUMP JUMPDEST PUSH0 PUSH1 0x20 DUP3 ADD SWAP1 POP DUP2 DUP2 SUB PUSH0 DUP4 ADD MSTORE PUSH2 0x3CB DUP2 DUP5 PUSH2 0x37B JUMP JUMPDEST SWAP1 POP SWAP3 SWAP2 POP POP JUMP JUMPDEST PUSH0 PUSH20 0xFFFFFFFFFFFFFFFFFFFFFFFFFFFFFFFFFFFFFFFF DUP3 AND SWAP1 POP SWAP2 SWAP1 POP JUMP JUMPDEST PUSH0 PUSH2 0x3FC DUP3 PUSH2 0x3D3 JUMP JUMPDEST SWAP1 POP SWAP2 SWAP1 POP JUMP JUMPDEST PUSH2 0x40C DUP2 PUSH2 0x3F2 JUMP JUMPDEST DUP2 EQ PUSH2 0x416 JUMPI PUSH0 PUSH0 REVERT JUMPDEST POP JUMP JUMPDEST PUSH0 DUP2 CALLDATALOAD SWAP1 POP PUSH2 0x427 DUP2 PUSH2 0x403 JUMP JUMPDEST SWAP3 SWAP2 POP POP JUMP JUMPDEST PUSH0 PUSH0 PUSH1 0x40 DUP4 DUP6 SUB SLT ISZERO PUSH2 0x443 JUMPI PUSH2 0x442 PUSH2 0x2DD JUMP JUMPDEST JUMPDEST PUSH0 PUSH2 0x450 DUP6 DUP3 DUP7 ADD PUSH2 0x419 JUMP JUMPDEST SWAP3 POP POP PUSH1 0x20 PUSH2 0x461 DUP6 DUP3 DUP7 ADD PUSH2 0x419 JUMP JUMPDEST SWAP2 POP POP SWAP3 POP SWAP3 SWAP1 POP JUMP JUMPDEST PUSH0 DUP2 ISZERO ISZERO SWAP1 POP SWAP2 SWAP1 POP JUMP JUMPDEST PUSH2 0x47F DUP2 PUSH2 0x46B JUMP JUMPDEST DUP3 MSTORE POP POP JUMP JUMPDEST PUSH0 PUSH1 0x20 DUP3 ADD SWAP1 POP PUSH2 0x498 PUSH0 DUP4 ADD DUP5 PUSH2 0x476 JUMP JUMPDEST SWAP3 SWAP2 POP POP JUMP JUMPDEST PUSH2 0x4A7 DUP2 PUSH2 0x2E5 JUMP JUMPDEST DUP3 MSTORE POP POP JUMP JUMPDEST PUSH2 0x4B6 DUP2 PUSH2 0x3F2 JUMP JUMPDEST DUP3 MSTORE POP POP JUMP JUMPDEST PUSH0 PUSH1 0xC0 DUP3 ADD SWAP1 POP DUP2 DUP2 SUB PUSH0 DUP4 ADD MSTORE PUSH2 0x4D4 DUP2 DUP10 PUSH2 0x37B JUMP JUMPDEST SWAP1 POP DUP2 DUP2 SUB PUSH1 0x20 DUP4 ADD MSTORE PUSH2 0x4E8 DUP2 DUP9 PUSH2 0x37B JUMP JUMPDEST SWAP1 POP PUSH2 0x4F7 PUSH1 0x40 DUP4 ADD DUP8 PUSH2 0x49E JUMP JUMPDEST PUSH2 0x504 PUSH1 0x60 DUP4 ADD DUP7 PUSH2 0x49E JUMP JUMPDEST PUSH2 0x511 PUSH1 0x80 DUP4 ADD DUP6 PUSH2 0x4AD JUMP JUMPDEST PUSH2 0x51E PUSH1 0xA0 DUP4 ADD DUP5 PUSH2 0x476 JUMP JUMPDEST SWAP8 SWAP7 POP POP POP POP POP POP POP JUMP JUMPDEST PUSH0 PUSH0 REVERT JUMPDEST PUSH32 0x4E487B7100000000000000000000000000000000000000000000000000000000 PUSH0 MSTORE PUSH1 0x41 PUSH1 0x4 MSTORE PUSH1 0x24 PUSH0 REVERT JUMPDEST PUSH2 0x563 DUP3 PUSH2 0x36B JUMP JUMPDEST DUP2 ADD DUP2 DUP2 LT PUSH8 0xFFFFFFFFFFFFFFFF DUP3 GT OR ISZERO PUSH2 0x582 JUMPI PUSH2 0x581 PUSH2 0x52D JUMP JUMPDEST JUMPDEST DUP1 PUSH1 0x40 MSTORE POP POP POP JUMP JUMPDEST PUSH0 PUSH2 0x594 PUSH2 0x2D4 JUMP JUMPDEST SWAP1 POP PUSH2 0x5A0 DUP3 DUP3 PUSH2 0x55A JUMP JUMPDEST SWAP2 SWAP1 POP JUMP JUMPDEST PUSH0 PUSH8 0xFFFFFFFFFFFFFFFF DUP3 GT ISZERO PUSH2 0x5BF JUMPI PUSH2 0x5BE PUSH2 0x52D JUMP JUMPDEST JUMPDEST PUSH1 0x20 DUP3 MUL SWAP1 POP PUSH1 0x20 DUP2 ADD SWAP1 POP SWAP2 SWAP1 POP JUMP JUMPDEST PUSH0 PUSH0 REVERT JUMPDEST PUSH0 PUSH0 REVERT JUMPDEST PUSH0 PUSH0 REVERT JUMPDEST PUSH0 PUSH0 REVERT JUMPDEST PUSH0 PUSH8 0xFFFFFFFFFFFFFFFF DUP3 GT ISZERO PUSH2 0x5FA JUMPI PUSH2 0x5F9 PUSH2 0x52D JUMP JUMPDEST JUMPDEST PUSH2 0x603 DUP3 PUSH2 0x36B JUMP JUMPDEST SWAP1 POP PUSH1 0x20 DUP2 ADD SWAP1 POP SWAP2 SWAP1 POP JUMP JUMPDEST DUP3 DUP2 DUP4 CALLDATACOPY PUSH0 DUP4 DUP4 ADD MSTORE POP POP POP JUMP JUMPDEST PUSH0 PUSH2 0x630 PUSH2 0x62B DUP5 PUSH2 0x5E0 JUMP JUMPDEST PUSH2 0x58B JUMP JUMPDEST SWAP1 POP DUP3 DUP2 MSTORE PUSH1 0x20 DUP2 ADD DUP5 DUP5 DUP5 ADD GT ISZERO PUSH2 0x64C JUMPI PUSH2 0x64B PUSH2 0x5DC JUMP JUMPDEST JUMPDEST PUSH2 0x657 DUP5 DUP3 DUP6 PUSH2 0x610 JUMP JUMPDEST POP SWAP4 SWAP3 POP POP POP JUMP JUMPDEST PUSH0 DUP3 PUSH1 0x1F DUP4 ADD SLT PUSH2 0x673 JUMPI PUSH2 0x672 PUSH2 0x529 JUMP JUMPDEST JUMPDEST DUP2 CALLDATALOAD PUSH2 0x683 DUP5 DUP3 PUSH1 0x20 DUP7 ADD PUSH2 0x61E JUMP JUMPDEST SWAP2 POP POP SWAP3 SWAP2 POP POP JUMP JUMPDEST PUSH2 0x695 DUP2 PUSH2 0x46B JUMP JUMPDEST DUP2 EQ PUSH2 0x69F JUMPI PUSH0 PUSH0 REVERT JUMPDEST POP JUMP JUMPDEST PUSH0 DUP2 CALLDATALOAD SWAP1 POP PUSH2 0x6B0 DUP2 PUSH2 0x68C JUMP JUMPDEST SWAP3 SWAP2 POP POP JUMP JUMPDEST PUSH0 PUSH1 0xC0 DUP3 DUP5 SUB SLT ISZERO PUSH2 0x6CB JUMPI PUSH2 0x6CA PUSH2 0x5D4 JUMP JUMPDEST JUMPDEST PUSH2 0x6D5 PUSH1 0xC0 PUSH2 0x58B JUMP JUMPDEST SWAP1 POP PUSH0 DUP3 ADD CALLDATALOAD PUSH8 0xFFFFFFFFFFFFFFFF DUP2 GT ISZERO PUSH2 0x6F4 JUMPI PUSH2 0x6F3 PUSH2 0x5D8 JUMP JUMPDEST JUMPDEST PUSH2 0x700 DUP5 DUP3 DUP6 ADD PUSH2 0x65F JUMP JUMPDEST PUSH0 DUP4 ADD MSTORE POP PUSH1 0x20 DUP3 ADD CALLDATALOAD PUSH8 0xFFFFFFFFFFFFFFFF DUP2 GT ISZERO PUSH2 0x723 JUMPI PUSH2 0x722 PUSH2 0x5D8 JUMP JUMPDEST JUMPDEST PUSH2 0x72F DUP5 DUP3 DUP6 ADD PUSH2 0x65F JUMP JUMPDEST PUSH1 0x20 DUP4 ADD MSTORE POP PUSH1 0x40 PUSH2 0x743 DUP5 DUP3 DUP6 ADD PUSH2 0x304 JUMP JUMPDEST PUSH1 0x40 DUP4 ADD MSTORE POP PUSH1 0x60 PUSH2 0x757 DUP5 DUP3 DUP6 ADD PUSH2 0x304 JUMP JUMPDEST PUSH1 0x60 DUP4 ADD MSTORE POP PUSH1 0x80 PUSH2 0x76B DUP5 DUP3 DUP6 ADD PUSH2 0x419 JUMP JUMPDEST PUSH1 0x80 DUP4 ADD MSTORE POP PUSH1 0xA0 PUSH2 0x77F DUP5 DUP3 DUP6 ADD PUSH2 0x6A2 JUMP JUMPDEST PUSH1 0xA0 DUP4 ADD MSTORE POP SWAP3 SWAP2 POP POP JUMP JUMPDEST PUSH0 PUSH2 0x79D PUSH2 0x798 DUP5 PUSH2 0x5A5 JUMP JUMPDEST PUSH2 0x58B JUMP JUMPDEST SWAP1 POP DUP1 DUP4 DUP3 MSTORE PUSH1 0x20 DUP3 ADD SWAP1 POP PUSH1 0x20 DUP5 MUL DUP4 ADD DUP6 DUP2 GT ISZERO PUSH2 0x7C0 JUMPI PUSH2 0x7BF PUSH2 0x5D0 JUMP JUMPDEST JUMPDEST DUP4 JUMPDEST DUP2 DUP2 LT ISZERO PUSH2 0x807 JUMPI DUP1 CALLDATALOAD PUSH8 0xFFFFFFFFFFFFFFFF DUP2 GT ISZERO PUSH2 0x7E5 JUMPI PUSH2 0x7E4 PUSH2 0x529 JUMP JUMPDEST JUMPDEST DUP1 DUP7 ADD PUSH2 0x7F2 DUP10 DUP3 PUSH2 0x6B6 JUMP JUMPDEST DUP6 MSTORE PUSH1 0x20 DUP6 ADD SWAP5 POP POP POP PUSH1 0x20 DUP2 ADD SWAP1 POP PUSH2 0x7C2 JUMP JUMPDEST POP POP POP SWAP4 SWAP3 POP POP POP JUMP JUMPDEST PUSH0 DUP3 PUSH1 0x1F DUP4 ADD SLT PUSH2 0x825 JUMPI PUSH2 0x824 PUSH2 0x529 JUMP JUMPDEST JUMPDEST DUP2 CALLDATALOAD PUSH2 0x835 DUP5 DUP3 PUSH1 0x20 DUP7 ADD PUSH2 0x78B JUMP JUMPDEST SWAP2 POP POP SWAP3 SWAP2 POP POP JUMP JUMPDEST PUSH0 PUSH1 0x20 DUP3 DUP5 SUB SLT ISZERO PUSH2 0x853 JUMPI PUSH2 0x852 PUSH2 0x2DD JUMP JUMPDEST JUMPDEST PUSH0 DUP3 ADD CALLDATALOAD PUSH8 0xFFFFFFFFFFFFFFFF DUP2 GT ISZERO PUSH2 0x870 JUMPI PUSH2 0x86F PUSH2 0x2E1 JUMP JUMPDEST JUMPDEST PUSH2 0x87C DUP5 DUP3 DUP6 ADD PUSH2 0x811 JUMP JUMPDEST SWAP2 POP POP SWAP3 SWAP2 POP POP JUMP JUMPDEST PUSH32 0x4E487B7100000000000000000000000000000000000000000000000000000000 PUSH0 MSTORE PUSH1 0x22 PUSH1 0x4 MSTORE PUSH1 0x24 PUSH0 REVERT JUMPDEST PUSH0 PUSH1 0x2 DUP3 DIV SWAP1 POP PUSH1 0x1 DUP3 AND DUP1 PUSH2 0x8C9 JUMPI PUSH1 0x7F DUP3 AND SWAP2 POP JUMPDEST PUSH1 0x20 DUP3 LT DUP2 SUB PUSH2 0x8DC JUMPI PUSH2 0x8DB PUSH2 0x885 JUMP JUMPDEST JUMPDEST POP SWAP2 SWAP1 POP JUMP JUMPDEST PUSH32 0x4E487B7100000000000000000000000000000000000000000000000000000000 PUSH0 MSTORE PUSH1 0x11 PUSH1 0x4 MSTORE PUSH1 0x24 PUSH0 REVERT JUMPDEST PUSH0 PUSH2 0x919 DUP3 PUSH2 0x2E5 JUMP JUMPDEST SWAP2 POP PUSH2 0x924 DUP4 PUSH2 0x2E5 JUMP JUMPDEST SWAP3 POP DUP3 DUP3 MUL PUSH2 0x932 DUP2 PUSH2 0x2E5 JUMP JUMPDEST SWAP2 POP DUP3 DUP3 DIV DUP5 EQ DUP4 ISZERO OR PUSH2 0x949 JUMPI PUSH2 0x948 PUSH2 0x8E2 JUMP JUMPDEST JUMPDEST POP SWAP3 SWAP2 POP POP JUMP JUMPDEST PUSH0 PUSH2 0x95A DUP3 PUSH2 0x2E5 JUMP JUMPDEST SWAP2 POP PUSH2 0x965 DUP4 PUSH2 0x2E5 JUMP JUMPDEST SWAP3 POP DUP3 DUP3 ADD SWAP1 POP DUP1 DUP3 GT ISZERO PUSH2 0x97D JUMPI PUSH2 0x97C PUSH2 0x8E2 JUMP JUMPDEST JUMPDEST SWAP3 SWAP2 POP POP JUMP INVALID LOG2 PUSH5 0x6970667358 0x22 SLT KECCAK256 0x2E PUSH9 0x5D303E18A2FA8D755C PUSH6 0x77DED66C634B SWAP7 DUP4 PUSH10 0xCF2303BA1C27DD79D5E7 0x4D PUSH5 0x736F6C6343 STOP ADDMOD 0x1E STOP CALLER "
				},
				"gasEstimates": {
					"creation": {
						"codeDepositCost": "497800",
						"executionCost": "528",
						"totalCost": "498328"
					},
					"external": {
						"checkStatus(uint256)": "infinite",
						"isDeadlineOver()": "2468",
						"orderList(uint256)": "infinite",
						"requestProduct(address,address)": "infinite",
						"setTime((string,string,uint256,uint256,address,bool)[])": "infinite"
					}
				},
				"methodIdentifiers": {
					"checkStatus(uint256)": "2858c764",
					"isDeadlineOver()": "6dad12b7",
					"orderList(uint256)": "76f75e7f",
					"requestProduct(address,address)": "2dce602f",
					"setTime((string,string,uint256,uint256,address,bool)[])": "97d1deb3"
				}
			},
			"storageLayout": {
				"storage": [
					{
						"astId": 6,
						"contract": "ecommerce.sol:SupplyChain",
						"label": "orderList",
						"offset": 0,
						"slot": "0",
						"type": "t_mapping(t_uint256,t_struct(Product)21_storage)"
					},
					{
						"astId": 8,
						"contract": "ecommerce.sol:SupplyChain",
						"label": "time",
						"offset": 0,
						"slot": "1",
						"type": "t_uint256"
					},
					{
						"astId": 30,
						"contract": "ecommerce.sol:SupplyChain",
						"label": "buyer",
						"offset": 0,
						"slot": "2",
						"type": "t_address"
					},
					{
						"astId": 32,
						"contract": "ecommerce.sol:SupplyChain",
						"label": "seller",
						"offset": 0,
						"slot": "3",
						"type": "t_address"
					},
					{
						"astId": 34,
						"contract": "ecommerce.sol:SupplyChain",
						"label": "warehouse",
						"offset": 0,
						"slot": "4",
						"type": "t_address"
					},
					{
						"astId": 36,
						"contract": "ecommerce.sol:SupplyChain",
						"label": "dboy",
						"offset": 0,
						"slot": "5",
						"type": "t_address"
					}
				],
				"types": {
					"t_address": {
						"encoding": "inplace",
						"label": "address",
						"numberOfBytes": "20"
					},
					"t_bool": {
						"encoding": "inplace",
						"label": "bool",
						"numberOfBytes": "1"
					},
					"t_mapping(t_uint256,t_struct(Product)21_storage)": {
						"encoding": "mapping",
						"key": "t_uint256",
						"label": "mapping(uint256 => struct SupplyChain.Product)",
						"numberOfBytes": "32",
						"value": "t_struct(Product)21_storage"
					},
					"t_string_storage": {
						"encoding": "bytes",
						"label": "string",
						"numberOfBytes": "32"
					},
					"t_struct(Product)21_storage": {
						"encoding": "inplace",
						"label": "struct SupplyChain.Product",
						"members": [
							{
								"astId": 10,
								"contract": "ecommerce.sol:SupplyChain",
								"label": "productName",
								"offset": 0,
								"slot": "0",
								"type": "t_string_storage"
							},
							{
								"astId": 12,
								"contract": "ecommerce.sol:SupplyChain",
								"label": "location",
								"offset": 0,
								"slot": "1",
								"type": "t_string_storage"
							},
							{
								"astId": 14,
								"contract": "ecommerce.sol:SupplyChain",
								"label": "id",
								"offset": 0,
								"slot": "2",
								"type": "t_uint256"
							},
							{
								"astId": 16,
								"contract": "ecommerce.sol:SupplyChain",
								"label": "price",
								"offset": 0,
								"slot": "3",
								"type": "t_uint256"
							},
							{
								"astId": 18,
								"contract": "ecommerce.sol:SupplyChain",
								"label": "owner",
								"offset": 0,
								"slot": "4",
								"type": "t_address"
							},
							{
								"astId": 20,
								"contract": "ecommerce.sol:SupplyChain",
								"label": "isSold",
								"offset": 20,
								"slot": "4",
								"type": "t_bool"
							}
						],
						"numberOfBytes": "160"
					},
					"t_uint256": {
						"encoding": "inplace",
						"label": "uint256",
						"numberOfBytes": "32"
					}
				}
			},
			"userdoc": {
				"kind": "user",
				"methods": {},
				"version": 1
			}
		}
	}
}