{
	"data": {
		"bytecode": {
			"linkReferences": {},
			"object": "6080604052662386f26fc1000060085534801561001a575f5ffd5b50604051613bfe380380613bfe833981810160405281019061003c91906102a4565b336040518060400160405280601281526020017f41756374696f6e57696e6e6572546f6b656e00000000000000000000000000008152506040518060400160405280600381526020017f4157540000000000000000000000000000000000000000000000000000000000815250815f90816100b79190610516565b5080600190816100c79190610516565b5050505f73ffffffffffffffffffffffffffffffffffffffff168173ffffffffffffffffffffffffffffffffffffffff160361013a575f6040517f1e4fbdf70000000000000000000000000000000000000000000000000000000081526004016101319190610624565b60405180910390fd5b610149816101aa60201b60201c565b50426009819055508160095461015f919061066a565b600a8190555080600a54610173919061066a565b600b819055506001600d5f6101000a81548160ff0219169083600381111561019e5761019d61069d565b5b021790555050506106ca565b5f60075f9054906101000a900473ffffffffffffffffffffffffffffffffffffffff1690508160075f6101000a81548173ffffffffffffffffffffffffffffffffffffffff021916908373ffffffffffffffffffffffffffffffffffffffff1602179055508173ffffffffffffffffffffffffffffffffffffffff168173ffffffffffffffffffffffffffffffffffffffff167f8be0079c531659141344cd1fd0a4f28419497f9722a3daafe3b4186f6b6457e060405160405180910390a35050565b5f5ffd5b5f819050919050565b61028381610271565b811461028d575f5ffd5b50565b5f8151905061029e8161027a565b92915050565b5f5f604083850312156102ba576102b961026d565b5b5f6102c785828601610290565b92505060206102d885828601610290565b9150509250929050565b5f81519050919050565b7f4e487b71000000000000000000000000000000000000000000000000000000005f52604160045260245ffd5b7f4e487b71000000000000000000000000000000000000000000000000000000005f52602260045260245ffd5b5f600282049050600182168061035d57607f821691505b6020821081036103705761036f610319565b5b50919050565b5f819050815f5260205f209050919050565b5f6020601f8301049050919050565b5f82821b905092915050565b5f600883026103d27fffffffffffffffffffffffffffffffffffffffffffffffffffffffffffffffff82610397565b6103dc8683610397565b95508019841693508086168417925050509392505050565b5f819050919050565b5f61041761041261040d84610271565b6103f4565b610271565b9050919050565b5f819050919050565b610430836103fd565b61044461043c8261041e565b8484546103a3565b825550505050565b5f5f905090565b61045b61044c565b610466818484610427565b505050565b5b818110156104895761047e5f82610453565b60018101905061046c565b5050565b601f8211156104ce5761049f81610376565b6104a884610388565b810160208510156104b7578190505b6104cb6104c385610388565b83018261046b565b50505b505050565b5f82821c905092915050565b5f6104ee5f19846008026104d3565b1980831691505092915050565b5f61050683836104df565b9150826002028217905092915050565b61051f826102e2565b67ffffffffffffffff811115610538576105376102ec565b5b6105428254610346565b61054d82828561048d565b5f60209050601f83116001811461057e575f841561056c578287015190505b61057685826104fb565b8655506105dd565b601f19841661058c86610376565b5f5b828110156105b35784890151825560018201915060208501945060208101905061058e565b868310156105d057848901516105cc601f8916826104df565b8355505b6001600288020188555050505b505050505050565b5f73ffffffffffffffffffffffffffffffffffffffff82169050919050565b5f61060e826105e5565b9050919050565b61061e81610604565b82525050565b5f6020820190506106375f830184610615565b92915050565b7f4e487b71000000000000000000000000000000000000000000000000000000005f52601160045260245ffd5b5f61067482610271565b915061067f83610271565b92508282019050808211156106975761069661063d565b5b92915050565b7f4e487b71000000000000000000000000000000000000000000000000000000005f52602160045260245ffd5b613527806106d75f395ff3fe6080604052600436106101d0575f3560e01c806370a08231116100f6578063a6e6647711610094578063dfbf53ae11610063578063dfbf53ae1461064b578063e985e9c514610675578063f2fde38b146106b1578063fc2a79bf146106d9576101d7565b8063a6e6647714610593578063b88d4fde146105bd578063c87b56dd146105e5578063d57bde7914610621576101d7565b80637fb45099116100d05780637fb45099146104ed5780638da5cb5b1461051757806395d89b4114610541578063a22cb4651461056b576101d7565b806370a0823114610471578063715018a6146104ad5780637e830574146104c3576101d7565b80632163b8c51161016e57806342842e0e1161013d57806342842e0e146103b9578063476343ee146103e157806362ea82db146103f75780636352211e14610435576101d7565b80632163b8c51461031557806323b872dd1461033d578063378aa70114610365578063423b217f1461038f576101d7565b806306fdde03116101aa57806306fdde031461026b578063081812fc14610295578063095ea7b3146102d15780631b3fa800146102f9576101d7565b806301ffc9a7146101db578063022a6fae1461021757806304cbb47f14610241576101d7565b366101d757005b5f5ffd5b3480156101e6575f5ffd5b5061020160048036038101906101fc91906124fb565b610701565b60405161020e9190612540565b60405180910390f35b348015610222575f5ffd5b5061022b610761565b6040516102389190612571565b60405180910390f35b34801561024c575f5ffd5b50610255610767565b6040516102629190612571565b60405180910390f35b348015610276575f5ffd5b5061027f61076d565b60405161028c91906125fa565b60405180910390f35b3480156102a0575f5ffd5b506102bb60048036038101906102b69190612644565b6107fc565b6040516102c891906126ae565b60405180910390f35b3480156102dc575f5ffd5b506102f760048036038101906102f291906126f1565b610817565b005b610313600480360381019061030e9190612762565b61082d565b005b348015610320575f5ffd5b5061033b600480360381019061033691906128b9565b6109d9565b005b348015610348575f5ffd5b50610363600480360381019061035e9190612913565b610baa565b005b348015610370575f5ffd5b50610379610ca9565b60405161038691906125fa565b60405180910390f35b34801561039a575f5ffd5b506103a3610dba565b6040516103b09190612571565b60405180910390f35b3480156103c4575f5ffd5b506103df60048036038101906103da9190612913565b610dc0565b005b3480156103ec575f5ffd5b506103f5610ddf565b005b348015610402575f5ffd5b5061041d60048036038101906104189190612963565b610e78565b60405161042c9392919061299d565b60405180910390f35b348015610440575f5ffd5b5061045b60048036038101906104569190612644565b610eaa565b60405161046891906126ae565b60405180910390f35b34801561047c575f5ffd5b5061049760048036038101906104929190612963565b610ebb565b6040516104a49190612571565b60405180910390f35b3480156104b8575f5ffd5b506104c1610f71565b005b3480156104ce575f5ffd5b506104d7610f84565b6040516104e49190612571565b60405180910390f35b3480156104f8575f5ffd5b50610501610f8a565b60405161050e9190612a45565b60405180910390f35b348015610522575f5ffd5b5061052b610f9c565b60405161053891906126ae565b60405180910390f35b34801561054c575f5ffd5b50610555610fc4565b60405161056291906125fa565b60405180910390f35b348015610576575f5ffd5b50610591600480360381019061058c9190612a88565b611054565b005b34801561059e575f5ffd5b506105a761106a565b6040516105b49190612571565b60405180910390f35b3480156105c8575f5ffd5b506105e360048036038101906105de9190612b64565b611070565b005b3480156105f0575f5ffd5b5061060b60048036038101906106069190612644565b611095565b60405161061891906125fa565b60405180910390f35b34801561062c575f5ffd5b506106356111a0565b6040516106429190612571565b60405180910390f35b348015610656575f5ffd5b5061065f6111a6565b60405161066c91906126ae565b60405180910390f35b348015610680575f5ffd5b5061069b60048036038101906106969190612be4565b6111cc565b6040516106a89190612540565b60405180910390f35b3480156106bc575f5ffd5b506106d760048036038101906106d29190612963565b61125a565b005b3480156106e4575f5ffd5b506106ff60048036038101906106fa9190612c22565b6112de565b005b5f634906490660e01b7bffffffffffffffffffffffffffffffffffffffffffffffffffffffff1916827bffffffffffffffffffffffffffffffffffffffffffffffffffffffff1916148061075a57506107598261146a565b5b9050919050565b60095481565b60085481565b60605f805461077b90612c96565b80601f01602080910402602001604051908101604052809291908181526020018280546107a790612c96565b80156107f25780601f106107c9576101008083540402835291602001916107f2565b820191905f5260205f20905b8154815290600101906020018083116107d557829003601f168201915b5050505050905090565b5f6108068261154b565b50610810826115d1565b9050919050565b610829828261082461160a565b611611565b5050565b60095442101580156108415750600a544211155b610880576040517f08c379a000000000000000000000000000000000000000000000000000000000815260040161087790612d10565b60405180910390fd5b5f5f1b600f5f3373ffffffffffffffffffffffffffffffffffffffff1673ffffffffffffffffffffffffffffffffffffffff1681526020019081526020015f205f015414610903576040517f08c379a00000000000000000000000000000000000000000000000000000000081526004016108fa90612d78565b60405180910390fd5b600854341015610948576040517f08c379a000000000000000000000000000000000000000000000000000000000815260040161093f90612de0565b60405180910390fd5b60405180606001604052808281526020013481526020015f1515815250600f5f3373ffffffffffffffffffffffffffffffffffffffff1673ffffffffffffffffffffffffffffffffffffffff1681526020019081526020015f205f820151815f0155602082015181600101556040820151816002015f6101000a81548160ff02191690831515021790555090505050565b600a54421180156109ec5750600b544211155b610a2b576040517f08c379a0000000000000000000000000000000000000000000000000000000008152600401610a2290612e48565b60405180910390fd5b5f600f5f3373ffffffffffffffffffffffffffffffffffffffff1673ffffffffffffffffffffffffffffffffffffffff1681526020019081526020015f2090505f5f1b815f015403610ab2576040517f08c379a0000000000000000000000000000000000000000000000000000000008152600401610aa990612eb0565b60405180910390fd5b806002015f9054906101000a900460ff1615610b03576040517f08c379a0000000000000000000000000000000000000000000000000000000008152600401610afa90612f18565b60405180910390fd5b8282604051602001610b16929190612f90565b60405160208183030381529060405280519060200120815f015403610b8957600e54831115610b885782600e8190555033600d60016101000a81548173ffffffffffffffffffffffffffffffffffffffff021916908373ffffffffffffffffffffffffffffffffffffffff1602179055505b5b6001816002015f6101000a81548160ff021916908315150217905550505050565b5f73ffffffffffffffffffffffffffffffffffffffff168273ffffffffffffffffffffffffffffffffffffffff1603610c1a575f6040517f64a0ae92000000000000000000000000000000000000000000000000000000008152600401610c1191906126ae565b60405180910390fd5b5f610c2d8383610c2861160a565b611623565b90508373ffffffffffffffffffffffffffffffffffffffff168173ffffffffffffffffffffffffffffffffffffffff1614610ca3578382826040517f64283d7b000000000000000000000000000000000000000000000000000000008152600401610c9a93929190612fb7565b60405180910390fd5b50505050565b6060600954421015610cf2576040518060400160405280600a81526020017f4e6f7453746172746564000000000000000000000000000000000000000000008152509050610db7565b600a544211610d38576040518060400160405280600781526020017f42696464696e67000000000000000000000000000000000000000000000000008152509050610db7565b600b544211610d7e576040518060400160405280600681526020017f52657665616c00000000000000000000000000000000000000000000000000008152509050610db7565b6040518060400160405280600581526020017f456e64656400000000000000000000000000000000000000000000000000000081525090505b90565b600a5481565b610dda83838360405180602001604052805f815250611070565b505050565b610de761182e565b600b544211610e2b576040517f08c379a0000000000000000000000000000000000000000000000000000000008152600401610e2290613036565b60405180910390fd5b610e33610f9c565b73ffffffffffffffffffffffffffffffffffffffff166108fc4790811502906040515f60405180830381858888f19350505050158015610e75573d5f5f3e3d5ffd5b50565b600f602052805f5260405f205f91509050805f015490806001015490806002015f9054906101000a900460ff16905083565b5f610eb48261154b565b9050919050565b5f5f73ffffffffffffffffffffffffffffffffffffffff168273ffffffffffffffffffffffffffffffffffffffff1603610f2c575f6040517f89c62b64000000000000000000000000000000000000000000000000000000008152600401610f2391906126ae565b60405180910390fd5b60035f8373ffffffffffffffffffffffffffffffffffffffff1673ffffffffffffffffffffffffffffffffffffffff1681526020019081526020015f20549050919050565b610f7961182e565b610f825f6118b5565b565b600c5481565b600d5f9054906101000a900460ff1681565b5f60075f9054906101000a900473ffffffffffffffffffffffffffffffffffffffff16905090565b606060018054610fd390612c96565b80601f0160208091040260200160405190810160405280929190818152602001828054610fff90612c96565b801561104a5780601f106110215761010080835404028352916020019161104a565b820191905f5260205f20905b81548152906001019060200180831161102d57829003601f168201915b5050505050905090565b61106661105f61160a565b8383611978565b5050565b600b5481565b61107b848484610baa565b61108f61108661160a565b85858585611ae1565b50505050565b60606110a08261154b565b505f60065f8481526020019081526020015f2080546110be90612c96565b80601f01602080910402602001604051908101604052809291908181526020018280546110ea90612c96565b80156111355780601f1061110c57610100808354040283529160200191611135565b820191905f5260205f20905b81548152906001019060200180831161111857829003601f168201915b505050505090505f611145611c8d565b90505f81510361115957819250505061119b565b5f8251111561118d578082604051602001611175929190613054565b6040516020818303038152906040529250505061119b565b61119684611ca3565b925050505b919050565b600e5481565b600d60019054906101000a900473ffffffffffffffffffffffffffffffffffffffff1681565b5f60055f8473ffffffffffffffffffffffffffffffffffffffff1673ffffffffffffffffffffffffffffffffffffffff1681526020019081526020015f205f8373ffffffffffffffffffffffffffffffffffffffff1673ffffffffffffffffffffffffffffffffffffffff1681526020019081526020015f205f9054906101000a900460ff16905092915050565b61126261182e565b5f73ffffffffffffffffffffffffffffffffffffffff168173ffffffffffffffffffffffffffffffffffffffff16036112d2575f6040517f1e4fbdf70000000000000000000000000000000000000000000000000000000081526004016112c991906126ae565b60405180910390fd5b6112db816118b5565b50565b600b544211611322576040517f08c379a000000000000000000000000000000000000000000000000000000000815260040161131990613036565b60405180910390fd5b600380811115611335576113346129d2565b5b600d5f9054906101000a900460ff166003811115611356576113556129d2565b5b03611396576040517f08c379a000000000000000000000000000000000000000000000000000000000815260040161138d906130c1565b60405180910390fd5b6003600d5f6101000a81548160ff021916908360038111156113bb576113ba6129d2565b5b02179055505f73ffffffffffffffffffffffffffffffffffffffff16600d60019054906101000a900473ffffffffffffffffffffffffffffffffffffffff1673ffffffffffffffffffffffffffffffffffffffff161461146757600c5f8154809291906114279061310c565b919050555061145a600d60019054906101000a900473ffffffffffffffffffffffffffffffffffffffff16600c54611d09565b611466600c5482611d26565b5b50565b5f7f80ac58cd000000000000000000000000000000000000000000000000000000007bffffffffffffffffffffffffffffffffffffffffffffffffffffffff1916827bffffffffffffffffffffffffffffffffffffffffffffffffffffffff1916148061153457507f5b5e139f000000000000000000000000000000000000000000000000000000007bffffffffffffffffffffffffffffffffffffffffffffffffffffffff1916827bffffffffffffffffffffffffffffffffffffffffffffffffffffffff1916145b80611544575061154382611d80565b5b9050919050565b5f5f61155683611de9565b90505f73ffffffffffffffffffffffffffffffffffffffff168173ffffffffffffffffffffffffffffffffffffffff16036115c857826040517f7e2732890000000000000000000000000000000000000000000000000000000081526004016115bf9190612571565b60405180910390fd5b80915050919050565b5f60045f8381526020019081526020015f205f9054906101000a900473ffffffffffffffffffffffffffffffffffffffff169050919050565b5f33905090565b61161e8383836001611e22565b505050565b5f5f61162e84611de9565b90505f73ffffffffffffffffffffffffffffffffffffffff168373ffffffffffffffffffffffffffffffffffffffff161461166f5761166e818486611fe1565b5b5f73ffffffffffffffffffffffffffffffffffffffff168173ffffffffffffffffffffffffffffffffffffffff16146116fa576116ae5f855f5f611e22565b600160035f8373ffffffffffffffffffffffffffffffffffffffff1673ffffffffffffffffffffffffffffffffffffffff1681526020019081526020015f205f82825403925050819055505b5f73ffffffffffffffffffffffffffffffffffffffff168573ffffffffffffffffffffffffffffffffffffffff161461177957600160035f8773ffffffffffffffffffffffffffffffffffffffff1673ffffffffffffffffffffffffffffffffffffffff1681526020019081526020015f205f82825401925050819055505b8460025f8681526020019081526020015f205f6101000a81548173ffffffffffffffffffffffffffffffffffffffff021916908373ffffffffffffffffffffffffffffffffffffffff160217905550838573ffffffffffffffffffffffffffffffffffffffff168273ffffffffffffffffffffffffffffffffffffffff167fddf252ad1be2c89b69c2b068fc378daa952ba7f163c4a11628f55a4df523b3ef60405160405180910390a4809150509392505050565b61183661160a565b73ffffffffffffffffffffffffffffffffffffffff16611854610f9c565b73ffffffffffffffffffffffffffffffffffffffff16146118b35761187761160a565b6040517f118cdaa70000000000000000000000000000000000000000000000000000000081526004016118aa91906126ae565b60405180910390fd5b565b5f60075f9054906101000a900473ffffffffffffffffffffffffffffffffffffffff1690508160075f6101000a81548173ffffffffffffffffffffffffffffffffffffffff021916908373ffffffffffffffffffffffffffffffffffffffff1602179055508173ffffffffffffffffffffffffffffffffffffffff168173ffffffffffffffffffffffffffffffffffffffff167f8be0079c531659141344cd1fd0a4f28419497f9722a3daafe3b4186f6b6457e060405160405180910390a35050565b5f73ffffffffffffffffffffffffffffffffffffffff168273ffffffffffffffffffffffffffffffffffffffff16036119e857816040517f5b08ba180000000000000000000000000000000000000000000000000000000081526004016119df91906126ae565b60405180910390fd5b8060055f8573ffffffffffffffffffffffffffffffffffffffff1673ffffffffffffffffffffffffffffffffffffffff1681526020019081526020015f205f8473ffffffffffffffffffffffffffffffffffffffff1673ffffffffffffffffffffffffffffffffffffffff1681526020019081526020015f205f6101000a81548160ff0219169083151502179055508173ffffffffffffffffffffffffffffffffffffffff168373ffffffffffffffffffffffffffffffffffffffff167f17307eab39ab6107e8899845ad3d59bd9653f200f220920489ca2b5937696c3183604051611ad49190612540565b60405180910390a3505050565b5f8373ffffffffffffffffffffffffffffffffffffffff163b1115611c86578273ffffffffffffffffffffffffffffffffffffffff1663150b7a02868685856040518563ffffffff1660e01b8152600401611b3f94939291906131a5565b6020604051808303815f875af1925050508015611b7a57506040513d601f19601f82011682018060405250810190611b779190613203565b60015b611bfb573d805f8114611ba8576040519150601f19603f3d011682016040523d82523d5f602084013e611bad565b606091505b505f815103611bf357836040517f64a0ae92000000000000000000000000000000000000000000000000000000008152600401611bea91906126ae565b60405180910390fd5b805181602001fd5b63150b7a0260e01b7bffffffffffffffffffffffffffffffffffffffffffffffffffffffff1916817bffffffffffffffffffffffffffffffffffffffffffffffffffffffff191614611c8457836040517f64a0ae92000000000000000000000000000000000000000000000000000000008152600401611c7b91906126ae565b60405180910390fd5b505b5050505050565b606060405180602001604052805f815250905090565b6060611cae8261154b565b505f611cb8611c8d565b90505f815111611cd65760405180602001604052805f815250611d01565b80611ce0846120a4565b604051602001611cf1929190613054565b6040516020818303038152906040525b915050919050565b611d22828260405180602001604052805f81525061216e565b5050565b8060065f8481526020019081526020015f209081611d4491906133ce565b507ff8e1a15aba9398e019f0b49df1a4fde98ee17ae345cb5f6b5e2c27f5033e8ce782604051611d749190612571565b60405180910390a15050565b5f7f01ffc9a7000000000000000000000000000000000000000000000000000000007bffffffffffffffffffffffffffffffffffffffffffffffffffffffff1916827bffffffffffffffffffffffffffffffffffffffffffffffffffffffff1916149050919050565b5f60025f8381526020019081526020015f205f9054906101000a900473ffffffffffffffffffffffffffffffffffffffff169050919050565b8080611e5a57505f73ffffffffffffffffffffffffffffffffffffffff168273ffffffffffffffffffffffffffffffffffffffff1614155b15611f8c575f611e698461154b565b90505f73ffffffffffffffffffffffffffffffffffffffff168373ffffffffffffffffffffffffffffffffffffffff1614158015611ed357508273ffffffffffffffffffffffffffffffffffffffff168173ffffffffffffffffffffffffffffffffffffffff1614155b8015611ee65750611ee481846111cc565b155b15611f2857826040517fa9fbf51f000000000000000000000000000000000000000000000000000000008152600401611f1f91906126ae565b60405180910390fd5b8115611f8a57838573ffffffffffffffffffffffffffffffffffffffff168273ffffffffffffffffffffffffffffffffffffffff167f8c5be1e5ebec7d5bd14f71427d1e84f3dd0314c0f7b2291e5b200ac8c7c3b92560405160405180910390a45b505b8360045f8581526020019081526020015f205f6101000a81548173ffffffffffffffffffffffffffffffffffffffff021916908373ffffffffffffffffffffffffffffffffffffffff16021790555050505050565b611fec838383612191565b61209f575f73ffffffffffffffffffffffffffffffffffffffff168373ffffffffffffffffffffffffffffffffffffffff160361206057806040517f7e2732890000000000000000000000000000000000000000000000000000000081526004016120579190612571565b60405180910390fd5b81816040517f177e802f00000000000000000000000000000000000000000000000000000000815260040161209692919061349d565b60405180910390fd5b505050565b60605f60016120b284612251565b0190505f8167ffffffffffffffff8111156120d0576120cf612795565b5b6040519080825280601f01601f1916602001820160405280156121025781602001600182028036833780820191505090505b5090505f82602001820190505b600115612163578080600190039150507f3031323334353637383961626364656600000000000000000000000000000000600a86061a8153600a8581612158576121576134c4565b5b0494505f850361210f575b819350505050919050565b61217883836123a2565b61218c61218361160a565b5f858585611ae1565b505050565b5f5f73ffffffffffffffffffffffffffffffffffffffff168373ffffffffffffffffffffffffffffffffffffffff161415801561224857508273ffffffffffffffffffffffffffffffffffffffff168473ffffffffffffffffffffffffffffffffffffffff161480612209575061220884846111cc565b5b8061224757508273ffffffffffffffffffffffffffffffffffffffff1661222f836115d1565b73ffffffffffffffffffffffffffffffffffffffff16145b5b90509392505050565b5f5f5f90507a184f03e93ff9f4daa797ed6e38ed64bf6a1f01000000000000000083106122ad577a184f03e93ff9f4daa797ed6e38ed64bf6a1f01000000000000000083816122a3576122a26134c4565b5b0492506040810190505b6d04ee2d6d415b85acef810000000083106122ea576d04ee2d6d415b85acef810000000083816122e0576122df6134c4565b5b0492506020810190505b662386f26fc10000831061231957662386f26fc10000838161230f5761230e6134c4565b5b0492506010810190505b6305f5e1008310612342576305f5e1008381612338576123376134c4565b5b0492506008810190505b612710831061236757612710838161235d5761235c6134c4565b5b0492506004810190505b6064831061238a57606483816123805761237f6134c4565b5b0492506002810190505b600a8310612399576001810190505b80915050919050565b5f73ffffffffffffffffffffffffffffffffffffffff168273ffffffffffffffffffffffffffffffffffffffff1603612412575f6040517f64a0ae9200000000000000000000000000000000000000000000000000000000815260040161240991906126ae565b60405180910390fd5b5f61241e83835f611623565b90505f73ffffffffffffffffffffffffffffffffffffffff168173ffffffffffffffffffffffffffffffffffffffff1614612490575f6040517f73c6ac6e00000000000000000000000000000000000000000000000000000000815260040161248791906126ae565b60405180910390fd5b505050565b5f604051905090565b5f5ffd5b5f5ffd5b5f7fffffffff0000000000000000000000000000000000000000000000000000000082169050919050565b6124da816124a6565b81146124e4575f5ffd5b50565b5f813590506124f5816124d1565b92915050565b5f602082840312156125105761250f61249e565b5b5f61251d848285016124e7565b91505092915050565b5f8115159050919050565b61253a81612526565b82525050565b5f6020820190506125535f830184612531565b92915050565b5f819050919050565b61256b81612559565b82525050565b5f6020820190506125845f830184612562565b92915050565b5f81519050919050565b5f82825260208201905092915050565b8281835e5f83830152505050565b5f601f19601f8301169050919050565b5f6125cc8261258a565b6125d68185612594565b93506125e68185602086016125a4565b6125ef816125b2565b840191505092915050565b5f6020820190508181035f83015261261281846125c2565b905092915050565b61262381612559565b811461262d575f5ffd5b50565b5f8135905061263e8161261a565b92915050565b5f602082840312156126595761265861249e565b5b5f61266684828501612630565b91505092915050565b5f73ffffffffffffffffffffffffffffffffffffffff82169050919050565b5f6126988261266f565b9050919050565b6126a88161268e565b82525050565b5f6020820190506126c15f83018461269f565b92915050565b6126d08161268e565b81146126da575f5ffd5b50565b5f813590506126eb816126c7565b92915050565b5f5f604083850312156127075761270661249e565b5b5f612714858286016126dd565b925050602061272585828601612630565b9150509250929050565b5f819050919050565b6127418161272f565b811461274b575f5ffd5b50565b5f8135905061275c81612738565b92915050565b5f602082840312156127775761277661249e565b5b5f6127848482850161274e565b91505092915050565b5f5ffd5b5f5ffd5b7f4e487b71000000000000000000000000000000000000000000000000000000005f52604160045260245ffd5b6127cb826125b2565b810181811067ffffffffffffffff821117156127ea576127e9612795565b5b80604052505050565b5f6127fc612495565b905061280882826127c2565b919050565b5f67ffffffffffffffff82111561282757612826612795565b5b612830826125b2565b9050602081019050919050565b828183375f83830152505050565b5f61285d6128588461280d565b6127f3565b90508281526020810184848401111561287957612878612791565b5b61288484828561283d565b509392505050565b5f82601f8301126128a05761289f61278d565b5b81356128b084826020860161284b565b91505092915050565b5f5f604083850312156128cf576128ce61249e565b5b5f6128dc85828601612630565b925050602083013567ffffffffffffffff8111156128fd576128fc6124a2565b5b6129098582860161288c565b9150509250929050565b5f5f5f6060848603121561292a5761292961249e565b5b5f612937868287016126dd565b9350506020612948868287016126dd565b925050604061295986828701612630565b9150509250925092565b5f602082840312156129785761297761249e565b5b5f612985848285016126dd565b91505092915050565b6129978161272f565b82525050565b5f6060820190506129b05f83018661298e565b6129bd6020830185612562565b6129ca6040830184612531565b949350505050565b7f4e487b71000000000000000000000000000000000000000000000000000000005f52602160045260245ffd5b60048110612a1057612a0f6129d2565b5b50565b5f819050612a20826129ff565b919050565b5f612a2f82612a13565b9050919050565b612a3f81612a25565b82525050565b5f602082019050612a585f830184612a36565b92915050565b612a6781612526565b8114612a71575f5ffd5b50565b5f81359050612a8281612a5e565b92915050565b5f5f60408385031215612a9e57612a9d61249e565b5b5f612aab858286016126dd565b9250506020612abc85828601612a74565b9150509250929050565b5f67ffffffffffffffff821115612ae057612adf612795565b5b612ae9826125b2565b9050602081019050919050565b5f612b08612b0384612ac6565b6127f3565b905082815260208101848484011115612b2457612b23612791565b5b612b2f84828561283d565b509392505050565b5f82601f830112612b4b57612b4a61278d565b5b8135612b5b848260208601612af6565b91505092915050565b5f5f5f5f60808587031215612b7c57612b7b61249e565b5b5f612b89878288016126dd565b9450506020612b9a878288016126dd565b9350506040612bab87828801612630565b925050606085013567ffffffffffffffff811115612bcc57612bcb6124a2565b5b612bd887828801612b37565b91505092959194509250565b5f5f60408385031215612bfa57612bf961249e565b5b5f612c07858286016126dd565b9250506020612c18858286016126dd565b9150509250929050565b5f60208284031215612c3757612c3661249e565b5b5f82013567ffffffffffffffff811115612c5457612c536124a2565b5b612c608482850161288c565b91505092915050565b7f4e487b71000000000000000000000000000000000000000000000000000000005f52602260045260245ffd5b5f6002820490506001821680612cad57607f821691505b602082108103612cc057612cbf612c69565b5b50919050565b7f4e6f7420647572696e672062696464696e6720706572696f64000000000000005f82015250565b5f612cfa601983612594565b9150612d0582612cc6565b602082019050919050565b5f6020820190508181035f830152612d2781612cee565b9050919050565b7f42696420616c7265616479207375626d697474656400000000000000000000005f82015250565b5f612d62601583612594565b9150612d6d82612d2e565b602082019050919050565b5f6020820190508181035f830152612d8f81612d56565b9050919050565b7f496e73756666696369656e74206170706c69636174696f6e20666565000000005f82015250565b5f612dca601c83612594565b9150612dd582612d96565b602082019050919050565b5f6020820190508181035f830152612df781612dbe565b9050919050565b7f4e6f7420647572696e672072657665616c20706572696f6400000000000000005f82015250565b5f612e32601883612594565b9150612e3d82612dfe565b602082019050919050565b5f6020820190508181035f830152612e5f81612e26565b9050919050565b7f4e6f2062696420666f756e6400000000000000000000000000000000000000005f82015250565b5f612e9a600c83612594565b9150612ea582612e66565b602082019050919050565b5f6020820190508181035f830152612ec781612e8e565b9050919050565b7f42696420616c72656164792072657665616c65640000000000000000000000005f82015250565b5f612f02601483612594565b9150612f0d82612ece565b602082019050919050565b5f6020820190508181035f830152612f2f81612ef6565b9050919050565b5f819050919050565b612f50612f4b82612559565b612f36565b82525050565b5f81905092915050565b5f612f6a8261258a565b612f748185612f56565b9350612f848185602086016125a4565b80840191505092915050565b5f612f9b8285612f3f565b602082019150612fab8284612f60565b91508190509392505050565b5f606082019050612fca5f83018661269f565b612fd76020830185612562565b612fe4604083018461269f565b949350505050565b7f52657665616c207068617365206e6f7420656e646564207965740000000000005f82015250565b5f613020601a83612594565b915061302b82612fec565b602082019050919050565b5f6020820190508181035f83015261304d81613014565b9050919050565b5f61305f8285612f60565b915061306b8284612f60565b91508190509392505050565b7f41756374696f6e20616c726561647920656e64656400000000000000000000005f82015250565b5f6130ab601583612594565b91506130b682613077565b602082019050919050565b5f6020820190508181035f8301526130d88161309f565b9050919050565b7f4e487b71000000000000000000000000000000000000000000000000000000005f52601160045260245ffd5b5f61311682612559565b91507fffffffffffffffffffffffffffffffffffffffffffffffffffffffffffffffff8203613148576131476130df565b5b600182019050919050565b5f81519050919050565b5f82825260208201905092915050565b5f61317782613153565b613181818561315d565b93506131918185602086016125a4565b61319a816125b2565b840191505092915050565b5f6080820190506131b85f83018761269f565b6131c5602083018661269f565b6131d26040830185612562565b81810360608301526131e4818461316d565b905095945050505050565b5f815190506131fd816124d1565b92915050565b5f602082840312156132185761321761249e565b5b5f613225848285016131ef565b91505092915050565b5f819050815f5260205f209050919050565b5f6020601f8301049050919050565b5f82821b905092915050565b5f6008830261328a7fffffffffffffffffffffffffffffffffffffffffffffffffffffffffffffffff8261324f565b613294868361324f565b95508019841693508086168417925050509392505050565b5f819050919050565b5f6132cf6132ca6132c584612559565b6132ac565b612559565b9050919050565b5f819050919050565b6132e8836132b5565b6132fc6132f4826132d6565b84845461325b565b825550505050565b5f5f905090565b613313613304565b61331e8184846132df565b505050565b5b81811015613341576133365f8261330b565b600181019050613324565b5050565b601f821115613386576133578161322e565b61336084613240565b8101602085101561336f578190505b61338361337b85613240565b830182613323565b50505b505050565b5f82821c905092915050565b5f6133a65f198460080261338b565b1980831691505092915050565b5f6133be8383613397565b9150826002028217905092915050565b6133d78261258a565b67ffffffffffffffff8111156133f0576133ef612795565b5b6133fa8254612c96565b613405828285613345565b5f60209050601f831160018114613436575f8415613424578287015190505b61342e85826133b3565b865550613495565b601f1984166134448661322e565b5f5b8281101561346b57848901518255600182019150602085019450602081019050613446565b868310156134885784890151613484601f891682613397565b8355505b6001600288020188555050505b505050505050565b5f6040820190506134b05f83018561269f565b6134bd6020830184612562565b9392505050565b7f4e487b71000000000000000000000000000000000000000000000000000000005f52601260045260245ffdfea264697066735822122012f0813122b4f30ada9ad3b30be194caec3853356af7a5d68640e82ba572eaf664736f6c634300081e0033",
			"opcodes": "PUSH1 0x80 PUSH1 0x40 MSTORE PUSH7 0x2386F26FC10000 PUSH1 0x8 SSTORE CALLVALUE DUP1 ISZERO PUSH2 0x1A JUMPI PUSH0 PUSH0 REVERT JUMPDEST POP PUSH1 0x40 MLOAD PUSH2 0x3BFE CODESIZE SUB DUP1 PUSH2 0x3BFE DUP4 CODECOPY DUP2 DUP2 ADD PUSH1 0x40 MSTORE DUP2 ADD SWAP1 PUSH2 0x3C SWAP2 SWAP1 PUSH2 0x2A4 JUMP JUMPDEST CALLER PUSH1 0x40 MLOAD DUP1 PUSH1 0x40 ADD PUSH1 0x40 MSTORE DUP1 PUSH1 0x12 DUP2 MSTORE PUSH1 0x20 ADD PUSH32 0x41756374696F6E57696E6E6572546F6B656E0000000000000000000000000000 DUP2 MSTORE POP PUSH1 0x40 MLOAD DUP1 PUSH1 0x40 ADD PUSH1 0x40 MSTORE DUP1 PUSH1 0x3 DUP2 MSTORE PUSH1 0x20 ADD PUSH32 0x4157540000000000000000000000000000000000000000000000000000000000 DUP2 MSTORE POP DUP2 PUSH0 SWAP1 DUP2 PUSH2 0xB7 SWAP2 SWAP1 PUSH2 0x516 JUMP JUMPDEST POP DUP1 PUSH1 0x1 SWAP1 DUP2 PUSH2 0xC7 SWAP2 SWAP1 PUSH2 0x516 JUMP JUMPDEST POP POP POP PUSH0 PUSH20 0xFFFFFFFFFFFFFFFFFFFFFFFFFFFFFFFFFFFFFFFF AND DUP2 PUSH20 0xFFFFFFFFFFFFFFFFFFFFFFFFFFFFFFFFFFFFFFFF AND SUB PUSH2 0x13A JUMPI PUSH0 PUSH1 0x40 MLOAD PUSH32 0x1E4FBDF700000000000000000000000000000000000000000000000000000000 DUP2 MSTORE PUSH1 0x4 ADD PUSH2 0x131 SWAP2 SWAP1 PUSH2 0x624 JUMP JUMPDEST PUSH1 0x40 MLOAD DUP1 SWAP2 SUB SWAP1 REVERT JUMPDEST PUSH2 0x149 DUP2 PUSH2 0x1AA PUSH1 0x20 SHL PUSH1 0x20 SHR JUMP JUMPDEST POP TIMESTAMP PUSH1 0x9 DUP2 SWAP1 SSTORE POP DUP2 PUSH1 0x9 SLOAD PUSH2 0x15F SWAP2 SWAP1 PUSH2 0x66A JUMP JUMPDEST PUSH1 0xA DUP2 SWAP1 SSTORE POP DUP1 PUSH1 0xA SLOAD PUSH2 0x173 SWAP2 SWAP1 PUSH2 0x66A JUMP JUMPDEST PUSH1 0xB DUP2 SWAP1 SSTORE POP PUSH1 0x1 PUSH1 0xD PUSH0 PUSH2 0x100 EXP DUP2 SLOAD DUP2 PUSH1 0xFF MUL NOT AND SWAP1 DUP4 PUSH1 0x3 DUP2 GT ISZERO PUSH2 0x19E JUMPI PUSH2 0x19D PUSH2 0x69D JUMP JUMPDEST JUMPDEST MUL OR SWAP1 SSTORE POP POP POP PUSH2 0x6CA JUMP JUMPDEST PUSH0 PUSH1 0x7 PUSH0 SWAP1 SLOAD SWAP1 PUSH2 0x100 EXP SWAP1 DIV PUSH20 0xFFFFFFFFFFFFFFFFFFFFFFFFFFFFFFFFFFFFFFFF AND SWAP1 POP DUP2 PUSH1 0x7 PUSH0 PUSH2 0x100 EXP DUP2 SLOAD DUP2 PUSH20 0xFFFFFFFFFFFFFFFFFFFFFFFFFFFFFFFFFFFFFFFF MUL NOT AND SWAP1 DUP4 PUSH20 0xFFFFFFFFFFFFFFFFFFFFFFFFFFFFFFFFFFFFFFFF AND MUL OR SWAP1 SSTORE POP DUP2 PUSH20 0xFFFFFFFFFFFFFFFFFFFFFFFFFFFFFFFFFFFFFFFF AND DUP2 PUSH20 0xFFFFFFFFFFFFFFFFFFFFFFFFFFFFFFFFFFFFFFFF AND PUSH32 0x8BE0079C531659141344CD1FD0A4F28419497F9722A3DAAFE3B4186F6B6457E0 PUSH1 0x40 MLOAD PUSH1 0x40 MLOAD DUP1 SWAP2 SUB SWAP1 LOG3 POP POP JUMP JUMPDEST PUSH0 PUSH0 REVERT JUMPDEST PUSH0 DUP2 SWAP1 POP SWAP2 SWAP1 POP JUMP JUMPDEST PUSH2 0x283 DUP2 PUSH2 0x271 JUMP JUMPDEST DUP2 EQ PUSH2 0x28D JUMPI PUSH0 PUSH0 REVERT JUMPDEST POP JUMP JUMPDEST PUSH0 DUP2 MLOAD SWAP1 POP PUSH2 0x29E DUP2 PUSH2 0x27A JUMP JUMPDEST SWAP3 SWAP2 POP POP JUMP JUMPDEST PUSH0 PUSH0 PUSH1 0x40 DUP4 DUP6 SUB SLT ISZERO PUSH2 0x2BA JUMPI PUSH2 0x2B9 PUSH2 0x26D JUMP JUMPDEST JUMPDEST PUSH0 PUSH2 0x2C7 DUP6 DUP3 DUP7 ADD PUSH2 0x290 JUMP JUMPDEST SWAP3 POP POP PUSH1 0x20 PUSH2 0x2D8 DUP6 DUP3 DUP7 ADD PUSH2 0x290 JUMP JUMPDEST SWAP2 POP POP SWAP3 POP SWAP3 SWAP1 POP JUMP JUMPDEST PUSH0 DUP2 MLOAD SWAP1 POP SWAP2 SWAP1 POP JUMP JUMPDEST PUSH32 0x4E487B7100000000000000000000000000000000000000000000000000000000 PUSH0 MSTORE PUSH1 0x41 PUSH1 0x4 MSTORE PUSH1 0x24 PUSH0 REVERT JUMPDEST PUSH32 0x4E487B7100000000000000000000000000000000000000000000000000000000 PUSH0 MSTORE PUSH1 0x22 PUSH1 0x4 MSTORE PUSH1 0x24 PUSH0 REVERT JUMPDEST PUSH0 PUSH1 0x2 DUP3 DIV SWAP1 POP PUSH1 0x1 DUP3 AND DUP1 PUSH2 0x35D JUMPI PUSH1 0x7F DUP3 AND SWAP2 POP JUMPDEST PUSH1 0x20 DUP3 LT DUP2 SUB PUSH2 0x370 JUMPI PUSH2 0x36F PUSH2 0x319 JUMP JUMPDEST JUMPDEST POP SWAP2 SWAP1 POP JUMP JUMPDEST PUSH0 DUP2 SWAP1 POP DUP2 PUSH0 MSTORE PUSH1 0x20 PUSH0 KECCAK256 SWAP1 POP SWAP2 SWAP1 POP JUMP JUMPDEST PUSH0 PUSH1 0x20 PUSH1 0x1F DUP4 ADD DIV SWAP1 POP SWAP2 SWAP1 POP JUMP JUMPDEST PUSH0 DUP3 DUP3 SHL SWAP1 POP SWAP3 SWAP2 POP POP JUMP JUMPDEST PUSH0 PUSH1 0x8 DUP4 MUL PUSH2 0x3D2 PUSH32 0xFFFFFFFFFFFFFFFFFFFFFFFFFFFFFFFFFFFFFFFFFFFFFFFFFFFFFFFFFFFFFFFF DUP3 PUSH2 0x397 JUMP JUMPDEST PUSH2 0x3DC DUP7 DUP4 PUSH2 0x397 JUMP JUMPDEST SWAP6 POP DUP1 NOT DUP5 AND SWAP4 POP DUP1 DUP7 AND DUP5 OR SWAP3 POP POP POP SWAP4 SWAP3 POP POP POP JUMP JUMPDEST PUSH0 DUP2 SWAP1 POP SWAP2 SWAP1 POP JUMP JUMPDEST PUSH0 PUSH2 0x417 PUSH2 0x412 PUSH2 0x40D DUP5 PUSH2 0x271 JUMP JUMPDEST PUSH2 0x3F4 JUMP JUMPDEST PUSH2 0x271 JUMP JUMPDEST SWAP1 POP SWAP2 SWAP1 POP JUMP JUMPDEST PUSH0 DUP2 SWAP1 POP SWAP2 SWAP1 POP JUMP JUMPDEST PUSH2 0x430 DUP4 PUSH2 0x3FD JUMP JUMPDEST PUSH2 0x444 PUSH2 0x43C DUP3 PUSH2 0x41E JUMP JUMPDEST DUP5 DUP5 SLOAD PUSH2 0x3A3 JUMP JUMPDEST DUP3 SSTORE POP POP POP POP JUMP JUMPDEST PUSH0 PUSH0 SWAP1 POP SWAP1 JUMP JUMPDEST PUSH2 0x45B PUSH2 0x44C JUMP JUMPDEST PUSH2 0x466 DUP2 DUP5 DUP5 PUSH2 0x427 JUMP JUMPDEST POP POP POP JUMP JUMPDEST JUMPDEST DUP2 DUP2 LT ISZERO PUSH2 0x489 JUMPI PUSH2 0x47E PUSH0 DUP3 PUSH2 0x453 JUMP JUMPDEST PUSH1 0x1 DUP2 ADD SWAP1 POP PUSH2 0x46C JUMP JUMPDEST POP POP JUMP JUMPDEST PUSH1 0x1F DUP3 GT ISZERO PUSH2 0x4CE JUMPI PUSH2 0x49F DUP2 PUSH2 0x376 JUMP JUMPDEST PUSH2 0x4A8 DUP5 PUSH2 0x388 JUMP JUMPDEST DUP2 ADD PUSH1 0x20 DUP6 LT ISZERO PUSH2 0x4B7 JUMPI DUP2 SWAP1 POP JUMPDEST PUSH2 0x4CB PUSH2 0x4C3 DUP6 PUSH2 0x388 JUMP JUMPDEST DUP4 ADD DUP3 PUSH2 0x46B JUMP JUMPDEST POP POP JUMPDEST POP POP POP JUMP JUMPDEST PUSH0 DUP3 DUP3 SHR SWAP1 POP SWAP3 SWAP2 POP POP JUMP JUMPDEST PUSH0 PUSH2 0x4EE PUSH0 NOT DUP5 PUSH1 0x8 MUL PUSH2 0x4D3 JUMP JUMPDEST NOT DUP1 DUP4 AND SWAP2 POP POP SWAP3 SWAP2 POP POP JUMP JUMPDEST PUSH0 PUSH2 0x506 DUP4 DUP4 PUSH2 0x4DF JUMP JUMPDEST SWAP2 POP DUP3 PUSH1 0x2 MUL DUP3 OR SWAP1 POP SWAP3 SWAP2 POP POP JUMP JUMPDEST PUSH2 0x51F DUP3 PUSH2 0x2E2 JUMP JUMPDEST PUSH8 0xFFFFFFFFFFFFFFFF DUP2 GT ISZERO PUSH2 0x538 JUMPI PUSH2 0x537 PUSH2 0x2EC JUMP JUMPDEST JUMPDEST PUSH2 0x542 DUP3 SLOAD PUSH2 0x346 JUMP JUMPDEST PUSH2 0x54D DUP3 DUP3 DUP6 PUSH2 0x48D JUMP JUMPDEST PUSH0 PUSH1 0x20 SWAP1 POP PUSH1 0x1F DUP4 GT PUSH1 0x1 DUP2 EQ PUSH2 0x57E JUMPI PUSH0 DUP5 ISZERO PUSH2 0x56C JUMPI DUP3 DUP8 ADD MLOAD SWAP1 POP JUMPDEST PUSH2 0x576 DUP6 DUP3 PUSH2 0x4FB JUMP JUMPDEST DUP7 SSTORE POP PUSH2 0x5DD JUMP JUMPDEST PUSH1 0x1F NOT DUP5 AND PUSH2 0x58C DUP7 PUSH2 0x376 JUMP JUMPDEST PUSH0 JUMPDEST DUP3 DUP2 LT ISZERO PUSH2 0x5B3 JUMPI DUP5 DUP10 ADD MLOAD DUP3 SSTORE PUSH1 0x1 DUP3 ADD SWAP2 POP PUSH1 0x20 DUP6 ADD SWAP5 POP PUSH1 0x20 DUP2 ADD SWAP1 POP PUSH2 0x58E JUMP JUMPDEST DUP7 DUP4 LT ISZERO PUSH2 0x5D0 JUMPI DUP5 DUP10 ADD MLOAD PUSH2 0x5CC PUSH1 0x1F DUP10 AND DUP3 PUSH2 0x4DF JUMP JUMPDEST DUP4 SSTORE POP JUMPDEST PUSH1 0x1 PUSH1 0x2 DUP9 MUL ADD DUP9 SSTORE POP POP POP JUMPDEST POP POP POP POP POP POP JUMP JUMPDEST PUSH0 PUSH20 0xFFFFFFFFFFFFFFFFFFFFFFFFFFFFFFFFFFFFFFFF DUP3 AND SWAP1 POP SWAP2 SWAP1 POP JUMP JUMPDEST PUSH0 PUSH2 0x60E DUP3 PUSH2 0x5E5 JUMP JUMPDEST SWAP1 POP SWAP2 SWAP1 POP JUMP JUMPDEST PUSH2 0x61E DUP2 PUSH2 0x604 JUMP JUMPDEST DUP3 MSTORE POP POP JUMP JUMPDEST PUSH0 PUSH1 0x20 DUP3 ADD SWAP1 POP PUSH2 0x637 PUSH0 DUP4 ADD DUP5 PUSH2 0x615 JUMP JUMPDEST SWAP3 SWAP2 POP POP JUMP JUMPDEST PUSH32 0x4E487B7100000000000000000000000000000000000000000000000000000000 PUSH0 MSTORE PUSH1 0x11 PUSH1 0x4 MSTORE PUSH1 0x24 PUSH0 REVERT JUMPDEST PUSH0 PUSH2 0x674 DUP3 PUSH2 0x271 JUMP JUMPDEST SWAP2 POP PUSH2 0x67F DUP4 PUSH2 0x271 JUMP JUMPDEST SWAP3 POP DUP3 DUP3 ADD SWAP1 POP DUP1 DUP3 GT ISZERO PUSH2 0x697 JUMPI PUSH2 0x696 PUSH2 0x63D JUMP JUMPDEST JUMPDEST SWAP3 SWAP2 POP POP JUMP JUMPDEST PUSH32 0x4E487B7100000000000000000000000000000000000000000000000000000000 PUSH0 MSTORE PUSH1 0x21 PUSH1 0x4 MSTORE PUSH1 0x24 PUSH0 REVERT JUMPDEST PUSH2 0x3527 DUP1 PUSH2 0x6D7 PUSH0 CODECOPY PUSH0 RETURN INVALID PUSH1 0x80 PUSH1 0x40 MSTORE PUSH1 0x4 CALLDATASIZE LT PUSH2 0x1D0 JUMPI PUSH0 CALLDATALOAD PUSH1 0xE0 SHR DUP1 PUSH4 0x70A08231 GT PUSH2 0xF6 JUMPI DUP1 PUSH4 0xA6E66477 GT PUSH2 0x94 JUMPI DUP1 PUSH4 0xDFBF53AE GT PUSH2 0x63 JUMPI DUP1 PUSH4 0xDFBF53AE EQ PUSH2 0x64B JUMPI DUP1 PUSH4 0xE985E9C5 EQ PUSH2 0x675 JUMPI DUP1 PUSH4 0xF2FDE38B EQ PUSH2 0x6B1 JUMPI DUP1 PUSH4 0xFC2A79BF EQ PUSH2 0x6D9 JUMPI PUSH2 0x1D7 JUMP JUMPDEST DUP1 PUSH4 0xA6E66477 EQ PUSH2 0x593 JUMPI DUP1 PUSH4 0xB88D4FDE EQ PUSH2 0x5BD JUMPI DUP1 PUSH4 0xC87B56DD EQ PUSH2 0x5E5 JUMPI DUP1 PUSH4 0xD57BDE79 EQ PUSH2 0x621 JUMPI PUSH2 0x1D7 JUMP JUMPDEST DUP1 PUSH4 0x7FB45099 GT PUSH2 0xD0 JUMPI DUP1 PUSH4 0x7FB45099 EQ PUSH2 0x4ED JUMPI DUP1 PUSH4 0x8DA5CB5B EQ PUSH2 0x517 JUMPI DUP1 PUSH4 0x95D89B41 EQ PUSH2 0x541 JUMPI DUP1 PUSH4 0xA22CB465 EQ PUSH2 0x56B JUMPI PUSH2 0x1D7 JUMP JUMPDEST DUP1 PUSH4 0x70A08231 EQ PUSH2 0x471 JUMPI DUP1 PUSH4 0x715018A6 EQ PUSH2 0x4AD JUMPI DUP1 PUSH4 0x7E830574 EQ PUSH2 0x4C3 JUMPI PUSH2 0x1D7 JUMP JUMPDEST DUP1 PUSH4 0x2163B8C5 GT PUSH2 0x16E JUMPI DUP1 PUSH4 0x42842E0E GT PUSH2 0x13D JUMPI DUP1 PUSH4 0x42842E0E EQ PUSH2 0x3B9 JUMPI DUP1 PUSH4 0x476343EE EQ PUSH2 0x3E1 JUMPI DUP1 PUSH4 0x62EA82DB EQ PUSH2 0x3F7 JUMPI DUP1 PUSH4 0x6352211E EQ PUSH2 0x435 JUMPI PUSH2 0x1D7 JUMP JUMPDEST DUP1 PUSH4 0x2163B8C5 EQ PUSH2 0x315 JUMPI DUP1 PUSH4 0x23B872DD EQ PUSH2 0x33D JUMPI DUP1 PUSH4 0x378AA701 EQ PUSH2 0x365 JUMPI DUP1 PUSH4 0x423B217F EQ PUSH2 0x38F JUMPI PUSH2 0x1D7 JUMP JUMPDEST DUP1 PUSH4 0x6FDDE03 GT PUSH2 0x1AA JUMPI DUP1 PUSH4 0x6FDDE03 EQ PUSH2 0x26B JUMPI DUP1 PUSH4 0x81812FC EQ PUSH2 0x295 JUMPI DUP1 PUSH4 0x95EA7B3 EQ PUSH2 0x2D1 JUMPI DUP1 PUSH4 0x1B3FA800 EQ PUSH2 0x2F9 JUMPI PUSH2 0x1D7 JUMP JUMPDEST DUP1 PUSH4 0x1FFC9A7 EQ PUSH2 0x1DB JUMPI DUP1 PUSH4 0x22A6FAE EQ PUSH2 0x217 JUMPI DUP1 PUSH4 0x4CBB47F EQ PUSH2 0x241 JUMPI PUSH2 0x1D7 JUMP JUMPDEST CALLDATASIZE PUSH2 0x1D7 JUMPI STOP JUMPDEST PUSH0 PUSH0 REVERT JUMPDEST CALLVALUE DUP1 ISZERO PUSH2 0x1E6 JUMPI PUSH0 PUSH0 REVERT JUMPDEST POP PUSH2 0x201 PUSH1 0x4 DUP1 CALLDATASIZE SUB DUP2 ADD SWAP1 PUSH2 0x1FC SWAP2 SWAP1 PUSH2 0x24FB JUMP JUMPDEST PUSH2 0x701 JUMP JUMPDEST PUSH1 0x40 MLOAD PUSH2 0x20E SWAP2 SWAP1 PUSH2 0x2540 JUMP JUMPDEST PUSH1 0x40 MLOAD DUP1 SWAP2 SUB SWAP1 RETURN JUMPDEST CALLVALUE DUP1 ISZERO PUSH2 0x222 JUMPI PUSH0 PUSH0 REVERT JUMPDEST POP PUSH2 0x22B PUSH2 0x761 JUMP JUMPDEST PUSH1 0x40 MLOAD PUSH2 0x238 SWAP2 SWAP1 PUSH2 0x2571 JUMP JUMPDEST PUSH1 0x40 MLOAD DUP1 SWAP2 SUB SWAP1 RETURN JUMPDEST CALLVALUE DUP1 ISZERO PUSH2 0x24C JUMPI PUSH0 PUSH0 REVERT JUMPDEST POP PUSH2 0x255 PUSH2 0x767 JUMP JUMPDEST PUSH1 0x40 MLOAD PUSH2 0x262 SWAP2 SWAP1 PUSH2 0x2571 JUMP JUMPDEST PUSH1 0x40 MLOAD DUP1 SWAP2 SUB SWAP1 RETURN JUMPDEST CALLVALUE DUP1 ISZERO PUSH2 0x276 JUMPI PUSH0 PUSH0 REVERT JUMPDEST POP PUSH2 0x27F PUSH2 0x76D JUMP JUMPDEST PUSH1 0x40 MLOAD PUSH2 0x28C SWAP2 SWAP1 PUSH2 0x25FA JUMP JUMPDEST PUSH1 0x40 MLOAD DUP1 SWAP2 SUB SWAP1 RETURN JUMPDEST CALLVALUE DUP1 ISZERO PUSH2 0x2A0 JUMPI PUSH0 PUSH0 REVERT JUMPDEST POP PUSH2 0x2BB PUSH1 0x4 DUP1 CALLDATASIZE SUB DUP2 ADD SWAP1 PUSH2 0x2B6 SWAP2 SWAP1 PUSH2 0x2644 JUMP JUMPDEST PUSH2 0x7FC JUMP JUMPDEST PUSH1 0x40 MLOAD PUSH2 0x2C8 SWAP2 SWAP1 PUSH2 0x26AE JUMP JUMPDEST PUSH1 0x40 MLOAD DUP1 SWAP2 SUB SWAP1 RETURN JUMPDEST CALLVALUE DUP1 ISZERO PUSH2 0x2DC JUMPI PUSH0 PUSH0 REVERT JUMPDEST POP PUSH2 0x2F7 PUSH1 0x4 DUP1 CALLDATASIZE SUB DUP2 ADD SWAP1 PUSH2 0x2F2 SWAP2 SWAP1 PUSH2 0x26F1 JUMP JUMPDEST PUSH2 0x817 JUMP JUMPDEST STOP JUMPDEST PUSH2 0x313 PUSH1 0x4 DUP1 CALLDATASIZE SUB DUP2 ADD SWAP1 PUSH2 0x30E SWAP2 SWAP1 PUSH2 0x2762 JUMP JUMPDEST PUSH2 0x82D JUMP JUMPDEST STOP JUMPDEST CALLVALUE DUP1 ISZERO PUSH2 0x320 JUMPI PUSH0 PUSH0 REVERT JUMPDEST POP PUSH2 0x33B PUSH1 0x4 DUP1 CALLDATASIZE SUB DUP2 ADD SWAP1 PUSH2 0x336 SWAP2 SWAP1 PUSH2 0x28B9 JUMP JUMPDEST PUSH2 0x9D9 JUMP JUMPDEST STOP JUMPDEST CALLVALUE DUP1 ISZERO PUSH2 0x348 JUMPI PUSH0 PUSH0 REVERT JUMPDEST POP PUSH2 0x363 PUSH1 0x4 DUP1 CALLDATASIZE SUB DUP2 ADD SWAP1 PUSH2 0x35E SWAP2 SWAP1 PUSH2 0x2913 JUMP JUMPDEST PUSH2 0xBAA JUMP JUMPDEST STOP JUMPDEST CALLVALUE DUP1 ISZERO PUSH2 0x370 JUMPI PUSH0 PUSH0 REVERT JUMPDEST POP PUSH2 0x379 PUSH2 0xCA9 JUMP JUMPDEST PUSH1 0x40 MLOAD PUSH2 0x386 SWAP2 SWAP1 PUSH2 0x25FA JUMP JUMPDEST PUSH1 0x40 MLOAD DUP1 SWAP2 SUB SWAP1 RETURN JUMPDEST CALLVALUE DUP1 ISZERO PUSH2 0x39A JUMPI PUSH0 PUSH0 REVERT JUMPDEST POP PUSH2 0x3A3 PUSH2 0xDBA JUMP JUMPDEST PUSH1 0x40 MLOAD PUSH2 0x3B0 SWAP2 SWAP1 PUSH2 0x2571 JUMP JUMPDEST PUSH1 0x40 MLOAD DUP1 SWAP2 SUB SWAP1 RETURN JUMPDEST CALLVALUE DUP1 ISZERO PUSH2 0x3C4 JUMPI PUSH0 PUSH0 REVERT JUMPDEST POP PUSH2 0x3DF PUSH1 0x4 DUP1 CALLDATASIZE SUB DUP2 ADD SWAP1 PUSH2 0x3DA SWAP2 SWAP1 PUSH2 0x2913 JUMP JUMPDEST PUSH2 0xDC0 JUMP JUMPDEST STOP JUMPDEST CALLVALUE DUP1 ISZERO PUSH2 0x3EC JUMPI PUSH0 PUSH0 REVERT JUMPDEST POP PUSH2 0x3F5 PUSH2 0xDDF JUMP JUMPDEST STOP JUMPDEST CALLVALUE DUP1 ISZERO PUSH2 0x402 JUMPI PUSH0 PUSH0 REVERT JUMPDEST POP PUSH2 0x41D PUSH1 0x4 DUP1 CALLDATASIZE SUB DUP2 ADD SWAP1 PUSH2 0x418 SWAP2 SWAP1 PUSH2 0x2963 JUMP JUMPDEST PUSH2 0xE78 JUMP JUMPDEST PUSH1 0x40 MLOAD PUSH2 0x42C SWAP4 SWAP3 SWAP2 SWAP1 PUSH2 0x299D JUMP JUMPDEST PUSH1 0x40 MLOAD DUP1 SWAP2 SUB SWAP1 RETURN JUMPDEST CALLVALUE DUP1 ISZERO PUSH2 0x440 JUMPI PUSH0 PUSH0 REVERT JUMPDEST POP PUSH2 0x45B PUSH1 0x4 DUP1 CALLDATASIZE SUB DUP2 ADD SWAP1 PUSH2 0x456 SWAP2 SWAP1 PUSH2 0x2644 JUMP JUMPDEST PUSH2 0xEAA JUMP JUMPDEST PUSH1 0x40 MLOAD PUSH2 0x468 SWAP2 SWAP1 PUSH2 0x26AE JUMP JUMPDEST PUSH1 0x40 MLOAD DUP1 SWAP2 SUB SWAP1 RETURN JUMPDEST CALLVALUE DUP1 ISZERO PUSH2 0x47C JUMPI PUSH0 PUSH0 REVERT JUMPDEST POP PUSH2 0x497 PUSH1 0x4 DUP1 CALLDATASIZE SUB DUP2 ADD SWAP1 PUSH2 0x492 SWAP2 SWAP1 PUSH2 0x2963 JUMP JUMPDEST PUSH2 0xEBB JUMP JUMPDEST PUSH1 0x40 MLOAD PUSH2 0x4A4 SWAP2 SWAP1 PUSH2 0x2571 JUMP JUMPDEST PUSH1 0x40 MLOAD DUP1 SWAP2 SUB SWAP1 RETURN JUMPDEST CALLVALUE DUP1 ISZERO PUSH2 0x4B8 JUMPI PUSH0 PUSH0 REVERT JUMPDEST POP PUSH2 0x4C1 PUSH2 0xF71 JUMP JUMPDEST STOP JUMPDEST CALLVALUE DUP1 ISZERO PUSH2 0x4CE JUMPI PUSH0 PUSH0 REVERT JUMPDEST POP PUSH2 0x4D7 PUSH2 0xF84 JUMP JUMPDEST PUSH1 0x40 MLOAD PUSH2 0x4E4 SWAP2 SWAP1 PUSH2 0x2571 JUMP JUMPDEST PUSH1 0x40 MLOAD DUP1 SWAP2 SUB SWAP1 RETURN JUMPDEST CALLVALUE DUP1 ISZERO PUSH2 0x4F8 JUMPI PUSH0 PUSH0 REVERT JUMPDEST POP PUSH2 0x501 PUSH2 0xF8A JUMP JUMPDEST PUSH1 0x40 MLOAD PUSH2 0x50E SWAP2 SWAP1 PUSH2 0x2A45 JUMP JUMPDEST PUSH1 0x40 MLOAD DUP1 SWAP2 SUB SWAP1 RETURN JUMPDEST CALLVALUE DUP1 ISZERO PUSH2 0x522 JUMPI PUSH0 PUSH0 REVERT JUMPDEST POP PUSH2 0x52B PUSH2 0xF9C JUMP JUMPDEST PUSH1 0x40 MLOAD PUSH2 0x538 SWAP2 SWAP1 PUSH2 0x26AE JUMP JUMPDEST PUSH1 0x40 MLOAD DUP1 SWAP2 SUB SWAP1 RETURN JUMPDEST CALLVALUE DUP1 ISZERO PUSH2 0x54C JUMPI PUSH0 PUSH0 REVERT JUMPDEST POP PUSH2 0x555 PUSH2 0xFC4 JUMP JUMPDEST PUSH1 0x40 MLOAD PUSH2 0x562 SWAP2 SWAP1 PUSH2 0x25FA JUMP JUMPDEST PUSH1 0x40 MLOAD DUP1 SWAP2 SUB SWAP1 RETURN JUMPDEST CALLVALUE DUP1 ISZERO PUSH2 0x576 JUMPI PUSH0 PUSH0 REVERT JUMPDEST POP PUSH2 0x591 PUSH1 0x4 DUP1 CALLDATASIZE SUB DUP2 ADD SWAP1 PUSH2 0x58C SWAP2 SWAP1 PUSH2 0x2A88 JUMP JUMPDEST PUSH2 0x1054 JUMP JUMPDEST STOP JUMPDEST CALLVALUE DUP1 ISZERO PUSH2 0x59E JUMPI PUSH0 PUSH0 REVERT JUMPDEST POP PUSH2 0x5A7 PUSH2 0x106A JUMP JUMPDEST PUSH1 0x40 MLOAD PUSH2 0x5B4 SWAP2 SWAP1 PUSH2 0x2571 JUMP JUMPDEST PUSH1 0x40 MLOAD DUP1 SWAP2 SUB SWAP1 RETURN JUMPDEST CALLVALUE DUP1 ISZERO PUSH2 0x5C8 JUMPI PUSH0 PUSH0 REVERT JUMPDEST POP PUSH2 0x5E3 PUSH1 0x4 DUP1 CALLDATASIZE SUB DUP2 ADD SWAP1 PUSH2 0x5DE SWAP2 SWAP1 PUSH2 0x2B64 JUMP JUMPDEST PUSH2 0x1070 JUMP JUMPDEST STOP JUMPDEST CALLVALUE DUP1 ISZERO PUSH2 0x5F0 JUMPI PUSH0 PUSH0 REVERT JUMPDEST POP PUSH2 0x60B PUSH1 0x4 DUP1 CALLDATASIZE SUB DUP2 ADD SWAP1 PUSH2 0x606 SWAP2 SWAP1 PUSH2 0x2644 JUMP JUMPDEST PUSH2 0x1095 JUMP JUMPDEST PUSH1 0x40 MLOAD PUSH2 0x618 SWAP2 SWAP1 PUSH2 0x25FA JUMP JUMPDEST PUSH1 0x40 MLOAD DUP1 SWAP2 SUB SWAP1 RETURN JUMPDEST CALLVALUE DUP1 ISZERO PUSH2 0x62C JUMPI PUSH0 PUSH0 REVERT JUMPDEST POP PUSH2 0x635 PUSH2 0x11A0 JUMP JUMPDEST PUSH1 0x40 MLOAD PUSH2 0x642 SWAP2 SWAP1 PUSH2 0x2571 JUMP JUMPDEST PUSH1 0x40 MLOAD DUP1 SWAP2 SUB SWAP1 RETURN JUMPDEST CALLVALUE DUP1 ISZERO PUSH2 0x656 JUMPI PUSH0 PUSH0 REVERT JUMPDEST POP PUSH2 0x65F PUSH2 0x11A6 JUMP JUMPDEST PUSH1 0x40 MLOAD PUSH2 0x66C SWAP2 SWAP1 PUSH2 0x26AE JUMP JUMPDEST PUSH1 0x40 MLOAD DUP1 SWAP2 SUB SWAP1 RETURN JUMPDEST CALLVALUE DUP1 ISZERO PUSH2 0x680 JUMPI PUSH0 PUSH0 REVERT JUMPDEST POP PUSH2 0x69B PUSH1 0x4 DUP1 CALLDATASIZE SUB DUP2 ADD SWAP1 PUSH2 0x696 SWAP2 SWAP1 PUSH2 0x2BE4 JUMP JUMPDEST PUSH2 0x11CC JUMP JUMPDEST PUSH1 0x40 MLOAD PUSH2 0x6A8 SWAP2 SWAP1 PUSH2 0x2540 JUMP JUMPDEST PUSH1 0x40 MLOAD DUP1 SWAP2 SUB SWAP1 RETURN JUMPDEST CALLVALUE DUP1 ISZERO PUSH2 0x6BC JUMPI PUSH0 PUSH0 REVERT JUMPDEST POP PUSH2 0x6D7 PUSH1 0x4 DUP1 CALLDATASIZE SUB DUP2 ADD SWAP1 PUSH2 0x6D2 SWAP2 SWAP1 PUSH2 0x2963 JUMP JUMPDEST PUSH2 0x125A JUMP JUMPDEST STOP JUMPDEST CALLVALUE DUP1 ISZERO PUSH2 0x6E4 JUMPI PUSH0 PUSH0 REVERT JUMPDEST POP PUSH2 0x6FF PUSH1 0x4 DUP1 CALLDATASIZE SUB DUP2 ADD SWAP1 PUSH2 0x6FA SWAP2 SWAP1 PUSH2 0x2C22 JUMP JUMPDEST PUSH2 0x12DE JUMP JUMPDEST STOP JUMPDEST PUSH0 PUSH4 0x49064906 PUSH1 0xE0 SHL PUSH28 0xFFFFFFFFFFFFFFFFFFFFFFFFFFFFFFFFFFFFFFFFFFFFFFFFFFFFFFFF NOT AND DUP3 PUSH28 0xFFFFFFFFFFFFFFFFFFFFFFFFFFFFFFFFFFFFFFFFFFFFFFFFFFFFFFFF NOT AND EQ DUP1 PUSH2 0x75A JUMPI POP PUSH2 0x759 DUP3 PUSH2 0x146A JUMP JUMPDEST JUMPDEST SWAP1 POP SWAP2 SWAP1 POP JUMP JUMPDEST PUSH1 0x9 SLOAD DUP2 JUMP JUMPDEST PUSH1 0x8 SLOAD DUP2 JUMP JUMPDEST PUSH1 0x60 PUSH0 DUP1 SLOAD PUSH2 0x77B SWAP1 PUSH2 0x2C96 JUMP JUMPDEST DUP1 PUSH1 0x1F ADD PUSH1 0x20 DUP1 SWAP2 DIV MUL PUSH1 0x20 ADD PUSH1 0x40 MLOAD SWAP1 DUP2 ADD PUSH1 0x40 MSTORE DUP1 SWAP3 SWAP2 SWAP1 DUP2 DUP2 MSTORE PUSH1 0x20 ADD DUP3 DUP1 SLOAD PUSH2 0x7A7 SWAP1 PUSH2 0x2C96 JUMP JUMPDEST DUP1 ISZERO PUSH2 0x7F2 JUMPI DUP1 PUSH1 0x1F LT PUSH2 0x7C9 JUMPI PUSH2 0x100 DUP1 DUP4 SLOAD DIV MUL DUP4 MSTORE SWAP2 PUSH1 0x20 ADD SWAP2 PUSH2 0x7F2 JUMP JUMPDEST DUP3 ADD SWAP2 SWAP1 PUSH0 MSTORE PUSH1 0x20 PUSH0 KECCAK256 SWAP1 JUMPDEST DUP2 SLOAD DUP2 MSTORE SWAP1 PUSH1 0x1 ADD SWAP1 PUSH1 0x20 ADD DUP1 DUP4 GT PUSH2 0x7D5 JUMPI DUP3 SWAP1 SUB PUSH1 0x1F AND DUP3 ADD SWAP2 JUMPDEST POP POP POP POP POP SWAP1 POP SWAP1 JUMP JUMPDEST PUSH0 PUSH2 0x806 DUP3 PUSH2 0x154B JUMP JUMPDEST POP PUSH2 0x810 DUP3 PUSH2 0x15D1 JUMP JUMPDEST SWAP1 POP SWAP2 SWAP1 POP JUMP JUMPDEST PUSH2 0x829 DUP3 DUP3 PUSH2 0x824 PUSH2 0x160A JUMP JUMPDEST PUSH2 0x1611 JUMP JUMPDEST POP POP JUMP JUMPDEST PUSH1 0x9 SLOAD TIMESTAMP LT ISZERO DUP1 ISZERO PUSH2 0x841 JUMPI POP PUSH1 0xA SLOAD TIMESTAMP GT ISZERO JUMPDEST PUSH2 0x880 JUMPI PUSH1 0x40 MLOAD PUSH32 0x8C379A000000000000000000000000000000000000000000000000000000000 DUP2 MSTORE PUSH1 0x4 ADD PUSH2 0x877 SWAP1 PUSH2 0x2D10 JUMP JUMPDEST PUSH1 0x40 MLOAD DUP1 SWAP2 SUB SWAP1 REVERT JUMPDEST PUSH0 PUSH0 SHL PUSH1 0xF PUSH0 CALLER PUSH20 0xFFFFFFFFFFFFFFFFFFFFFFFFFFFFFFFFFFFFFFFF AND PUSH20 0xFFFFFFFFFFFFFFFFFFFFFFFFFFFFFFFFFFFFFFFF AND DUP2 MSTORE PUSH1 0x20 ADD SWAP1 DUP2 MSTORE PUSH1 0x20 ADD PUSH0 KECCAK256 PUSH0 ADD SLOAD EQ PUSH2 0x903 JUMPI PUSH1 0x40 MLOAD PUSH32 0x8C379A000000000000000000000000000000000000000000000000000000000 DUP2 MSTORE PUSH1 0x4 ADD PUSH2 0x8FA SWAP1 PUSH2 0x2D78 JUMP JUMPDEST PUSH1 0x40 MLOAD DUP1 SWAP2 SUB SWAP1 REVERT JUMPDEST PUSH1 0x8 SLOAD CALLVALUE LT ISZERO PUSH2 0x948 JUMPI PUSH1 0x40 MLOAD PUSH32 0x8C379A000000000000000000000000000000000000000000000000000000000 DUP2 MSTORE PUSH1 0x4 ADD PUSH2 0x93F SWAP1 PUSH2 0x2DE0 JUMP JUMPDEST PUSH1 0x40 MLOAD DUP1 SWAP2 SUB SWAP1 REVERT JUMPDEST PUSH1 0x40 MLOAD DUP1 PUSH1 0x60 ADD PUSH1 0x40 MSTORE DUP1 DUP3 DUP2 MSTORE PUSH1 0x20 ADD CALLVALUE DUP2 MSTORE PUSH1 0x20 ADD PUSH0 ISZERO ISZERO DUP2 MSTORE POP PUSH1 0xF PUSH0 CALLER PUSH20 0xFFFFFFFFFFFFFFFFFFFFFFFFFFFFFFFFFFFFFFFF AND PUSH20 0xFFFFFFFFFFFFFFFFFFFFFFFFFFFFFFFFFFFFFFFF AND DUP2 MSTORE PUSH1 0x20 ADD SWAP1 DUP2 MSTORE PUSH1 0x20 ADD PUSH0 KECCAK256 PUSH0 DUP3 ADD MLOAD DUP2 PUSH0 ADD SSTORE PUSH1 0x20 DUP3 ADD MLOAD DUP2 PUSH1 0x1 ADD SSTORE PUSH1 0x40 DUP3 ADD MLOAD DUP2 PUSH1 0x2 ADD PUSH0 PUSH2 0x100 EXP DUP2 SLOAD DUP2 PUSH1 0xFF MUL NOT AND SWAP1 DUP4 ISZERO ISZERO MUL OR SWAP1 SSTORE POP SWAP1 POP POP POP JUMP JUMPDEST PUSH1 0xA SLOAD TIMESTAMP GT DUP1 ISZERO PUSH2 0x9EC JUMPI POP PUSH1 0xB SLOAD TIMESTAMP GT ISZERO JUMPDEST PUSH2 0xA2B JUMPI PUSH1 0x40 MLOAD PUSH32 0x8C379A000000000000000000000000000000000000000000000000000000000 DUP2 MSTORE PUSH1 0x4 ADD PUSH2 0xA22 SWAP1 PUSH2 0x2E48 JUMP JUMPDEST PUSH1 0x40 MLOAD DUP1 SWAP2 SUB SWAP1 REVERT JUMPDEST PUSH0 PUSH1 0xF PUSH0 CALLER PUSH20 0xFFFFFFFFFFFFFFFFFFFFFFFFFFFFFFFFFFFFFFFF AND PUSH20 0xFFFFFFFFFFFFFFFFFFFFFFFFFFFFFFFFFFFFFFFF AND DUP2 MSTORE PUSH1 0x20 ADD SWAP1 DUP2 MSTORE PUSH1 0x20 ADD PUSH0 KECCAK256 SWAP1 POP PUSH0 PUSH0 SHL DUP2 PUSH0 ADD SLOAD SUB PUSH2 0xAB2 JUMPI PUSH1 0x40 MLOAD PUSH32 0x8C379A000000000000000000000000000000000000000000000000000000000 DUP2 MSTORE PUSH1 0x4 ADD PUSH2 0xAA9 SWAP1 PUSH2 0x2EB0 JUMP JUMPDEST PUSH1 0x40 MLOAD DUP1 SWAP2 SUB SWAP1 REVERT JUMPDEST DUP1 PUSH1 0x2 ADD PUSH0 SWAP1 SLOAD SWAP1 PUSH2 0x100 EXP SWAP1 DIV PUSH1 0xFF AND ISZERO PUSH2 0xB03 JUMPI PUSH1 0x40 MLOAD PUSH32 0x8C379A000000000000000000000000000000000000000000000000000000000 DUP2 MSTORE PUSH1 0x4 ADD PUSH2 0xAFA SWAP1 PUSH2 0x2F18 JUMP JUMPDEST PUSH1 0x40 MLOAD DUP1 SWAP2 SUB SWAP1 REVERT JUMPDEST DUP3 DUP3 PUSH1 0x40 MLOAD PUSH1 0x20 ADD PUSH2 0xB16 SWAP3 SWAP2 SWAP1 PUSH2 0x2F90 JUMP JUMPDEST PUSH1 0x40 MLOAD PUSH1 0x20 DUP2 DUP4 SUB SUB DUP2 MSTORE SWAP1 PUSH1 0x40 MSTORE DUP1 MLOAD SWAP1 PUSH1 0x20 ADD KECCAK256 DUP2 PUSH0 ADD SLOAD SUB PUSH2 0xB89 JUMPI PUSH1 0xE SLOAD DUP4 GT ISZERO PUSH2 0xB88 JUMPI DUP3 PUSH1 0xE DUP2 SWAP1 SSTORE POP CALLER PUSH1 0xD PUSH1 0x1 PUSH2 0x100 EXP DUP2 SLOAD DUP2 PUSH20 0xFFFFFFFFFFFFFFFFFFFFFFFFFFFFFFFFFFFFFFFF MUL NOT AND SWAP1 DUP4 PUSH20 0xFFFFFFFFFFFFFFFFFFFFFFFFFFFFFFFFFFFFFFFF AND MUL OR SWAP1 SSTORE POP JUMPDEST JUMPDEST PUSH1 0x1 DUP2 PUSH1 0x2 ADD PUSH0 PUSH2 0x100 EXP DUP2 SLOAD DUP2 PUSH1 0xFF MUL NOT AND SWAP1 DUP4 ISZERO ISZERO MUL OR SWAP1 SSTORE POP POP POP POP JUMP JUMPDEST PUSH0 PUSH20 0xFFFFFFFFFFFFFFFFFFFFFFFFFFFFFFFFFFFFFFFF AND DUP3 PUSH20 0xFFFFFFFFFFFFFFFFFFFFFFFFFFFFFFFFFFFFFFFF AND SUB PUSH2 0xC1A JUMPI PUSH0 PUSH1 0x40 MLOAD PUSH32 0x64A0AE9200000000000000000000000000000000000000000000000000000000 DUP2 MSTORE PUSH1 0x4 ADD PUSH2 0xC11 SWAP2 SWAP1 PUSH2 0x26AE JUMP JUMPDEST PUSH1 0x40 MLOAD DUP1 SWAP2 SUB SWAP1 REVERT JUMPDEST PUSH0 PUSH2 0xC2D DUP4 DUP4 PUSH2 0xC28 PUSH2 0x160A JUMP JUMPDEST PUSH2 0x1623 JUMP JUMPDEST SWAP1 POP DUP4 PUSH20 0xFFFFFFFFFFFFFFFFFFFFFFFFFFFFFFFFFFFFFFFF AND DUP2 PUSH20 0xFFFFFFFFFFFFFFFFFFFFFFFFFFFFFFFFFFFFFFFF AND EQ PUSH2 0xCA3 JUMPI DUP4 DUP3 DUP3 PUSH1 0x40 MLOAD PUSH32 0x64283D7B00000000000000000000000000000000000000000000000000000000 DUP2 MSTORE PUSH1 0x4 ADD PUSH2 0xC9A SWAP4 SWAP3 SWAP2 SWAP1 PUSH2 0x2FB7 JUMP JUMPDEST PUSH1 0x40 MLOAD DUP1 SWAP2 SUB SWAP1 REVERT JUMPDEST POP POP POP POP JUMP JUMPDEST PUSH1 0x60 PUSH1 0x9 SLOAD TIMESTAMP LT ISZERO PUSH2 0xCF2 JUMPI PUSH1 0x40 MLOAD DUP1 PUSH1 0x40 ADD PUSH1 0x40 MSTORE DUP1 PUSH1 0xA DUP2 MSTORE PUSH1 0x20 ADD PUSH32 0x4E6F745374617274656400000000000000000000000000000000000000000000 DUP2 MSTORE POP SWAP1 POP PUSH2 0xDB7 JUMP JUMPDEST PUSH1 0xA SLOAD TIMESTAMP GT PUSH2 0xD38 JUMPI PUSH1 0x40 MLOAD DUP1 PUSH1 0x40 ADD PUSH1 0x40 MSTORE DUP1 PUSH1 0x7 DUP2 MSTORE PUSH1 0x20 ADD PUSH32 0x42696464696E6700000000000000000000000000000000000000000000000000 DUP2 MSTORE POP SWAP1 POP PUSH2 0xDB7 JUMP JUMPDEST PUSH1 0xB SLOAD TIMESTAMP GT PUSH2 0xD7E JUMPI PUSH1 0x40 MLOAD DUP1 PUSH1 0x40 ADD PUSH1 0x40 MSTORE DUP1 PUSH1 0x6 DUP2 MSTORE PUSH1 0x20 ADD PUSH32 0x52657665616C0000000000000000000000000000000000000000000000000000 DUP2 MSTORE POP SWAP1 POP PUSH2 0xDB7 JUMP JUMPDEST PUSH1 0x40 MLOAD DUP1 PUSH1 0x40 ADD PUSH1 0x40 MSTORE DUP1 PUSH1 0x5 DUP2 MSTORE PUSH1 0x20 ADD PUSH32 0x456E646564000000000000000000000000000000000000000000000000000000 DUP2 MSTORE POP SWAP1 POP JUMPDEST SWAP1 JUMP JUMPDEST PUSH1 0xA SLOAD DUP2 JUMP JUMPDEST PUSH2 0xDDA DUP4 DUP4 DUP4 PUSH1 0x40 MLOAD DUP1 PUSH1 0x20 ADD PUSH1 0x40 MSTORE DUP1 PUSH0 DUP2 MSTORE POP PUSH2 0x1070 JUMP JUMPDEST POP POP POP JUMP JUMPDEST PUSH2 0xDE7 PUSH2 0x182E JUMP JUMPDEST PUSH1 0xB SLOAD TIMESTAMP GT PUSH2 0xE2B JUMPI PUSH1 0x40 MLOAD PUSH32 0x8C379A000000000000000000000000000000000000000000000000000000000 DUP2 MSTORE PUSH1 0x4 ADD PUSH2 0xE22 SWAP1 PUSH2 0x3036 JUMP JUMPDEST PUSH1 0x40 MLOAD DUP1 SWAP2 SUB SWAP1 REVERT JUMPDEST PUSH2 0xE33 PUSH2 0xF9C JUMP JUMPDEST PUSH20 0xFFFFFFFFFFFFFFFFFFFFFFFFFFFFFFFFFFFFFFFF AND PUSH2 0x8FC SELFBALANCE SWAP1 DUP2 ISZERO MUL SWAP1 PUSH1 0x40 MLOAD PUSH0 PUSH1 0x40 MLOAD DUP1 DUP4 SUB DUP2 DUP6 DUP9 DUP9 CALL SWAP4 POP POP POP POP ISZERO DUP1 ISZERO PUSH2 0xE75 JUMPI RETURNDATASIZE PUSH0 PUSH0 RETURNDATACOPY RETURNDATASIZE PUSH0 REVERT JUMPDEST POP JUMP JUMPDEST PUSH1 0xF PUSH1 0x20 MSTORE DUP1 PUSH0 MSTORE PUSH1 0x40 PUSH0 KECCAK256 PUSH0 SWAP2 POP SWAP1 POP DUP1 PUSH0 ADD SLOAD SWAP1 DUP1 PUSH1 0x1 ADD SLOAD SWAP1 DUP1 PUSH1 0x2 ADD PUSH0 SWAP1 SLOAD SWAP1 PUSH2 0x100 EXP SWAP1 DIV PUSH1 0xFF AND SWAP1 POP DUP4 JUMP JUMPDEST PUSH0 PUSH2 0xEB4 DUP3 PUSH2 0x154B JUMP JUMPDEST SWAP1 POP SWAP2 SWAP1 POP JUMP JUMPDEST PUSH0 PUSH0 PUSH20 0xFFFFFFFFFFFFFFFFFFFFFFFFFFFFFFFFFFFFFFFF AND DUP3 PUSH20 0xFFFFFFFFFFFFFFFFFFFFFFFFFFFFFFFFFFFFFFFF AND SUB PUSH2 0xF2C JUMPI PUSH0 PUSH1 0x40 MLOAD PUSH32 0x89C62B6400000000000000000000000000000000000000000000000000000000 DUP2 MSTORE PUSH1 0x4 ADD PUSH2 0xF23 SWAP2 SWAP1 PUSH2 0x26AE JUMP JUMPDEST PUSH1 0x40 MLOAD DUP1 SWAP2 SUB SWAP1 REVERT JUMPDEST PUSH1 0x3 PUSH0 DUP4 PUSH20 0xFFFFFFFFFFFFFFFFFFFFFFFFFFFFFFFFFFFFFFFF AND PUSH20 0xFFFFFFFFFFFFFFFFFFFFFFFFFFFFFFFFFFFFFFFF AND DUP2 MSTORE PUSH1 0x20 ADD SWAP1 DUP2 MSTORE PUSH1 0x20 ADD PUSH0 KECCAK256 SLOAD SWAP1 POP SWAP2 SWAP1 POP JUMP JUMPDEST PUSH2 0xF79 PUSH2 0x182E JUMP JUMPDEST PUSH2 0xF82 PUSH0 PUSH2 0x18B5 JUMP JUMPDEST JUMP JUMPDEST PUSH1 0xC SLOAD DUP2 JUMP JUMPDEST PUSH1 0xD PUSH0 SWAP1 SLOAD SWAP1 PUSH2 0x100 EXP SWAP1 DIV PUSH1 0xFF AND DUP2 JUMP JUMPDEST PUSH0 PUSH1 0x7 PUSH0 SWAP1 SLOAD SWAP1 PUSH2 0x100 EXP SWAP1 DIV PUSH20 0xFFFFFFFFFFFFFFFFFFFFFFFFFFFFFFFFFFFFFFFF AND SWAP1 POP SWAP1 JUMP JUMPDEST PUSH1 0x60 PUSH1 0x1 DUP1 SLOAD PUSH2 0xFD3 SWAP1 PUSH2 0x2C96 JUMP JUMPDEST DUP1 PUSH1 0x1F ADD PUSH1 0x20 DUP1 SWAP2 DIV MUL PUSH1 0x20 ADD PUSH1 0x40 MLOAD SWAP1 DUP2 ADD PUSH1 0x40 MSTORE DUP1 SWAP3 SWAP2 SWAP1 DUP2 DUP2 MSTORE PUSH1 0x20 ADD DUP3 DUP1 SLOAD PUSH2 0xFFF SWAP1 PUSH2 0x2C96 JUMP JUMPDEST DUP1 ISZERO PUSH2 0x104A JUMPI DUP1 PUSH1 0x1F LT PUSH2 0x1021 JUMPI PUSH2 0x100 DUP1 DUP4 SLOAD DIV MUL DUP4 MSTORE SWAP2 PUSH1 0x20 ADD SWAP2 PUSH2 0x104A JUMP JUMPDEST DUP3 ADD SWAP2 SWAP1 PUSH0 MSTORE PUSH1 0x20 PUSH0 KECCAK256 SWAP1 JUMPDEST DUP2 SLOAD DUP2 MSTORE SWAP1 PUSH1 0x1 ADD SWAP1 PUSH1 0x20 ADD DUP1 DUP4 GT PUSH2 0x102D JUMPI DUP3 SWAP1 SUB PUSH1 0x1F AND DUP3 ADD SWAP2 JUMPDEST POP POP POP POP POP SWAP1 POP SWAP1 JUMP JUMPDEST PUSH2 0x1066 PUSH2 0x105F PUSH2 0x160A JUMP JUMPDEST DUP4 DUP4 PUSH2 0x1978 JUMP JUMPDEST POP POP JUMP JUMPDEST PUSH1 0xB SLOAD DUP2 JUMP JUMPDEST PUSH2 0x107B DUP5 DUP5 DUP5 PUSH2 0xBAA JUMP JUMPDEST PUSH2 0x108F PUSH2 0x1086 PUSH2 0x160A JUMP JUMPDEST DUP6 DUP6 DUP6 DUP6 PUSH2 0x1AE1 JUMP JUMPDEST POP POP POP POP JUMP JUMPDEST PUSH1 0x60 PUSH2 0x10A0 DUP3 PUSH2 0x154B JUMP JUMPDEST POP PUSH0 PUSH1 0x6 PUSH0 DUP5 DUP2 MSTORE PUSH1 0x20 ADD SWAP1 DUP2 MSTORE PUSH1 0x20 ADD PUSH0 KECCAK256 DUP1 SLOAD PUSH2 0x10BE SWAP1 PUSH2 0x2C96 JUMP JUMPDEST DUP1 PUSH1 0x1F ADD PUSH1 0x20 DUP1 SWAP2 DIV MUL PUSH1 0x20 ADD PUSH1 0x40 MLOAD SWAP1 DUP2 ADD PUSH1 0x40 MSTORE DUP1 SWAP3 SWAP2 SWAP1 DUP2 DUP2 MSTORE PUSH1 0x20 ADD DUP3 DUP1 SLOAD PUSH2 0x10EA SWAP1 PUSH2 0x2C96 JUMP JUMPDEST DUP1 ISZERO PUSH2 0x1135 JUMPI DUP1 PUSH1 0x1F LT PUSH2 0x110C JUMPI PUSH2 0x100 DUP1 DUP4 SLOAD DIV MUL DUP4 MSTORE SWAP2 PUSH1 0x20 ADD SWAP2 PUSH2 0x1135 JUMP JUMPDEST DUP3 ADD SWAP2 SWAP1 PUSH0 MSTORE PUSH1 0x20 PUSH0 KECCAK256 SWAP1 JUMPDEST DUP2 SLOAD DUP2 MSTORE SWAP1 PUSH1 0x1 ADD SWAP1 PUSH1 0x20 ADD DUP1 DUP4 GT PUSH2 0x1118 JUMPI DUP3 SWAP1 SUB PUSH1 0x1F AND DUP3 ADD SWAP2 JUMPDEST POP POP POP POP POP SWAP1 POP PUSH0 PUSH2 0x1145 PUSH2 0x1C8D JUMP JUMPDEST SWAP1 POP PUSH0 DUP2 MLOAD SUB PUSH2 0x1159 JUMPI DUP2 SWAP3 POP POP POP PUSH2 0x119B JUMP JUMPDEST PUSH0 DUP3 MLOAD GT ISZERO PUSH2 0x118D JUMPI DUP1 DUP3 PUSH1 0x40 MLOAD PUSH1 0x20 ADD PUSH2 0x1175 SWAP3 SWAP2 SWAP1 PUSH2 0x3054 JUMP JUMPDEST PUSH1 0x40 MLOAD PUSH1 0x20 DUP2 DUP4 SUB SUB DUP2 MSTORE SWAP1 PUSH1 0x40 MSTORE SWAP3 POP POP POP PUSH2 0x119B JUMP JUMPDEST PUSH2 0x1196 DUP5 PUSH2 0x1CA3 JUMP JUMPDEST SWAP3 POP POP POP JUMPDEST SWAP2 SWAP1 POP JUMP JUMPDEST PUSH1 0xE SLOAD DUP2 JUMP JUMPDEST PUSH1 0xD PUSH1 0x1 SWAP1 SLOAD SWAP1 PUSH2 0x100 EXP SWAP1 DIV PUSH20 0xFFFFFFFFFFFFFFFFFFFFFFFFFFFFFFFFFFFFFFFF AND DUP2 JUMP JUMPDEST PUSH0 PUSH1 0x5 PUSH0 DUP5 PUSH20 0xFFFFFFFFFFFFFFFFFFFFFFFFFFFFFFFFFFFFFFFF AND PUSH20 0xFFFFFFFFFFFFFFFFFFFFFFFFFFFFFFFFFFFFFFFF AND DUP2 MSTORE PUSH1 0x20 ADD SWAP1 DUP2 MSTORE PUSH1 0x20 ADD PUSH0 KECCAK256 PUSH0 DUP4 PUSH20 0xFFFFFFFFFFFFFFFFFFFFFFFFFFFFFFFFFFFFFFFF AND PUSH20 0xFFFFFFFFFFFFFFFFFFFFFFFFFFFFFFFFFFFFFFFF AND DUP2 MSTORE PUSH1 0x20 ADD SWAP1 DUP2 MSTORE PUSH1 0x20 ADD PUSH0 KECCAK256 PUSH0 SWAP1 SLOAD SWAP1 PUSH2 0x100 EXP SWAP1 DIV PUSH1 0xFF AND SWAP1 POP SWAP3 SWAP2 POP POP JUMP JUMPDEST PUSH2 0x1262 PUSH2 0x182E JUMP JUMPDEST PUSH0 PUSH20 0xFFFFFFFFFFFFFFFFFFFFFFFFFFFFFFFFFFFFFFFF AND DUP2 PUSH20 0xFFFFFFFFFFFFFFFFFFFFFFFFFFFFFFFFFFFFFFFF AND SUB PUSH2 0x12D2 JUMPI PUSH0 PUSH1 0x40 MLOAD PUSH32 0x1E4FBDF700000000000000000000000000000000000000000000000000000000 DUP2 MSTORE PUSH1 0x4 ADD PUSH2 0x12C9 SWAP2 SWAP1 PUSH2 0x26AE JUMP JUMPDEST PUSH1 0x40 MLOAD DUP1 SWAP2 SUB SWAP1 REVERT JUMPDEST PUSH2 0x12DB DUP2 PUSH2 0x18B5 JUMP JUMPDEST POP JUMP JUMPDEST PUSH1 0xB SLOAD TIMESTAMP GT PUSH2 0x1322 JUMPI PUSH1 0x40 MLOAD PUSH32 0x8C379A000000000000000000000000000000000000000000000000000000000 DUP2 MSTORE PUSH1 0x4 ADD PUSH2 0x1319 SWAP1 PUSH2 0x3036 JUMP JUMPDEST PUSH1 0x40 MLOAD DUP1 SWAP2 SUB SWAP1 REVERT JUMPDEST PUSH1 0x3 DUP1 DUP2 GT ISZERO PUSH2 0x1335 JUMPI PUSH2 0x1334 PUSH2 0x29D2 JUMP JUMPDEST JUMPDEST PUSH1 0xD PUSH0 SWAP1 SLOAD SWAP1 PUSH2 0x100 EXP SWAP1 DIV PUSH1 0xFF AND PUSH1 0x3 DUP2 GT ISZERO PUSH2 0x1356 JUMPI PUSH2 0x1355 PUSH2 0x29D2 JUMP JUMPDEST JUMPDEST SUB PUSH2 0x1396 JUMPI PUSH1 0x40 MLOAD PUSH32 0x8C379A000000000000000000000000000000000000000000000000000000000 DUP2 MSTORE PUSH1 0x4 ADD PUSH2 0x138D SWAP1 PUSH2 0x30C1 JUMP JUMPDEST PUSH1 0x40 MLOAD DUP1 SWAP2 SUB SWAP1 REVERT JUMPDEST PUSH1 0x3 PUSH1 0xD PUSH0 PUSH2 0x100 EXP DUP2 SLOAD DUP2 PUSH1 0xFF MUL NOT AND SWAP1 DUP4 PUSH1 0x3 DUP2 GT ISZERO PUSH2 0x13BB JUMPI PUSH2 0x13BA PUSH2 0x29D2 JUMP JUMPDEST JUMPDEST MUL OR SWAP1 SSTORE POP PUSH0 PUSH20 0xFFFFFFFFFFFFFFFFFFFFFFFFFFFFFFFFFFFFFFFF AND PUSH1 0xD PUSH1 0x1 SWAP1 SLOAD SWAP1 PUSH2 0x100 EXP SWAP1 DIV PUSH20 0xFFFFFFFFFFFFFFFFFFFFFFFFFFFFFFFFFFFFFFFF AND PUSH20 0xFFFFFFFFFFFFFFFFFFFFFFFFFFFFFFFFFFFFFFFF AND EQ PUSH2 0x1467 JUMPI PUSH1 0xC PUSH0 DUP2 SLOAD DUP1 SWAP3 SWAP2 SWAP1 PUSH2 0x1427 SWAP1 PUSH2 0x310C JUMP JUMPDEST SWAP2 SWAP1 POP SSTORE POP PUSH2 0x145A PUSH1 0xD PUSH1 0x1 SWAP1 SLOAD SWAP1 PUSH2 0x100 EXP SWAP1 DIV PUSH20 0xFFFFFFFFFFFFFFFFFFFFFFFFFFFFFFFFFFFFFFFF AND PUSH1 0xC SLOAD PUSH2 0x1D09 JUMP JUMPDEST PUSH2 0x1466 PUSH1 0xC SLOAD DUP3 PUSH2 0x1D26 JUMP JUMPDEST JUMPDEST POP JUMP JUMPDEST PUSH0 PUSH32 0x80AC58CD00000000000000000000000000000000000000000000000000000000 PUSH28 0xFFFFFFFFFFFFFFFFFFFFFFFFFFFFFFFFFFFFFFFFFFFFFFFFFFFFFFFF NOT AND DUP3 PUSH28 0xFFFFFFFFFFFFFFFFFFFFFFFFFFFFFFFFFFFFFFFFFFFFFFFFFFFFFFFF NOT AND EQ DUP1 PUSH2 0x1534 JUMPI POP PUSH32 0x5B5E139F00000000000000000000000000000000000000000000000000000000 PUSH28 0xFFFFFFFFFFFFFFFFFFFFFFFFFFFFFFFFFFFFFFFFFFFFFFFFFFFFFFFF NOT AND DUP3 PUSH28 0xFFFFFFFFFFFFFFFFFFFFFFFFFFFFFFFFFFFFFFFFFFFFFFFFFFFFFFFF NOT AND EQ JUMPDEST DUP1 PUSH2 0x1544 JUMPI POP PUSH2 0x1543 DUP3 PUSH2 0x1D80 JUMP JUMPDEST JUMPDEST SWAP1 POP SWAP2 SWAP1 POP JUMP JUMPDEST PUSH0 PUSH0 PUSH2 0x1556 DUP4 PUSH2 0x1DE9 JUMP JUMPDEST SWAP1 POP PUSH0 PUSH20 0xFFFFFFFFFFFFFFFFFFFFFFFFFFFFFFFFFFFFFFFF AND DUP2 PUSH20 0xFFFFFFFFFFFFFFFFFFFFFFFFFFFFFFFFFFFFFFFF AND SUB PUSH2 0x15C8 JUMPI DUP3 PUSH1 0x40 MLOAD PUSH32 0x7E27328900000000000000000000000000000000000000000000000000000000 DUP2 MSTORE PUSH1 0x4 ADD PUSH2 0x15BF SWAP2 SWAP1 PUSH2 0x2571 JUMP JUMPDEST PUSH1 0x40 MLOAD DUP1 SWAP2 SUB SWAP1 REVERT JUMPDEST DUP1 SWAP2 POP POP SWAP2 SWAP1 POP JUMP JUMPDEST PUSH0 PUSH1 0x4 PUSH0 DUP4 DUP2 MSTORE PUSH1 0x20 ADD SWAP1 DUP2 MSTORE PUSH1 0x20 ADD PUSH0 KECCAK256 PUSH0 SWAP1 SLOAD SWAP1 PUSH2 0x100 EXP SWAP1 DIV PUSH20 0xFFFFFFFFFFFFFFFFFFFFFFFFFFFFFFFFFFFFFFFF AND SWAP1 POP SWAP2 SWAP1 POP JUMP JUMPDEST PUSH0 CALLER SWAP1 POP SWAP1 JUMP JUMPDEST PUSH2 0x161E DUP4 DUP4 DUP4 PUSH1 0x1 PUSH2 0x1E22 JUMP JUMPDEST POP POP POP JUMP JUMPDEST PUSH0 PUSH0 PUSH2 0x162E DUP5 PUSH2 0x1DE9 JUMP JUMPDEST SWAP1 POP PUSH0 PUSH20 0xFFFFFFFFFFFFFFFFFFFFFFFFFFFFFFFFFFFFFFFF AND DUP4 PUSH20 0xFFFFFFFFFFFFFFFFFFFFFFFFFFFFFFFFFFFFFFFF AND EQ PUSH2 0x166F JUMPI PUSH2 0x166E DUP2 DUP5 DUP7 PUSH2 0x1FE1 JUMP JUMPDEST JUMPDEST PUSH0 PUSH20 0xFFFFFFFFFFFFFFFFFFFFFFFFFFFFFFFFFFFFFFFF AND DUP2 PUSH20 0xFFFFFFFFFFFFFFFFFFFFFFFFFFFFFFFFFFFFFFFF AND EQ PUSH2 0x16FA JUMPI PUSH2 0x16AE PUSH0 DUP6 PUSH0 PUSH0 PUSH2 0x1E22 JUMP JUMPDEST PUSH1 0x1 PUSH1 0x3 PUSH0 DUP4 PUSH20 0xFFFFFFFFFFFFFFFFFFFFFFFFFFFFFFFFFFFFFFFF AND PUSH20 0xFFFFFFFFFFFFFFFFFFFFFFFFFFFFFFFFFFFFFFFF AND DUP2 MSTORE PUSH1 0x20 ADD SWAP1 DUP2 MSTORE PUSH1 0x20 ADD PUSH0 KECCAK256 PUSH0 DUP3 DUP3 SLOAD SUB SWAP3 POP POP DUP2 SWAP1 SSTORE POP JUMPDEST PUSH0 PUSH20 0xFFFFFFFFFFFFFFFFFFFFFFFFFFFFFFFFFFFFFFFF AND DUP6 PUSH20 0xFFFFFFFFFFFFFFFFFFFFFFFFFFFFFFFFFFFFFFFF AND EQ PUSH2 0x1779 JUMPI PUSH1 0x1 PUSH1 0x3 PUSH0 DUP8 PUSH20 0xFFFFFFFFFFFFFFFFFFFFFFFFFFFFFFFFFFFFFFFF AND PUSH20 0xFFFFFFFFFFFFFFFFFFFFFFFFFFFFFFFFFFFFFFFF AND DUP2 MSTORE PUSH1 0x20 ADD SWAP1 DUP2 MSTORE PUSH1 0x20 ADD PUSH0 KECCAK256 PUSH0 DUP3 DUP3 SLOAD ADD SWAP3 POP POP DUP2 SWAP1 SSTORE POP JUMPDEST DUP5 PUSH1 0x2 PUSH0 DUP7 DUP2 MSTORE PUSH1 0x20 ADD SWAP1 DUP2 MSTORE PUSH1 0x20 ADD PUSH0 KECCAK256 PUSH0 PUSH2 0x100 EXP DUP2 SLOAD DUP2 PUSH20 0xFFFFFFFFFFFFFFFFFFFFFFFFFFFFFFFFFFFFFFFF MUL NOT AND SWAP1 DUP4 PUSH20 0xFFFFFFFFFFFFFFFFFFFFFFFFFFFFFFFFFFFFFFFF AND MUL OR SWAP1 SSTORE POP DUP4 DUP6 PUSH20 0xFFFFFFFFFFFFFFFFFFFFFFFFFFFFFFFFFFFFFFFF AND DUP3 PUSH20 0xFFFFFFFFFFFFFFFFFFFFFFFFFFFFFFFFFFFFFFFF AND PUSH32 0xDDF252AD1BE2C89B69C2B068FC378DAA952BA7F163C4A11628F55A4DF523B3EF PUSH1 0x40 MLOAD PUSH1 0x40 MLOAD DUP1 SWAP2 SUB SWAP1 LOG4 DUP1 SWAP2 POP POP SWAP4 SWAP3 POP POP POP JUMP JUMPDEST PUSH2 0x1836 PUSH2 0x160A JUMP JUMPDEST PUSH20 0xFFFFFFFFFFFFFFFFFFFFFFFFFFFFFFFFFFFFFFFF AND PUSH2 0x1854 PUSH2 0xF9C JUMP JUMPDEST PUSH20 0xFFFFFFFFFFFFFFFFFFFFFFFFFFFFFFFFFFFFFFFF AND EQ PUSH2 0x18B3 JUMPI PUSH2 0x1877 PUSH2 0x160A JUMP JUMPDEST PUSH1 0x40 MLOAD PUSH32 0x118CDAA700000000000000000000000000000000000000000000000000000000 DUP2 MSTORE PUSH1 0x4 ADD PUSH2 0x18AA SWAP2 SWAP1 PUSH2 0x26AE JUMP JUMPDEST PUSH1 0x40 MLOAD DUP1 SWAP2 SUB SWAP1 REVERT JUMPDEST JUMP JUMPDEST PUSH0 PUSH1 0x7 PUSH0 SWAP1 SLOAD SWAP1 PUSH2 0x100 EXP SWAP1 DIV PUSH20 0xFFFFFFFFFFFFFFFFFFFFFFFFFFFFFFFFFFFFFFFF AND SWAP1 POP DUP2 PUSH1 0x7 PUSH0 PUSH2 0x100 EXP DUP2 SLOAD DUP2 PUSH20 0xFFFFFFFFFFFFFFFFFFFFFFFFFFFFFFFFFFFFFFFF MUL NOT AND SWAP1 DUP4 PUSH20 0xFFFFFFFFFFFFFFFFFFFFFFFFFFFFFFFFFFFFFFFF AND MUL OR SWAP1 SSTORE POP DUP2 PUSH20 0xFFFFFFFFFFFFFFFFFFFFFFFFFFFFFFFFFFFFFFFF AND DUP2 PUSH20 0xFFFFFFFFFFFFFFFFFFFFFFFFFFFFFFFFFFFFFFFF AND PUSH32 0x8BE0079C531659141344CD1FD0A4F28419497F9722A3DAAFE3B4186F6B6457E0 PUSH1 0x40 MLOAD PUSH1 0x40 MLOAD DUP1 SWAP2 SUB SWAP1 LOG3 POP POP JUMP JUMPDEST PUSH0 PUSH20 0xFFFFFFFFFFFFFFFFFFFFFFFFFFFFFFFFFFFFFFFF AND DUP3 PUSH20 0xFFFFFFFFFFFFFFFFFFFFFFFFFFFFFFFFFFFFFFFF AND SUB PUSH2 0x19E8 JUMPI DUP2 PUSH1 0x40 MLOAD PUSH32 0x5B08BA1800000000000000000000000000000000000000000000000000000000 DUP2 MSTORE PUSH1 0x4 ADD PUSH2 0x19DF SWAP2 SWAP1 PUSH2 0x26AE JUMP JUMPDEST PUSH1 0x40 MLOAD DUP1 SWAP2 SUB SWAP1 REVERT JUMPDEST DUP1 PUSH1 0x5 PUSH0 DUP6 PUSH20 0xFFFFFFFFFFFFFFFFFFFFFFFFFFFFFFFFFFFFFFFF AND PUSH20 0xFFFFFFFFFFFFFFFFFFFFFFFFFFFFFFFFFFFFFFFF AND DUP2 MSTORE PUSH1 0x20 ADD SWAP1 DUP2 MSTORE PUSH1 0x20 ADD PUSH0 KECCAK256 PUSH0 DUP5 PUSH20 0xFFFFFFFFFFFFFFFFFFFFFFFFFFFFFFFFFFFFFFFF AND PUSH20 0xFFFFFFFFFFFFFFFFFFFFFFFFFFFFFFFFFFFFFFFF AND DUP2 MSTORE PUSH1 0x20 ADD SWAP1 DUP2 MSTORE PUSH1 0x20 ADD PUSH0 KECCAK256 PUSH0 PUSH2 0x100 EXP DUP2 SLOAD DUP2 PUSH1 0xFF MUL NOT AND SWAP1 DUP4 ISZERO ISZERO MUL OR SWAP1 SSTORE POP DUP2 PUSH20 0xFFFFFFFFFFFFFFFFFFFFFFFFFFFFFFFFFFFFFFFF AND DUP4 PUSH20 0xFFFFFFFFFFFFFFFFFFFFFFFFFFFFFFFFFFFFFFFF AND PUSH32 0x17307EAB39AB6107E8899845AD3D59BD9653F200F220920489CA2B5937696C31 DUP4 PUSH1 0x40 MLOAD PUSH2 0x1AD4 SWAP2 SWAP1 PUSH2 0x2540 JUMP JUMPDEST PUSH1 0x40 MLOAD DUP1 SWAP2 SUB SWAP1 LOG3 POP POP POP JUMP JUMPDEST PUSH0 DUP4 PUSH20 0xFFFFFFFFFFFFFFFFFFFFFFFFFFFFFFFFFFFFFFFF AND EXTCODESIZE GT ISZERO PUSH2 0x1C86 JUMPI DUP3 PUSH20 0xFFFFFFFFFFFFFFFFFFFFFFFFFFFFFFFFFFFFFFFF AND PUSH4 0x150B7A02 DUP7 DUP7 DUP6 DUP6 PUSH1 0x40 MLOAD DUP6 PUSH4 0xFFFFFFFF AND PUSH1 0xE0 SHL DUP2 MSTORE PUSH1 0x4 ADD PUSH2 0x1B3F SWAP5 SWAP4 SWAP3 SWAP2 SWAP1 PUSH2 0x31A5 JUMP JUMPDEST PUSH1 0x20 PUSH1 0x40 MLOAD DUP1 DUP4 SUB DUP2 PUSH0 DUP8 GAS CALL SWAP3 POP POP POP DUP1 ISZERO PUSH2 0x1B7A JUMPI POP PUSH1 0x40 MLOAD RETURNDATASIZE PUSH1 0x1F NOT PUSH1 0x1F DUP3 ADD AND DUP3 ADD DUP1 PUSH1 0x40 MSTORE POP DUP2 ADD SWAP1 PUSH2 0x1B77 SWAP2 SWAP1 PUSH2 0x3203 JUMP JUMPDEST PUSH1 0x1 JUMPDEST PUSH2 0x1BFB JUMPI RETURNDATASIZE DUP1 PUSH0 DUP2 EQ PUSH2 0x1BA8 JUMPI PUSH1 0x40 MLOAD SWAP2 POP PUSH1 0x1F NOT PUSH1 0x3F RETURNDATASIZE ADD AND DUP3 ADD PUSH1 0x40 MSTORE RETURNDATASIZE DUP3 MSTORE RETURNDATASIZE PUSH0 PUSH1 0x20 DUP5 ADD RETURNDATACOPY PUSH2 0x1BAD JUMP JUMPDEST PUSH1 0x60 SWAP2 POP JUMPDEST POP PUSH0 DUP2 MLOAD SUB PUSH2 0x1BF3 JUMPI DUP4 PUSH1 0x40 MLOAD PUSH32 0x64A0AE9200000000000000000000000000000000000000000000000000000000 DUP2 MSTORE PUSH1 0x4 ADD PUSH2 0x1BEA SWAP2 SWAP1 PUSH2 0x26AE JUMP JUMPDEST PUSH1 0x40 MLOAD DUP1 SWAP2 SUB SWAP1 REVERT JUMPDEST DUP1 MLOAD DUP2 PUSH1 0x20 ADD REVERT JUMPDEST PUSH4 0x150B7A02 PUSH1 0xE0 SHL PUSH28 0xFFFFFFFFFFFFFFFFFFFFFFFFFFFFFFFFFFFFFFFFFFFFFFFFFFFFFFFF NOT AND DUP2 PUSH28 0xFFFFFFFFFFFFFFFFFFFFFFFFFFFFFFFFFFFFFFFFFFFFFFFFFFFFFFFF NOT AND EQ PUSH2 0x1C84 JUMPI DUP4 PUSH1 0x40 MLOAD PUSH32 0x64A0AE9200000000000000000000000000000000000000000000000000000000 DUP2 MSTORE PUSH1 0x4 ADD PUSH2 0x1C7B SWAP2 SWAP1 PUSH2 0x26AE JUMP JUMPDEST PUSH1 0x40 MLOAD DUP1 SWAP2 SUB SWAP1 REVERT JUMPDEST POP JUMPDEST POP POP POP POP POP JUMP JUMPDEST PUSH1 0x60 PUSH1 0x40 MLOAD DUP1 PUSH1 0x20 ADD PUSH1 0x40 MSTORE DUP1 PUSH0 DUP2 MSTORE POP SWAP1 POP SWAP1 JUMP JUMPDEST PUSH1 0x60 PUSH2 0x1CAE DUP3 PUSH2 0x154B JUMP JUMPDEST POP PUSH0 PUSH2 0x1CB8 PUSH2 0x1C8D JUMP JUMPDEST SWAP1 POP PUSH0 DUP2 MLOAD GT PUSH2 0x1CD6 JUMPI PUSH1 0x40 MLOAD DUP1 PUSH1 0x20 ADD PUSH1 0x40 MSTORE DUP1 PUSH0 DUP2 MSTORE POP PUSH2 0x1D01 JUMP JUMPDEST DUP1 PUSH2 0x1CE0 DUP5 PUSH2 0x20A4 JUMP JUMPDEST PUSH1 0x40 MLOAD PUSH1 0x20 ADD PUSH2 0x1CF1 SWAP3 SWAP2 SWAP1 PUSH2 0x3054 JUMP JUMPDEST PUSH1 0x40 MLOAD PUSH1 0x20 DUP2 DUP4 SUB SUB DUP2 MSTORE SWAP1 PUSH1 0x40 MSTORE JUMPDEST SWAP2 POP POP SWAP2 SWAP1 POP JUMP JUMPDEST PUSH2 0x1D22 DUP3 DUP3 PUSH1 0x40 MLOAD DUP1 PUSH1 0x20 ADD PUSH1 0x40 MSTORE DUP1 PUSH0 DUP2 MSTORE POP PUSH2 0x216E JUMP JUMPDEST POP POP JUMP JUMPDEST DUP1 PUSH1 0x6 PUSH0 DUP5 DUP2 MSTORE PUSH1 0x20 ADD SWAP1 DUP2 MSTORE PUSH1 0x20 ADD PUSH0 KECCAK256 SWAP1 DUP2 PUSH2 0x1D44 SWAP2 SWAP1 PUSH2 0x33CE JUMP JUMPDEST POP PUSH32 0xF8E1A15ABA9398E019F0B49DF1A4FDE98EE17AE345CB5F6B5E2C27F5033E8CE7 DUP3 PUSH1 0x40 MLOAD PUSH2 0x1D74 SWAP2 SWAP1 PUSH2 0x2571 JUMP JUMPDEST PUSH1 0x40 MLOAD DUP1 SWAP2 SUB SWAP1 LOG1 POP POP JUMP JUMPDEST PUSH0 PUSH32 0x1FFC9A700000000000000000000000000000000000000000000000000000000 PUSH28 0xFFFFFFFFFFFFFFFFFFFFFFFFFFFFFFFFFFFFFFFFFFFFFFFFFFFFFFFF NOT AND DUP3 PUSH28 0xFFFFFFFFFFFFFFFFFFFFFFFFFFFFFFFFFFFFFFFFFFFFFFFFFFFFFFFF NOT AND EQ SWAP1 POP SWAP2 SWAP1 POP JUMP JUMPDEST PUSH0 PUSH1 0x2 PUSH0 DUP4 DUP2 MSTORE PUSH1 0x20 ADD SWAP1 DUP2 MSTORE PUSH1 0x20 ADD PUSH0 KECCAK256 PUSH0 SWAP1 SLOAD SWAP1 PUSH2 0x100 EXP SWAP1 DIV PUSH20 0xFFFFFFFFFFFFFFFFFFFFFFFFFFFFFFFFFFFFFFFF AND SWAP1 POP SWAP2 SWAP1 POP JUMP JUMPDEST DUP1 DUP1 PUSH2 0x1E5A JUMPI POP PUSH0 PUSH20 0xFFFFFFFFFFFFFFFFFFFFFFFFFFFFFFFFFFFFFFFF AND DUP3 PUSH20 0xFFFFFFFFFFFFFFFFFFFFFFFFFFFFFFFFFFFFFFFF AND EQ ISZERO JUMPDEST ISZERO PUSH2 0x1F8C JUMPI PUSH0 PUSH2 0x1E69 DUP5 PUSH2 0x154B JUMP JUMPDEST SWAP1 POP PUSH0 PUSH20 0xFFFFFFFFFFFFFFFFFFFFFFFFFFFFFFFFFFFFFFFF AND DUP4 PUSH20 0xFFFFFFFFFFFFFFFFFFFFFFFFFFFFFFFFFFFFFFFF AND EQ ISZERO DUP1 ISZERO PUSH2 0x1ED3 JUMPI POP DUP3 PUSH20 0xFFFFFFFFFFFFFFFFFFFFFFFFFFFFFFFFFFFFFFFF AND DUP2 PUSH20 0xFFFFFFFFFFFFFFFFFFFFFFFFFFFFFFFFFFFFFFFF AND EQ ISZERO JUMPDEST DUP1 ISZERO PUSH2 0x1EE6 JUMPI POP PUSH2 0x1EE4 DUP2 DUP5 PUSH2 0x11CC JUMP JUMPDEST ISZERO JUMPDEST ISZERO PUSH2 0x1F28 JUMPI DUP3 PUSH1 0x40 MLOAD PUSH32 0xA9FBF51F00000000000000000000000000000000000000000000000000000000 DUP2 MSTORE PUSH1 0x4 ADD PUSH2 0x1F1F SWAP2 SWAP1 PUSH2 0x26AE JUMP JUMPDEST PUSH1 0x40 MLOAD DUP1 SWAP2 SUB SWAP1 REVERT JUMPDEST DUP2 ISZERO PUSH2 0x1F8A JUMPI DUP4 DUP6 PUSH20 0xFFFFFFFFFFFFFFFFFFFFFFFFFFFFFFFFFFFFFFFF AND DUP3 PUSH20 0xFFFFFFFFFFFFFFFFFFFFFFFFFFFFFFFFFFFFFFFF AND PUSH32 0x8C5BE1E5EBEC7D5BD14F71427D1E84F3DD0314C0F7B2291E5B200AC8C7C3B925 PUSH1 0x40 MLOAD PUSH1 0x40 MLOAD DUP1 SWAP2 SUB SWAP1 LOG4 JUMPDEST POP JUMPDEST DUP4 PUSH1 0x4 PUSH0 DUP6 DUP2 MSTORE PUSH1 0x20 ADD SWAP1 DUP2 MSTORE PUSH1 0x20 ADD PUSH0 KECCAK256 PUSH0 PUSH2 0x100 EXP DUP2 SLOAD DUP2 PUSH20 0xFFFFFFFFFFFFFFFFFFFFFFFFFFFFFFFFFFFFFFFF MUL NOT AND SWAP1 DUP4 PUSH20 0xFFFFFFFFFFFFFFFFFFFFFFFFFFFFFFFFFFFFFFFF AND MUL OR SWAP1 SSTORE POP POP POP POP POP JUMP JUMPDEST PUSH2 0x1FEC DUP4 DUP4 DUP4 PUSH2 0x2191 JUMP JUMPDEST PUSH2 0x209F JUMPI PUSH0 PUSH20 0xFFFFFFFFFFFFFFFFFFFFFFFFFFFFFFFFFFFFFFFF AND DUP4 PUSH20 0xFFFFFFFFFFFFFFFFFFFFFFFFFFFFFFFFFFFFFFFF AND SUB PUSH2 0x2060 JUMPI DUP1 PUSH1 0x40 MLOAD PUSH32 0x7E27328900000000000000000000000000000000000000000000000000000000 DUP2 MSTORE PUSH1 0x4 ADD PUSH2 0x2057 SWAP2 SWAP1 PUSH2 0x2571 JUMP JUMPDEST PUSH1 0x40 MLOAD DUP1 SWAP2 SUB SWAP1 REVERT JUMPDEST DUP2 DUP2 PUSH1 0x40 MLOAD PUSH32 0x177E802F00000000000000000000000000000000000000000000000000000000 DUP2 MSTORE PUSH1 0x4 ADD PUSH2 0x2096 SWAP3 SWAP2 SWAP1 PUSH2 0x349D JUMP JUMPDEST PUSH1 0x40 MLOAD DUP1 SWAP2 SUB SWAP1 REVERT JUMPDEST POP POP POP JUMP JUMPDEST PUSH1 0x60 PUSH0 PUSH1 0x1 PUSH2 0x20B2 DUP5 PUSH2 0x2251 JUMP JUMPDEST ADD SWAP1 POP PUSH0 DUP2 PUSH8 0xFFFFFFFFFFFFFFFF DUP2 GT ISZERO PUSH2 0x20D0 JUMPI PUSH2 0x20CF PUSH2 0x2795 JUMP JUMPDEST JUMPDEST PUSH1 0x40 MLOAD SWAP1 DUP1 DUP3 MSTORE DUP1 PUSH1 0x1F ADD PUSH1 0x1F NOT AND PUSH1 0x20 ADD DUP3 ADD PUSH1 0x40 MSTORE DUP1 ISZERO PUSH2 0x2102 JUMPI DUP2 PUSH1 0x20 ADD PUSH1 0x1 DUP3 MUL DUP1 CALLDATASIZE DUP4 CALLDATACOPY DUP1 DUP3 ADD SWAP2 POP POP SWAP1 POP JUMPDEST POP SWAP1 POP PUSH0 DUP3 PUSH1 0x20 ADD DUP3 ADD SWAP1 POP JUMPDEST PUSH1 0x1 ISZERO PUSH2 0x2163 JUMPI DUP1 DUP1 PUSH1 0x1 SWAP1 SUB SWAP2 POP POP PUSH32 0x3031323334353637383961626364656600000000000000000000000000000000 PUSH1 0xA DUP7 MOD BYTE DUP2 MSTORE8 PUSH1 0xA DUP6 DUP2 PUSH2 0x2158 JUMPI PUSH2 0x2157 PUSH2 0x34C4 JUMP JUMPDEST JUMPDEST DIV SWAP5 POP PUSH0 DUP6 SUB PUSH2 0x210F JUMPI JUMPDEST DUP2 SWAP4 POP POP POP POP SWAP2 SWAP1 POP JUMP JUMPDEST PUSH2 0x2178 DUP4 DUP4 PUSH2 0x23A2 JUMP JUMPDEST PUSH2 0x218C PUSH2 0x2183 PUSH2 0x160A JUMP JUMPDEST PUSH0 DUP6 DUP6 DUP6 PUSH2 0x1AE1 JUMP JUMPDEST POP POP POP JUMP JUMPDEST PUSH0 PUSH0 PUSH20 0xFFFFFFFFFFFFFFFFFFFFFFFFFFFFFFFFFFFFFFFF AND DUP4 PUSH20 0xFFFFFFFFFFFFFFFFFFFFFFFFFFFFFFFFFFFFFFFF AND EQ ISZERO DUP1 ISZERO PUSH2 0x2248 JUMPI POP DUP3 PUSH20 0xFFFFFFFFFFFFFFFFFFFFFFFFFFFFFFFFFFFFFFFF AND DUP5 PUSH20 0xFFFFFFFFFFFFFFFFFFFFFFFFFFFFFFFFFFFFFFFF AND EQ DUP1 PUSH2 0x2209 JUMPI POP PUSH2 0x2208 DUP5 DUP5 PUSH2 0x11CC JUMP JUMPDEST JUMPDEST DUP1 PUSH2 0x2247 JUMPI POP DUP3 PUSH20 0xFFFFFFFFFFFFFFFFFFFFFFFFFFFFFFFFFFFFFFFF AND PUSH2 0x222F DUP4 PUSH2 0x15D1 JUMP JUMPDEST PUSH20 0xFFFFFFFFFFFFFFFFFFFFFFFFFFFFFFFFFFFFFFFF AND EQ JUMPDEST JUMPDEST SWAP1 POP SWAP4 SWAP3 POP POP POP JUMP JUMPDEST PUSH0 PUSH0 PUSH0 SWAP1 POP PUSH27 0x184F03E93FF9F4DAA797ED6E38ED64BF6A1F010000000000000000 DUP4 LT PUSH2 0x22AD JUMPI PUSH27 0x184F03E93FF9F4DAA797ED6E38ED64BF6A1F010000000000000000 DUP4 DUP2 PUSH2 0x22A3 JUMPI PUSH2 0x22A2 PUSH2 0x34C4 JUMP JUMPDEST JUMPDEST DIV SWAP3 POP PUSH1 0x40 DUP2 ADD SWAP1 POP JUMPDEST PUSH14 0x4EE2D6D415B85ACEF8100000000 DUP4 LT PUSH2 0x22EA JUMPI PUSH14 0x4EE2D6D415B85ACEF8100000000 DUP4 DUP2 PUSH2 0x22E0 JUMPI PUSH2 0x22DF PUSH2 0x34C4 JUMP JUMPDEST JUMPDEST DIV SWAP3 POP PUSH1 0x20 DUP2 ADD SWAP1 POP JUMPDEST PUSH7 0x2386F26FC10000 DUP4 LT PUSH2 0x2319 JUMPI PUSH7 0x2386F26FC10000 DUP4 DUP2 PUSH2 0x230F JUMPI PUSH2 0x230E PUSH2 0x34C4 JUMP JUMPDEST JUMPDEST DIV SWAP3 POP PUSH1 0x10 DUP2 ADD SWAP1 POP JUMPDEST PUSH4 0x5F5E100 DUP4 LT PUSH2 0x2342 JUMPI PUSH4 0x5F5E100 DUP4 DUP2 PUSH2 0x2338 JUMPI PUSH2 0x2337 PUSH2 0x34C4 JUMP JUMPDEST JUMPDEST DIV SWAP3 POP PUSH1 0x8 DUP2 ADD SWAP1 POP JUMPDEST PUSH2 0x2710 DUP4 LT PUSH2 0x2367 JUMPI PUSH2 0x2710 DUP4 DUP2 PUSH2 0x235D JUMPI PUSH2 0x235C PUSH2 0x34C4 JUMP JUMPDEST JUMPDEST DIV SWAP3 POP PUSH1 0x4 DUP2 ADD SWAP1 POP JUMPDEST PUSH1 0x64 DUP4 LT PUSH2 0x238A JUMPI PUSH1 0x64 DUP4 DUP2 PUSH2 0x2380 JUMPI PUSH2 0x237F PUSH2 0x34C4 JUMP JUMPDEST JUMPDEST DIV SWAP3 POP PUSH1 0x2 DUP2 ADD SWAP1 POP JUMPDEST PUSH1 0xA DUP4 LT PUSH2 0x2399 JUMPI PUSH1 0x1 DUP2 ADD SWAP1 POP JUMPDEST DUP1 SWAP2 POP POP SWAP2 SWAP1 POP JUMP JUMPDEST PUSH0 PUSH20 0xFFFFFFFFFFFFFFFFFFFFFFFFFFFFFFFFFFFFFFFF AND DUP3 PUSH20 0xFFFFFFFFFFFFFFFFFFFFFFFFFFFFFFFFFFFFFFFF AND SUB PUSH2 0x2412 JUMPI PUSH0 PUSH1 0x40 MLOAD PUSH32 0x64A0AE9200000000000000000000000000000000000000000000000000000000 DUP2 MSTORE PUSH1 0x4 ADD PUSH2 0x2409 SWAP2 SWAP1 PUSH2 0x26AE JUMP JUMPDEST PUSH1 0x40 MLOAD DUP1 SWAP2 SUB SWAP1 REVERT JUMPDEST PUSH0 PUSH2 0x241E DUP4 DUP4 PUSH0 PUSH2 0x1623 JUMP JUMPDEST SWAP1 POP PUSH0 PUSH20 0xFFFFFFFFFFFFFFFFFFFFFFFFFFFFFFFFFFFFFFFF AND DUP2 PUSH20 0xFFFFFFFFFFFFFFFFFFFFFFFFFFFFFFFFFFFFFFFF AND EQ PUSH2 0x2490 JUMPI PUSH0 PUSH1 0x40 MLOAD PUSH32 0x73C6AC6E00000000000000000000000000000000000000000000000000000000 DUP2 MSTORE PUSH1 0x4 ADD PUSH2 0x2487 SWAP2 SWAP1 PUSH2 0x26AE JUMP JUMPDEST PUSH1 0x40 MLOAD DUP1 SWAP2 SUB SWAP1 REVERT JUMPDEST POP POP POP JUMP JUMPDEST PUSH0 PUSH1 0x40 MLOAD SWAP1 POP SWAP1 JUMP JUMPDEST PUSH0 PUSH0 REVERT JUMPDEST PUSH0 PUSH0 REVERT JUMPDEST PUSH0 PUSH32 0xFFFFFFFF00000000000000000000000000000000000000000000000000000000 DUP3 AND SWAP1 POP SWAP2 SWAP1 POP JUMP JUMPDEST PUSH2 0x24DA DUP2 PUSH2 0x24A6 JUMP JUMPDEST DUP2 EQ PUSH2 0x24E4 JUMPI PUSH0 PUSH0 REVERT JUMPDEST POP JUMP JUMPDEST PUSH0 DUP2 CALLDATALOAD SWAP1 POP PUSH2 0x24F5 DUP2 PUSH2 0x24D1 JUMP JUMPDEST SWAP3 SWAP2 POP POP JUMP JUMPDEST PUSH0 PUSH1 0x20 DUP3 DUP5 SUB SLT ISZERO PUSH2 0x2510 JUMPI PUSH2 0x250F PUSH2 0x249E JUMP JUMPDEST JUMPDEST PUSH0 PUSH2 0x251D DUP5 DUP3 DUP6 ADD PUSH2 0x24E7 JUMP JUMPDEST SWAP2 POP POP SWAP3 SWAP2 POP POP JUMP JUMPDEST PUSH0 DUP2 ISZERO ISZERO SWAP1 POP SWAP2 SWAP1 POP JUMP JUMPDEST PUSH2 0x253A DUP2 PUSH2 0x2526 JUMP JUMPDEST DUP3 MSTORE POP POP JUMP JUMPDEST PUSH0 PUSH1 0x20 DUP3 ADD SWAP1 POP PUSH2 0x2553 PUSH0 DUP4 ADD DUP5 PUSH2 0x2531 JUMP JUMPDEST SWAP3 SWAP2 POP POP JUMP JUMPDEST PUSH0 DUP2 SWAP1 POP SWAP2 SWAP1 POP JUMP JUMPDEST PUSH2 0x256B DUP2 PUSH2 0x2559 JUMP JUMPDEST DUP3 MSTORE POP POP JUMP JUMPDEST PUSH0 PUSH1 0x20 DUP3 ADD SWAP1 POP PUSH2 0x2584 PUSH0 DUP4 ADD DUP5 PUSH2 0x2562 JUMP JUMPDEST SWAP3 SWAP2 POP POP JUMP JUMPDEST PUSH0 DUP2 MLOAD SWAP1 POP SWAP2 SWAP1 POP JUMP JUMPDEST PUSH0 DUP3 DUP3 MSTORE PUSH1 0x20 DUP3 ADD SWAP1 POP SWAP3 SWAP2 POP POP JUMP JUMPDEST DUP3 DUP2 DUP4 MCOPY PUSH0 DUP4 DUP4 ADD MSTORE POP POP POP JUMP JUMPDEST PUSH0 PUSH1 0x1F NOT PUSH1 0x1F DUP4 ADD AND SWAP1 POP SWAP2 SWAP1 POP JUMP JUMPDEST PUSH0 PUSH2 0x25CC DUP3 PUSH2 0x258A JUMP JUMPDEST PUSH2 0x25D6 DUP2 DUP6 PUSH2 0x2594 JUMP JUMPDEST SWAP4 POP PUSH2 0x25E6 DUP2 DUP6 PUSH1 0x20 DUP7 ADD PUSH2 0x25A4 JUMP JUMPDEST PUSH2 0x25EF DUP2 PUSH2 0x25B2 JUMP JUMPDEST DUP5 ADD SWAP2 POP POP SWAP3 SWAP2 POP POP JUMP JUMPDEST PUSH0 PUSH1 0x20 DUP3 ADD SWAP1 POP DUP2 DUP2 SUB PUSH0 DUP4 ADD MSTORE PUSH2 0x2612 DUP2 DUP5 PUSH2 0x25C2 JUMP JUMPDEST SWAP1 POP SWAP3 SWAP2 POP POP JUMP JUMPDEST PUSH2 0x2623 DUP2 PUSH2 0x2559 JUMP JUMPDEST DUP2 EQ PUSH2 0x262D JUMPI PUSH0 PUSH0 REVERT JUMPDEST POP JUMP JUMPDEST PUSH0 DUP2 CALLDATALOAD SWAP1 POP PUSH2 0x263E DUP2 PUSH2 0x261A JUMP JUMPDEST SWAP3 SWAP2 POP POP JUMP JUMPDEST PUSH0 PUSH1 0x20 DUP3 DUP5 SUB SLT ISZERO PUSH2 0x2659 JUMPI PUSH2 0x2658 PUSH2 0x249E JUMP JUMPDEST JUMPDEST PUSH0 PUSH2 0x2666 DUP5 DUP3 DUP6 ADD PUSH2 0x2630 JUMP JUMPDEST SWAP2 POP POP SWAP3 SWAP2 POP POP JUMP JUMPDEST PUSH0 PUSH20 0xFFFFFFFFFFFFFFFFFFFFFFFFFFFFFFFFFFFFFFFF DUP3 AND SWAP1 POP SWAP2 SWAP1 POP JUMP JUMPDEST PUSH0 PUSH2 0x2698 DUP3 PUSH2 0x266F JUMP JUMPDEST SWAP1 POP SWAP2 SWAP1 POP JUMP JUMPDEST PUSH2 0x26A8 DUP2 PUSH2 0x268E JUMP JUMPDEST DUP3 MSTORE POP POP JUMP JUMPDEST PUSH0 PUSH1 0x20 DUP3 ADD SWAP1 POP PUSH2 0x26C1 PUSH0 DUP4 ADD DUP5 PUSH2 0x269F JUMP JUMPDEST SWAP3 SWAP2 POP POP JUMP JUMPDEST PUSH2 0x26D0 DUP2 PUSH2 0x268E JUMP JUMPDEST DUP2 EQ PUSH2 0x26DA JUMPI PUSH0 PUSH0 REVERT JUMPDEST POP JUMP JUMPDEST PUSH0 DUP2 CALLDATALOAD SWAP1 POP PUSH2 0x26EB DUP2 PUSH2 0x26C7 JUMP JUMPDEST SWAP3 SWAP2 POP POP JUMP JUMPDEST PUSH0 PUSH0 PUSH1 0x40 DUP4 DUP6 SUB SLT ISZERO PUSH2 0x2707 JUMPI PUSH2 0x2706 PUSH2 0x249E JUMP JUMPDEST JUMPDEST PUSH0 PUSH2 0x2714 DUP6 DUP3 DUP7 ADD PUSH2 0x26DD JUMP JUMPDEST SWAP3 POP POP PUSH1 0x20 PUSH2 0x2725 DUP6 DUP3 DUP7 ADD PUSH2 0x2630 JUMP JUMPDEST SWAP2 POP POP SWAP3 POP SWAP3 SWAP1 POP JUMP JUMPDEST PUSH0 DUP2 SWAP1 POP SWAP2 SWAP1 POP JUMP JUMPDEST PUSH2 0x2741 DUP2 PUSH2 0x272F JUMP JUMPDEST DUP2 EQ PUSH2 0x274B JUMPI PUSH0 PUSH0 REVERT JUMPDEST POP JUMP JUMPDEST PUSH0 DUP2 CALLDATALOAD SWAP1 POP PUSH2 0x275C DUP2 PUSH2 0x2738 JUMP JUMPDEST SWAP3 SWAP2 POP POP JUMP JUMPDEST PUSH0 PUSH1 0x20 DUP3 DUP5 SUB SLT ISZERO PUSH2 0x2777 JUMPI PUSH2 0x2776 PUSH2 0x249E JUMP JUMPDEST JUMPDEST PUSH0 PUSH2 0x2784 DUP5 DUP3 DUP6 ADD PUSH2 0x274E JUMP JUMPDEST SWAP2 POP POP SWAP3 SWAP2 POP POP JUMP JUMPDEST PUSH0 PUSH0 REVERT JUMPDEST PUSH0 PUSH0 REVERT JUMPDEST PUSH32 0x4E487B7100000000000000000000000000000000000000000000000000000000 PUSH0 MSTORE PUSH1 0x41 PUSH1 0x4 MSTORE PUSH1 0x24 PUSH0 REVERT JUMPDEST PUSH2 0x27CB DUP3 PUSH2 0x25B2 JUMP JUMPDEST DUP2 ADD DUP2 DUP2 LT PUSH8 0xFFFFFFFFFFFFFFFF DUP3 GT OR ISZERO PUSH2 0x27EA JUMPI PUSH2 0x27E9 PUSH2 0x2795 JUMP JUMPDEST JUMPDEST DUP1 PUSH1 0x40 MSTORE POP POP POP JUMP JUMPDEST PUSH0 PUSH2 0x27FC PUSH2 0x2495 JUMP JUMPDEST SWAP1 POP PUSH2 0x2808 DUP3 DUP3 PUSH2 0x27C2 JUMP JUMPDEST SWAP2 SWAP1 POP JUMP JUMPDEST PUSH0 PUSH8 0xFFFFFFFFFFFFFFFF DUP3 GT ISZERO PUSH2 0x2827 JUMPI PUSH2 0x2826 PUSH2 0x2795 JUMP JUMPDEST JUMPDEST PUSH2 0x2830 DUP3 PUSH2 0x25B2 JUMP JUMPDEST SWAP1 POP PUSH1 0x20 DUP2 ADD SWAP1 POP SWAP2 SWAP1 POP JUMP JUMPDEST DUP3 DUP2 DUP4 CALLDATACOPY PUSH0 DUP4 DUP4 ADD MSTORE POP POP POP JUMP JUMPDEST PUSH0 PUSH2 0x285D PUSH2 0x2858 DUP5 PUSH2 0x280D JUMP JUMPDEST PUSH2 0x27F3 JUMP JUMPDEST SWAP1 POP DUP3 DUP2 MSTORE PUSH1 0x20 DUP2 ADD DUP5 DUP5 DUP5 ADD GT ISZERO PUSH2 0x2879 JUMPI PUSH2 0x2878 PUSH2 0x2791 JUMP JUMPDEST JUMPDEST PUSH2 0x2884 DUP5 DUP3 DUP6 PUSH2 0x283D JUMP JUMPDEST POP SWAP4 SWAP3 POP POP POP JUMP JUMPDEST PUSH0 DUP3 PUSH1 0x1F DUP4 ADD SLT PUSH2 0x28A0 JUMPI PUSH2 0x289F PUSH2 0x278D JUMP JUMPDEST JUMPDEST DUP2 CALLDATALOAD PUSH2 0x28B0 DUP5 DUP3 PUSH1 0x20 DUP7 ADD PUSH2 0x284B JUMP JUMPDEST SWAP2 POP POP SWAP3 SWAP2 POP POP JUMP JUMPDEST PUSH0 PUSH0 PUSH1 0x40 DUP4 DUP6 SUB SLT ISZERO PUSH2 0x28CF JUMPI PUSH2 0x28CE PUSH2 0x249E JUMP JUMPDEST JUMPDEST PUSH0 PUSH2 0x28DC DUP6 DUP3 DUP7 ADD PUSH2 0x2630 JUMP JUMPDEST SWAP3 POP POP PUSH1 0x20 DUP4 ADD CALLDATALOAD PUSH8 0xFFFFFFFFFFFFFFFF DUP2 GT ISZERO PUSH2 0x28FD JUMPI PUSH2 0x28FC PUSH2 0x24A2 JUMP JUMPDEST JUMPDEST PUSH2 0x2909 DUP6 DUP3 DUP7 ADD PUSH2 0x288C JUMP JUMPDEST SWAP2 POP POP SWAP3 POP SWAP3 SWAP1 POP JUMP JUMPDEST PUSH0 PUSH0 PUSH0 PUSH1 0x60 DUP5 DUP7 SUB SLT ISZERO PUSH2 0x292A JUMPI PUSH2 0x2929 PUSH2 0x249E JUMP JUMPDEST JUMPDEST PUSH0 PUSH2 0x2937 DUP7 DUP3 DUP8 ADD PUSH2 0x26DD JUMP JUMPDEST SWAP4 POP POP PUSH1 0x20 PUSH2 0x2948 DUP7 DUP3 DUP8 ADD PUSH2 0x26DD JUMP JUMPDEST SWAP3 POP POP PUSH1 0x40 PUSH2 0x2959 DUP7 DUP3 DUP8 ADD PUSH2 0x2630 JUMP JUMPDEST SWAP2 POP POP SWAP3 POP SWAP3 POP SWAP3 JUMP JUMPDEST PUSH0 PUSH1 0x20 DUP3 DUP5 SUB SLT ISZERO PUSH2 0x2978 JUMPI PUSH2 0x2977 PUSH2 0x249E JUMP JUMPDEST JUMPDEST PUSH0 PUSH2 0x2985 DUP5 DUP3 DUP6 ADD PUSH2 0x26DD JUMP JUMPDEST SWAP2 POP POP SWAP3 SWAP2 POP POP JUMP JUMPDEST PUSH2 0x2997 DUP2 PUSH2 0x272F JUMP JUMPDEST DUP3 MSTORE POP POP JUMP JUMPDEST PUSH0 PUSH1 0x60 DUP3 ADD SWAP1 POP PUSH2 0x29B0 PUSH0 DUP4 ADD DUP7 PUSH2 0x298E JUMP JUMPDEST PUSH2 0x29BD PUSH1 0x20 DUP4 ADD DUP6 PUSH2 0x2562 JUMP JUMPDEST PUSH2 0x29CA PUSH1 0x40 DUP4 ADD DUP5 PUSH2 0x2531 JUMP JUMPDEST SWAP5 SWAP4 POP POP POP POP JUMP JUMPDEST PUSH32 0x4E487B7100000000000000000000000000000000000000000000000000000000 PUSH0 MSTORE PUSH1 0x21 PUSH1 0x4 MSTORE PUSH1 0x24 PUSH0 REVERT JUMPDEST PUSH1 0x4 DUP2 LT PUSH2 0x2A10 JUMPI PUSH2 0x2A0F PUSH2 0x29D2 JUMP JUMPDEST JUMPDEST POP JUMP JUMPDEST PUSH0 DUP2 SWAP1 POP PUSH2 0x2A20 DUP3 PUSH2 0x29FF JUMP JUMPDEST SWAP2 SWAP1 POP JUMP JUMPDEST PUSH0 PUSH2 0x2A2F DUP3 PUSH2 0x2A13 JUMP JUMPDEST SWAP1 POP SWAP2 SWAP1 POP JUMP JUMPDEST PUSH2 0x2A3F DUP2 PUSH2 0x2A25 JUMP JUMPDEST DUP3 MSTORE POP POP JUMP JUMPDEST PUSH0 PUSH1 0x20 DUP3 ADD SWAP1 POP PUSH2 0x2A58 PUSH0 DUP4 ADD DUP5 PUSH2 0x2A36 JUMP JUMPDEST SWAP3 SWAP2 POP POP JUMP JUMPDEST PUSH2 0x2A67 DUP2 PUSH2 0x2526 JUMP JUMPDEST DUP2 EQ PUSH2 0x2A71 JUMPI PUSH0 PUSH0 REVERT JUMPDEST POP JUMP JUMPDEST PUSH0 DUP2 CALLDATALOAD SWAP1 POP PUSH2 0x2A82 DUP2 PUSH2 0x2A5E JUMP JUMPDEST SWAP3 SWAP2 POP POP JUMP JUMPDEST PUSH0 PUSH0 PUSH1 0x40 DUP4 DUP6 SUB SLT ISZERO PUSH2 0x2A9E JUMPI PUSH2 0x2A9D PUSH2 0x249E JUMP JUMPDEST JUMPDEST PUSH0 PUSH2 0x2AAB DUP6 DUP3 DUP7 ADD PUSH2 0x26DD JUMP JUMPDEST SWAP3 POP POP PUSH1 0x20 PUSH2 0x2ABC DUP6 DUP3 DUP7 ADD PUSH2 0x2A74 JUMP JUMPDEST SWAP2 POP POP SWAP3 POP SWAP3 SWAP1 POP JUMP JUMPDEST PUSH0 PUSH8 0xFFFFFFFFFFFFFFFF DUP3 GT ISZERO PUSH2 0x2AE0 JUMPI PUSH2 0x2ADF PUSH2 0x2795 JUMP JUMPDEST JUMPDEST PUSH2 0x2AE9 DUP3 PUSH2 0x25B2 JUMP JUMPDEST SWAP1 POP PUSH1 0x20 DUP2 ADD SWAP1 POP SWAP2 SWAP1 POP JUMP JUMPDEST PUSH0 PUSH2 0x2B08 PUSH2 0x2B03 DUP5 PUSH2 0x2AC6 JUMP JUMPDEST PUSH2 0x27F3 JUMP JUMPDEST SWAP1 POP DUP3 DUP2 MSTORE PUSH1 0x20 DUP2 ADD DUP5 DUP5 DUP5 ADD GT ISZERO PUSH2 0x2B24 JUMPI PUSH2 0x2B23 PUSH2 0x2791 JUMP JUMPDEST JUMPDEST PUSH2 0x2B2F DUP5 DUP3 DUP6 PUSH2 0x283D JUMP JUMPDEST POP SWAP4 SWAP3 POP POP POP JUMP JUMPDEST PUSH0 DUP3 PUSH1 0x1F DUP4 ADD SLT PUSH2 0x2B4B JUMPI PUSH2 0x2B4A PUSH2 0x278D JUMP JUMPDEST JUMPDEST DUP2 CALLDATALOAD PUSH2 0x2B5B DUP5 DUP3 PUSH1 0x20 DUP7 ADD PUSH2 0x2AF6 JUMP JUMPDEST SWAP2 POP POP SWAP3 SWAP2 POP POP JUMP JUMPDEST PUSH0 PUSH0 PUSH0 PUSH0 PUSH1 0x80 DUP6 DUP8 SUB SLT ISZERO PUSH2 0x2B7C JUMPI PUSH2 0x2B7B PUSH2 0x249E JUMP JUMPDEST JUMPDEST PUSH0 PUSH2 0x2B89 DUP8 DUP3 DUP9 ADD PUSH2 0x26DD JUMP JUMPDEST SWAP5 POP POP PUSH1 0x20 PUSH2 0x2B9A DUP8 DUP3 DUP9 ADD PUSH2 0x26DD JUMP JUMPDEST SWAP4 POP POP PUSH1 0x40 PUSH2 0x2BAB DUP8 DUP3 DUP9 ADD PUSH2 0x2630 JUMP JUMPDEST SWAP3 POP POP PUSH1 0x60 DUP6 ADD CALLDATALOAD PUSH8 0xFFFFFFFFFFFFFFFF DUP2 GT ISZERO PUSH2 0x2BCC JUMPI PUSH2 0x2BCB PUSH2 0x24A2 JUMP JUMPDEST JUMPDEST PUSH2 0x2BD8 DUP8 DUP3 DUP9 ADD PUSH2 0x2B37 JUMP JUMPDEST SWAP2 POP POP SWAP3 SWAP6 SWAP2 SWAP5 POP SWAP3 POP JUMP JUMPDEST PUSH0 PUSH0 PUSH1 0x40 DUP4 DUP6 SUB SLT ISZERO PUSH2 0x2BFA JUMPI PUSH2 0x2BF9 PUSH2 0x249E JUMP JUMPDEST JUMPDEST PUSH0 PUSH2 0x2C07 DUP6 DUP3 DUP7 ADD PUSH2 0x26DD JUMP JUMPDEST SWAP3 POP POP PUSH1 0x20 PUSH2 0x2C18 DUP6 DUP3 DUP7 ADD PUSH2 0x26DD JUMP JUMPDEST SWAP2 POP POP SWAP3 POP SWAP3 SWAP1 POP JUMP JUMPDEST PUSH0 PUSH1 0x20 DUP3 DUP5 SUB SLT ISZERO PUSH2 0x2C37 JUMPI PUSH2 0x2C36 PUSH2 0x249E JUMP JUMPDEST JUMPDEST PUSH0 DUP3 ADD CALLDATALOAD PUSH8 0xFFFFFFFFFFFFFFFF DUP2 GT ISZERO PUSH2 0x2C54 JUMPI PUSH2 0x2C53 PUSH2 0x24A2 JUMP JUMPDEST JUMPDEST PUSH2 0x2C60 DUP5 DUP3 DUP6 ADD PUSH2 0x288C JUMP JUMPDEST SWAP2 POP POP SWAP3 SWAP2 POP POP JUMP JUMPDEST PUSH32 0x4E487B7100000000000000000000000000000000000000000000000000000000 PUSH0 MSTORE PUSH1 0x22 PUSH1 0x4 MSTORE PUSH1 0x24 PUSH0 REVERT JUMPDEST PUSH0 PUSH1 0x2 DUP3 DIV SWAP1 POP PUSH1 0x1 DUP3 AND DUP1 PUSH2 0x2CAD JUMPI PUSH1 0x7F DUP3 AND SWAP2 POP JUMPDEST PUSH1 0x20 DUP3 LT DUP2 SUB PUSH2 0x2CC0 JUMPI PUSH2 0x2CBF PUSH2 0x2C69 JUMP JUMPDEST JUMPDEST POP SWAP2 SWAP1 POP JUMP JUMPDEST PUSH32 0x4E6F7420647572696E672062696464696E6720706572696F6400000000000000 PUSH0 DUP3 ADD MSTORE POP JUMP JUMPDEST PUSH0 PUSH2 0x2CFA PUSH1 0x19 DUP4 PUSH2 0x2594 JUMP JUMPDEST SWAP2 POP PUSH2 0x2D05 DUP3 PUSH2 0x2CC6 JUMP JUMPDEST PUSH1 0x20 DUP3 ADD SWAP1 POP SWAP2 SWAP1 POP JUMP JUMPDEST PUSH0 PUSH1 0x20 DUP3 ADD SWAP1 POP DUP2 DUP2 SUB PUSH0 DUP4 ADD MSTORE PUSH2 0x2D27 DUP2 PUSH2 0x2CEE JUMP JUMPDEST SWAP1 POP SWAP2 SWAP1 POP JUMP JUMPDEST PUSH32 0x42696420616C7265616479207375626D69747465640000000000000000000000 PUSH0 DUP3 ADD MSTORE POP JUMP JUMPDEST PUSH0 PUSH2 0x2D62 PUSH1 0x15 DUP4 PUSH2 0x2594 JUMP JUMPDEST SWAP2 POP PUSH2 0x2D6D DUP3 PUSH2 0x2D2E JUMP JUMPDEST PUSH1 0x20 DUP3 ADD SWAP1 POP SWAP2 SWAP1 POP JUMP JUMPDEST PUSH0 PUSH1 0x20 DUP3 ADD SWAP1 POP DUP2 DUP2 SUB PUSH0 DUP4 ADD MSTORE PUSH2 0x2D8F DUP2 PUSH2 0x2D56 JUMP JUMPDEST SWAP1 POP SWAP2 SWAP1 POP JUMP JUMPDEST PUSH32 0x496E73756666696369656E74206170706C69636174696F6E2066656500000000 PUSH0 DUP3 ADD MSTORE POP JUMP JUMPDEST PUSH0 PUSH2 0x2DCA PUSH1 0x1C DUP4 PUSH2 0x2594 JUMP JUMPDEST SWAP2 POP PUSH2 0x2DD5 DUP3 PUSH2 0x2D96 JUMP JUMPDEST PUSH1 0x20 DUP3 ADD SWAP1 POP SWAP2 SWAP1 POP JUMP JUMPDEST PUSH0 PUSH1 0x20 DUP3 ADD SWAP1 POP DUP2 DUP2 SUB PUSH0 DUP4 ADD MSTORE PUSH2 0x2DF7 DUP2 PUSH2 0x2DBE JUMP JUMPDEST SWAP1 POP SWAP2 SWAP1 POP JUMP JUMPDEST PUSH32 0x4E6F7420647572696E672072657665616C20706572696F640000000000000000 PUSH0 DUP3 ADD MSTORE POP JUMP JUMPDEST PUSH0 PUSH2 0x2E32 PUSH1 0x18 DUP4 PUSH2 0x2594 JUMP JUMPDEST SWAP2 POP PUSH2 0x2E3D DUP3 PUSH2 0x2DFE JUMP JUMPDEST PUSH1 0x20 DUP3 ADD SWAP1 POP SWAP2 SWAP1 POP JUMP JUMPDEST PUSH0 PUSH1 0x20 DUP3 ADD SWAP1 POP DUP2 DUP2 SUB PUSH0 DUP4 ADD MSTORE PUSH2 0x2E5F DUP2 PUSH2 0x2E26 JUMP JUMPDEST SWAP1 POP SWAP2 SWAP1 POP JUMP JUMPDEST PUSH32 0x4E6F2062696420666F756E640000000000000000000000000000000000000000 PUSH0 DUP3 ADD MSTORE POP JUMP JUMPDEST PUSH0 PUSH2 0x2E9A PUSH1 0xC DUP4 PUSH2 0x2594 JUMP JUMPDEST SWAP2 POP PUSH2 0x2EA5 DUP3 PUSH2 0x2E66 JUMP JUMPDEST PUSH1 0x20 DUP3 ADD SWAP1 POP SWAP2 SWAP1 POP JUMP JUMPDEST PUSH0 PUSH1 0x20 DUP3 ADD SWAP1 POP DUP2 DUP2 SUB PUSH0 DUP4 ADD MSTORE PUSH2 0x2EC7 DUP2 PUSH2 0x2E8E JUMP JUMPDEST SWAP1 POP SWAP2 SWAP1 POP JUMP JUMPDEST PUSH32 0x42696420616C72656164792072657665616C6564000000000000000000000000 PUSH0 DUP3 ADD MSTORE POP JUMP JUMPDEST PUSH0 PUSH2 0x2F02 PUSH1 0x14 DUP4 PUSH2 0x2594 JUMP JUMPDEST SWAP2 POP PUSH2 0x2F0D DUP3 PUSH2 0x2ECE JUMP JUMPDEST PUSH1 0x20 DUP3 ADD SWAP1 POP SWAP2 SWAP1 POP JUMP JUMPDEST PUSH0 PUSH1 0x20 DUP3 ADD SWAP1 POP DUP2 DUP2 SUB PUSH0 DUP4 ADD MSTORE PUSH2 0x2F2F DUP2 PUSH2 0x2EF6 JUMP JUMPDEST SWAP1 POP SWAP2 SWAP1 POP JUMP JUMPDEST PUSH0 DUP2 SWAP1 POP SWAP2 SWAP1 POP JUMP JUMPDEST PUSH2 0x2F50 PUSH2 0x2F4B DUP3 PUSH2 0x2559 JUMP JUMPDEST PUSH2 0x2F36 JUMP JUMPDEST DUP3 MSTORE POP POP JUMP JUMPDEST PUSH0 DUP2 SWAP1 POP SWAP3 SWAP2 POP POP JUMP JUMPDEST PUSH0 PUSH2 0x2F6A DUP3 PUSH2 0x258A JUMP JUMPDEST PUSH2 0x2F74 DUP2 DUP6 PUSH2 0x2F56 JUMP JUMPDEST SWAP4 POP PUSH2 0x2F84 DUP2 DUP6 PUSH1 0x20 DUP7 ADD PUSH2 0x25A4 JUMP JUMPDEST DUP1 DUP5 ADD SWAP2 POP POP SWAP3 SWAP2 POP POP JUMP JUMPDEST PUSH0 PUSH2 0x2F9B DUP3 DUP6 PUSH2 0x2F3F JUMP JUMPDEST PUSH1 0x20 DUP3 ADD SWAP2 POP PUSH2 0x2FAB DUP3 DUP5 PUSH2 0x2F60 JUMP JUMPDEST SWAP2 POP DUP2 SWAP1 POP SWAP4 SWAP3 POP POP POP JUMP JUMPDEST PUSH0 PUSH1 0x60 DUP3 ADD SWAP1 POP PUSH2 0x2FCA PUSH0 DUP4 ADD DUP7 PUSH2 0x269F JUMP JUMPDEST PUSH2 0x2FD7 PUSH1 0x20 DUP4 ADD DUP6 PUSH2 0x2562 JUMP JUMPDEST PUSH2 0x2FE4 PUSH1 0x40 DUP4 ADD DUP5 PUSH2 0x269F JUMP JUMPDEST SWAP5 SWAP4 POP POP POP POP JUMP JUMPDEST PUSH32 0x52657665616C207068617365206E6F7420656E64656420796574000000000000 PUSH0 DUP3 ADD MSTORE POP JUMP JUMPDEST PUSH0 PUSH2 0x3020 PUSH1 0x1A DUP4 PUSH2 0x2594 JUMP JUMPDEST SWAP2 POP PUSH2 0x302B DUP3 PUSH2 0x2FEC JUMP JUMPDEST PUSH1 0x20 DUP3 ADD SWAP1 POP SWAP2 SWAP1 POP JUMP JUMPDEST PUSH0 PUSH1 0x20 DUP3 ADD SWAP1 POP DUP2 DUP2 SUB PUSH0 DUP4 ADD MSTORE PUSH2 0x304D DUP2 PUSH2 0x3014 JUMP JUMPDEST SWAP1 POP SWAP2 SWAP1 POP JUMP JUMPDEST PUSH0 PUSH2 0x305F DUP3 DUP6 PUSH2 0x2F60 JUMP JUMPDEST SWAP2 POP PUSH2 0x306B DUP3 DUP5 PUSH2 0x2F60 JUMP JUMPDEST SWAP2 POP DUP2 SWAP1 POP SWAP4 SWAP3 POP POP POP JUMP JUMPDEST PUSH32 0x41756374696F6E20616C726561647920656E6465640000000000000000000000 PUSH0 DUP3 ADD MSTORE POP JUMP JUMPDEST PUSH0 PUSH2 0x30AB PUSH1 0x15 DUP4 PUSH2 0x2594 JUMP JUMPDEST SWAP2 POP PUSH2 0x30B6 DUP3 PUSH2 0x3077 JUMP JUMPDEST PUSH1 0x20 DUP3 ADD SWAP1 POP SWAP2 SWAP1 POP JUMP JUMPDEST PUSH0 PUSH1 0x20 DUP3 ADD SWAP1 POP DUP2 DUP2 SUB PUSH0 DUP4 ADD MSTORE PUSH2 0x30D8 DUP2 PUSH2 0x309F JUMP JUMPDEST SWAP1 POP SWAP2 SWAP1 POP JUMP JUMPDEST PUSH32 0x4E487B7100000000000000000000000000000000000000000000000000000000 PUSH0 MSTORE PUSH1 0x11 PUSH1 0x4 MSTORE PUSH1 0x24 PUSH0 REVERT JUMPDEST PUSH0 PUSH2 0x3116 DUP3 PUSH2 0x2559 JUMP JUMPDEST SWAP2 POP PUSH32 0xFFFFFFFFFFFFFFFFFFFFFFFFFFFFFFFFFFFFFFFFFFFFFFFFFFFFFFFFFFFFFFFF DUP3 SUB PUSH2 0x3148 JUMPI PUSH2 0x3147 PUSH2 0x30DF JUMP JUMPDEST JUMPDEST PUSH1 0x1 DUP3 ADD SWAP1 POP SWAP2 SWAP1 POP JUMP JUMPDEST PUSH0 DUP2 MLOAD SWAP1 POP SWAP2 SWAP1 POP JUMP JUMPDEST PUSH0 DUP3 DUP3 MSTORE PUSH1 0x20 DUP3 ADD SWAP1 POP SWAP3 SWAP2 POP POP JUMP JUMPDEST PUSH0 PUSH2 0x3177 DUP3 PUSH2 0x3153 JUMP JUMPDEST PUSH2 0x3181 DUP2 DUP6 PUSH2 0x315D JUMP JUMPDEST SWAP4 POP PUSH2 0x3191 DUP2 DUP6 PUSH1 0x20 DUP7 ADD PUSH2 0x25A4 JUMP JUMPDEST PUSH2 0x319A DUP2 PUSH2 0x25B2 JUMP JUMPDEST DUP5 ADD SWAP2 POP POP SWAP3 SWAP2 POP POP JUMP JUMPDEST PUSH0 PUSH1 0x80 DUP3 ADD SWAP1 POP PUSH2 0x31B8 PUSH0 DUP4 ADD DUP8 PUSH2 0x269F JUMP JUMPDEST PUSH2 0x31C5 PUSH1 0x20 DUP4 ADD DUP7 PUSH2 0x269F JUMP JUMPDEST PUSH2 0x31D2 PUSH1 0x40 DUP4 ADD DUP6 PUSH2 0x2562 JUMP JUMPDEST DUP2 DUP2 SUB PUSH1 0x60 DUP4 ADD MSTORE PUSH2 0x31E4 DUP2 DUP5 PUSH2 0x316D JUMP JUMPDEST SWAP1 POP SWAP6 SWAP5 POP POP POP POP POP JUMP JUMPDEST PUSH0 DUP2 MLOAD SWAP1 POP PUSH2 0x31FD DUP2 PUSH2 0x24D1 JUMP JUMPDEST SWAP3 SWAP2 POP POP JUMP JUMPDEST PUSH0 PUSH1 0x20 DUP3 DUP5 SUB SLT ISZERO PUSH2 0x3218 JUMPI PUSH2 0x3217 PUSH2 0x249E JUMP JUMPDEST JUMPDEST PUSH0 PUSH2 0x3225 DUP5 DUP3 DUP6 ADD PUSH2 0x31EF JUMP JUMPDEST SWAP2 POP POP SWAP3 SWAP2 POP POP JUMP JUMPDEST PUSH0 DUP2 SWAP1 POP DUP2 PUSH0 MSTORE PUSH1 0x20 PUSH0 KECCAK256 SWAP1 POP SWAP2 SWAP1 POP JUMP JUMPDEST PUSH0 PUSH1 0x20 PUSH1 0x1F DUP4 ADD DIV SWAP1 POP SWAP2 SWAP1 POP JUMP JUMPDEST PUSH0 DUP3 DUP3 SHL SWAP1 POP SWAP3 SWAP2 POP POP JUMP JUMPDEST PUSH0 PUSH1 0x8 DUP4 MUL PUSH2 0x328A PUSH32 0xFFFFFFFFFFFFFFFFFFFFFFFFFFFFFFFFFFFFFFFFFFFFFFFFFFFFFFFFFFFFFFFF DUP3 PUSH2 0x324F JUMP JUMPDEST PUSH2 0x3294 DUP7 DUP4 PUSH2 0x324F JUMP JUMPDEST SWAP6 POP DUP1 NOT DUP5 AND SWAP4 POP DUP1 DUP7 AND DUP5 OR SWAP3 POP POP POP SWAP4 SWAP3 POP POP POP JUMP JUMPDEST PUSH0 DUP2 SWAP1 POP SWAP2 SWAP1 POP JUMP JUMPDEST PUSH0 PUSH2 0x32CF PUSH2 0x32CA PUSH2 0x32C5 DUP5 PUSH2 0x2559 JUMP JUMPDEST PUSH2 0x32AC JUMP JUMPDEST PUSH2 0x2559 JUMP JUMPDEST SWAP1 POP SWAP2 SWAP1 POP JUMP JUMPDEST PUSH0 DUP2 SWAP1 POP SWAP2 SWAP1 POP JUMP JUMPDEST PUSH2 0x32E8 DUP4 PUSH2 0x32B5 JUMP JUMPDEST PUSH2 0x32FC PUSH2 0x32F4 DUP3 PUSH2 0x32D6 JUMP JUMPDEST DUP5 DUP5 SLOAD PUSH2 0x325B JUMP JUMPDEST DUP3 SSTORE POP POP POP POP JUMP JUMPDEST PUSH0 PUSH0 SWAP1 POP SWAP1 JUMP JUMPDEST PUSH2 0x3313 PUSH2 0x3304 JUMP JUMPDEST PUSH2 0x331E DUP2 DUP5 DUP5 PUSH2 0x32DF JUMP JUMPDEST POP POP POP JUMP JUMPDEST JUMPDEST DUP2 DUP2 LT ISZERO PUSH2 0x3341 JUMPI PUSH2 0x3336 PUSH0 DUP3 PUSH2 0x330B JUMP JUMPDEST PUSH1 0x1 DUP2 ADD SWAP1 POP PUSH2 0x3324 JUMP JUMPDEST POP POP JUMP JUMPDEST PUSH1 0x1F DUP3 GT ISZERO PUSH2 0x3386 JUMPI PUSH2 0x3357 DUP2 PUSH2 0x322E JUMP JUMPDEST PUSH2 0x3360 DUP5 PUSH2 0x3240 JUMP JUMPDEST DUP2 ADD PUSH1 0x20 DUP6 LT ISZERO PUSH2 0x336F JUMPI DUP2 SWAP1 POP JUMPDEST PUSH2 0x3383 PUSH2 0x337B DUP6 PUSH2 0x3240 JUMP JUMPDEST DUP4 ADD DUP3 PUSH2 0x3323 JUMP JUMPDEST POP POP JUMPDEST POP POP POP JUMP JUMPDEST PUSH0 DUP3 DUP3 SHR SWAP1 POP SWAP3 SWAP2 POP POP JUMP JUMPDEST PUSH0 PUSH2 0x33A6 PUSH0 NOT DUP5 PUSH1 0x8 MUL PUSH2 0x338B JUMP JUMPDEST NOT DUP1 DUP4 AND SWAP2 POP POP SWAP3 SWAP2 POP POP JUMP JUMPDEST PUSH0 PUSH2 0x33BE DUP4 DUP4 PUSH2 0x3397 JUMP JUMPDEST SWAP2 POP DUP3 PUSH1 0x2 MUL DUP3 OR SWAP1 POP SWAP3 SWAP2 POP POP JUMP JUMPDEST PUSH2 0x33D7 DUP3 PUSH2 0x258A JUMP JUMPDEST PUSH8 0xFFFFFFFFFFFFFFFF DUP2 GT ISZERO PUSH2 0x33F0 JUMPI PUSH2 0x33EF PUSH2 0x2795 JUMP JUMPDEST JUMPDEST PUSH2 0x33FA DUP3 SLOAD PUSH2 0x2C96 JUMP JUMPDEST PUSH2 0x3405 DUP3 DUP3 DUP6 PUSH2 0x3345 JUMP JUMPDEST PUSH0 PUSH1 0x20 SWAP1 POP PUSH1 0x1F DUP4 GT PUSH1 0x1 DUP2 EQ PUSH2 0x3436 JUMPI PUSH0 DUP5 ISZERO PUSH2 0x3424 JUMPI DUP3 DUP8 ADD MLOAD SWAP1 POP JUMPDEST PUSH2 0x342E DUP6 DUP3 PUSH2 0x33B3 JUMP JUMPDEST DUP7 SSTORE POP PUSH2 0x3495 JUMP JUMPDEST PUSH1 0x1F NOT DUP5 AND PUSH2 0x3444 DUP7 PUSH2 0x322E JUMP JUMPDEST PUSH0 JUMPDEST DUP3 DUP2 LT ISZERO PUSH2 0x346B JUMPI DUP5 DUP10 ADD MLOAD DUP3 SSTORE PUSH1 0x1 DUP3 ADD SWAP2 POP PUSH1 0x20 DUP6 ADD SWAP5 POP PUSH1 0x20 DUP2 ADD SWAP1 POP PUSH2 0x3446 JUMP JUMPDEST DUP7 DUP4 LT ISZERO PUSH2 0x3488 JUMPI DUP5 DUP10 ADD MLOAD PUSH2 0x3484 PUSH1 0x1F DUP10 AND DUP3 PUSH2 0x3397 JUMP JUMPDEST DUP4 SSTORE POP JUMPDEST PUSH1 0x1 PUSH1 0x2 DUP9 MUL ADD DUP9 SSTORE POP POP POP JUMPDEST POP POP POP POP POP POP JUMP JUMPDEST PUSH0 PUSH1 0x40 DUP3 ADD SWAP1 POP PUSH2 0x34B0 PUSH0 DUP4 ADD DUP6 PUSH2 0x269F JUMP JUMPDEST PUSH2 0x34BD PUSH1 0x20 DUP4 ADD DUP5 PUSH2 0x2562 JUMP JUMPDEST SWAP4 SWAP3 POP POP POP JUMP JUMPDEST PUSH32 0x4E487B7100000000000000000000000000000000000000000000000000000000 PUSH0 MSTORE PUSH1 0x12 PUSH1 0x4 MSTORE PUSH1 0x24 PUSH0 REVERT INVALID LOG2 PUSH5 0x6970667358 0x22 SLT KECCAK256 SLT CREATE DUP2 BALANCE 0x22 0xB4 RETURN EXP 0xDA SWAP11 0xD3 0xB3 SIGNEXTEND RJUMPI 0x94CA EOFCREATE 0x38 MSTORE8 CALLDATALOAD PUSH11 0xF7A5D68640E82BA572EAF6 PUSH5 0x736F6C6343 STOP ADDMOD 0x1E STOP CALLER "
		},
		"gasEstimates": {
			"creation": {
				"codeDepositCost": "2721400",
				"executionCost": "infinite",
				"totalCost": "infinite"
			},
			"external": {
				"applicationFee()": "2516",
				"approve(address,uint256)": "infinite",
				"auctionState()": "2599",
				"balanceOf(address)": "infinite",
				"biddingEnd()": "2537",
				"biddingStart()": "2494",
				"bids(address)": "7367",
				"finalizeAuction(string)": "infinite",
				"getApproved(uint256)": "infinite",
				"getCurrentState()": "infinite",
				"highestBid()": "2536",
				"isApprovedForAll(address,address)": "infinite",
				"name()": "infinite",
				"nftTokenId()": "2515",
				"owner()": "2582",
				"ownerOf(uint256)": "infinite",
				"renounceOwnership()": "infinite",
				"revealBid(uint256,string)": "infinite",
				"revealEnd()": "2470",
				"safeTransferFrom(address,address,uint256)": "infinite",
				"safeTransferFrom(address,address,uint256,bytes)": "infinite",
				"setApprovalForAll(address,bool)": "infinite",
				"submitBid(bytes32)": "77790",
				"supportsInterface(bytes4)": "904",
				"symbol()": "infinite",
				"tokenURI(uint256)": "infinite",
				"transferFrom(address,address,uint256)": "infinite",
				"transferOwnership(address)": "infinite",
				"winner()": "2603",
				"withdrawFees()": "infinite"
			}
		},
		"methodIdentifiers": {
			"applicationFee()": "04cbb47f",
			"approve(address,uint256)": "095ea7b3",
			"auctionState()": "7fb45099",
			"balanceOf(address)": "70a08231",
			"biddingEnd()": "423b217f",
			"biddingStart()": "022a6fae",
			"bids(address)": "62ea82db",
			"finalizeAuction(string)": "fc2a79bf",
			"getApproved(uint256)": "081812fc",
			"getCurrentState()": "378aa701",
			"highestBid()": "d57bde79",
			"isApprovedForAll(address,address)": "e985e9c5",
			"name()": "06fdde03",
			"nftTokenId()": "7e830574",
			"owner()": "8da5cb5b",
			"ownerOf(uint256)": "6352211e",
			"renounceOwnership()": "715018a6",
			"revealBid(uint256,string)": "2163b8c5",
			"revealEnd()": "a6e66477",
			"safeTransferFrom(address,address,uint256)": "42842e0e",
			"safeTransferFrom(address,address,uint256,bytes)": "b88d4fde",
			"setApprovalForAll(address,bool)": "a22cb465",
			"submitBid(bytes32)": "1b3fa800",
			"supportsInterface(bytes4)": "01ffc9a7",
			"symbol()": "95d89b41",
			"tokenURI(uint256)": "c87b56dd",
			"transferFrom(address,address,uint256)": "23b872dd",
			"transferOwnership(address)": "f2fde38b",
			"winner()": "dfbf53ae",
			"withdrawFees()": "476343ee"
		}
	},
	"abi": [
		{
			"inputs": [
				{
					"internalType": "uint256",
					"name": "_biddingTime",
					"type": "uint256"
				},
				{
					"internalType": "uint256",
					"name": "_revealTime",
					"type": "uint256"
				}
			],
			"stateMutability": "nonpayable",
			"type": "constructor"
		},
		{
			"inputs": [
				{
					"internalType": "address",
					"name": "sender",
					"type": "address"
				},
				{
					"internalType": "uint256",
					"name": "tokenId",
					"type": "uint256"
				},
				{
					"internalType": "address",
					"name": "owner",
					"type": "address"
				}
			],
			"name": "ERC721IncorrectOwner",
			"type": "error"
		},
		{
			"inputs": [
				{
					"internalType": "address",
					"name": "operator",
					"type": "address"
				},
				{
					"internalType": "uint256",
					"name": "tokenId",
					"type": "uint256"
				}
			],
			"name": "ERC721InsufficientApproval",
			"type": "error"
		},
		{
			"inputs": [
				{
					"internalType": "address",
					"name": "approver",
					"type": "address"
				}
			],
			"name": "ERC721InvalidApprover",
			"type": "error"
		},
		{
			"inputs": [
				{
					"internalType": "address",
					"name": "operator",
					"type": "address"
				}
			],
			"name": "ERC721InvalidOperator",
			"type": "error"
		},
		{
			"inputs": [
				{
					"internalType": "address",
					"name": "owner",
					"type": "address"
				}
			],
			"name": "ERC721InvalidOwner",
			"type": "error"
		},
		{
			"inputs": [
				{
					"internalType": "address",
					"name": "receiver",
					"type": "address"
				}
			],
			"name": "ERC721InvalidReceiver",
			"type": "error"
		},
		{
			"inputs": [
				{
					"internalType": "address",
					"name": "sender",
					"type": "address"
				}
			],
			"name": "ERC721InvalidSender",
			"type": "error"
		},
		{
			"inputs": [
				{
					"internalType": "uint256",
					"name": "tokenId",
					"type": "uint256"
				}
			],
			"name": "ERC721NonexistentToken",
			"type": "error"
		},
		{
			"inputs": [
				{
					"internalType": "address",
					"name": "owner",
					"type": "address"
				}
			],
			"name": "OwnableInvalidOwner",
			"type": "error"
		},
		{
			"inputs": [
				{
					"internalType": "address",
					"name": "account",
					"type": "address"
				}
			],
			"name": "OwnableUnauthorizedAccount",
			"type": "error"
		},
		{
			"anonymous": false,
			"inputs": [
				{
					"indexed": true,
					"internalType": "address",
					"name": "owner",
					"type": "address"
				},
				{
					"indexed": true,
					"internalType": "address",
					"name": "approved",
					"type": "address"
				},
				{
					"indexed": true,
					"internalType": "uint256",
					"name": "tokenId",
					"type": "uint256"
				}
			],
			"name": "Approval",
			"type": "event"
		},
		{
			"anonymous": false,
			"inputs": [
				{
					"indexed": true,
					"internalType": "address",
					"name": "owner",
					"type": "address"
				},
				{
					"indexed": true,
					"internalType": "address",
					"name": "operator",
					"type": "address"
				},
				{
					"indexed": false,
					"internalType": "bool",
					"name": "approved",
					"type": "bool"
				}
			],
			"name": "ApprovalForAll",
			"type": "event"
		},
		{
			"anonymous": false,
			"inputs": [
				{
					"indexed": false,
					"internalType": "uint256",
					"name": "_fromTokenId",
					"type": "uint256"
				},
				{
					"indexed": false,
					"internalType": "uint256",
					"name": "_toTokenId",
					"type": "uint256"
				}
			],
			"name": "BatchMetadataUpdate",
			"type": "event"
		},
		{
			"anonymous": false,
			"inputs": [
				{
					"indexed": false,
					"internalType": "uint256",
					"name": "_tokenId",
					"type": "uint256"
				}
			],
			"name": "MetadataUpdate",
			"type": "event"
		},
		{
			"anonymous": false,
			"inputs": [
				{
					"indexed": true,
					"internalType": "address",
					"name": "previousOwner",
					"type": "address"
				},
				{
					"indexed": true,
					"internalType": "address",
					"name": "newOwner",
					"type": "address"
				}
			],
			"name": "OwnershipTransferred",
			"type": "event"
		},
		{
			"anonymous": false,
			"inputs": [
				{
					"indexed": true,
					"internalType": "address",
					"name": "from",
					"type": "address"
				},
				{
					"indexed": true,
					"internalType": "address",
					"name": "to",
					"type": "address"
				},
				{
					"indexed": true,
					"internalType": "uint256",
					"name": "tokenId",
					"type": "uint256"
				}
			],
			"name": "Transfer",
			"type": "event"
		},
		{
			"inputs": [],
			"name": "applicationFee",
			"outputs": [
				{
					"internalType": "uint256",
					"name": "",
					"type": "uint256"
				}
			],
			"stateMutability": "view",
			"type": "function"
		},
		{
			"inputs": [
				{
					"internalType": "address",
					"name": "to",
					"type": "address"
				},
				{
					"internalType": "uint256",
					"name": "tokenId",
					"type": "uint256"
				}
			],
			"name": "approve",
			"outputs": [],
			"stateMutability": "nonpayable",
			"type": "function"
		},
		{
			"inputs": [],
			"name": "auctionState",
			"outputs": [
				{
					"internalType": "enum TimeBasedAuction.AuctionState",
					"name": "",
					"type": "uint8"
				}
			],
			"stateMutability": "view",
			"type": "function"
		},
		{
			"inputs": [
				{
					"internalType": "address",
					"name": "owner",
					"type": "address"
				}
			],
			"name": "balanceOf",
			"outputs": [
				{
					"internalType": "uint256",
					"name": "",
					"type": "uint256"
				}
			],
			"stateMutability": "view",
			"type": "function"
		},
		{
			"inputs": [],
			"name": "biddingEnd",
			"outputs": [
				{
					"internalType": "uint256",
					"name": "",
					"type": "uint256"
				}
			],
			"stateMutability": "view",
			"type": "function"
		},
		{
			"inputs": [],
			"name": "biddingStart",
			"outputs": [
				{
					"internalType": "uint256",
					"name": "",
					"type": "uint256"
				}
			],
			"stateMutability": "view",
			"type": "function"
		},
		{
			"inputs": [
				{
					"internalType": "address",
					"name": "",
					"type": "address"
				}
			],
			"name": "bids",
			"outputs": [
				{
					"internalType": "bytes32",
					"name": "blindedBid",
					"type": "bytes32"
				},
				{
					"internalType": "uint256",
					"name": "deposit",
					"type": "uint256"
				},
				{
					"internalType": "bool",
					"name": "revealed",
					"type": "bool"
				}
			],
			"stateMutability": "view",
			"type": "function"
		},
		{
			"inputs": [
				{
					"internalType": "string",
					"name": "_tokenURI",
					"type": "string"
				}
			],
			"name": "finalizeAuction",
			"outputs": [],
			"stateMutability": "nonpayable",
			"type": "function"
		},
		{
			"inputs": [
				{
					"internalType": "uint256",
					"name": "tokenId",
					"type": "uint256"
				}
			],
			"name": "getApproved",
			"outputs": [
				{
					"internalType": "address",
					"name": "",
					"type": "address"
				}
			],
			"stateMutability": "view",
			"type": "function"
		},
		{
			"inputs": [],
			"name": "getCurrentState",
			"outputs": [
				{
					"internalType": "string",
					"name": "",
					"type": "string"
				}
			],
			"stateMutability": "view",
			"type": "function"
		},
		{
			"inputs": [],
			"name": "highestBid",
			"outputs": [
				{
					"internalType": "uint256",
					"name": "",
					"type": "uint256"
				}
			],
			"stateMutability": "view",
			"type": "function"
		},
		{
			"inputs": [
				{
					"internalType": "address",
					"name": "owner",
					"type": "address"
				},
				{
					"internalType": "address",
					"name": "operator",
					"type": "address"
				}
			],
			"name": "isApprovedForAll",
			"outputs": [
				{
					"internalType": "bool",
					"name": "",
					"type": "bool"
				}
			],
			"stateMutability": "view",
			"type": "function"
		},
		{
			"inputs": [],
			"name": "name",
			"outputs": [
				{
					"internalType": "string",
					"name": "",
					"type": "string"
				}
			],
			"stateMutability": "view",
			"type": "function"
		},
		{
			"inputs": [],
			"name": "nftTokenId",
			"outputs": [
				{
					"internalType": "uint256",
					"name": "",
					"type": "uint256"
				}
			],
			"stateMutability": "view",
			"type": "function"
		},
		{
			"inputs": [],
			"name": "owner",
			"outputs": [
				{
					"internalType": "address",
					"name": "",
					"type": "address"
				}
			],
			"stateMutability": "view",
			"type": "function"
		},
		{
			"inputs": [
				{
					"internalType": "uint256",
					"name": "tokenId",
					"type": "uint256"
				}
			],
			"name": "ownerOf",
			"outputs": [
				{
					"internalType": "address",
					"name": "",
					"type": "address"
				}
			],
			"stateMutability": "view",
			"type": "function"
		},
		{
			"inputs": [],
			"name": "renounceOwnership",
			"outputs": [],
			"stateMutability": "nonpayable",
			"type": "function"
		},
		{
			"inputs": [
				{
					"internalType": "uint256",
					"name": "_amount",
					"type": "uint256"
				},
				{
					"internalType": "string",
					"name": "_secret",
					"type": "string"
				}
			],
			"name": "revealBid",
			"outputs": [],
			"stateMutability": "nonpayable",
			"type": "function"
		},
		{
			"inputs": [],
			"name": "revealEnd",
			"outputs": [
				{
					"internalType": "uint256",
					"name": "",
					"type": "uint256"
				}
			],
			"stateMutability": "view",
			"type": "function"
		},
		{
			"inputs": [
				{
					"internalType": "address",
					"name": "from",
					"type": "address"
				},
				{
					"internalType": "address",
					"name": "to",
					"type": "address"
				},
				{
					"internalType": "uint256",
					"name": "tokenId",
					"type": "uint256"
				}
			],
			"name": "safeTransferFrom",
			"outputs": [],
			"stateMutability": "nonpayable",
			"type": "function"
		},
		{
			"inputs": [
				{
					"internalType": "address",
					"name": "from",
					"type": "address"
				},
				{
					"internalType": "address",
					"name": "to",
					"type": "address"
				},
				{
					"internalType": "uint256",
					"name": "tokenId",
					"type": "uint256"
				},
				{
					"internalType": "bytes",
					"name": "data",
					"type": "bytes"
				}
			],
			"name": "safeTransferFrom",
			"outputs": [],
			"stateMutability": "nonpayable",
			"type": "function"
		},
		{
			"inputs": [
				{
					"internalType": "address",
					"name": "operator",
					"type": "address"
				},
				{
					"internalType": "bool",
					"name": "approved",
					"type": "bool"
				}
			],
			"name": "setApprovalForAll",
			"outputs": [],
			"stateMutability": "nonpayable",
			"type": "function"
		},
		{
			"inputs": [
				{
					"internalType": "bytes32",
					"name": "_blindedBid",
					"type": "bytes32"
				}
			],
			"name": "submitBid",
			"outputs": [],
			"stateMutability": "payable",
			"type": "function"
		},
		{
			"inputs": [
				{
					"internalType": "bytes4",
					"name": "interfaceId",
					"type": "bytes4"
				}
			],
			"name": "supportsInterface",
			"outputs": [
				{
					"internalType": "bool",
					"name": "",
					"type": "bool"
				}
			],
			"stateMutability": "view",
			"type": "function"
		},
		{
			"inputs": [],
			"name": "symbol",
			"outputs": [
				{
					"internalType": "string",
					"name": "",
					"type": "string"
				}
			],
			"stateMutability": "view",
			"type": "function"
		},
		{
			"inputs": [
				{
					"internalType": "uint256",
					"name": "tokenId",
					"type": "uint256"
				}
			],
			"name": "tokenURI",
			"outputs": [
				{
					"internalType": "string",
					"name": "",
					"type": "string"
				}
			],
			"stateMutability": "view",
			"type": "function"
		},
		{
			"inputs": [
				{
					"internalType": "address",
					"name": "from",
					"type": "address"
				},
				{
					"internalType": "address",
					"name": "to",
					"type": "address"
				},
				{
					"internalType": "uint256",
					"name": "tokenId",
					"type": "uint256"
				}
			],
			"name": "transferFrom",
			"outputs": [],
			"stateMutability": "nonpayable",
			"type": "function"
		},
		{
			"inputs": [
				{
					"internalType": "address",
					"name": "newOwner",
					"type": "address"
				}
			],
			"name": "transferOwnership",
			"outputs": [],
			"stateMutability": "nonpayable",
			"type": "function"
		},
		{
			"inputs": [],
			"name": "winner",
			"outputs": [
				{
					"internalType": "address",
					"name": "",
					"type": "address"
				}
			],
			"stateMutability": "view",
			"type": "function"
		},
		{
			"inputs": [],
			"name": "withdrawFees",
			"outputs": [],
			"stateMutability": "nonpayable",
			"type": "function"
		},
		{
			"stateMutability": "payable",
			"type": "receive"
		}
	]
}